{
  "_format": "hh-sol-artifact-1",
  "contractName": "BitredictComboPools",
  "sourceName": "contracts/BitredictComboPools.sol",
  "abi": [
    {
      "inputs": [
        {
          "internalType": "address",
          "name": "_bitrToken",
          "type": "address"
        },
        {
          "internalType": "address",
          "name": "_feeCollector",
          "type": "address"
        },
        {
          "internalType": "address",
          "name": "_poolCore",
          "type": "address"
        }
      ],
      "stateMutability": "nonpayable",
      "type": "constructor"
    },
    {
      "inputs": [
        {
          "internalType": "address",
          "name": "owner",
          "type": "address"
        }
      ],
      "name": "OwnableInvalidOwner",
      "type": "error"
    },
    {
      "inputs": [
        {
          "internalType": "address",
          "name": "account",
          "type": "address"
        }
      ],
      "name": "OwnableUnauthorizedAccount",
      "type": "error"
    },
    {
      "inputs": [],
      "name": "ReentrancyGuardReentrantCall",
      "type": "error"
    },
    {
      "anonymous": false,
      "inputs": [
        {
          "indexed": true,
          "internalType": "uint256",
          "name": "comboPoolId",
          "type": "uint256"
        },
        {
          "indexed": false,
          "internalType": "uint256",
          "name": "totalVolume",
          "type": "uint256"
        },
        {
          "indexed": false,
          "internalType": "uint256",
          "name": "participantCount",
          "type": "uint256"
        }
      ],
      "name": "ComboAnalyticsUpdated",
      "type": "event"
    },
    {
      "anonymous": false,
      "inputs": [
        {
          "indexed": true,
          "internalType": "uint256",
          "name": "comboPoolId",
          "type": "uint256"
        },
        {
          "indexed": true,
          "internalType": "address",
          "name": "bettor",
          "type": "address"
        },
        {
          "indexed": false,
          "internalType": "uint256",
          "name": "amount",
          "type": "uint256"
        }
      ],
      "name": "ComboBetPlaced",
      "type": "event"
    },
    {
      "anonymous": false,
      "inputs": [
        {
          "indexed": true,
          "internalType": "uint256",
          "name": "comboPoolId",
          "type": "uint256"
        },
        {
          "indexed": false,
          "internalType": "uint256",
          "name": "conditionIndex",
          "type": "uint256"
        },
        {
          "indexed": false,
          "internalType": "bytes32",
          "name": "actualOutcome",
          "type": "bytes32"
        },
        {
          "indexed": false,
          "internalType": "bool",
          "name": "successful",
          "type": "bool"
        }
      ],
      "name": "ComboConditionResolved",
      "type": "event"
    },
    {
      "anonymous": false,
      "inputs": [
        {
          "indexed": true,
          "internalType": "uint256",
          "name": "comboPoolId",
          "type": "uint256"
        },
        {
          "indexed": true,
          "internalType": "address",
          "name": "provider",
          "type": "address"
        },
        {
          "indexed": false,
          "internalType": "uint256",
          "name": "amount",
          "type": "uint256"
        }
      ],
      "name": "ComboLiquidityAdded",
      "type": "event"
    },
    {
      "anonymous": false,
      "inputs": [
        {
          "indexed": true,
          "internalType": "uint256",
          "name": "comboPoolId",
          "type": "uint256"
        },
        {
          "indexed": true,
          "internalType": "address",
          "name": "creator",
          "type": "address"
        },
        {
          "indexed": false,
          "internalType": "uint256",
          "name": "conditionCount",
          "type": "uint256"
        },
        {
          "indexed": false,
          "internalType": "uint16",
          "name": "totalOdds",
          "type": "uint16"
        },
        {
          "indexed": false,
          "internalType": "bytes32",
          "name": "category",
          "type": "bytes32"
        }
      ],
      "name": "ComboPoolCreated",
      "type": "event"
    },
    {
      "anonymous": false,
      "inputs": [
        {
          "indexed": true,
          "internalType": "uint256",
          "name": "comboPoolId",
          "type": "uint256"
        },
        {
          "indexed": false,
          "internalType": "uint256",
          "name": "score",
          "type": "uint256"
        }
      ],
      "name": "ComboPoolPerformanceUpdated",
      "type": "event"
    },
    {
      "anonymous": false,
      "inputs": [
        {
          "indexed": true,
          "internalType": "uint256",
          "name": "comboPoolId",
          "type": "uint256"
        },
        {
          "indexed": false,
          "internalType": "string",
          "name": "reason",
          "type": "string"
        }
      ],
      "name": "ComboPoolRefunded",
      "type": "event"
    },
    {
      "anonymous": false,
      "inputs": [
        {
          "indexed": true,
          "internalType": "uint256",
          "name": "comboPoolId",
          "type": "uint256"
        },
        {
          "indexed": false,
          "internalType": "bool",
          "name": "creatorSideWon",
          "type": "bool"
        },
        {
          "indexed": false,
          "internalType": "uint256",
          "name": "successfulConditions",
          "type": "uint256"
        },
        {
          "indexed": false,
          "internalType": "uint256",
          "name": "timestamp",
          "type": "uint256"
        }
      ],
      "name": "ComboPoolSettled",
      "type": "event"
    },
    {
      "anonymous": false,
      "inputs": [
        {
          "indexed": true,
          "internalType": "uint256",
          "name": "comboPoolId",
          "type": "uint256"
        },
        {
          "indexed": true,
          "internalType": "address",
          "name": "user",
          "type": "address"
        },
        {
          "indexed": false,
          "internalType": "uint256",
          "name": "amount",
          "type": "uint256"
        }
      ],
      "name": "ComboRewardClaimed",
      "type": "event"
    },
    {
      "anonymous": false,
      "inputs": [
        {
          "indexed": true,
          "internalType": "address",
          "name": "follower",
          "type": "address"
        },
        {
          "indexed": true,
          "internalType": "address",
          "name": "creator",
          "type": "address"
        }
      ],
      "name": "ComboUserFollowed",
      "type": "event"
    },
    {
      "anonymous": false,
      "inputs": [
        {
          "indexed": true,
          "internalType": "address",
          "name": "user",
          "type": "address"
        },
        {
          "indexed": false,
          "internalType": "uint256",
          "name": "winRate",
          "type": "uint256"
        },
        {
          "indexed": false,
          "internalType": "uint256",
          "name": "totalVolume",
          "type": "uint256"
        }
      ],
      "name": "ComboUserPerformanceUpdated",
      "type": "event"
    },
    {
      "anonymous": false,
      "inputs": [
        {
          "indexed": true,
          "internalType": "address",
          "name": "follower",
          "type": "address"
        },
        {
          "indexed": true,
          "internalType": "address",
          "name": "creator",
          "type": "address"
        }
      ],
      "name": "ComboUserUnfollowed",
      "type": "event"
    },
    {
      "anonymous": false,
      "inputs": [
        {
          "indexed": true,
          "internalType": "address",
          "name": "previousOwner",
          "type": "address"
        },
        {
          "indexed": true,
          "internalType": "address",
          "name": "newOwner",
          "type": "address"
        }
      ],
      "name": "OwnershipTransferred",
      "type": "event"
    },
    {
      "anonymous": false,
      "inputs": [
        {
          "indexed": true,
          "internalType": "address",
          "name": "user",
          "type": "address"
        },
        {
          "indexed": false,
          "internalType": "enum ReputationSystem.ReputationAction",
          "name": "action",
          "type": "uint8"
        },
        {
          "indexed": false,
          "internalType": "uint256",
          "name": "value",
          "type": "uint256"
        },
        {
          "indexed": true,
          "internalType": "bytes32",
          "name": "poolId",
          "type": "bytes32"
        },
        {
          "indexed": false,
          "internalType": "uint256",
          "name": "timestamp",
          "type": "uint256"
        }
      ],
      "name": "ReputationActionOccurred",
      "type": "event"
    },
    {
      "inputs": [],
      "name": "MAX_CONDITIONS",
      "outputs": [
        {
          "internalType": "uint256",
          "name": "",
          "type": "uint256"
        }
      ],
      "stateMutability": "view",
      "type": "function"
    },
    {
      "inputs": [],
      "name": "MAX_LP_PROVIDERS",
      "outputs": [
        {
          "internalType": "uint256",
          "name": "",
          "type": "uint256"
        }
      ],
      "stateMutability": "view",
      "type": "function"
    },
    {
      "inputs": [],
      "name": "MAX_PARTICIPANTS",
      "outputs": [
        {
          "internalType": "uint256",
          "name": "",
          "type": "uint256"
        }
      ],
      "stateMutability": "view",
      "type": "function"
    },
    {
      "inputs": [],
      "name": "MIN_CONDITIONS",
      "outputs": [
        {
          "internalType": "uint256",
          "name": "",
          "type": "uint256"
        }
      ],
      "stateMutability": "view",
      "type": "function"
    },
    {
      "inputs": [
        {
          "internalType": "uint256",
          "name": "comboPoolId",
          "type": "uint256"
        },
        {
          "internalType": "uint256",
          "name": "amount",
          "type": "uint256"
        }
      ],
      "name": "addComboLiquidity",
      "outputs": [],
      "stateMutability": "payable",
      "type": "function"
    },
    {
      "inputs": [],
      "name": "bettingGracePeriod",
      "outputs": [
        {
          "internalType": "uint256",
          "name": "",
          "type": "uint256"
        }
      ],
      "stateMutability": "view",
      "type": "function"
    },
    {
      "inputs": [],
      "name": "bitrToken",
      "outputs": [
        {
          "internalType": "contract IERC20",
          "name": "",
          "type": "address"
        }
      ],
      "stateMutability": "view",
      "type": "function"
    },
    {
      "inputs": [
        {
          "internalType": "uint256",
          "name": "comboPoolId",
          "type": "uint256"
        }
      ],
      "name": "claimCombo",
      "outputs": [],
      "stateMutability": "nonpayable",
      "type": "function"
    },
    {
      "inputs": [
        {
          "internalType": "uint256",
          "name": "",
          "type": "uint256"
        }
      ],
      "name": "comboAnalytics",
      "outputs": [
        {
          "internalType": "uint256",
          "name": "totalVolume",
          "type": "uint256"
        },
        {
          "internalType": "uint256",
          "name": "participantCount",
          "type": "uint256"
        },
        {
          "internalType": "uint256",
          "name": "averageBetSize",
          "type": "uint256"
        },
        {
          "internalType": "uint256",
          "name": "successRate",
          "type": "uint256"
        },
        {
          "internalType": "uint256",
          "name": "averageOdds",
          "type": "uint256"
        },
        {
          "internalType": "uint256",
          "name": "conditionSuccessRates",
          "type": "uint256"
        },
        {
          "internalType": "uint256",
          "name": "lastActivityTime",
          "type": "uint256"
        }
      ],
      "stateMutability": "view",
      "type": "function"
    },
    {
      "inputs": [
        {
          "internalType": "uint256",
          "name": "",
          "type": "uint256"
        },
        {
          "internalType": "address",
          "name": "",
          "type": "address"
        }
      ],
      "name": "comboBettorStakes",
      "outputs": [
        {
          "internalType": "uint256",
          "name": "",
          "type": "uint256"
        }
      ],
      "stateMutability": "view",
      "type": "function"
    },
    {
      "inputs": [
        {
          "internalType": "bytes32",
          "name": "",
          "type": "bytes32"
        }
      ],
      "name": "comboCategoryTrendScore",
      "outputs": [
        {
          "internalType": "uint256",
          "name": "",
          "type": "uint256"
        }
      ],
      "stateMutability": "view",
      "type": "function"
    },
    {
      "inputs": [
        {
          "internalType": "uint256",
          "name": "",
          "type": "uint256"
        },
        {
          "internalType": "address",
          "name": "",
          "type": "address"
        }
      ],
      "name": "comboClaimed",
      "outputs": [
        {
          "internalType": "bool",
          "name": "",
          "type": "bool"
        }
      ],
      "stateMutability": "view",
      "type": "function"
    },
    {
      "inputs": [
        {
          "internalType": "address",
          "name": "",
          "type": "address"
        }
      ],
      "name": "comboCreatorPerformanceScore",
      "outputs": [
        {
          "internalType": "uint256",
          "name": "",
          "type": "uint256"
        }
      ],
      "stateMutability": "view",
      "type": "function"
    },
    {
      "inputs": [
        {
          "internalType": "uint256",
          "name": "",
          "type": "uint256"
        },
        {
          "internalType": "address",
          "name": "",
          "type": "address"
        }
      ],
      "name": "comboLPStakes",
      "outputs": [
        {
          "internalType": "uint256",
          "name": "",
          "type": "uint256"
        }
      ],
      "stateMutability": "view",
      "type": "function"
    },
    {
      "inputs": [
        {
          "internalType": "uint256",
          "name": "",
          "type": "uint256"
        },
        {
          "internalType": "uint256",
          "name": "",
          "type": "uint256"
        }
      ],
      "name": "comboPoolBettors",
      "outputs": [
        {
          "internalType": "address",
          "name": "",
          "type": "address"
        }
      ],
      "stateMutability": "view",
      "type": "function"
    },
    {
      "inputs": [],
      "name": "comboPoolCount",
      "outputs": [
        {
          "internalType": "uint256",
          "name": "",
          "type": "uint256"
        }
      ],
      "stateMutability": "view",
      "type": "function"
    },
    {
      "inputs": [
        {
          "internalType": "uint256",
          "name": "comboPoolId",
          "type": "uint256"
        }
      ],
      "name": "comboPoolExists",
      "outputs": [
        {
          "internalType": "bool",
          "name": "",
          "type": "bool"
        }
      ],
      "stateMutability": "view",
      "type": "function"
    },
    {
      "inputs": [
        {
          "internalType": "uint256",
          "name": "",
          "type": "uint256"
        },
        {
          "internalType": "uint256",
          "name": "",
          "type": "uint256"
        }
      ],
      "name": "comboPoolLPs",
      "outputs": [
        {
          "internalType": "address",
          "name": "",
          "type": "address"
        }
      ],
      "stateMutability": "view",
      "type": "function"
    },
    {
      "inputs": [
        {
          "internalType": "uint256",
          "name": "",
          "type": "uint256"
        }
      ],
      "name": "comboPoolPerformanceScore",
      "outputs": [
        {
          "internalType": "uint256",
          "name": "",
          "type": "uint256"
        }
      ],
      "stateMutability": "view",
      "type": "function"
    },
    {
      "inputs": [
        {
          "internalType": "uint256",
          "name": "",
          "type": "uint256"
        }
      ],
      "name": "comboPools",
      "outputs": [
        {
          "internalType": "address",
          "name": "creator",
          "type": "address"
        },
        {
          "internalType": "uint256",
          "name": "creatorStake",
          "type": "uint256"
        },
        {
          "internalType": "uint256",
          "name": "totalCreatorSideStake",
          "type": "uint256"
        },
        {
          "internalType": "uint256",
          "name": "maxBettorStake",
          "type": "uint256"
        },
        {
          "internalType": "uint256",
          "name": "totalBettorStake",
          "type": "uint256"
        },
        {
          "internalType": "uint16",
          "name": "totalOdds",
          "type": "uint16"
        },
        {
          "internalType": "uint8",
          "name": "flags",
          "type": "uint8"
        },
        {
          "internalType": "uint8",
          "name": "conditionCount",
          "type": "uint8"
        },
        {
          "internalType": "uint256",
          "name": "eventStartTime",
          "type": "uint256"
        },
        {
          "internalType": "uint256",
          "name": "eventEndTime",
          "type": "uint256"
        },
        {
          "internalType": "uint256",
          "name": "bettingEndTime",
          "type": "uint256"
        },
        {
          "internalType": "uint256",
          "name": "resultTimestamp",
          "type": "uint256"
        },
        {
          "internalType": "bytes32",
          "name": "category",
          "type": "bytes32"
        },
        {
          "internalType": "uint256",
          "name": "maxBetPerUser",
          "type": "uint256"
        }
      ],
      "stateMutability": "view",
      "type": "function"
    },
    {
      "inputs": [],
      "name": "comboStats",
      "outputs": [
        {
          "internalType": "uint256",
          "name": "totalComboPools",
          "type": "uint256"
        },
        {
          "internalType": "uint256",
          "name": "totalComboVolume",
          "type": "uint256"
        },
        {
          "internalType": "uint256",
          "name": "averageConditions",
          "type": "uint256"
        },
        {
          "internalType": "uint256",
          "name": "mostPopularConditionCount",
          "type": "uint256"
        },
        {
          "internalType": "uint256",
          "name": "totalSuccessfulCombos",
          "type": "uint256"
        }
      ],
      "stateMutability": "view",
      "type": "function"
    },
    {
      "inputs": [
        {
          "components": [
            {
              "internalType": "bytes32",
              "name": "marketId",
              "type": "bytes32"
            },
            {
              "internalType": "bytes32",
              "name": "expectedOutcome",
              "type": "bytes32"
            },
            {
              "internalType": "bool",
              "name": "resolved",
              "type": "bool"
            },
            {
              "internalType": "bytes32",
              "name": "actualOutcome",
              "type": "bytes32"
            },
            {
              "internalType": "string",
              "name": "description",
              "type": "string"
            },
            {
              "internalType": "uint16",
              "name": "odds",
              "type": "uint16"
            }
          ],
          "internalType": "struct BitredictComboPools.OutcomeCondition[]",
          "name": "conditions",
          "type": "tuple[]"
        },
        {
          "internalType": "uint16",
          "name": "combinedOdds",
          "type": "uint16"
        },
        {
          "internalType": "uint256",
          "name": "creatorStake",
          "type": "uint256"
        },
        {
          "internalType": "uint256",
          "name": "earliestEventStart",
          "type": "uint256"
        },
        {
          "internalType": "uint256",
          "name": "latestEventEnd",
          "type": "uint256"
        },
        {
          "internalType": "bytes32",
          "name": "categoryHash",
          "type": "bytes32"
        },
        {
          "internalType": "uint256",
          "name": "maxBetPerUser",
          "type": "uint256"
        },
        {
          "internalType": "bool",
          "name": "useBitr",
          "type": "bool"
        }
      ],
      "name": "createComboPool",
      "outputs": [
        {
          "internalType": "uint256",
          "name": "",
          "type": "uint256"
        }
      ],
      "stateMutability": "payable",
      "type": "function"
    },
    {
      "inputs": [],
      "name": "creationFeeBITR",
      "outputs": [
        {
          "internalType": "uint256",
          "name": "",
          "type": "uint256"
        }
      ],
      "stateMutability": "view",
      "type": "function"
    },
    {
      "inputs": [],
      "name": "creationFeeSTT",
      "outputs": [
        {
          "internalType": "uint256",
          "name": "",
          "type": "uint256"
        }
      ],
      "stateMutability": "view",
      "type": "function"
    },
    {
      "inputs": [
        {
          "internalType": "address",
          "name": "stakingContract",
          "type": "address"
        }
      ],
      "name": "distributeFees",
      "outputs": [],
      "stateMutability": "nonpayable",
      "type": "function"
    },
    {
      "inputs": [],
      "name": "feeCollector",
      "outputs": [
        {
          "internalType": "address",
          "name": "",
          "type": "address"
        }
      ],
      "stateMutability": "view",
      "type": "function"
    },
    {
      "inputs": [
        {
          "internalType": "address",
          "name": "creator",
          "type": "address"
        }
      ],
      "name": "followComboCreator",
      "outputs": [],
      "stateMutability": "nonpayable",
      "type": "function"
    },
    {
      "inputs": [],
      "name": "getActiveCombopools",
      "outputs": [
        {
          "internalType": "uint256[]",
          "name": "",
          "type": "uint256[]"
        }
      ],
      "stateMutability": "view",
      "type": "function"
    },
    {
      "inputs": [
        {
          "internalType": "bytes32",
          "name": "categoryHash",
          "type": "bytes32"
        }
      ],
      "name": "getComboCategoryTrendScore",
      "outputs": [
        {
          "internalType": "uint256",
          "name": "",
          "type": "uint256"
        }
      ],
      "stateMutability": "view",
      "type": "function"
    },
    {
      "inputs": [
        {
          "internalType": "address",
          "name": "creator",
          "type": "address"
        }
      ],
      "name": "getComboCreatorPerformanceScore",
      "outputs": [
        {
          "internalType": "uint256",
          "name": "",
          "type": "uint256"
        }
      ],
      "stateMutability": "view",
      "type": "function"
    },
    {
      "inputs": [
        {
          "internalType": "address",
          "name": "user",
          "type": "address"
        }
      ],
      "name": "getComboFollowersList",
      "outputs": [
        {
          "internalType": "address[]",
          "name": "",
          "type": "address[]"
        }
      ],
      "stateMutability": "view",
      "type": "function"
    },
    {
      "inputs": [
        {
          "internalType": "address",
          "name": "user",
          "type": "address"
        }
      ],
      "name": "getComboFollowingList",
      "outputs": [
        {
          "internalType": "address[]",
          "name": "",
          "type": "address[]"
        }
      ],
      "stateMutability": "view",
      "type": "function"
    },
    {
      "inputs": [
        {
          "internalType": "uint256",
          "name": "comboPoolId",
          "type": "uint256"
        }
      ],
      "name": "getComboPool",
      "outputs": [
        {
          "components": [
            {
              "internalType": "address",
              "name": "creator",
              "type": "address"
            },
            {
              "internalType": "uint256",
              "name": "creatorStake",
              "type": "uint256"
            },
            {
              "internalType": "uint256",
              "name": "totalCreatorSideStake",
              "type": "uint256"
            },
            {
              "internalType": "uint256",
              "name": "maxBettorStake",
              "type": "uint256"
            },
            {
              "internalType": "uint256",
              "name": "totalBettorStake",
              "type": "uint256"
            },
            {
              "internalType": "uint16",
              "name": "totalOdds",
              "type": "uint16"
            },
            {
              "internalType": "uint8",
              "name": "flags",
              "type": "uint8"
            },
            {
              "internalType": "uint8",
              "name": "conditionCount",
              "type": "uint8"
            },
            {
              "internalType": "uint256",
              "name": "eventStartTime",
              "type": "uint256"
            },
            {
              "internalType": "uint256",
              "name": "eventEndTime",
              "type": "uint256"
            },
            {
              "internalType": "uint256",
              "name": "bettingEndTime",
              "type": "uint256"
            },
            {
              "internalType": "uint256",
              "name": "resultTimestamp",
              "type": "uint256"
            },
            {
              "internalType": "bytes32",
              "name": "category",
              "type": "bytes32"
            },
            {
              "internalType": "uint256",
              "name": "maxBetPerUser",
              "type": "uint256"
            },
            {
              "components": [
                {
                  "internalType": "bytes32",
                  "name": "marketId",
                  "type": "bytes32"
                },
                {
                  "internalType": "bytes32",
                  "name": "expectedOutcome",
                  "type": "bytes32"
                },
                {
                  "internalType": "bool",
                  "name": "resolved",
                  "type": "bool"
                },
                {
                  "internalType": "bytes32",
                  "name": "actualOutcome",
                  "type": "bytes32"
                },
                {
                  "internalType": "string",
                  "name": "description",
                  "type": "string"
                },
                {
                  "internalType": "uint16",
                  "name": "odds",
                  "type": "uint16"
                }
              ],
              "internalType": "struct BitredictComboPools.OutcomeCondition[]",
              "name": "conditions",
              "type": "tuple[]"
            }
          ],
          "internalType": "struct BitredictComboPools.ComboPool",
          "name": "",
          "type": "tuple"
        }
      ],
      "stateMutability": "view",
      "type": "function"
    },
    {
      "inputs": [
        {
          "internalType": "uint256",
          "name": "comboPoolId",
          "type": "uint256"
        }
      ],
      "name": "getComboPoolAnalytics",
      "outputs": [
        {
          "components": [
            {
              "internalType": "uint256",
              "name": "totalVolume",
              "type": "uint256"
            },
            {
              "internalType": "uint256",
              "name": "participantCount",
              "type": "uint256"
            },
            {
              "internalType": "uint256",
              "name": "averageBetSize",
              "type": "uint256"
            },
            {
              "internalType": "uint256",
              "name": "successRate",
              "type": "uint256"
            },
            {
              "internalType": "uint256",
              "name": "averageOdds",
              "type": "uint256"
            },
            {
              "internalType": "uint256",
              "name": "conditionSuccessRates",
              "type": "uint256"
            },
            {
              "internalType": "uint256",
              "name": "lastActivityTime",
              "type": "uint256"
            }
          ],
          "internalType": "struct BitredictComboPools.ComboAnalytics",
          "name": "",
          "type": "tuple"
        }
      ],
      "stateMutability": "view",
      "type": "function"
    },
    {
      "inputs": [
        {
          "internalType": "uint256",
          "name": "comboPoolId",
          "type": "uint256"
        }
      ],
      "name": "getComboPoolConditions",
      "outputs": [
        {
          "components": [
            {
              "internalType": "bytes32",
              "name": "marketId",
              "type": "bytes32"
            },
            {
              "internalType": "bytes32",
              "name": "expectedOutcome",
              "type": "bytes32"
            },
            {
              "internalType": "bool",
              "name": "resolved",
              "type": "bool"
            },
            {
              "internalType": "bytes32",
              "name": "actualOutcome",
              "type": "bytes32"
            },
            {
              "internalType": "string",
              "name": "description",
              "type": "string"
            },
            {
              "internalType": "uint16",
              "name": "odds",
              "type": "uint16"
            }
          ],
          "internalType": "struct BitredictComboPools.OutcomeCondition[]",
          "name": "",
          "type": "tuple[]"
        }
      ],
      "stateMutability": "view",
      "type": "function"
    },
    {
      "inputs": [
        {
          "internalType": "uint256",
          "name": "comboPoolId",
          "type": "uint256"
        }
      ],
      "name": "getComboPoolPerformanceScore",
      "outputs": [
        {
          "internalType": "uint256",
          "name": "",
          "type": "uint256"
        }
      ],
      "stateMutability": "view",
      "type": "function"
    },
    {
      "inputs": [
        {
          "internalType": "uint256",
          "name": "comboPoolId",
          "type": "uint256"
        }
      ],
      "name": "getComboPoolWithType",
      "outputs": [
        {
          "components": [
            {
              "internalType": "address",
              "name": "creator",
              "type": "address"
            },
            {
              "internalType": "uint256",
              "name": "creatorStake",
              "type": "uint256"
            },
            {
              "internalType": "uint256",
              "name": "totalCreatorSideStake",
              "type": "uint256"
            },
            {
              "internalType": "uint256",
              "name": "maxBettorStake",
              "type": "uint256"
            },
            {
              "internalType": "uint256",
              "name": "totalBettorStake",
              "type": "uint256"
            },
            {
              "internalType": "uint16",
              "name": "totalOdds",
              "type": "uint16"
            },
            {
              "internalType": "uint8",
              "name": "flags",
              "type": "uint8"
            },
            {
              "internalType": "uint8",
              "name": "conditionCount",
              "type": "uint8"
            },
            {
              "internalType": "uint256",
              "name": "eventStartTime",
              "type": "uint256"
            },
            {
              "internalType": "uint256",
              "name": "eventEndTime",
              "type": "uint256"
            },
            {
              "internalType": "uint256",
              "name": "bettingEndTime",
              "type": "uint256"
            },
            {
              "internalType": "uint256",
              "name": "resultTimestamp",
              "type": "uint256"
            },
            {
              "internalType": "bytes32",
              "name": "category",
              "type": "bytes32"
            },
            {
              "internalType": "uint256",
              "name": "maxBetPerUser",
              "type": "uint256"
            },
            {
              "components": [
                {
                  "internalType": "bytes32",
                  "name": "marketId",
                  "type": "bytes32"
                },
                {
                  "internalType": "bytes32",
                  "name": "expectedOutcome",
                  "type": "bytes32"
                },
                {
                  "internalType": "bool",
                  "name": "resolved",
                  "type": "bool"
                },
                {
                  "internalType": "bytes32",
                  "name": "actualOutcome",
                  "type": "bytes32"
                },
                {
                  "internalType": "string",
                  "name": "description",
                  "type": "string"
                },
                {
                  "internalType": "uint16",
                  "name": "odds",
                  "type": "uint16"
                }
              ],
              "internalType": "struct BitredictComboPools.OutcomeCondition[]",
              "name": "conditions",
              "type": "tuple[]"
            }
          ],
          "internalType": "struct BitredictComboPools.ComboPool",
          "name": "pool",
          "type": "tuple"
        },
        {
          "internalType": "string",
          "name": "poolType",
          "type": "string"
        }
      ],
      "stateMutability": "view",
      "type": "function"
    },
    {
      "inputs": [
        {
          "internalType": "address",
          "name": "creator",
          "type": "address"
        }
      ],
      "name": "getComboPoolsByCreator",
      "outputs": [
        {
          "internalType": "uint256[]",
          "name": "",
          "type": "uint256[]"
        }
      ],
      "stateMutability": "view",
      "type": "function"
    },
    {
      "inputs": [],
      "name": "getComboStats",
      "outputs": [
        {
          "internalType": "uint256",
          "name": "totalPools",
          "type": "uint256"
        },
        {
          "internalType": "uint256",
          "name": "totalVolume",
          "type": "uint256"
        },
        {
          "internalType": "uint256",
          "name": "averageConditions",
          "type": "uint256"
        },
        {
          "internalType": "uint256",
          "name": "mostPopularConditionCount",
          "type": "uint256"
        },
        {
          "internalType": "uint256",
          "name": "totalSuccessful",
          "type": "uint256"
        }
      ],
      "stateMutability": "view",
      "type": "function"
    },
    {
      "inputs": [
        {
          "internalType": "address",
          "name": "user",
          "type": "address"
        }
      ],
      "name": "getUserComboBettingHistory",
      "outputs": [
        {
          "internalType": "uint256[]",
          "name": "",
          "type": "uint256[]"
        }
      ],
      "stateMutability": "view",
      "type": "function"
    },
    {
      "inputs": [
        {
          "internalType": "address",
          "name": "user",
          "type": "address"
        }
      ],
      "name": "getUserComboStats",
      "outputs": [
        {
          "internalType": "uint256",
          "name": "totalBets",
          "type": "uint256"
        },
        {
          "internalType": "uint256",
          "name": "totalWins",
          "type": "uint256"
        },
        {
          "internalType": "uint256",
          "name": "totalVolume",
          "type": "uint256"
        },
        {
          "internalType": "uint256",
          "name": "winRate",
          "type": "uint256"
        }
      ],
      "stateMutability": "view",
      "type": "function"
    },
    {
      "inputs": [
        {
          "internalType": "bytes32",
          "name": "",
          "type": "bytes32"
        }
      ],
      "name": "isComboFollowing",
      "outputs": [
        {
          "internalType": "bool",
          "name": "",
          "type": "bool"
        }
      ],
      "stateMutability": "view",
      "type": "function"
    },
    {
      "inputs": [],
      "name": "minBetAmount",
      "outputs": [
        {
          "internalType": "uint256",
          "name": "",
          "type": "uint256"
        }
      ],
      "stateMutability": "view",
      "type": "function"
    },
    {
      "inputs": [],
      "name": "minPoolStakeBITR",
      "outputs": [
        {
          "internalType": "uint256",
          "name": "",
          "type": "uint256"
        }
      ],
      "stateMutability": "view",
      "type": "function"
    },
    {
      "inputs": [],
      "name": "minPoolStakeSTT",
      "outputs": [
        {
          "internalType": "uint256",
          "name": "",
          "type": "uint256"
        }
      ],
      "stateMutability": "view",
      "type": "function"
    },
    {
      "inputs": [],
      "name": "owner",
      "outputs": [
        {
          "internalType": "address",
          "name": "",
          "type": "address"
        }
      ],
      "stateMutability": "view",
      "type": "function"
    },
    {
      "inputs": [
        {
          "internalType": "uint256",
          "name": "comboPoolId",
          "type": "uint256"
        },
        {
          "internalType": "uint256",
          "name": "amount",
          "type": "uint256"
        }
      ],
      "name": "placeComboBet",
      "outputs": [],
      "stateMutability": "payable",
      "type": "function"
    },
    {
      "inputs": [],
      "name": "poolCore",
      "outputs": [
        {
          "internalType": "contract BitredictPoolCore",
          "name": "",
          "type": "address"
        }
      ],
      "stateMutability": "view",
      "type": "function"
    },
    {
      "inputs": [
        {
          "internalType": "uint256",
          "name": "comboPoolId",
          "type": "uint256"
        }
      ],
      "name": "refundComboPool",
      "outputs": [],
      "stateMutability": "nonpayable",
      "type": "function"
    },
    {
      "inputs": [],
      "name": "renounceOwnership",
      "outputs": [],
      "stateMutability": "nonpayable",
      "type": "function"
    },
    {
      "inputs": [
        {
          "internalType": "uint256",
          "name": "comboPoolId",
          "type": "uint256"
        },
        {
          "internalType": "uint256",
          "name": "conditionIndex",
          "type": "uint256"
        },
        {
          "internalType": "bytes32",
          "name": "actualOutcome",
          "type": "bytes32"
        }
      ],
      "name": "resolveComboCondition",
      "outputs": [],
      "stateMutability": "nonpayable",
      "type": "function"
    },
    {
      "inputs": [],
      "name": "totalCollectedBITR",
      "outputs": [
        {
          "internalType": "uint256",
          "name": "",
          "type": "uint256"
        }
      ],
      "stateMutability": "view",
      "type": "function"
    },
    {
      "inputs": [],
      "name": "totalCollectedSTT",
      "outputs": [
        {
          "internalType": "uint256",
          "name": "",
          "type": "uint256"
        }
      ],
      "stateMutability": "view",
      "type": "function"
    },
    {
      "inputs": [
        {
          "internalType": "address",
          "name": "newOwner",
          "type": "address"
        }
      ],
      "name": "transferOwnership",
      "outputs": [],
      "stateMutability": "nonpayable",
      "type": "function"
    },
    {
      "inputs": [
        {
          "internalType": "address",
          "name": "creator",
          "type": "address"
        }
      ],
      "name": "unfollowComboCreator",
      "outputs": [],
      "stateMutability": "nonpayable",
      "type": "function"
    },
    {
      "inputs": [
        {
          "internalType": "address",
          "name": "",
          "type": "address"
        },
        {
          "internalType": "uint256",
          "name": "",
          "type": "uint256"
        }
      ],
      "name": "userComboBettingHistory",
      "outputs": [
        {
          "internalType": "uint256",
          "name": "",
          "type": "uint256"
        }
      ],
      "stateMutability": "view",
      "type": "function"
    },
    {
      "inputs": [
        {
          "internalType": "address",
          "name": "",
          "type": "address"
        },
        {
          "internalType": "uint256",
          "name": "",
          "type": "uint256"
        }
      ],
      "name": "userComboFollowers",
      "outputs": [
        {
          "internalType": "address",
          "name": "",
          "type": "address"
        }
      ],
      "stateMutability": "view",
      "type": "function"
    },
    {
      "inputs": [
        {
          "internalType": "address",
          "name": "",
          "type": "address"
        },
        {
          "internalType": "uint256",
          "name": "",
          "type": "uint256"
        }
      ],
      "name": "userComboFollowing",
      "outputs": [
        {
          "internalType": "address",
          "name": "",
          "type": "address"
        }
      ],
      "stateMutability": "view",
      "type": "function"
    },
    {
      "inputs": [
        {
          "internalType": "address",
          "name": "",
          "type": "address"
        },
        {
          "internalType": "uint256",
          "name": "",
          "type": "uint256"
        }
      ],
      "name": "userComboPoolHistory",
      "outputs": [
        {
          "internalType": "uint256",
          "name": "",
          "type": "uint256"
        }
      ],
      "stateMutability": "view",
      "type": "function"
    },
    {
      "inputs": [
        {
          "internalType": "address",
          "name": "",
          "type": "address"
        }
      ],
      "name": "userComboTotalBets",
      "outputs": [
        {
          "internalType": "uint256",
          "name": "",
          "type": "uint256"
        }
      ],
      "stateMutability": "view",
      "type": "function"
    },
    {
      "inputs": [
        {
          "internalType": "address",
          "name": "",
          "type": "address"
        }
      ],
      "name": "userComboTotalVolume",
      "outputs": [
        {
          "internalType": "uint256",
          "name": "",
          "type": "uint256"
        }
      ],
      "stateMutability": "view",
      "type": "function"
    },
    {
      "inputs": [
        {
          "internalType": "address",
          "name": "",
          "type": "address"
        }
      ],
      "name": "userComboTotalWins",
      "outputs": [
        {
          "internalType": "uint256",
          "name": "",
          "type": "uint256"
        }
      ],
      "stateMutability": "view",
      "type": "function"
    },
    {
      "inputs": [
        {
          "internalType": "address",
          "name": "",
          "type": "address"
        }
      ],
      "name": "userComboWinRate",
      "outputs": [
        {
          "internalType": "uint256",
          "name": "",
          "type": "uint256"
        }
      ],
      "stateMutability": "view",
      "type": "function"
    }
  ],
  "bytecode": "0x60a034620001f357601f620047d838819003918201601f191683019291906001600160401b03841183851017620001f8578160609284926040968752833981010312620001f35762000051816200020e565b6200006c8362000064602085016200020e565b93016200020e565b3315620001db5760008054336001600160a01b03198083168217845587519396939590946001600160a01b0393909284929183167f8be0079c531659141344cd1fd0a4f28419497f9722a3daafe3b4186f6b6457e08a80a36001805516948515620001995750818316156200015557169283156200011d57826002541617600255608052600354161760035580601a55601b55516145b49081620002248239608051818181611cc401526124eb0152f35b855162461bcd60e51b8152602060048201526011602482015270496e76616c696420706f6f6c20636f726560781b6044820152606490fd5b865162461bcd60e51b815260206004820152601560248201527f496e76616c69642066656520636f6c6c6563746f7200000000000000000000006044820152606490fd5b62461bcd60e51b815260206004820152601460248201527f496e76616c6964204249545220616464726573730000000000000000000000006044820152606490fd5b8351631e4fbdf760e01b815260006004820152602490fd5b600080fd5b634e487b7160e01b600052604160045260246000fd5b51906001600160a01b0382168203620001f35756fe608080604052600436101561001357600080fd5b60e0600035811c91826301b708c2146138bc5750816301e59b141461380f57816310d032521461373d57816311f7dad6146136545781631afdd5a21461360b5781631c6b3f76146135ef5781632047ece01461170b5781632146b694146135b55781632c426ab9146134fb57816332564350146134d857816338a2a398146127f957816338cac0c2146134af5781634a2c11f5146133d55781634b79d8ba146110445781634c2809f114610e115781634d7aae78146133b1578163598f2d841461303a5781635d6043bf14612fcf578163620503e214612c9c578163657c183f14612c80578163688a1cf914612b0557816369b64a9e14612ae35781636b65761214612a96578163715018a614612a4f5781637d31aafe14611e3e5781637d3bfe9314612a055781637ed83b9c146129cb5781638175c0d6146128c45750806384499bb6146128a057806389bf10ec146128255780638a458bf4146127f95780638da5cb5b146127d05780638f63f748146127b25780639413f25c146124c65780639a81b35c14612495578063a0b310df1461244d578063a3e6fb9f14611f5c578063a7a891bf14611f2b578063aac137d614611f0d578063ab78cc1514611ef1578063ab91a5c114611e6a578063b474877514611e3e578063c105a19514611d77578063c2bc8ecb14611cf3578063c415b95c14611cae578063c4baad811461188b578063ccd462671461178d578063d0f808be14611745578063d3f7d7fc1461170b578063d9b7f3ee146116ef578063dd961d4414611696578063e0de55d01461108d578063eb3af72814611044578063f05e252514611026578063f0f0077514610fbd578063f23b420f14610f73578063f2fde38b14610eff578063f3baf07014610ee2578063f3c7e44914610ea8578063f52980fe14610e6e578063f931d45814610e16578063fa968eea14610e115763fe409c9f146102d657600080fd5b610100366003190112610d26576004356001600160401b038111610d265736602382011215610d2657806004013561030d81613c0a565b9161031b6040519384613be7565b8183526024602084019260051b82010190368211610d265760248101925b828410610d2b578461ffff6024351660243503610d265760e435151560e43503610d2657610365613ef3565b805160028110159081610d1a575b5015610cdb57606460243561ffff1611908180610cc9575b15610c8c5760443515610c4757426064351115610c02576064356084351115610bbd5760e43515610b6c57683635c9adc5dea0000060443510610b2c575b603c4201804211610a6c576064351115610af65760005b81518110156104ee576103f38183613c84565b5151156104b55760206104068284613c84565b5101511561047557606461ffff60a061041f8486613c84565b5101511611156104375761043290613c75565b6103e0565b60405162461bcd60e51b8152602060048201526016602482015275496e76616c696420636f6e646974696f6e206f64647360501b6044820152606490fd5b60405162461bcd60e51b8152602060048201526018602482015277496e76616c6964206578706563746564206f7574636f6d6560401b6044820152606490fd5b60405162461bcd60e51b8152602060048201526011602482015270125b9d985b1a59081b585c9ad95d081251607a1b6044820152606490fd5b509060e43515610ae7576803cb71f51fc5580000905b61051060443583613c68565b9160e43515610ac557602061054b60009460018060a01b0360025416906040519687809481936323b872dd60e01b8352303360048501613cf3565b03925af1908115610ab95761056f6105779261057f95600091610a8a575b50613d15565b600654613c68565b600655613d58565b6064604435026044358104606403610a6c576105aa9061ffff6105a3602435613da6565b1690613dba565b906105b9604435831015613dda565b606435603b19810111610a6c57600060e435610a82575b60048054600090815260076020526040812080546001600160a01b0319163317815560443560018201819055600282015560038101959095559084015560058301805461ffff191660243561ffff16178155919291906106309082613e41565b825163ff00000082549160181b169063ff000000191617905560643560068201556084356007820155603b196064350160088201556000600982015560a435600a82015560c435600b8201556000915b8051831015610871576106938382613c84565b5192600c830154600160401b811015610845578060016106bc9201600c860155600c8501613e59565b94909461085b578051855560208101516001860155600285016040820151151560ff8019835416911617905560608101516003860155608081015194855160018060401b038111610845576107146004830154613e75565b601f81116107fe575b506020601f82116001146107825761ffff928260a093600593610770999a9b600092610777575b50508160011b916000199060031b1c19161760048201555b019201511661ffff19825416179055613c75565b9190610680565b015190508b80610744565b6004830160005260206000209760005b601f19841681106107e657509260018361077098999a60059461ffff9760a097601f198116106107cd575b505050811b01600482015561075c565b015160001960f88460031b161c191690558b80806107bd565b828201518a5560019099019860209283019201610792565b600483016000526020600020601f830160051c81016020841061083e575b601f830160051c8201811061083257505061071d565b6000815560010161081c565b508061081c565b634e487b7160e01b600052604160045260246000fd5b634e487b7160e01b600052600060045260246000fd5b60405161087d81613bb1565b6044358152600660208201600181526040830160443581526060840160008152608085019061ffff60243516825260a08601926000845260c0870194428652600454600052600d60205260406000209751885551600188015551600287015551600386015551600485015551600584015551910155600454600052600a60205261090b336040600020613eaf565b600454600052600b60205260406000203360005260205260443560406000205560ff8151169061093c601a54613c75565b601a5561094d604435601b54613c68565b601b5581600052601f60205260406000206109688154613c75565b905560a4356000526020805260406000206109838154613c75565b9055601c5491601a54600019810190808211610a6c576109b1836109ac6109b694602098613d93565b613c68565b613dba565b601c5580600052601f835260406000205460ff601d541660005260406000205410610a63575b50600454905160405190815261ffff602435168382015260a4356040820152817f8aaa57ddda1c9d3a6b942344d9f1cd31002ce9a2db4dec13877c4917dd1bbdc660603393a380604051600081526044358482015242604082015260008051602061449f83398151915260603392a3610a5481613c75565b60045560018055604051908152f35b601d55826109dc565b634e487b7160e01b600052601160045260246000fd5b5060046105d0565b610aac915060203d602011610ab2575b610aa48183613be7565b810190613cdb565b87610569565b503d610a9a565b6040513d6000823e3d90fd5b610adf90610ad761057f943414613c98565b600554613c68565b600555613d58565b670de0b6b3a764000090610504565b60405162461bcd60e51b815260206004820152600e60248201526d22bb32b73a103a37b79039b7b7b760911b6044820152606490fd5b60405162461bcd60e51b815260206004820152601860248201527742495452207374616b652062656c6f77206d696e696d756d60401b6044820152606490fd5b674563918244f4000060443510156103c95760405162461bcd60e51b8152602060048201526017602482015276535454207374616b652062656c6f77206d696e696d756d60481b6044820152606490fd5b60405162461bcd60e51b815260206004820152601d60248201527f4576656e7420656e64206d7573742062652061667465722073746172740000006044820152606490fd5b60405162461bcd60e51b815260206004820152601d60248201527f4576656e74207374617274206d75737420626520696e206675747572650000006044820152606490fd5b60405162461bcd60e51b815260206004820152601e60248201527f43726561746f72207374616b65206d75737420626520706f73697469766500006044820152606490fd5b60405162461bcd60e51b8152602060048201526015602482015274496e76616c696420636f6d62696e6564206f64647360581b6044820152606490fd5b5061c35061ffff60243516111561038b565b60405162461bcd60e51b8152602060048201526017602482015276125b9d985b1a590818dbdb991a5d1a5bdb8818dbdd5b9d604a1b6044820152606490fd5b60059150111582610373565b600080fd5b83356001600160401b038111610d265782019060c06023198336030112610d265760405191610d5983613bcc565b6024810135835260449081810135602085015260648101358015158103610d265760408501526084810135606085015260a48101356001600160401b038111610d265781019136604384011215610d2657602483013592610db984613c21565b91610dc76040519384613be7565b84835236818684010111610d26578460c495602092600094018386013783010152608085015201359061ffff82168203610d2657826020939260a085940152815201930192610339565b613b18565b34610d26576040366003190112610d2657610e2f613a83565b6001600160a01b03166000908152600f6020526040902080546024359190821015610d2657602091610e6091613aaf565b90546040519160031b1c8152f35b34610d26576020366003190112610d26576001600160a01b03610e8f613a83565b1660005260116020526020604060002054604051908152f35b34610d26576020366003190112610d26576001600160a01b03610ec9613a83565b1660005260136020526020604060002054604051908152f35b34610d26576000366003190112610d265760206040516101f48152f35b34610d26576020366003190112610d2657610f18613a83565b610f20613c3c565b6001600160a01b03908116908115610f5a576000548260018060a01b03198216176000551660008051602061453f833981519152600080a3005b604051631e4fbdf760e01b815260006004820152602490fd5b34610d2657610f8136613b3b565b90600052600a60205260406000208054821015610d2657602091610fa491613aaf565b905460405160039290921b1c6001600160a01b03168152f35b34610d2657602080600319360112610d26576080906001600160a01b03610fe2613a83565b166000526010815260406000205490601181526040600020546012825260406000205490601383526040600020549260405194855284015260408301526060820152f35b34610d26576000366003190112610d26576020600454604051908152f35b34610d26576000366003190112610d2657601a54601b54601c54601d54601e54604080519586526020860194909452928401919091526060830152608082015260a090f35b0390f35b34610d2657602080600319360112610d26576004356110af6004548210613f16565b6110b7613ef3565b80600052600782526040600020916110ce8261427e565b156116645781600052600c8152604060002033600052815260ff6040600020541661162e5760008281526007825260408120600501549093849160101c600216156114bd5783600052600b83526040600020336000528352604060002054908115908115611430575b50505b80156113f75784156113bc576000848152600c845260408082203383528552808220805460ff19166001179055600e855290208054600160401b8110156108455761118f816111a89360018994018155613aaf565b90919082549060031b91821b91600019901b1916179055565b336000526010835260406000206111bf8154613c75565b905533600052601283526111d96040600020918254613c68565b905561139e575b3360005260108152604060002054611356575b6013815260406000205460128252604060002054604051918252828201526000805160206144bf83398151915260403392a261122e8261429a565b156112f25760025460405163a9059cbb60e01b815290829082906001600160a01b0316816000816112638a336004840161406a565b03925af1908115610ab9576000916112d5575b501561129c576000805160206144df833981519152905b6040519384523393a360018055005b6064906040519062461bcd60e51b82526004820152601260248201527110925514881c185e5bdd5d0819985a5b195960721b6044820152fd5b6112ec9150823d8411610ab257610aa48183613be7565b84611276565b600080808086335af161130361403a565b501561131e576000805160206144df8339815191529061128d565b6064906040519062461bcd60e51b82526004820152601160248201527014d515081c185e5bdd5d0819985a5b1959607a1b6044820152fd5b60118152604060002054606481029080820460641490151715610a6c5761138b90336000526010835260406000205490613dba565b33600052601382526040600020556111f3565b336000526011815260406000206113b58154613c75565b90556111e0565b60405162461bcd60e51b81526004810184905260136024820152724e6f207061796f757420617661696c61626c6560681b6044820152606490fd5b60405162461bcd60e51b81526004810184905260116024820152704e6f207374616b6520746f20636c61696d60781b6044820152606490fd5b6002810154929650919250821561148057612710918287029187830484141715610a6c5760046114666114759561146e94613dba565b910154613d93565b0484613c68565b926001908580611137565b60405162461bcd60e51b81526004810185905260156024820152744e6f2063726561746f722073696465207374616b6560581b6044820152606490fd5b60098352604060002033600052835260406000205490816114df575b5061113a565b6114f891955060649250600561ffff9101541685613d93565b0460246115058583613e34565b6003546040516314d2bdc760e31b815233600482015292859184919082906001600160a01b03165afa918215610ab9576000926115fd575b5061154e6115569261271092613d93565b048092613e34565b93600191806115c5575b5061156a8461429a565b156115b457686c6b935b8bbd4000008110155b611588575b856114d9565b8360405160038152828582015242604082015260008051602061449f83398151915260603392a3611582565b678ac7230489e8000081101561157d565b6115ce8561429a565b156115e9576115df90600654613c68565b6006555b85611560565b6115f590600554613c68565b6005556115e3565b91508382813d8311611627575b6116148183613be7565b81010312610d265790519061154e61153d565b503d61160a565b6064906040519062461bcd60e51b82526004820152600f60248201526e105b1c9958591e4818db185a5b5959608a1b6044820152fd5b6064906040519062461bcd60e51b82526004820152600b60248201526a139bdd081cd95d1d1b195960aa1b6044820152fd5b34610d26576040366003190112610d26576116af613a83565b6024359060018060a01b03809116600052601560205260406000208054831015610d26576020926116df91613aaf565b9190546040519260031b1c168152f35b34610d26576000366003190112610d2657602060405160058152f35b34610d26576020366003190112610d26576001600160a01b0361172c613a83565b1660005260196020526020604060002054604051908152f35b34610d26576040366003190112610d265761175e613a99565b600435600052600960205260406000209060018060a01b03166000526020526020604060002054604051908152f35b34610d2657602080600319360112610d26576117a7613a83565b604051828101906117cb816117bd85338661425a565b03601f198101835282613be7565b519020806000526016835260ff6040600020541615611856579060159160005260168352604060002060ff19815416905533600052601483526118128160406000206142b6565b60018060a01b031691826000525261182e3360406000206142b6565b337f180b6c6ae7441238ebe20ba9b93bb876fd46b5916b668a6ca544c72f287f9aec600080a3005b60405162461bcd60e51b815260048101849052600d60248201526c4e6f7420666f6c6c6f77696e6760981b6044820152606490fd5b34610d26576060366003190112610d265760043560248035906044359060018060a01b039060038281541660405193630c34126160e41b85526020948581600481865afa908115610ab95786918391600091611c91575b50163314928315611c30575b50505015611bf4576119036004548710613f16565b856000526007835260406000206119198761427e565b611bb957600c8101908154871015611b7b576119358783613e59565b509660ff90816002809a015416611b3a577f9b9c7dfe7b31d72aad3040b71d4340892a60d2b251551c28ed1d9387994cc09e6060828b6119768e9589613e59565b50019a60019b8c60ff198254161790558089611992848b613e59565b5001558b6119a0838a613e59565b5001548114906040519283528b8301526040820152a282546000979081895b828110611ad6575b5080611ac8575b6119d457005b881098896119ee600586019385855460101c161784613e41565b611aaf575b5050506009429101555486600052600d8452604060002092818614600014611a5c575050916060939160056000805160206144ff8339815191529694611a3a601e54613c75565b601e556064818401555b820154910155604051928352820152426040820152a2005b606486029086820460641487151715611a9b57506000805160206144ff833981519152969492611a926060979593600593613dba565b81840155611a44565b634e487b7160e01b60009081526011600452fd5b611ac092825460101c161790613e41565b8880806119f3565b5060078401544210156119ce565b848c611ae2838a613e59565b5001541615611b305787611af68289613e59565b50015484611b04838a613e59565b50015414611b1b575b611b1690613c75565b6119bf565b99611b28611b1691613c75565b9a9050611b0d565b505060008c6119c7565b60405162461bcd60e51b815260048101889052601a818801527910dbdb991a5d1a5bdb88185b1c9958591e481c995cdbdb1d995960321b6044820152606490fd5b60405162461bcd60e51b81526004810186905260178186015276092dcecc2d8d2c840c6dedcc8d2e8d2dedc40d2dcc8caf604b1b6044820152606490fd5b60405162461bcd60e51b81526004810185905260148185015273141bdbdb08185b1c9958591e481cd95d1d1b195960621b6044820152606490fd5b60405162461bcd60e51b815260048101849052601581840152744e6f7420617574686f72697a6564206f7261636c6560581b6044820152606490fd5b604051631118149160e11b8152929350829060049082905afa908115610ab957600091611c64575b501633148784816118ee565b611c849150853d8711611c8a575b611c7c8183613be7565b81019061401b565b88611c58565b503d611c72565b611ca89150833d8511611c8a57611c7c8183613be7565b8b6118e2565b34610d26576000366003190112610d26576040517f00000000000000000000000000000000000000000000000000000000000000006001600160a01b03168152602090f35b34610d2657602080600319360112610d26576001600160a01b03611d15613a83565b16600052600e8152604060002090604051908181845491828152019360005281600020916000905b828210611d605761108985611d5481890382613be7565b60405191829182613add565b835486529485019460019384019390910190611d3d565b34610d2657602080600319360112610d2657611d91613a83565b600454611d9d81614228565b926000926001600160a01b0390811691845b848110611dfe578686611dc181614228565b9160005b828110611dda57604051806110898682613add565b80611de8611df99284613c84565b51611df38287613c84565b52613c75565b611dc5565b806000526007825283836040600020541614611e23575b611e1e90613c75565b611daf565b94611e368187611df3611e1e948b613c84565b959050611e15565b34610d26576020366003190112610d265760043560005260186020526020604060002054604051908152f35b34610d2657602080600319360112610d26576001600160a01b0380611e8d613a83565b1660005260158252604060002091604051809282855492838152019460005282600020926000915b838310611ed85761108986611ecc818a0382613be7565b60405191829182613b51565b8454811687529581019560019485019490920191611eb5565b34610d26576000366003190112610d26576020604051603c8152f35b34610d26576000366003190112610d26576020600554604051908152f35b34610d2657611f3936613b3b565b90600052600860205260406000208054821015610d2657602091610fa491613aaf565b34610d2657602080600319360112610d265760043590611f7f6004548310613f16565b81600052600781526040600020611f958361427e565b61241657600781015462093a808101809111610a6c574211156123d557600501611fcb6001918260ff825460101c161790613e41565b82600052600a82528060406000206040519081858254918281520191600052856000209060005b878282106123b957505050508161200a910382613be7565b6000825b612241575b50505082600052600882526040600020604051808285829454938481520190600052856000209260005b8688838310612223575050505061205692500382613be7565b6000825b6120ae575b847fce9b0ae858e2bcf13d6c2af0f97f73bccb20257d69e4c8f7ea9fe44841da86e86060866012604051918083528201527114995cdbdb1d5d1a5bdb881d1a5b595bdd5d60721b6040820152a2005b815181101561221e576001600160a01b0384816120cb8486613c84565b5116876000526009825260406000208160005282526040600020549081612100575b505050506120fa90613c75565b8261205a565b6121098961429a565b156121ba57612135936002541690600060405180968195829463a9059cbb60e01b84526004840161406a565b03925af1908115610ab95760009161219d575b501561215c576120fa905b908487806120ed565b60405162461bcd60e51b8152600481018590526019602482015278109255148818995d1d1bdc881c99599d5b990819985a5b1959603a1b6044820152606490fd5b6121b49150853d8711610ab257610aa48183613be7565b86612148565b60009350839250829182915af16121cf61403a565b50156121de576120fa90612153565b60405162461bcd60e51b815260048101859052601860248201527714d5150818995d1d1bdc881c99599d5b990819985a5b195960421b6044820152606490fd5b61205f565b86546001600160a01b0316855295810195879550909301920161203d565b81518110156123b4576001600160a01b03858161225e8486613c84565b511688600052600b825260406000208160005282526040600020549081612293575b5050505061228d90613c75565b8261200e565b909192939495506122a38961429a565b15612352576122cf936002541690600060405180968195829463a9059cbb60e01b84526004840161406a565b03925af1908115610ab957600091612335575b50156122f8579061228d83925b90858880612280565b60405162461bcd60e51b815260048101859052601560248201527410925514881314081c99599d5b990819985a5b1959605a1b6044820152606490fd5b61234c9150853d8711610ab257610aa48183613be7565b866122e2565b60009350839250829182915af161236761403a565b5015612378579061228d83926122ef565b60405162461bcd60e51b815260048101859052601460248201527314d515081314081c99599d5b990819985a5b195960621b6044820152606490fd5b612013565b83546001600160a01b0316855287969401939283019201611ff2565b60405162461bcd60e51b81526004810183905260196024820152781499599d5b99081c195c9a5bd9081b9bdd081c995858da1959603a1b6044820152606490fd5b60405162461bcd60e51b815260048101839052600f60248201526e105b1c9958591e481cd95d1d1b1959608a1b6044820152606490fd5b34610d26576040366003190112610d2657612466613a99565b600435600052600b60205260406000209060018060a01b03166000526020526020604060002054604051908152f35b34610d26576020366003190112610d26576004356000526016602052602060ff604060002054166040519015158152f35b34610d2657602080600319360112610d26576124e0613a83565b6001600160a01b03907f00000000000000000000000000000000000000000000000000000000000000008281169033829003612778578383168015612738573081146126f75760055490600654938215801561260b575b50505050811592831561254657005b601e830293838504601e141715610a6c5785612593606460009604948660065561257586896002541692613e34565b60405197888094819363a9059cbb60e01b998a84526004840161406a565b03925af18015610ab9576125c69587956000926125ee575b5060025416926040519687958694859384526004840161406a565b03925af18015610ab9576125d657005b816125ec92903d10610ab257610aa48183613be7565b005b61260490873d8911610ab257610aa48183613be7565b50886125ab565b601e840290848204601e141715610a6c5760008080936126346064839504809884600555613e34565b905af161263f61403a565b50156126a857600080809381935af161265661403a565b50156126655785808080612537565b60405162461bcd60e51b815260048101869052601b60248201527a14d515081cdd185ada5b99c81d1c985b9cd9995c8819985a5b1959602a1b6044820152606490fd5b60405162461bcd60e51b815260048101889052602160248201527f5354542066656520636f6c6c6563746f72207472616e73666572206661696c656044820152601960fa1b6064820152608490fd5b60405162461bcd60e51b815260048101879052601960248201527821b0b73737ba103234b9ba3934b13aba32903a379039b2b63360391b6044820152606490fd5b60405162461bcd60e51b8152600481018790526018602482015277125b9d985b1a59081cdd185ada5b99c818dbdb9d1c9858dd60421b6044820152606490fd5b60405162461bcd60e51b815260048101869052601260248201527127b7363c903332b29031b7b63632b1ba37b960711b6044820152606490fd5b34610d26576000366003190112610d26576020600654604051908152f35b34610d26576000366003190112610d26576000546040516001600160a01b039091168152602090f35b34610d26576020366003190112610d265760043560005260176020526020604060002054604051908152f35b34610d2657602080600319360112610d26576001600160a01b0380612848613a83565b1660005260148252604060002091604051809282855492838152019460005282600020926000915b8383106128875761108986611ecc818a0382613be7565b8454811687529581019560019485019490920191612870565b34610d26576000366003190112610d265760206040516803cb71f51fc55800008152f35b34610d26576020366003190112610d2657611089906004356128e4614085565b506128f26004548210613f16565b60005260076020526129b1600c60406000206040519361291185613b95565b60018060a01b0382541685526001820154602086015260028201546040860152600382015460608601526004820154608086015260ff600583015461ffff811660a0880152818160101c1660c088015260181c16908501526006810154610100850152600781015461012085015260088101546101408501526009810154610160850152600a810154610180850152600b8101546101a0850152016140f3565b6101c0820152604051918291602083526020830190613920565b34610d26576020366003190112610d26576001600160a01b036129ec613a83565b1660005260126020526020604060002054604051908152f35b34610d26576040366003190112610d2657612a1e613a83565b6001600160a01b03166000908152600e6020526040902080546024359190821015610d2657602091610e6091613aaf565b34610d26576000366003190112610d2657612a68613c3c565b600080546001600160a01b0319811682556001600160a01b031660008051602061453f8339815191528280a3005b34610d26576040366003190112610d2657612aaf613a99565b600435600052600c60205260406000209060018060a01b0316600052602052602060ff604060002054166040519015158152f35b34610d26576020366003190112610d2657602060045460043510604051908152f35b34610d2657602080600319360112610d2657612b1f613a83565b6001600160a01b0381169190338314612c42578215612c0b5760405182810190612b4e816117bd85338661425a565b519020806000526016835260ff60406000205416612bd25760159291612b9791600052601683526040600020600160ff1982541617905533600052601483526040600020613eaf565b8260005252612baa336040600020613eaf565b337f7ac10fa72de811a96d46fdfb872dbd08e7fc6bd9cca7b18ee91c34f1cccac4d2600080a3005b60405162461bcd60e51b8152600481018490526011602482015270416c726561647920666f6c6c6f77696e6760781b6044820152606490fd5b60405162461bcd60e51b815260048101839052600f60248201526e24b73b30b634b21031b932b0ba37b960891b6044820152606490fd5b60405162461bcd60e51b815260048101839052601660248201527521b0b73737ba103337b63637bb903cb7bab939b2b63360511b6044820152606490fd5b34610d26576000366003190112610d2657602060405160648152f35b612ca536613b3b565b90612cb36004548210613f16565b612cbb613ef3565b806000526020600781526040600020612cdc612cd68461427e565b15613f57565b670de0b6b3a76400008410612f90576969e10de76676d08000008411612f5557612d0b60088201544210613f92565b612d16841515613fd5565b82600052600b8252604060002033600052825260406000205415612f03575b82600052600b8252604060002033600052825260406000205415612ee8575b82600052600b825260406000203360005282526040600020612d77858254613c68565b90556002810190612d89858354613c68565b80925561ffff908160058201541691612da460648411613d58565b606484029284840460641485151715610a6c57600393612dd3926105a3612dca93613da6565b93841015613dda565b0155612dde8261429a565b15612ec8576002546040516323b872dd60e01b81529190819083906001600160a01b031681600081612e158a303360048501613cf3565b03925af1918215610ab95760008051602061455f83398151915292612e4191600091612eab5750613d15565b82600052600d81528260008051602061451f833981519152604080600020612e6a888254613c68565b9081815560018101549042600682015581612e96575b50825191825285820152a261128d848433614370565b6002612ea28385613dba565b91015589612e80565b612ec29150833d8511610ab257610aa48183613be7565b86610569565b60008051602061455f83398151915290612ee3843414613c98565b612e41565b82600052600a8252612efe336040600020613eaf565b612d54565b82600052600a8252606460406000205410612d355760405162461bcd60e51b8152600481018390526015602482015274546f6f206d616e79204c502070726f76696465727360581b6044820152606490fd5b60405162461bcd60e51b81526004810183905260136024820152724c697175696469747920746f6f206c6172676560681b6044820152606490fd5b60405162461bcd60e51b81526004810183905260176024820152764c69717569646974792062656c6f77206d696e696d756d60481b6044820152606490fd5b34610d26576020366003190112610d2657600435600052600d6020526040600020805490600181015490600281015460038201546004830154916006600585015494015494604051968752602087015260408601526060850152608084015260a083015260c0820152f35b61304336613b3b565b906130516004548210613f16565b613059613ef3565b806000526020600781526040600020613074612cd68461427e565b670de0b6b3a764000084106133785769152d02c7e14af68000008411613343576130a360088201544210613f92565b60048101906130b3858354613c68565b60038201541061331257600b906130cb861515613fd5565b0154806132a5575b508260005260098252604060002033600052825260406000205415613236575b826000526009825260406000203360005282526040600020613116858254613c68565b9055613123848254613c68565b905561312e8261429a565b15613226576002546040516323b872dd60e01b815290829082906001600160a01b0316816000816131648a303360048501613cf3565b03925af18015610ab95761317f916000916132095750613d15565b81600052600d8152604060002090613198848354613c68565b91828155600181019081549160018301809311610a6c577fa62ac007af53ff4400791f2f3468865d30bb8700e4624a47647a3d5e6cbcf2e9948360008051602061451f8339815191529388956040945542600682015581612e965750825191825285820152a261128d848433614370565b6132209150833d8511610ab257610aa48183613be7565b85610569565b613231833414613c98565b61317f565b82600052600882526101f46040600020541015613268578260005260088252613263336040600020613eaf565b6130f3565b60405162461bcd60e51b8152600481018390526015602482015274546f6f206d616e79207061727469636970616e747360581b6044820152606490fd5b836000526009835260406000203360005283526132c785604060002054613c68565b116132d257846130d3565b60405162461bcd60e51b815260048101839052601860248201527722bc31b2b2b2399036b0bc103132ba103832b9103ab9b2b960411b6044820152606490fd5b60405162461bcd60e51b8152600481018490526009602482015268141bdbdb08199d5b1b60ba1b6044820152606490fd5b60405162461bcd60e51b815260048101839052600d60248201526c42657420746f6f206c6172676560981b6044820152606490fd5b60405162461bcd60e51b81526004810183905260116024820152704265742062656c6f77206d696e696d756d60781b6044820152606490fd5b34610d26576000366003190112610d26576020604051683635c9adc5dea000008152f35b34610d2657602080600319360112610d26576004356133f76004548210613f16565b6000526007815261340e600c6040600020016140f3565b6040519082820192808352815180945260408301938160408260051b8601019301916000955b8287106134415785850386f35b909192938280600192603f19898203018552875190815181528282015183820152604082015115156040820152606080830151908201526134916080808401519060c080918501528301906138e0565b9161ffff60a080920151169101529601920196019592919092613434565b34610d26576000366003190112610d26576003546040516001600160a01b039091168152602090f35b34610d26576000366003190112610d26576020604051674563918244f400008152f35b34610d26576000366003190112610d265760045461351881614228565b9060009060005b81811061355d57505061353181614228565b9160005b82811061354a57604051806110898682613add565b80611de86135589284613c84565b613535565b6135668161427e565b158061359b575b613580575b61357b90613c75565b61351f565b916135938184611df361357b9488613c84565b929050613572565b50806000526007602052600860406000200154421061356d565b34610d26576020366003190112610d26576001600160a01b036135d6613a83565b1660005260106020526020604060002054604051908152f35b34610d26576000366003190112610d2657602060405160028152f35b34610d26576040366003190112610d2657613624613a83565b6024359060018060a01b03809116600052601460205260406000208054831015610d26576020926116df91613aaf565b34610d26576020366003190112610d2657600435600060c060405161367881613bb1565b8281528260208201528260408201528260608201528260808201528260a082015201526136a86004548210613f16565b600052600d60205260406000206040516136c181613bb1565b815491828252600181015460208301908152600282015460408401908152600383015490606085019182526004840154926080860193845260c0600660058701549660a08901978852015496019586526040519687525160208701525160408601525160608501525160808401525160a08301525160c0820152f35b34610d26576020366003190112610d26576101c090600435600052600760205260406000209060018060a01b038254169160018101549160028201549060038301549060048401549060058501549060ff60068701549260078801549460088901549660098a015498600b600a8c01549b01549b60206040519e8f908152015260408d015260608c015260808b015261ffff811660a08b0152818160101c1660c08b015260181c16908801526101008701526101208601526101408501526101608401526101808301526101a0820152f35b34610d26576020366003190112610d265760043561382b614085565b506138396004548210613f16565b6000526007602052613858600c60406000206040519361291185613b95565b6101c082015260408051919082016001600160401b03811183821017610845576138ae9261108991604052600a81526910d3d35093d7d413d3d360b21b6020820152604051938493604085526040850190613920565b9083820360208501526138e0565b34610d26576000366003190112610d26576002546001600160a01b03168152602090f35b919082519283825260005b84811061390c575050826000602080949584010152601f8019910116010190565b6020818301810151848301820152016138eb565b906101e080820160018060a01b0384511683526020808501518185015260409384860151858201526060938487015185830152608095868801518784015261ffff60a09080828b0151168286015260c09360ff858c0151168587015260ff60e08c01511660e0870152610100808c015190870152610120808c015190870152610140808c015190870152610160808c015190870152610180808c0151908701526101a0808c0151908701526101c0809b01519a86015289518097526102009386858701958960051b8801019b01986000965b898810613a085750505050505050505050505090565b909192939495969798999a9c9b89808f6001938f898b613a648f958f969483956101ff198d89030190525196875187528888015189880152808801511515908701528b8701518c8701528c81880151918701528c8601906138e0565b940151169101529e9f9d019b9a999190910197019594939291906139f2565b600435906001600160a01b0382168203610d2657565b602435906001600160a01b0382168203610d2657565b8054821015613ac75760005260206000200190600090565b634e487b7160e01b600052603260045260246000fd5b6020908160408183019282815285518094520193019160005b828110613b04575050505090565b835185529381019392810192600101613af6565b34610d26576000366003190112610d26576020604051670de0b6b3a76400008152f35b6040906003190112610d26576004359060243590565b6020908160408183019282815285518094520193019160005b828110613b78575050505090565b83516001600160a01b031685529381019392810192600101613b6a565b6101e081019081106001600160401b0382111761084557604052565b60e081019081106001600160401b0382111761084557604052565b60c081019081106001600160401b0382111761084557604052565b601f909101601f19168101906001600160401b0382119082101761084557604052565b6001600160401b0381116108455760051b60200190565b6001600160401b03811161084557601f01601f191660200190565b6000546001600160a01b03163303613c5057565b60405163118cdaa760e01b8152336004820152602490fd5b91908201809211610a6c57565b6000198114610a6c5760010190565b8051821015613ac75760209160051b010190565b15613c9f57565b60405162461bcd60e51b8152602060048201526014602482015273125b98dbdc9c9958dd0814d51508185b5bdd5b9d60621b6044820152606490fd5b90816020910312610d2657518015158103610d265790565b6001600160a01b03918216815291166020820152604081019190915260600190565b15613d1c57565b60405162461bcd60e51b815260206004820152601460248201527310925514881d1c985b9cd9995c8819985a5b195960621b6044820152606490fd5b15613d5f57565b60405162461bcd60e51b815260206004820152600c60248201526b496e76616c6964206f64647360a01b6044820152606490fd5b81810292918115918404141715610a6c57565b61ffff9081166063190191908211610a6c57565b8115613dc4570490565b634e487b7160e01b600052601260045260246000fd5b15613de157565b60405162461bcd60e51b815260206004820152602560248201527f4d617820626574746f72207374616b652063616c63756c6174696f6e206f766560448201526472666c6f7760d81b6064820152608490fd5b91908203918211610a6c57565b9062ff000082549160101b169062ff00001916179055565b8054821015613ac7576000526006602060002091020190600090565b90600182811c92168015613ea5575b6020831014613e8f57565b634e487b7160e01b600052602260045260246000fd5b91607f1691613e84565b80549190600160401b8310156108455782613ed2916001613ef195018155613aaf565b90919082549060031b9160018060a01b03809116831b921b1916179055565b565b600260015414613f04576002600155565b604051633ee5aeb560e01b8152600490fd5b15613f1d57565b60405162461bcd60e51b8152602060048201526012602482015271125b9d985b1a590818dbdb589bc81c1bdbdb60721b6044820152606490fd5b15613f5e57565b60405162461bcd60e51b815260206004820152600c60248201526b141bdbdb081cd95d1d1b195960a21b6044820152606490fd5b15613f9957565b60405162461bcd60e51b815260206004820152601460248201527310995d1d1a5b99c81c195c9a5bd908195b99195960621b6044820152606490fd5b15613fdc57565b60405162461bcd60e51b8152602060048201526017602482015276416d6f756e74206d75737420626520706f73697469766560481b6044820152606490fd5b90816020910312610d2657516001600160a01b0381168103610d265790565b3d15614065573d9061404b82613c21565b916140596040519384613be7565b82523d6000602084013e565b606090565b6001600160a01b039091168152602081019190915260400190565b6040519061409282613b95565b60606101c083600080825280602083015280604083015280848301528060808301528060a08301528060c08301528060e083015280610100830152806101208301528061014083015280610160830152806101808301526101a08201520152565b9081546140ff81613c0a565b9060409361410f85519384613be7565b818352829460208094019160009081528481209181935b8585106141365750505050505050565b86825161414281613bcc565b855481526001808701548383015260ff6002880154161515858301526003870154606083015260048701855191879180549061417d82613e75565b8086529183811690811561420657506001146141cc575b50505091816141ab60019693600696950382613be7565b608082015261ffff60058901541660a0820152815201940194019392614126565b89528589208993509091905b8284106141f15750505081018301816141ab6001614194565b80548585018801528d969093019281016141d8565b60ff1916868901525050151560051b8301850191508290506141ab6001614194565b9061423282613c0a565b61423f6040519182613be7565b8281528092614250601f1991613c0a565b0190602036910137565b6001600160601b0319606092831b811682529290911b909116601482015260280190565b6000526007602052600160056040600020015460101c16151590565b6000526007602052600460056040600020015460101c16151590565b6000915b8154928381101561436a576142cf8184613aaf565b90546003956001600160a01b0392909190871b1c8216848316146143025750506142fb91929350613c75565b91906142ba565b90925060001991828201918211610a6c57613ed2846143246143329488613aaf565b905490891b1c169186613aaf565b825480156143545701926143468484613aaf565b81939154921b1b1916905555565b634e487b7160e01b600052603160045260246000fd5b50505050565b6001600160a01b03166000818152600e602090815260408083208054929796949591949290600160401b82101561448a578161118f9160016143b59594018155613aaf565b838252601086528282206143c98154613c75565b9055838252601286526143e0838320918254613c68565b90558281526010855281812054614420575b8460136000805160206144bf83398151915294959652828083205492601283522054908351928352820152a2565b601185528181205494606486029580870460641490151715614476576144628495966000805160206144bf833981519152958452601083528484205490613dba565b8583526013825283832055949392506143f2565b634e487b7160e01b82526011600452602482fd5b634e487b7160e01b85526041600452602485fdfed43c77f044c1f8bc6adf6676b4ce17edda35ef8ee63f154568826c0ecb3c6bf34e7c7fc7de54ec4be7f30b13e5fd14c328fa4d7eedc626705c3761f40b044337896747df6f85f68aa379fda7483f2ff76dfa9d71e793ab17d4e7fa56f7613b96fe20975ac1b4744ea5a378b4084bae1feecbc48fd64d3b83d54439ff477c14b477e6cb7a03a858796fb865c51dd9a96a5f1f38781c9b0ef88bf64bd5157d82a68be0079c531659141344cd1fd0a4f28419497f9722a3daafe3b4186f6b6457e0b33e2c357529261604bd85a492b3aec6a2c2b3296ebecbf0f6c0d901ecd3a346a2646970667358221220f5ab5f3a34e1b71591b167de19b0542b75ce531a6b6129917356474196fb5f4d64736f6c63430008140033",
  "linkReferences": {},
  "deployedLinkReferences": {}
}