{
  "_format": "hh-sol-artifact-1",
  "contractName": "BitredictBoostSystem",
  "sourceName": "contracts/BitredictBoostSystem.sol",
  "abi": [
    {
      "inputs": [
        {
          "internalType": "address",
          "name": "_poolCore",
          "type": "address"
        },
        {
          "internalType": "address",
          "name": "_revenueCollector",
          "type": "address"
        }
      ],
      "stateMutability": "nonpayable",
      "type": "constructor"
    },
    {
      "inputs": [
        {
          "internalType": "address",
          "name": "owner",
          "type": "address"
        }
      ],
      "name": "OwnableInvalidOwner",
      "type": "error"
    },
    {
      "inputs": [
        {
          "internalType": "address",
          "name": "account",
          "type": "address"
        }
      ],
      "name": "OwnableUnauthorizedAccount",
      "type": "error"
    },
    {
      "anonymous": false,
      "inputs": [
        {
          "indexed": false,
          "internalType": "enum BoostTier",
          "name": "tier",
          "type": "uint8"
        },
        {
          "indexed": false,
          "internalType": "uint256",
          "name": "totalUsage",
          "type": "uint256"
        },
        {
          "indexed": false,
          "internalType": "uint256",
          "name": "totalRevenue",
          "type": "uint256"
        }
      ],
      "name": "BoostAnalyticsUpdated",
      "type": "event"
    },
    {
      "anonymous": false,
      "inputs": [
        {
          "indexed": true,
          "internalType": "uint256",
          "name": "poolId",
          "type": "uint256"
        },
        {
          "indexed": false,
          "internalType": "enum BoostTier",
          "name": "tier",
          "type": "uint8"
        }
      ],
      "name": "BoostExpired",
      "type": "event"
    },
    {
      "anonymous": false,
      "inputs": [
        {
          "indexed": true,
          "internalType": "address",
          "name": "collector",
          "type": "address"
        },
        {
          "indexed": false,
          "internalType": "uint256",
          "name": "amount",
          "type": "uint256"
        }
      ],
      "name": "BoostRevenueClaimed",
      "type": "event"
    },
    {
      "anonymous": false,
      "inputs": [
        {
          "indexed": true,
          "internalType": "uint256",
          "name": "poolId",
          "type": "uint256"
        },
        {
          "indexed": false,
          "internalType": "enum BoostTier",
          "name": "fromTier",
          "type": "uint8"
        },
        {
          "indexed": false,
          "internalType": "enum BoostTier",
          "name": "toTier",
          "type": "uint8"
        },
        {
          "indexed": false,
          "internalType": "uint256",
          "name": "additionalFee",
          "type": "uint256"
        }
      ],
      "name": "BoostUpgraded",
      "type": "event"
    },
    {
      "anonymous": false,
      "inputs": [
        {
          "indexed": true,
          "internalType": "address",
          "name": "previousOwner",
          "type": "address"
        },
        {
          "indexed": true,
          "internalType": "address",
          "name": "newOwner",
          "type": "address"
        }
      ],
      "name": "OwnershipTransferred",
      "type": "event"
    },
    {
      "anonymous": false,
      "inputs": [
        {
          "indexed": true,
          "internalType": "uint256",
          "name": "poolId",
          "type": "uint256"
        },
        {
          "indexed": false,
          "internalType": "enum BoostTier",
          "name": "tier",
          "type": "uint8"
        },
        {
          "indexed": false,
          "internalType": "uint256",
          "name": "expiry",
          "type": "uint256"
        },
        {
          "indexed": false,
          "internalType": "uint256",
          "name": "fee",
          "type": "uint256"
        },
        {
          "indexed": true,
          "internalType": "address",
          "name": "booster",
          "type": "address"
        }
      ],
      "name": "PoolBoosted",
      "type": "event"
    },
    {
      "inputs": [],
      "name": "BOOST_DURATION",
      "outputs": [
        {
          "internalType": "uint256",
          "name": "",
          "type": "uint256"
        }
      ],
      "stateMutability": "view",
      "type": "function"
    },
    {
      "inputs": [],
      "name": "MAX_BRONZE_POOLS",
      "outputs": [
        {
          "internalType": "uint256",
          "name": "",
          "type": "uint256"
        }
      ],
      "stateMutability": "view",
      "type": "function"
    },
    {
      "inputs": [],
      "name": "MAX_GOLD_POOLS",
      "outputs": [
        {
          "internalType": "uint256",
          "name": "",
          "type": "uint256"
        }
      ],
      "stateMutability": "view",
      "type": "function"
    },
    {
      "inputs": [],
      "name": "MAX_SILVER_POOLS",
      "outputs": [
        {
          "internalType": "uint256",
          "name": "",
          "type": "uint256"
        }
      ],
      "stateMutability": "view",
      "type": "function"
    },
    {
      "inputs": [
        {
          "internalType": "enum BoostTier",
          "name": "",
          "type": "uint8"
        }
      ],
      "name": "activeBoostCount",
      "outputs": [
        {
          "internalType": "uint256",
          "name": "",
          "type": "uint256"
        }
      ],
      "stateMutability": "view",
      "type": "function"
    },
    {
      "inputs": [],
      "name": "batchCleanupExpiredBoosts",
      "outputs": [],
      "stateMutability": "nonpayable",
      "type": "function"
    },
    {
      "inputs": [
        {
          "internalType": "uint256",
          "name": "",
          "type": "uint256"
        }
      ],
      "name": "bitrBoostFees",
      "outputs": [
        {
          "internalType": "uint256",
          "name": "",
          "type": "uint256"
        }
      ],
      "stateMutability": "view",
      "type": "function"
    },
    {
      "inputs": [],
      "name": "boostAnalytics",
      "outputs": [
        {
          "internalType": "uint256",
          "name": "totalBoostedPools",
          "type": "uint256"
        },
        {
          "internalType": "uint256",
          "name": "totalBoostRevenue",
          "type": "uint256"
        },
        {
          "internalType": "uint256",
          "name": "averageBoostDuration",
          "type": "uint256"
        },
        {
          "internalType": "uint256",
          "name": "lastUpdated",
          "type": "uint256"
        }
      ],
      "stateMutability": "view",
      "type": "function"
    },
    {
      "inputs": [
        {
          "internalType": "uint256",
          "name": "",
          "type": "uint256"
        }
      ],
      "name": "boostFees",
      "outputs": [
        {
          "internalType": "uint256",
          "name": "",
          "type": "uint256"
        }
      ],
      "stateMutability": "view",
      "type": "function"
    },
    {
      "inputs": [
        {
          "internalType": "uint256",
          "name": "poolId",
          "type": "uint256"
        },
        {
          "internalType": "enum BoostTier",
          "name": "tier",
          "type": "uint8"
        }
      ],
      "name": "boostPool",
      "outputs": [],
      "stateMutability": "payable",
      "type": "function"
    },
    {
      "inputs": [
        {
          "internalType": "uint256",
          "name": "poolId",
          "type": "uint256"
        },
        {
          "internalType": "enum BoostTier",
          "name": "tier",
          "type": "uint8"
        }
      ],
      "name": "canBoostPool",
      "outputs": [
        {
          "internalType": "bool",
          "name": "canBoost",
          "type": "bool"
        },
        {
          "internalType": "string",
          "name": "reason",
          "type": "string"
        }
      ],
      "stateMutability": "view",
      "type": "function"
    },
    {
      "inputs": [],
      "name": "claimBoostRevenue",
      "outputs": [],
      "stateMutability": "nonpayable",
      "type": "function"
    },
    {
      "inputs": [
        {
          "internalType": "uint256[]",
          "name": "poolIds",
          "type": "uint256[]"
        }
      ],
      "name": "cleanupExpiredBoosts",
      "outputs": [],
      "stateMutability": "nonpayable",
      "type": "function"
    },
    {
      "inputs": [],
      "name": "emergencyWithdraw",
      "outputs": [],
      "stateMutability": "nonpayable",
      "type": "function"
    },
    {
      "inputs": [
        {
          "internalType": "uint256",
          "name": "poolId",
          "type": "uint256"
        },
        {
          "internalType": "uint256",
          "name": "additionalHours",
          "type": "uint256"
        }
      ],
      "name": "extendBoost",
      "outputs": [],
      "stateMutability": "payable",
      "type": "function"
    },
    {
      "inputs": [],
      "name": "getBoostAnalytics",
      "outputs": [
        {
          "internalType": "uint256",
          "name": "totalBoostedPools",
          "type": "uint256"
        },
        {
          "internalType": "uint256",
          "name": "totalBoostRevenueValue",
          "type": "uint256"
        },
        {
          "internalType": "uint256",
          "name": "averageBoostDuration",
          "type": "uint256"
        },
        {
          "internalType": "uint256",
          "name": "bronzeUsage",
          "type": "uint256"
        },
        {
          "internalType": "uint256",
          "name": "silverUsage",
          "type": "uint256"
        },
        {
          "internalType": "uint256",
          "name": "goldUsage",
          "type": "uint256"
        },
        {
          "internalType": "uint256",
          "name": "lastUpdated",
          "type": "uint256"
        }
      ],
      "stateMutability": "view",
      "type": "function"
    },
    {
      "inputs": [
        {
          "internalType": "uint256",
          "name": "poolId",
          "type": "uint256"
        },
        {
          "internalType": "enum BoostTier",
          "name": "tier",
          "type": "uint8"
        }
      ],
      "name": "getBoostCost",
      "outputs": [
        {
          "internalType": "uint256",
          "name": "cost",
          "type": "uint256"
        }
      ],
      "stateMutability": "view",
      "type": "function"
    },
    {
      "inputs": [
        {
          "internalType": "uint256",
          "name": "poolId",
          "type": "uint256"
        }
      ],
      "name": "getBoostInfo",
      "outputs": [
        {
          "internalType": "enum BoostTier",
          "name": "tier",
          "type": "uint8"
        },
        {
          "internalType": "uint256",
          "name": "expiry",
          "type": "uint256"
        },
        {
          "internalType": "uint256",
          "name": "startTime",
          "type": "uint256"
        },
        {
          "internalType": "address",
          "name": "booster",
          "type": "address"
        },
        {
          "internalType": "bool",
          "name": "isActive",
          "type": "bool"
        },
        {
          "internalType": "uint256",
          "name": "remainingTime",
          "type": "uint256"
        }
      ],
      "stateMutability": "view",
      "type": "function"
    },
    {
      "inputs": [],
      "name": "getBoostStats",
      "outputs": [
        {
          "internalType": "uint256",
          "name": "totalBoosted",
          "type": "uint256"
        },
        {
          "internalType": "uint256",
          "name": "bronzeBoosted",
          "type": "uint256"
        },
        {
          "internalType": "uint256",
          "name": "silverBoosted",
          "type": "uint256"
        },
        {
          "internalType": "uint256",
          "name": "goldBoosted",
          "type": "uint256"
        },
        {
          "internalType": "uint256",
          "name": "totalRevenue",
          "type": "uint256"
        },
        {
          "internalType": "uint256",
          "name": "averageFee",
          "type": "uint256"
        }
      ],
      "stateMutability": "view",
      "type": "function"
    },
    {
      "inputs": [],
      "name": "getBoostedPools",
      "outputs": [
        {
          "internalType": "uint256[]",
          "name": "poolIds",
          "type": "uint256[]"
        },
        {
          "internalType": "enum BoostTier[]",
          "name": "tiers",
          "type": "uint8[]"
        }
      ],
      "stateMutability": "view",
      "type": "function"
    },
    {
      "inputs": [
        {
          "internalType": "enum BoostTier",
          "name": "tier",
          "type": "uint8"
        }
      ],
      "name": "getBoostedPoolsByTier",
      "outputs": [
        {
          "internalType": "uint256[]",
          "name": "",
          "type": "uint256[]"
        }
      ],
      "stateMutability": "view",
      "type": "function"
    },
    {
      "inputs": [
        {
          "internalType": "uint256",
          "name": "poolId",
          "type": "uint256"
        }
      ],
      "name": "getPoolBoost",
      "outputs": [
        {
          "internalType": "enum BoostTier",
          "name": "tier",
          "type": "uint8"
        },
        {
          "internalType": "uint256",
          "name": "expiry",
          "type": "uint256"
        }
      ],
      "stateMutability": "view",
      "type": "function"
    },
    {
      "inputs": [
        {
          "internalType": "uint256",
          "name": "limit",
          "type": "uint256"
        }
      ],
      "name": "getTopBoostedPools",
      "outputs": [
        {
          "internalType": "uint256[]",
          "name": "poolIds",
          "type": "uint256[]"
        },
        {
          "internalType": "enum BoostTier[]",
          "name": "tiers",
          "type": "uint8[]"
        },
        {
          "internalType": "uint256[]",
          "name": "expiries",
          "type": "uint256[]"
        }
      ],
      "stateMutability": "pure",
      "type": "function"
    },
    {
      "inputs": [
        {
          "internalType": "uint256",
          "name": "poolId",
          "type": "uint256"
        }
      ],
      "name": "isPoolBoosted",
      "outputs": [
        {
          "internalType": "bool",
          "name": "",
          "type": "bool"
        }
      ],
      "stateMutability": "view",
      "type": "function"
    },
    {
      "inputs": [],
      "name": "owner",
      "outputs": [
        {
          "internalType": "address",
          "name": "",
          "type": "address"
        }
      ],
      "stateMutability": "view",
      "type": "function"
    },
    {
      "inputs": [],
      "name": "pauseBoostSystem",
      "outputs": [],
      "stateMutability": "nonpayable",
      "type": "function"
    },
    {
      "inputs": [
        {
          "internalType": "uint256",
          "name": "",
          "type": "uint256"
        }
      ],
      "name": "poolBoostExpiry",
      "outputs": [
        {
          "internalType": "uint256",
          "name": "",
          "type": "uint256"
        }
      ],
      "stateMutability": "view",
      "type": "function"
    },
    {
      "inputs": [
        {
          "internalType": "uint256",
          "name": "",
          "type": "uint256"
        }
      ],
      "name": "poolBoostStartTime",
      "outputs": [
        {
          "internalType": "uint256",
          "name": "",
          "type": "uint256"
        }
      ],
      "stateMutability": "view",
      "type": "function"
    },
    {
      "inputs": [
        {
          "internalType": "uint256",
          "name": "",
          "type": "uint256"
        }
      ],
      "name": "poolBoostTier",
      "outputs": [
        {
          "internalType": "enum BoostTier",
          "name": "",
          "type": "uint8"
        }
      ],
      "stateMutability": "view",
      "type": "function"
    },
    {
      "inputs": [
        {
          "internalType": "uint256",
          "name": "",
          "type": "uint256"
        }
      ],
      "name": "poolBooster",
      "outputs": [
        {
          "internalType": "address",
          "name": "",
          "type": "address"
        }
      ],
      "stateMutability": "view",
      "type": "function"
    },
    {
      "inputs": [],
      "name": "poolCore",
      "outputs": [
        {
          "internalType": "contract IBitredictPoolCore",
          "name": "",
          "type": "address"
        }
      ],
      "stateMutability": "view",
      "type": "function"
    },
    {
      "inputs": [],
      "name": "renounceOwnership",
      "outputs": [],
      "stateMutability": "nonpayable",
      "type": "function"
    },
    {
      "inputs": [],
      "name": "revenueCollector",
      "outputs": [
        {
          "internalType": "address",
          "name": "",
          "type": "address"
        }
      ],
      "stateMutability": "view",
      "type": "function"
    },
    {
      "inputs": [
        {
          "internalType": "address",
          "name": "_poolCore",
          "type": "address"
        }
      ],
      "name": "setPoolCore",
      "outputs": [],
      "stateMutability": "nonpayable",
      "type": "function"
    },
    {
      "inputs": [
        {
          "internalType": "address",
          "name": "_revenueCollector",
          "type": "address"
        }
      ],
      "name": "setRevenueCollector",
      "outputs": [],
      "stateMutability": "nonpayable",
      "type": "function"
    },
    {
      "inputs": [],
      "name": "totalBoostRevenue",
      "outputs": [
        {
          "internalType": "uint256",
          "name": "",
          "type": "uint256"
        }
      ],
      "stateMutability": "view",
      "type": "function"
    },
    {
      "inputs": [
        {
          "internalType": "address",
          "name": "newOwner",
          "type": "address"
        }
      ],
      "name": "transferOwnership",
      "outputs": [],
      "stateMutability": "nonpayable",
      "type": "function"
    },
    {
      "inputs": [
        {
          "internalType": "uint256[4]",
          "name": "_newFees",
          "type": "uint256[4]"
        }
      ],
      "name": "updateBoostFees",
      "outputs": [],
      "stateMutability": "nonpayable",
      "type": "function"
    },
    {
      "stateMutability": "payable",
      "type": "receive"
    }
  ],
  "bytecode": "0x608034620002485762001ff2906001600160401b03601f38849003908101601f1916830190828211848310176200024d57808491604096879485528339810103126200024857620000508262000283565b6200005f602080940162000283565b903315620002305760008054336001600160a01b031980831682178455956001600160a01b03948594909390929085167f8be0079c531659141344cd1fd0a4f28419497f9722a3daafe3b4186f6b6457e08480a3620000bd62000263565b828152671bc16d674ec8000089820152674563918244f400008a820152678ac7230489e800006060820152825b6004811062000217575050506200010062000263565b81815267a688906bd8b00000888201526801a055690d9db8000089820152680340aad21b3b7000006060820152905b60048110620001f757505016918215620001b3571692831562000170575081600154161760015560105416176010554260165551611d599081620002998239f35b60649085519062461bcd60e51b82526004820152601960248201527f496e76616c696420726576656e756520636f6c6c6563746f72000000000000006044820152fd5b855162461bcd60e51b815260048101869052601960248201527f496e76616c696420706f6f6c20636f72652061646472657373000000000000006044820152606490fd5b81516001600160481b03166006820155849350908701906001016200012f565b81518316600282015586955090890190600101620000ea565b8451631e4fbdf760e01b815260006004820152602490fd5b600080fd5b634e487b7160e01b600052604160045260246000fd5b60405190608082016001600160401b038111838210176200024d57604052565b51906001600160a01b0382168203620002485756fe6080604081815260049081361015610022575b505050361561002057600080fd5b005b600092833560e01c90816325edb3281461154a57816333649e1c146115195750806338cac0c2146114f057806339cb2c91146114c45780633df2afa61461149c578063480d15411461146a57806348c367b5146113ff5780634f023607146113a5578063715018a61461135d5780637210b206146112d05780637ed2882e1461123657806385ea8675146111cb57806386e4673e146111a35780638da5cb5b1461117b57806394cbdbe0146110c15780639bd55d31146110435780639eadf2d7146110245780639f010deb14610fbe578063a824578314610df4578063aa57f57e14610da4578063ab48992914610cb4578063b33ef43d14610c88578063b6a1b6a514610c5f578063cd7358b914610c43578063cde38cdf14610bf3578063d505854714610ba9578063d9c6176c14610b8b578063db2e21bc14610ac9578063db885cec14610a90578063e23345931461080e578063e82ac076146107da578063ebbe74d71461061f578063f286d160146106a3578063f2fde38b14610624578063f56926b21461061f578063f8bf195f1461061f578063fd121539146105c65763ffd230c903610012576101d636611649565b929091818410156105b357831561057b576001548151632f0c38e960e11b815280840185905260249360209290916001600160a01b039182169084818881855afa9081156105445790610230918b9161054e575b50611756565b8451809163068bcd8d60e01b8252888583015281886102809485935afa918215610544578a92610517575b5050511633036104de5761026e86611c08565b6102778761166d565b5410156104ac57848752600b825260ff83882054169386600201548286101561049a578515158080610487575b1561045e575085881115610424577f1f04bf32346be6ad58fcb574391fb7ad3c912bf4f5ef6c758624501be99e4c5460606102e589938960020154906118fa565b976102ef8161166d565b6102f981546118d7565b90556103078851809261155e565b6103138782018c61155e565b8888820152a25b8434036103e75761032d85600f54611907565b600f55858852600b835283882060ff1981541660ff8916179055620151804201918242116103d6575050848752600c80835283882091909155600d8252828720429055600e825282872080546001600160a01b03191633179055600080516020611ce48339815191529392916103a28761166d565b6103ac8154611914565b90556103b88488611c38565b858852526103d0818720549151928392339784611923565b0390a380f35b634e487b7160e01b89526011905287fd5b601a9192606494519362461bcd60e51b855284015282015279125b98dbdc9c9958dd08189bdbdcdd0819995948185b5bdd5b9d60321b6044820152fd5b5060169192606494519362461bcd60e51b85528401528201527510d85b881bdb9b1e481d5c19dc98591948189bdbdcdd60521b6044820152fd5b95909561046c575b5061031a565b6104759061166d565b61047f81546118d7565b905538610466565b50878a52600c8552858a205442106102a4565b50634e487b7160e01b88526021825287fd5b600f8460649385519362461bcd60e51b85528401528201526e109bdbdcdd081d1a595c88199d5b1b608a1b6044820152fd5b60168460649385519362461bcd60e51b85528401528201527513db9b1e4818dc99585d1bdc8818d85b88189bdbdcdd60521b6044820152fd5b6105369250803d1061053d575b61052e8183611626565b8101906117a6565b388061025b565b503d610524565b86513d8c823e3d90fd5b61056e9150863d8811610574575b6105668183611626565b81019061173e565b3861022a565b503d61055c565b906020606492519162461bcd60e51b8352820152601260248201527124b73b30b634b2103137b7b9ba103a34b2b960711b6044820152fd5b634e487b7160e01b855260218252602485fd5b5091903461061b57602036600319011261061b57358152600b60205260ff828220541690600c602052828120549081421015610611575b5061060a8351809361155e565b6020820152f35b91505080386105fd565b5080fd5b6116b8565b503461069f57602036600319011261069f576001600160a01b0382358181169391929084900361069b576106566116d4565b831561068557505082546001600160a01b031981168317845516600080516020611d048339815191528380a380f35b51631e4fbdf760e01b8152908101849052602490fd5b8480fd5b8280fd5b50903461069f578260031936011261069f576010546001600160a01b039081169133831480156107ce575b1561079a5747928315610761578580808681945af16106eb611940565b501561072457507f582a791fd86fb488ef8a2d4c5d6786ded47a2ed6621bb569f836291489aae22b91602091601054169351908152a280f35b606490602085519162461bcd60e51b8352820152601760248201527614995d995b9d59481d1c985b9cd9995c8819985a5b1959604a1b6044820152fd5b845162461bcd60e51b815260208184015260136024820152724e6f20726576656e756520746f20636c61696d60681b6044820152606490fd5b606490602085519162461bcd60e51b8352820152600e60248201526d139bdd08185d5d1a1bdc9a5e995960921b6044820152fd5b508185541633146106ce565b50823461080b57602036600319011261080b5782359283101561080b575061080360209261166d565b549051908152f35b80fd5b50908160031936011261069f57803590602492833560018060a01b039081600154169183518093632f0c38e960e11b82528787830152818960209687935afa908115610a865790610865918a91610a6f5750611756565b858852600e835283882054163303610a3257848752600b825260ff83882054169584871015610a215786156109ed57858852600c8352838820544210156109b4578115948515806109a9575b1561096f5787600201548381029080820485149015171561095d576018900495863403610922576108e487600f54611907565b600f55610e108085029485041417156103d6575050600080516020611ce4833981519152939291600c918689528282526103ac848a20918254611907565b5060176064928587519362461bcd60e51b855284015282015276496e636f727265637420657874656e73696f6e2066656560481b6044820152fd5b50634e487b7160e01b89526011905287fd5b60176064928587519362461bcd60e51b855284015282015276496e76616c696420657874656e73696f6e20686f75727360481b6044820152fd5b5060308311156108b1565b8460156064928587519362461bcd60e51b855284015282015274109bdbdcdd08185b1c9958591e48195e1c1a5c9959605a1b6044820152fd5b8460106064928587519362461bcd60e51b85528401528201526f141bdbdb081b9bdd08189bdbdcdd195960821b6044820152fd5b634e487b7160e01b88526021855287fd5b825162461bcd60e51b8152808501839052601881880152772737ba103a34329037b934b3b4b730b6103137b7b9ba32b960411b6044820152606490fd5b61056e9150853d8711610574576105668183611626565b85513d8b823e3d90fd5b83823461061b578160031936011261061b5760809060115490601254906013549060165492815194855260208501528301526060820152f35b503461069f578260031936011261069f57610ae26116d4565b478015610b5157835484918291829182916001600160a01b03165af1610b06611940565b5015610b10578280f35b906020606492519162461bcd60e51b8352820152601b60248201527a115b595c99d95b98de481dda5d1a191c985dd85b0819985a5b1959602a1b6044820152fd5b815162461bcd60e51b815260208185015260146024820152734e6f2066756e647320746f20776974686472617760601b6044820152606490fd5b83823461061b578160031936011261061b5760209051620151808152f35b50823461080b57602036600319011261080b5782359283101561080b5750610bdc610bd6610bef9361166d565b54611996565b9051918291602083526020830190611581565b0390f35b50503461061b57602036600319011261061b57356001600160a01b0381169081900361061b57610c216116d4565b610c2c811515611700565b601080546001600160a01b03191691909117905580f35b833461080b578060031936011261080b57610c5c6116d4565b80f35b83823461061b578160031936011261061b5760105490516001600160a01b039091168152602090f35b50903461069f57602036600319011261069f5780359081101561069f5760209250600601549051908152f35b5082903461061b57610cc536611649565b90929084811015610d91578015610d5f576002015492808252600b60205260ff83832054169085821015610d4c57602095508115159081610d39575b50610d0f575b505051908152f35b60020154919290919081811115610d3257610d2a92506118fa565b908380610d07565b5050610d2a565b835250600c855282822054421086610d01565b634e487b7160e01b835260218652602483fd5b825162461bcd60e51b8152602081870152600c60248201526b24b73b30b634b2103a34b2b960a11b6044820152606490fd5b634e487b7160e01b825260218552602482fd5b50503461061b57602036600319011261061b57356001600160a01b0381169081900361061b57610dd26116d4565b610ddd811515611700565b600180546001600160a01b03191691909117905580f35b503461069f5760209182600319360112610fba578035926001600160401b0392838511610fb65736602386011215610fb65784830135938411610fb6576024946005368787831b84010111610fb2578796975b868110610e52578780f35b6001548451632f0c38e960e11b815282841b85018b013588820181905291879082908d9082906001600160a01b03165afa908115610544578a91610f95575b5015610f8857808952600b80875260ff868b205416600c808952878c20548a831015610f765791888d9e9d8b93610ee1989796958415159081610f6b575b50610ee9575b50505050505050611914565b979697610e47565b7f3b39599a0e569d32e7c39669f521b7704a4abb9e4ec2a4d9826f205270f6c30295878352855282822060ff19815416905584528082812055600d84528082812055600e84522060018060a01b03198154169055610f468161166d565b610f5081546118d7565b9055610f5e8951809261155e565ba238808781888e82610ed5565b905042101538610ecf565b634e487b7160e01b8d5260218b528d8dfd5b50610ee190989798611914565b610fac9150873d8911610574576105668183611626565b38610e91565b8780fd5b8580fd5b8380fd5b83823461061b578160031936011261061b5760e09160115491601254916013546001825260146020528282205490600283528380842054936003815220549360165495815197885260208801528601526060850152608084015260a083015260c0820152f35b83823461061b578160031936011261061b57602090600f549051908152f35b50823461080b578060031936011261080b5780600161108a9252600a6020528261107881832054600284528284205490611907565b9160038152600a602052205490611907565b90610bef6110a061109a84611996565b93611996565b6110b38351948486958652850190611581565b9083820360208501526115b5565b50823461080b576020908160031936011261080b5783358152600b825260ff838220541692600c83528082205490600d84528083205490600e855260018060a01b03818520541692878710156111685760c09750861515948561115d575b8515611157575061113042826118fa565b955b61113e8351809961155e565b87015285015260608401521515608083015260a0820152f35b95611132565b94508042109461111f565b634e487b7160e01b855260218852602485fd5b83823461061b578160031936011261061b57905490516001600160a01b039091168152602090f35b50903461069f57602036600319011261069f576020928291358152600d845220549051908152f35b83823461061b576111e46111de36611649565b906119c8565b918051938492151583526020828185015284518093850152815b83811061121f57505060608094508284010152601f80199101168101030190f35b8086018201518782016060015286945081016111fe565b503461069f57608036600319011261069f57366023121561069f5780519060808201906001600160401b038211838310176112bd575260848136821161069b5783905b8282106112ad5750505061128b6116d4565b825b828110611298578380f35b6001906020835193019281600201550161128d565b8135815260209182019101611279565b634e487b7160e01b855260418452602485fd5b5082903461061b578160031936011261061b5760115460018352600a60205281832054600284528284205460038552838520546012549395929490928615806113525761133f575060c09650858404945b815196875260208701528501526060840152608083015260a0820152f35b634e487b7160e01b815260128852602490fd5b5060c0975094611321565b833461080b578060031936011261080b576113766116d4565b80546001600160a01b03198116825581906001600160a01b0316600080516020611d048339815191528280a380f35b5082903461061b57602036600319011261061b57823591828152600b60205260ff828220541684811015610d915760209450151592836113ea575b5050519015158152f35b8293508152600c8452205442109083806113e0565b50823461080b57602036600319011261080b5750610bef61144f92359161142583611996565b9261145d61143b61143583611996565b92611996565b918351968796606088526060880190611581565b9086820360208801526115b5565b9184830390850152611581565b50903461069f57602036600319011261069f5760ff8260209461149a93358152600b86522054169151809261155e565bf35b50903461069f57602036600319011261069f576020928291358152600c845220549051908152f35b50903461069f57602036600319011261069f5780359081101561069f5760209250600201549051908152f35b83823461061b578160031936011261061b5760015490516001600160a01b039091168152602090f35b918491503461061b57602036600319011261061b5792358152600e6020908152929020546001600160a01b03168152f35b843461080b578060031936011261080b5780f35b90600482101561156b5752565b634e487b7160e01b600052602160045260246000fd5b90815180825260208080930193019160005b8281106115a1575050505090565b835185529381019392810192600101611593565b90815180825260208080930193019160005b8281106115d5575050505090565b909192938280826115e9600194895161155e565b019501939291016115c7565b604081019081106001600160401b0382111761161057604052565b634e487b7160e01b600052604160045260246000fd5b601f909101601f19168101906001600160401b0382119082101761161057604052565b6040906003190112611668576004359060243560048110156116685790565b600080fd5b600481101561156b57600052600a602052604060002090565b600481101561156b576000526014602052604060002090565b600481101561156b576000526015602052604060002090565b3461166857600036600319011261166857602060405160058152f35b6000546001600160a01b031633036116e857565b60405163118cdaa760e01b8152336004820152602490fd5b1561170757565b60405162461bcd60e51b815260206004820152600f60248201526e496e76616c6964206164647265737360881b6044820152606490fd5b90816020910312611668575180151581036116685790565b1561175d57565b60405162461bcd60e51b8152602060048201526013602482015272141bdbdb08191bd95cc81b9bdd08195e1a5cdd606a1b6044820152606490fd5b519060ff8216820361166857565b80916102809283910312611668576040519182016001600160401b038111838210176116105760405280516001600160a01b0381168103611668578252602081015161ffff8116810361166857602083015261180460408201611798565b604083015261181560608201611798565b606083015261182660808201611798565b608083015261183760a08201611798565b60a083015260c081015160c083015260e081015160e0830152610100808201519083015261012080820151908301526101408082015190830152610160808201519083015261018080820151908301526101a080820151908301526101c080820151908301526101e08082015190830152610200808201519083015261022080820151908301526102408082015190830152610260809101519082015290565b80156118e4576000190190565b634e487b7160e01b600052601160045260246000fd5b919082039182116118e457565b919082018092116118e457565b60001981146118e45760010190565b60409194939261193782606081019761155e565b60208201520152565b3d1561197a573d906001600160401b038211611610576040519161196e601f8201601f191660200184611626565b82523d6000602084013e565b606090565b6001600160401b0381116116105760051b60200190565b906119a08261197f565b6119ad6040519182611626565b82815280926119be601f199161197f565b0190602036910137565b919060018060a01b0360015416604093845192632f0c38e960e11b845260049282848601526020948581602481855afa908115611b7b57600091611beb575b5015611bb85783821015611b1a578115611b86578651809163068bcd8d60e01b825284868301528160246102809485935afa8015611b7b57611b5d575b5050611a4f81611c08565b611a588261166d565b541015611b2f5781600052600b845260ff8660002054169183831015611b1a578215159081611b04575b50611ac4575b5050835160019490928301916001600160401b03831184841017611aaf5750526000815290565b604190634e487b7160e01b6000525260246000fd5b1115611ad1573880611a88565b507510d85b881bdb9b1e481d5c19dc98591948189bdbdcdd60521b6000935191611afa836115f5565b6016835282015290565b9050600052600c84528560002054421038611a82565b602184634e487b7160e01b6000525260246000fd5b5050506e109bdbdcdd081d1a595c88199d5b1b608a1b6000935191611b53836115f5565b600f835282015290565b81611b7392903d1061053d5761052e8183611626565b503880611a44565b88513d6000823e3d90fd5b505050507124b73b30b634b2103137b7b9ba103a34b2b960711b6000935191611bae836115f5565b6012835282015290565b5050505072141bdbdb08191bd95cc81b9bdd08195e1a5cdd606a1b6000935191611be1836115f5565b6013835282015290565b611c029150863d8811610574576105668183611626565b38611a07565b600481101561156b5760018114611c325760028114611c3257600314611c2d57600090565b600590565b50600590565b7fcd94a5125a4dac18dc42874d70c23227e18aa9b209fd556060fe34110d056d1e91611c65601154611914565b601155611c7481601254611907565b601255611c8082611686565b611c8a8154611914565b9055611ca0611c988361169f565b918254611907565b905542601655601154611cd7575b611cb781611686565b5490611cd2611cc58261169f565b5460405193849384611923565b0390a1565b62015180601355611cae56fe57729166f7044080032425b1a2983f2d598bea4b7fcb81566631c207972d5a2b8be0079c531659141344cd1fd0a4f28419497f9722a3daafe3b4186f6b6457e0a264697066735822122086d9d10841c41b7585bf89157a627b2185b4561813948d454bf4415af11fcfe064736f6c63430008140033",
  "linkReferences": {},
  "deployedLinkReferences": {}
}