{
  "_format": "hh-sol-artifact-1",
  "contractName": "BitredictPoolFactory",
  "sourceName": "contracts/BitredictPoolFactory.sol",
  "abi": [
    {
      "inputs": [
        {
          "internalType": "address",
          "name": "_poolCore",
          "type": "address"
        },
        {
          "internalType": "address",
          "name": "_comboPools",
          "type": "address"
        },
        {
          "internalType": "address payable",
          "name": "_boostSystem",
          "type": "address"
        },
        {
          "internalType": "address",
          "name": "_bitrToken",
          "type": "address"
        }
      ],
      "stateMutability": "nonpayable",
      "type": "constructor"
    },
    {
      "inputs": [
        {
          "internalType": "address",
          "name": "owner",
          "type": "address"
        }
      ],
      "name": "OwnableInvalidOwner",
      "type": "error"
    },
    {
      "inputs": [
        {
          "internalType": "address",
          "name": "account",
          "type": "address"
        }
      ],
      "name": "OwnableUnauthorizedAccount",
      "type": "error"
    },
    {
      "inputs": [],
      "name": "ReentrancyGuardReentrantCall",
      "type": "error"
    },
    {
      "anonymous": false,
      "inputs": [
        {
          "indexed": true,
          "internalType": "uint256",
          "name": "comboPoolId",
          "type": "uint256"
        },
        {
          "indexed": true,
          "internalType": "address",
          "name": "creator",
          "type": "address"
        },
        {
          "indexed": false,
          "internalType": "enum BoostTier",
          "name": "boostTier",
          "type": "uint8"
        },
        {
          "indexed": false,
          "internalType": "uint256",
          "name": "totalCost",
          "type": "uint256"
        }
      ],
      "name": "ComboPoolCreatedWithBoost",
      "type": "event"
    },
    {
      "anonymous": false,
      "inputs": [
        {
          "indexed": false,
          "internalType": "string",
          "name": "contractName",
          "type": "string"
        },
        {
          "indexed": false,
          "internalType": "address",
          "name": "oldAddress",
          "type": "address"
        },
        {
          "indexed": false,
          "internalType": "address",
          "name": "newAddress",
          "type": "address"
        }
      ],
      "name": "ContractUpgraded",
      "type": "event"
    },
    {
      "anonymous": false,
      "inputs": [
        {
          "indexed": false,
          "internalType": "uint256",
          "name": "totalPools",
          "type": "uint256"
        },
        {
          "indexed": false,
          "internalType": "uint256",
          "name": "totalVolume",
          "type": "uint256"
        },
        {
          "indexed": false,
          "internalType": "uint256",
          "name": "totalBoosted",
          "type": "uint256"
        }
      ],
      "name": "FactoryAnalyticsUpdated",
      "type": "event"
    },
    {
      "anonymous": false,
      "inputs": [
        {
          "indexed": true,
          "internalType": "address",
          "name": "previousOwner",
          "type": "address"
        },
        {
          "indexed": true,
          "internalType": "address",
          "name": "newOwner",
          "type": "address"
        }
      ],
      "name": "OwnershipTransferred",
      "type": "event"
    },
    {
      "anonymous": false,
      "inputs": [
        {
          "indexed": true,
          "internalType": "uint256",
          "name": "poolId",
          "type": "uint256"
        },
        {
          "indexed": true,
          "internalType": "address",
          "name": "creator",
          "type": "address"
        },
        {
          "indexed": false,
          "internalType": "enum BoostTier",
          "name": "boostTier",
          "type": "uint8"
        },
        {
          "indexed": false,
          "internalType": "uint256",
          "name": "totalCost",
          "type": "uint256"
        }
      ],
      "name": "PoolCreatedWithBoost",
      "type": "event"
    },
    {
      "inputs": [
        {
          "internalType": "bytes32[]",
          "name": "_predictedOutcomes",
          "type": "bytes32[]"
        },
        {
          "internalType": "uint256[]",
          "name": "_odds",
          "type": "uint256[]"
        },
        {
          "internalType": "uint256[]",
          "name": "_creatorStakes",
          "type": "uint256[]"
        },
        {
          "internalType": "uint256[]",
          "name": "",
          "type": "uint256[]"
        },
        {
          "internalType": "uint256[]",
          "name": "",
          "type": "uint256[]"
        },
        {
          "internalType": "string[]",
          "name": "",
          "type": "string[]"
        },
        {
          "internalType": "string[]",
          "name": "",
          "type": "string[]"
        },
        {
          "internalType": "bool",
          "name": "",
          "type": "bool"
        }
      ],
      "name": "batchCreatePools",
      "outputs": [
        {
          "internalType": "uint256[]",
          "name": "",
          "type": "uint256[]"
        }
      ],
      "stateMutability": "payable",
      "type": "function"
    },
    {
      "inputs": [],
      "name": "bitrToken",
      "outputs": [
        {
          "internalType": "contract IERC20",
          "name": "",
          "type": "address"
        }
      ],
      "stateMutability": "view",
      "type": "function"
    },
    {
      "inputs": [],
      "name": "boostSystem",
      "outputs": [
        {
          "internalType": "contract BitredictBoostSystem",
          "name": "",
          "type": "address"
        }
      ],
      "stateMutability": "view",
      "type": "function"
    },
    {
      "inputs": [
        {
          "internalType": "address",
          "name": "creator",
          "type": "address"
        },
        {
          "internalType": "uint256",
          "name": "poolId",
          "type": "uint256"
        },
        {
          "internalType": "enum BoostTier",
          "name": "boostTier",
          "type": "uint8"
        },
        {
          "internalType": "bool",
          "name": "useBitr",
          "type": "bool"
        }
      ],
      "name": "canCreatePoolWithBoost",
      "outputs": [
        {
          "internalType": "bool",
          "name": "canCreate",
          "type": "bool"
        },
        {
          "internalType": "string",
          "name": "reason",
          "type": "string"
        }
      ],
      "stateMutability": "view",
      "type": "function"
    },
    {
      "inputs": [],
      "name": "comboPools",
      "outputs": [
        {
          "internalType": "contract BitredictComboPools",
          "name": "",
          "type": "address"
        }
      ],
      "stateMutability": "view",
      "type": "function"
    },
    {
      "inputs": [
        {
          "components": [
            {
              "internalType": "bytes32",
              "name": "marketId",
              "type": "bytes32"
            },
            {
              "internalType": "bytes32",
              "name": "expectedOutcome",
              "type": "bytes32"
            },
            {
              "internalType": "bool",
              "name": "resolved",
              "type": "bool"
            },
            {
              "internalType": "bytes32",
              "name": "actualOutcome",
              "type": "bytes32"
            },
            {
              "internalType": "string",
              "name": "description",
              "type": "string"
            },
            {
              "internalType": "uint16",
              "name": "odds",
              "type": "uint16"
            }
          ],
          "internalType": "struct BitredictComboPools.OutcomeCondition[]",
          "name": "conditions",
          "type": "tuple[]"
        },
        {
          "internalType": "uint16",
          "name": "combinedOdds",
          "type": "uint16"
        },
        {
          "internalType": "uint256",
          "name": "creatorStake",
          "type": "uint256"
        },
        {
          "internalType": "uint256",
          "name": "earliestEventStart",
          "type": "uint256"
        },
        {
          "internalType": "uint256",
          "name": "latestEventEnd",
          "type": "uint256"
        },
        {
          "internalType": "string",
          "name": "category",
          "type": "string"
        },
        {
          "internalType": "uint256",
          "name": "maxBetPerUser",
          "type": "uint256"
        },
        {
          "internalType": "bool",
          "name": "useBitr",
          "type": "bool"
        },
        {
          "internalType": "enum BoostTier",
          "name": "_boostTier",
          "type": "uint8"
        }
      ],
      "name": "createComboPoolWithBoost",
      "outputs": [
        {
          "internalType": "uint256",
          "name": "comboPoolId",
          "type": "uint256"
        }
      ],
      "stateMutability": "payable",
      "type": "function"
    },
    {
      "inputs": [
        {
          "internalType": "bytes32",
          "name": "_predictedOutcome",
          "type": "bytes32"
        },
        {
          "internalType": "uint256",
          "name": "_odds",
          "type": "uint256"
        },
        {
          "internalType": "uint256",
          "name": "_creatorStake",
          "type": "uint256"
        },
        {
          "internalType": "uint256",
          "name": "_eventStartTime",
          "type": "uint256"
        },
        {
          "internalType": "uint256",
          "name": "_eventEndTime",
          "type": "uint256"
        },
        {
          "internalType": "bytes32",
          "name": "_leagueHash",
          "type": "bytes32"
        },
        {
          "internalType": "bytes32",
          "name": "_categoryHash",
          "type": "bytes32"
        },
        {
          "internalType": "bytes32",
          "name": "",
          "type": "bytes32"
        },
        {
          "internalType": "bytes32",
          "name": "_homeTeamHash",
          "type": "bytes32"
        },
        {
          "internalType": "bytes32",
          "name": "_awayTeamHash",
          "type": "bytes32"
        },
        {
          "internalType": "bytes32",
          "name": "_titleHash",
          "type": "bytes32"
        },
        {
          "internalType": "bool",
          "name": "_isPrivate",
          "type": "bool"
        },
        {
          "internalType": "uint256",
          "name": "_maxBetPerUser",
          "type": "uint256"
        },
        {
          "internalType": "bool",
          "name": "_useBitr",
          "type": "bool"
        },
        {
          "internalType": "enum OracleType",
          "name": "_oracleType",
          "type": "uint8"
        },
        {
          "internalType": "bytes32",
          "name": "_marketId",
          "type": "bytes32"
        },
        {
          "internalType": "enum MarketType",
          "name": "_marketType",
          "type": "uint8"
        },
        {
          "internalType": "enum BoostTier",
          "name": "_boostTier",
          "type": "uint8"
        }
      ],
      "name": "createPoolWithBoost",
      "outputs": [
        {
          "internalType": "uint256",
          "name": "poolId",
          "type": "uint256"
        }
      ],
      "stateMutability": "payable",
      "type": "function"
    },
    {
      "inputs": [],
      "name": "emergencyPause",
      "outputs": [],
      "stateMutability": "nonpayable",
      "type": "function"
    },
    {
      "inputs": [],
      "name": "emergencyWithdraw",
      "outputs": [],
      "stateMutability": "nonpayable",
      "type": "function"
    },
    {
      "inputs": [],
      "name": "factoryAnalytics",
      "outputs": [
        {
          "internalType": "uint256",
          "name": "totalPoolsCreated",
          "type": "uint256"
        },
        {
          "internalType": "uint256",
          "name": "totalComboPoolsCreated",
          "type": "uint256"
        },
        {
          "internalType": "uint256",
          "name": "totalVolumeProcessed",
          "type": "uint256"
        },
        {
          "internalType": "uint256",
          "name": "totalBoostedPools",
          "type": "uint256"
        },
        {
          "internalType": "uint256",
          "name": "averagePoolSize",
          "type": "uint256"
        },
        {
          "internalType": "uint256",
          "name": "factoryFees",
          "type": "uint256"
        },
        {
          "internalType": "uint256",
          "name": "lastUpdated",
          "type": "uint256"
        }
      ],
      "stateMutability": "view",
      "type": "function"
    },
    {
      "inputs": [],
      "name": "getActivePoolsWithBoosts",
      "outputs": [
        {
          "internalType": "uint256[]",
          "name": "poolIds",
          "type": "uint256[]"
        },
        {
          "internalType": "enum BoostTier[]",
          "name": "boostTiers",
          "type": "uint8[]"
        }
      ],
      "stateMutability": "view",
      "type": "function"
    },
    {
      "inputs": [
        {
          "internalType": "uint256",
          "name": "comboPoolId",
          "type": "uint256"
        }
      ],
      "name": "getAllComboPoolData",
      "outputs": [
        {
          "components": [
            {
              "internalType": "address",
              "name": "creator",
              "type": "address"
            },
            {
              "internalType": "uint256",
              "name": "creatorStake",
              "type": "uint256"
            },
            {
              "internalType": "uint256",
              "name": "totalCreatorSideStake",
              "type": "uint256"
            },
            {
              "internalType": "uint256",
              "name": "maxBettorStake",
              "type": "uint256"
            },
            {
              "internalType": "uint256",
              "name": "totalBettorStake",
              "type": "uint256"
            },
            {
              "internalType": "uint16",
              "name": "totalOdds",
              "type": "uint16"
            },
            {
              "internalType": "uint8",
              "name": "flags",
              "type": "uint8"
            },
            {
              "internalType": "uint8",
              "name": "conditionCount",
              "type": "uint8"
            },
            {
              "internalType": "uint256",
              "name": "eventStartTime",
              "type": "uint256"
            },
            {
              "internalType": "uint256",
              "name": "eventEndTime",
              "type": "uint256"
            },
            {
              "internalType": "uint256",
              "name": "bettingEndTime",
              "type": "uint256"
            },
            {
              "internalType": "uint256",
              "name": "resultTimestamp",
              "type": "uint256"
            },
            {
              "internalType": "bytes32",
              "name": "category",
              "type": "bytes32"
            },
            {
              "internalType": "uint256",
              "name": "maxBetPerUser",
              "type": "uint256"
            },
            {
              "components": [
                {
                  "internalType": "bytes32",
                  "name": "marketId",
                  "type": "bytes32"
                },
                {
                  "internalType": "bytes32",
                  "name": "expectedOutcome",
                  "type": "bytes32"
                },
                {
                  "internalType": "bool",
                  "name": "resolved",
                  "type": "bool"
                },
                {
                  "internalType": "bytes32",
                  "name": "actualOutcome",
                  "type": "bytes32"
                },
                {
                  "internalType": "string",
                  "name": "description",
                  "type": "string"
                },
                {
                  "internalType": "uint16",
                  "name": "odds",
                  "type": "uint16"
                }
              ],
              "internalType": "struct BitredictComboPools.OutcomeCondition[]",
              "name": "conditions",
              "type": "tuple[]"
            }
          ],
          "internalType": "struct BitredictComboPools.ComboPool",
          "name": "comboPool",
          "type": "tuple"
        },
        {
          "internalType": "bool",
          "name": "isBoosted",
          "type": "bool"
        },
        {
          "internalType": "enum BoostTier",
          "name": "boostTier",
          "type": "uint8"
        },
        {
          "internalType": "uint256",
          "name": "boostExpiry",
          "type": "uint256"
        }
      ],
      "stateMutability": "view",
      "type": "function"
    },
    {
      "inputs": [
        {
          "internalType": "uint256",
          "name": "poolId",
          "type": "uint256"
        }
      ],
      "name": "getAllPoolData",
      "outputs": [
        {
          "components": [
            {
              "internalType": "address",
              "name": "creator",
              "type": "address"
            },
            {
              "internalType": "uint16",
              "name": "odds",
              "type": "uint16"
            },
            {
              "internalType": "uint8",
              "name": "flags",
              "type": "uint8"
            },
            {
              "internalType": "enum OracleType",
              "name": "oracleType",
              "type": "uint8"
            },
            {
              "internalType": "enum MarketType",
              "name": "marketType",
              "type": "uint8"
            },
            {
              "internalType": "uint8",
              "name": "reserved",
              "type": "uint8"
            },
            {
              "internalType": "uint256",
              "name": "creatorStake",
              "type": "uint256"
            },
            {
              "internalType": "uint256",
              "name": "totalCreatorSideStake",
              "type": "uint256"
            },
            {
              "internalType": "uint256",
              "name": "maxBettorStake",
              "type": "uint256"
            },
            {
              "internalType": "uint256",
              "name": "totalBettorStake",
              "type": "uint256"
            },
            {
              "internalType": "bytes32",
              "name": "predictedOutcome",
              "type": "bytes32"
            },
            {
              "internalType": "bytes32",
              "name": "result",
              "type": "bytes32"
            },
            {
              "internalType": "uint256",
              "name": "eventStartTime",
              "type": "uint256"
            },
            {
              "internalType": "uint256",
              "name": "eventEndTime",
              "type": "uint256"
            },
            {
              "internalType": "uint256",
              "name": "bettingEndTime",
              "type": "uint256"
            },
            {
              "internalType": "uint256",
              "name": "resultTimestamp",
              "type": "uint256"
            },
            {
              "internalType": "uint256",
              "name": "arbitrationDeadline",
              "type": "uint256"
            },
            {
              "internalType": "uint256",
              "name": "maxBetPerUser",
              "type": "uint256"
            },
            {
              "internalType": "bytes32",
              "name": "league",
              "type": "bytes32"
            },
            {
              "internalType": "bytes32",
              "name": "category",
              "type": "bytes32"
            },
            {
              "internalType": "bytes32",
              "name": "homeTeam",
              "type": "bytes32"
            },
            {
              "internalType": "bytes32",
              "name": "awayTeam",
              "type": "bytes32"
            },
            {
              "internalType": "bytes32",
              "name": "title",
              "type": "bytes32"
            },
            {
              "internalType": "string",
              "name": "marketId",
              "type": "string"
            }
          ],
          "internalType": "struct BitredictPoolCore.Pool",
          "name": "pool",
          "type": "tuple"
        },
        {
          "internalType": "bool",
          "name": "isBoosted",
          "type": "bool"
        },
        {
          "internalType": "enum BoostTier",
          "name": "boostTier",
          "type": "uint8"
        },
        {
          "internalType": "uint256",
          "name": "boostExpiry",
          "type": "uint256"
        }
      ],
      "stateMutability": "view",
      "type": "function"
    },
    {
      "inputs": [],
      "name": "getContractAddresses",
      "outputs": [
        {
          "internalType": "address",
          "name": "poolCoreAddress",
          "type": "address"
        },
        {
          "internalType": "address",
          "name": "comboPoolsAddress",
          "type": "address"
        },
        {
          "internalType": "address",
          "name": "boostSystemAddress",
          "type": "address"
        },
        {
          "internalType": "address",
          "name": "bitrTokenAddress",
          "type": "address"
        }
      ],
      "stateMutability": "view",
      "type": "function"
    },
    {
      "inputs": [
        {
          "internalType": "address",
          "name": "creator",
          "type": "address"
        }
      ],
      "name": "getCreatorAnalytics",
      "outputs": [
        {
          "internalType": "uint256",
          "name": "totalPoolsCreated",
          "type": "uint256"
        },
        {
          "internalType": "uint256",
          "name": "successfulPools",
          "type": "uint256"
        },
        {
          "internalType": "uint256",
          "name": "totalVolumeGenerated",
          "type": "uint256"
        },
        {
          "internalType": "uint256",
          "name": "averagePoolSize",
          "type": "uint256"
        },
        {
          "internalType": "uint256",
          "name": "reputationScore",
          "type": "uint256"
        },
        {
          "internalType": "uint256",
          "name": "winRate",
          "type": "uint256"
        },
        {
          "internalType": "uint256",
          "name": "totalEarnings",
          "type": "uint256"
        },
        {
          "internalType": "uint256",
          "name": "activePoolsCount",
          "type": "uint256"
        },
        {
          "internalType": "uint256[]",
          "name": "creatorPools",
          "type": "uint256[]"
        },
        {
          "internalType": "uint256[]",
          "name": "creatorComboPools",
          "type": "uint256[]"
        },
        {
          "internalType": "uint256",
          "name": "totalBoostedPools",
          "type": "uint256"
        }
      ],
      "stateMutability": "view",
      "type": "function"
    },
    {
      "inputs": [],
      "name": "getFactoryAnalytics",
      "outputs": [
        {
          "components": [
            {
              "internalType": "uint256",
              "name": "totalPoolsCreated",
              "type": "uint256"
            },
            {
              "internalType": "uint256",
              "name": "totalComboPoolsCreated",
              "type": "uint256"
            },
            {
              "internalType": "uint256",
              "name": "totalVolumeProcessed",
              "type": "uint256"
            },
            {
              "internalType": "uint256",
              "name": "totalBoostedPools",
              "type": "uint256"
            },
            {
              "internalType": "uint256",
              "name": "averagePoolSize",
              "type": "uint256"
            },
            {
              "internalType": "uint256",
              "name": "factoryFees",
              "type": "uint256"
            },
            {
              "internalType": "uint256",
              "name": "lastUpdated",
              "type": "uint256"
            }
          ],
          "internalType": "struct BitredictPoolFactory.FactoryAnalytics",
          "name": "",
          "type": "tuple"
        }
      ],
      "stateMutability": "view",
      "type": "function"
    },
    {
      "inputs": [],
      "name": "getGlobalAnalytics",
      "outputs": [
        {
          "internalType": "uint256",
          "name": "totalPools",
          "type": "uint256"
        },
        {
          "internalType": "uint256",
          "name": "totalVolume",
          "type": "uint256"
        },
        {
          "internalType": "uint256",
          "name": "averagePoolSize",
          "type": "uint256"
        },
        {
          "internalType": "uint256",
          "name": "lastUpdated",
          "type": "uint256"
        },
        {
          "components": [
            {
              "internalType": "uint256",
              "name": "totalPoolsCreated",
              "type": "uint256"
            },
            {
              "internalType": "uint256",
              "name": "totalComboPoolsCreated",
              "type": "uint256"
            },
            {
              "internalType": "uint256",
              "name": "totalVolumeProcessed",
              "type": "uint256"
            },
            {
              "internalType": "uint256",
              "name": "totalBoostedPools",
              "type": "uint256"
            },
            {
              "internalType": "uint256",
              "name": "averagePoolSize",
              "type": "uint256"
            },
            {
              "internalType": "uint256",
              "name": "factoryFees",
              "type": "uint256"
            },
            {
              "internalType": "uint256",
              "name": "lastUpdated",
              "type": "uint256"
            }
          ],
          "internalType": "struct BitredictPoolFactory.FactoryAnalytics",
          "name": "factoryStats",
          "type": "tuple"
        },
        {
          "internalType": "uint256",
          "name": "totalBoosted",
          "type": "uint256"
        },
        {
          "internalType": "uint256",
          "name": "totalComboVolume",
          "type": "uint256"
        }
      ],
      "stateMutability": "view",
      "type": "function"
    },
    {
      "inputs": [
        {
          "internalType": "uint256",
          "name": "_creatorStake",
          "type": "uint256"
        },
        {
          "internalType": "bool",
          "name": "_useBitr",
          "type": "bool"
        },
        {
          "internalType": "enum BoostTier",
          "name": "_boostTier",
          "type": "uint8"
        }
      ],
      "name": "getPoolCreationCost",
      "outputs": [
        {
          "internalType": "uint256",
          "name": "totalCost",
          "type": "uint256"
        },
        {
          "internalType": "uint256",
          "name": "creationFee",
          "type": "uint256"
        },
        {
          "internalType": "uint256",
          "name": "boostCost",
          "type": "uint256"
        }
      ],
      "stateMutability": "pure",
      "type": "function"
    },
    {
      "inputs": [],
      "name": "owner",
      "outputs": [
        {
          "internalType": "address",
          "name": "",
          "type": "address"
        }
      ],
      "stateMutability": "view",
      "type": "function"
    },
    {
      "inputs": [],
      "name": "poolCore",
      "outputs": [
        {
          "internalType": "contract BitredictPoolCore",
          "name": "",
          "type": "address"
        }
      ],
      "stateMutability": "view",
      "type": "function"
    },
    {
      "inputs": [],
      "name": "renounceOwnership",
      "outputs": [],
      "stateMutability": "nonpayable",
      "type": "function"
    },
    {
      "inputs": [
        {
          "internalType": "address",
          "name": "newOwner",
          "type": "address"
        }
      ],
      "name": "transferOwnership",
      "outputs": [],
      "stateMutability": "nonpayable",
      "type": "function"
    },
    {
      "inputs": [
        {
          "internalType": "address",
          "name": "_newPoolCore",
          "type": "address"
        },
        {
          "internalType": "address",
          "name": "_newComboPools",
          "type": "address"
        },
        {
          "internalType": "address payable",
          "name": "_newBoostSystem",
          "type": "address"
        }
      ],
      "name": "upgradeContracts",
      "outputs": [],
      "stateMutability": "nonpayable",
      "type": "function"
    },
    {
      "stateMutability": "payable",
      "type": "receive"
    }
  ],
  "bytecode": "0x6080346200025757601f6200328f38819003918201601f191683019291906001600160401b038411838510176200025c5781608092849260409687528339810103126200025757620000518162000272565b6200005f6020830162000272565b8383015190926001600160a01b0380831692909190839003620002575760606200008a910162000272565b9033156200023f57600054948160018060a01b0319953387891617600055885197823391167f8be0079c531659141344cd1fd0a4f28419497f9722a3daafe3b4186f6b6457e0600080a36001805516958615620001fd57508116918215620001b95783156200017557169384156200013157836002541617600255826003541617600355816004541617600455600554161760055542600c55516130079081620002888239f35b855162461bcd60e51b815260206004820152601a60248201527f496e76616c6964204249545220746f6b656e20616464726573730000000000006044820152606490fd5b865162461bcd60e51b815260206004820152601c60248201527f496e76616c696420626f6f73742073797374656d2061646472657373000000006044820152606490fd5b865162461bcd60e51b815260206004820152601b60248201527f496e76616c696420636f6d626f20706f6f6c73206164647265737300000000006044820152606490fd5b62461bcd60e51b815260206004820152601960248201527f496e76616c696420706f6f6c20636f72652061646472657373000000000000006044820152606490fd5b8551631e4fbdf760e01b815260006004820152602490fd5b600080fd5b634e487b7160e01b600052604160045260246000fd5b51906001600160a01b0382168203620002575756fe608080604052600436101561001d575b50361561001b57600080fd5b005b600090813560e01c90816301b708c21461257f5750806335ca6876146124f557806338cac0c2146124cc57806351858e27146124b05780635eec742b1461247d578063715018a61461243557806375ff84b61461225857806382b803931461220757806387ce953e146121de5780638da5cb5b146121b75780638db8a21014611cf5578063953874d214611cad578063bc9c431814611ad8578063bea52304146114bd578063c407be0414610e07578063db2e21bc14610c6e578063e8a0323a14610abe578063e8e791cd14610a5a578063f2d366fc14610893578063f2fde38b1461081f578063f3c1c3be14610660578063f6915af5146106375763f6e339c30361000f57346104295760203660031901126104295760606102e0604051610145816127c2565b83815283602082015283604082015283838201528360808201528360a08201528360c08201528360e08201528361010082015283610120820152836101408201528361016082015283610180820152836101a0820152836101c0820152836101e08201528361020082015283610220820152836102408201528361026082015283610280820152836102a0820152836102c0820152015260248160018060a01b03600254166040519283809263068bcd8d60e01b825260043560048301525afa90811561047c578291610487575b5060018060a01b0360045416916040519263fd12153960e01b84526004356004850152604084602481845afa90811561047c5782948392610440575b50602060249160405192838092634f02360760e01b825260043560048301525afa9283156104345780936103ed575b50506103e46103d2946040519586956080875260018060a01b03815116608088015261ffff60208201511660a088015260ff60408201511660c08801526102cd606082015160e089019061298e565b6102e0608082015161010089019061299b565b60ff60a08201511661012088015260c081015161014088015260e08101516101608801526101008101516101808801526101208101516101a08801526101408101516101c08801526101608101516101e08801526101808101516102008801526101a08101516102208801526101c08101516102408801526101e08101516102608801526102008101516102808801526102208101516102a08801526102408101516102c08801526102608101516102e08801526102e06102808201519161030092838a01526102a08101516103208a01526102c08101516103408a015201519061036088015261038087019061267c565b9315156020860152604085019061273f565b60608301520390f35b909492506020853d60201161042c575b8161040a60209383612814565b8101031261042957506103e46104226103d295612a3a565b929461027e565b80fd5b3d91506103fd565b604051903d90823e3d90fd5b60209550602491925061046a9060403d604011610475575b6104628183612814565b810190612bed565b95909592915061024f565b503d610458565b6040513d84823e3d90fd5b90503d8083833e6104988183612814565b6020828281010312610633578151916001600160401b03831161062f57610300838201838301031261062f57604051926104d1846127c2565b6104dc818301612b77565b84526104ec602082840101612b8b565b60208501526104ff604082840101612b9a565b604085015260608183010151600281101561062b57606085015260808183010151600681101561062b57608085015261053c60a082840101612b9a565b60a085015281810160c0818101519086015260e08082015190860152610100808201519086015261012080820151908601526101408082015190860152610160808201519086015261018080820151908601526101a080820151908601526101c080820151908601526101e08082015190860152610200808201519086015261022080820151908601526102408082015190860152610260808201519086015261028080820151908601526102a080820151908601526102c080820151908601526102e00151906001600160401b03821161062b5761061f938301920101612ba8565b6102e082015238610213565b8580fd5b8380fd5b8280fd5b50346104295780600319360112610429576004546040516001600160a01b039091168152602090f35b5034610429578060031936011261042957610679612ca4565b50600254604051636b4169c360e01b81526001600160a01b039290916080908390600490829087165afa801561081257819282839184936107c9575b5090600492916106c3612cdc565b9660e08186541660405196878092639f010deb851b82525afa9485156107be578695610789575b5060a060049160035416604051928380926325bcec5d60e11b82525afa95861561043457809661074e575b5050916101a096916107409360405197885260208801526040870152606086015260808501906125ce565b610160830152610180820152f35b9091955060a0823d8211610781575b8161076a60a09383612814565b810103126104295750602001519381610740610715565b3d915061075d565b90945060e0813d60e0116107b6575b816107a560e09383612814565b8101031261062b57519360a06106ea565b3d9150610798565b6040513d88823e3d90fd5b94505050506080823d821161080a575b816107e660809383612814565b810103126104295781516020830151604084015160609094015191939060046106b5565b3d91506107d9565b50604051903d90823e3d90fd5b50346104295760203660031901126104295761083961260f565b6108416129a8565b6001600160a01b0390811690811561087a5782546001600160a01b031981168317845516600080516020612f928339815191528380a380f35b604051631e4fbdf760e01b815260048101849052602490fd5b503461042957806003193601126104295760018060a01b0380600254169160405190635cb9aaf960e11b825280600483015280826044816024976064898301525afa918215610812578192610a18575b508192915161090a6108f482612837565b916109026040519384612814565b808352612837565b6020949082860190601f1901368237839460045416945b82518110156109b4576109348184612c7a565b516040519063fd12153960e01b825260048201526040818a818a5afa9081156107be578691610994575b506109698286612c7a565b6004821015610981575261097c90612c6b565b610921565b634e487b7160e01b875260216004528987fd5b6109ad915060403d604011610475576104628183612814565b503861095e565b50906109d29184848880604051968796604088526040880190612625565b928684038288015251928381520193925b8281106109f257505050500390f35b9193839550908082610a0860019483975161273f565b01950191019185949391926109e3565b9091503d8083833e610a2a8183612814565b810190604081830312610633578051906001600160401b03821161062f57610a53929101612c0d565b90386108e3565b503461042957608036600319011261042957610a7461260f565b60443560048110156106335760643591821515830361062f57610a9b935060243590612d45565b90610aba6040519283921515835260406020840152604083019061267c565b0390f35b503461042957606080600319360112610c6a57610ad961260f565b906001600160a01b039060243582811690819003610c66576044359383851680950361062b578390610b096129a8565b1680151580610c58575b610c03575b5080151580610bf5575b610b9e575b5082151580610b90575b610b39578380f35b600080516020612fb28339815191529260a09260045482600180871b0319821617600455600b604051948086528501526a426f6f737453797374656d60a81b60808501521660208301526040820152a13880808380f35b508160045416831415610b31565b60a0600080516020612fb2833981519152916003549080600180851b03198316176003558560405192868452600a8785015269436f6d626f506f6f6c7360b01b60808501521660208301526040820152a138610b27565b508260035416811415610b22565b60a0600080516020612fb2833981519152916002549080600180851b0319831617600255866040519287845260088885015267506f6f6c436f726560c01b60808501521660208301526040820152a138610b18565b508360025416811415610b13565b8480fd5b5080fd5b5034610429578060031936011261042957610c876129a8565b6005546040516370a0823160e01b8152306004820152906020906001600160a01b03908490479084908690602490829087165afa94851561047c578295610dd8575b5080610d59575b505082610cdb578380f35b610d079281839260055416908654168660405180978195829463a9059cbb60e01b845260048401612aac565b03925af18015610d4e57610d1a57808380f35b81813d8311610d47575b610d2e8183612814565b81010312610c6a57610d3f90612a3a565b503880808380f35b503d610d24565b6040513d85823e3d90fd5b81808092858254165af13d15610dd3573d610d73816128ac565b90610d816040519283612814565b815285843d92013e5b15610d96578338610cd0565b60405162461bcd60e51b815260048101839052601560248201527414d515081dda5d1a191c985dd85b0819985a5b1959605a1b6044820152606490fd5b610d8a565b9094508381813d8311610e00575b610df08183612814565b81010312610c6a57519338610cc9565b503d610de6565b50610120366003190112610429576004356001600160401b03808211610633573660238301121561063357816004013591610e4183612837565b92610e4f6040519485612814565b8084526024602085019160051b8301019136831161062b5760248101915b8383106114145750505050826024359161ffff83168303610c6a5760a435908111610c6a57610ea09036906004016128c7565b91610ea96125a4565b93600461010435101561063357610ebe612b10565b8415611406576803cb71f51fc55800005b61010435156113ff57610ee461010435612f26565b925b84610f0585610f006044356001600160481b0387166129d4565b6129d4565b9688156113e6576005546040516323b872dd60e01b81529260209184916001600160a01b0390911690829081610f408e303360048501612a47565b03925af191821561139a5787926113a5575b50610f5f610fa892612a69565b6005546003546020916001600160a01b039182169116610f8a6044356001600160481b0389166129d4565b918a60405180978195829463095ea7b360e01b845260048401612aac565b03925af191821561139a57879261134e575b50916020939161ffff935b805190860120958a156112805760035460405163fe409c9f60e01b815261010060048201529788966001600160a01b03909216955086948593909290611010906101048601906126a1565b9216602484015260443560448401526064356064840152608435608484015260a483015260c43560c48301528b151560e483015203925af1908115610d4e57839161124e575b50935b61010435611163575b505050611070600754612c6b565b928360075561010435611150575b6110a061108f6044356008546129d4565b948560085542600c556006546129d4565b908115801561111c575b5050602093600080516020612f72833981519152916110d1600954604051938493846125b8565b0390a1604051906110e5826101043561273f565b83820152817f488e780d64cfe3a3d2b29010be751f8a452e1be3ecfa703e91926e51b6ab751f60403393a360018055604051908152f35b61113c5750808404600a5583600080516020612f728339815191526110aa565b634e487b7160e01b81526012600452602490fd5b61115b600954612c6b565b60095561107e565b156111de5761117481341015612ac7565b6004546001600160a01b0316803b1561063357829060446040518094819363ffd230c960e01b83528960048401526111b2602484016101043561273f565b5af1801561047c576111ca575b50505b823880611062565b6111d3906127af565b6106335782386111bf565b6004549091906001600160a01b0316803b15610c6a5760446040518094819363ffd230c960e01b835288600484015261121d602484016101043561273f565b5af1801561124357611230575b506111c2565b61123c909391936127af565b913861122a565b6040513d86823e3d90fd5b90506020813d602011611278575b8161126960209383612814565b81010312610633575138611056565b3d915061125c565b6003546001600160a01b0316936112d19392506112a990604435906001600160481b03166129d4565b916040519788968795869463fe409c9f60e01b865261010060048701526101048601906126a1565b9216602484015260443560448401526064356064840152608435608484015260a483015260c43560c48301528960e483015203925af1908115610d4e57839161131c575b5093611059565b90506020813d602011611346575b8161133760209383612814565b81010312610633575138611315565b3d915061132a565b939150916020843d602011611392575b8161136b60209383612814565b8101031261138e578661ffff93611383602096612a3a565b509193509193610fba565b8680fd5b3d915061135e565b6040513d89823e3d90fd5b91506020823d6020116113de575b816113c060209383612814565b8101031261138e57610f5f6113d7610fa893612a3a565b9250610f52565b3d91506113b3565b916020939161ffff936113fa8a34146129f7565b610fc5565b8392610ee6565b670de0b6b3a7640000610ecf565b82358581116114b95782019060c060231983360301126114b9576040519161143b83612794565b6024810135835260448101356020840152606481013580151581036114b55760408401526084810135606084015260a4810135908782116114b55761148860c492602436918401016128c7565b608085015201359061ffff821682036114b157826020939260a085940152815201920191610e6d565b8880fd5b8980fd5b8780fd5b5061024036600319011261042957610164358015158103610c6a576101a43515156101a43503610c6a5760026101c4351015610c6a576006610204351015610c6a576004610224351015610c6a57611513612b10565b6101a43515611aca576803cb71f51fc55800005b6102243515611ac2578261153d61022435612f26565b925b61155884610f006044356001600160481b0387166129d4565b926101a43515611ab2576005546040516323b872dd60e01b81529060209082906001600160a01b03168187816115938b303360048501612a47565b03925af18015611243578490611a77575b6115ae9150612a69565b6005546002546115fb916020916001600160a01b0390811691166115dd6044356001600160481b0387166129d4565b918760405180968195829463095ea7b360e01b845260048401612aac565b03925af1801561124357611a3e575b505b6101a43515611917575060018060a01b036002541690610200604051926101e46020958694823586880152858752611643876127f9565b6116fc60405197889687958694630d3fa11960e41b86526004356004870152602435602487015260443560448701526064356064870152608435608487015260a43560a487015260c43560c487015261010490813560e4880152610124918235908801526101449182359088015215159086015261018480356101648701526101a4351515908601526116dd6101a486016101c43561298e565b6116ee6101c486016102043561299b565b84015261020483019061267c565b03925af191821561190c5785926118de575b5050915b61022435611807575b50611727600654612c6b565b9283600655610224356117f4575b6117586117466044356008546129d4565b948560085542600c55600754906129d4565b90811580156117d4575b5050602093600080516020612f7283398151915291611789600954604051938493846125b8565b0390a16040519061179d826102243561273f565b83820152817f11576008800a693051467e4ee714d9ec8fe4cb716c9040e940390eb77346c04160403393a360018055604051908152f35b61113c5750808404600a5583600080516020612f72833981519152611762565b6117ff600954612c6b565b600955611735565b6101a4351561187e5761181c81341015612ac7565b60045484906001600160a01b0316803b15610c6a5760446040518094819363ffd230c960e01b835288600484015261185a602484016102243561273f565b5af180156112435761186f575b505b3861171b565b611878906127af565b38611867565b60045484906001600160a01b0316803b15610c6a5760446040518094819363ffd230c960e01b83528860048401526118bc602484016102243561273f565b5af18015611243576118cf575b50611869565b6118d8906127af565b386118c9565b90809250813d8311611905575b6118f58183612814565b8101031261062f5751388061170e565b503d6118eb565b6040513d87823e3d90fd5b6002546119f69350610200926001600160a01b039091169161194590604435906001600160481b03166129d4565b9187604051936101e4936020978896863588820152878152611966816127f9565b60405198899788968795630d3fa11960e41b87526004356004880152602435602488015260443560448801526064356064880152608435608488015260a43560a488015260c43560c488015261010490813560e4890152610124918235908901526101449182359089015215159087015261018480356101648801528601526116dd6101a486016101c43561298e565b03925af191821561190c578592611a10575b505091611712565b90809250813d8311611a37575b611a278183612814565b8101031261062f57513880611a08565b503d611a1d565b6020813d602011611a6f575b81611a5760209383612814565b8101031261062f57611a6890612a3a565b503861160a565b3d9150611a4a565b506020813d602011611aaa575b81611a9160209383612814565b8101031261062f57611aa56115ae91612a3a565b6115a4565b3d9150611a84565b611abd8434146129f7565b61160c565b82809261153f565b670de0b6b3a7640000611527565b5061010036600319011261042957600435906001600160401b03808311610c6a5736602384011215610c6a57826004013592611b1384612837565b90611b216040519283612814565b84825260209460248684019160051b8301019136831161062b57906024879201905b838210611c9e575050505060243582811161062f57611b6690369060040161284e565b91604435818111610c6657611b7f90369060040161284e565b93606435828111610c6a57611b9890369060040161284e565b50608435828111610c6a57611bb190369060040161284e565b5060a435828111610c6a57611bca90369060040161290e565b5060c435918211610429575091611c01611c0a92611bef600a9695369060040161290e565b50611bf86125a4565b50611c01612b10565b51825114612b33565b5111611c60576084906040519062461bcd60e51b82526004820152602360248201527f4261746368206372656174696f6e2074656d706f726172696c792064697361626044820152621b195960ea1b6064820152fd5b6064906040519062461bcd60e51b8252600482015260176024820152760a8dede40dac2dcf240e0deded8e640d2dc40c4c2e8c6d604b1b6044820152fd5b81358152908201908201611b43565b5034610429578060031936011261042957608060018060a01b038060025416908060035416908060045416906005541691604051938452602084015260408301526060820152f35b50346104295760203660031901126104295760606101c0604051611d1881612762565b83815283602082015283604082015283838201528360808201528360a08201528360c08201528360e08201528361010082015283610120820152836101408201528361016082015283610180820152836101a0820152015260248160018060a01b0360035416604051928380926340bae06b60e11b825260043560048301525afa90811561047c578291611f5a575b5060018060a01b0360045416916040519263fd12153960e01b84526004356004850152604084602481845afa90811561047c5782948392611f2e575b50602060249160405192838092634f02360760e01b825260043560048301525afa928315610434578093611eea575b50506103e46103d2946040519586956080875260018060a01b038151166080880152602081015160a0880152604081015160c0880152606081015160e0880152608081015161010088015261ffff60a08201511661012088015260ff60c08201511661014088015260ff60e0820151166101608801526101008101516101808801526101208101516101a08801526101408101516101c08801526101c0610160820151916101e092838a01526101808101516102008a01526101a08101516102208a01520151906102408801526102608701906126a1565b909492506020853d602011611f26575b81611f0760209383612814565b8101031261042957506103e4611f1f6103d295612a3a565b9294611e12565b3d9150611efa565b602095506024919250611f4f9060403d604011610475576104628183612814565b959095929150611de3565b3d91508183823e611f6b8282612814565b6020818381010312610633578051906001600160401b03821161062f576101e0828201848301031261062f5760405192611fa484612762565b611faf838301612b77565b845281830160208181015190860152604080820151908601526060808201519086015260808082015190860152611fe89060a001612b8b565b60a0850152611ffb60c084840101612b9a565b60c085015261200e60e084840101612b9a565b60e0850152818301610100818101519086015261012080820151908601526101408082015190860152610160808201519086015261018080820151908601526101a080820151908601526101c00151906001600160401b03821161062b57808301601f838686010101121561062b578184840101519161208d83612837565b9461209b6040519687612814565b838652602086019483810160208660051b85858501010101116114b1576020838383010101955b60208660051b8585850101010187106120e857505050505050506101c082015238611da7565b86516001600160401b0381116121b35760c08385018601820187850103601f1901126121b3576040519161211b83612794565b83850186018201602081810151855260408201519085015261213f90606001612a3a565b6040840152838501860182016080810151606085015260a00151906001600160401b0382116121af5760209361219d60c08561218c89898099988f998f8f849c8601950101010101612ba8565b60808501528a8a8a01010101612b8b565b60a082015281520197019690506120c2565b8c80fd5b8a80fd5b5034610429578060031936011261042957546040516001600160a01b039091168152602090f35b50346104295780600319360112610429576003546040516001600160a01b039091168152602090f35b503461042957806003193601126104295760e0600654600754600854600954600a5490600b5492600c5494604051968752602087015260408601526060850152608084015260a083015260c0820152f35b503461042957602080600319360112610c6a5761227361260f565b60018060a01b0391826002541693836040519363c2be236960e01b8552169485600485015281846044816024946103e8868301525afa93841561047c578294612419575b5081856003541696826040518099819363c105a19560e01b835260048301525afa95861561047c5782966123f5575b508195949593829660045416965b815181101561238e576123078183612c7a565b5160405190634f02360760e01b82526004820152858185818c5afa90811561190c578591612359575b50612344575b61233f90612c6b565b6122f4565b9461235161233f91612c6b565b959050612336565b90508581813d8311612387575b6123708183612814565b81010312610c665761238190612a3a565b38612330565b503d612366565b8385876123ea8a6123db87866040519788978189528801528060408801528060608801528060808801528060a08801528060c088015260e087015261016080610100880152860190612625565b90848203610120860152612625565b906101408301520390f35b6124129196503d8084833e61240a8183612814565b810190612d20565b94386122e6565b61242e9194503d8084833e61240a8183612814565b92386122b7565b503461042957806003193601126104295761244e6129a8565b80546001600160a01b03198116825581906001600160a01b0316600080516020612f928339815191528280a380f35b5034610429578060031936011261042957612496612ca4565b5060e06124a1612cdc565b6124ae60405180926125ce565bf35b50346104295780600319360112610429576124c96129a8565b80f35b50346104295780600319360112610429576002546040516001600160a01b039091168152602090f35b50346104295760603660031901126104295760243590811515820361042957604435916004831015610c6a5715612571576803cb71f51fc55800005b6001600160481b031691801561256b5761254b9150612f26565b610aba61255e82610f00600435866129d4565b91604051938493846125b8565b5061254b565b670de0b6b3a7640000612531565b905034610c6a5781600319360112610c6a576005546001600160a01b03168152602090f35b60e4359081151582036125b357565b600080fd5b6040919493926060820195825260208201520152565b60c08091805184526020810151602085015260408101516040850152606081015160608501526080810151608085015260a081015160a08501520151910152565b600435906001600160a01b03821682036125b357565b90815180825260208080930193019160005b828110612645575050505090565b835185529381019392810192600101612637565b60005b83811061266c5750506000910152565b818101518382015260200161265c565b9060209161269581518092818552858086019101612659565b601f01601f1916010190565b908082519081815260208091019281808460051b8301019501936000915b8483106126cf5750505050505090565b9091929394958480600192601f19858203018652895190815181528282015183820152604080830151151590820152606080830151908201526127216080808401519060c0809185015283019061267c565b9161ffff60a0809201511691015298019301930191949392906126bf565b90600482101561274c5752565b634e487b7160e01b600052602160045260246000fd5b6101e081019081106001600160401b0382111761277e57604052565b634e487b7160e01b600052604160045260246000fd5b60c081019081106001600160401b0382111761277e57604052565b6001600160401b03811161277e57604052565b61030081019081106001600160401b0382111761277e57604052565b60e081019081106001600160401b0382111761277e57604052565b604081019081106001600160401b0382111761277e57604052565b601f909101601f19168101906001600160401b0382119082101761277e57604052565b6001600160401b03811161277e5760051b60200190565b81601f820112156125b35780359161286583612837565b926128736040519485612814565b808452602092838086019260051b8201019283116125b3578301905b82821061289d575050505090565b8135815290830190830161288f565b6001600160401b03811161277e57601f01601f191660200190565b81601f820112156125b3578035906128de826128ac565b926128ec6040519485612814565b828452602083830101116125b357816000926020809301838601378301015290565b9080601f830112156125b35781359061292682612837565b926129346040519485612814565b828452602092838086019160051b830101928084116125b357848301915b8483106129625750505050505090565b82356001600160401b0381116125b3578691612983848480948901016128c7565b815201920191612952565b90600282101561274c5752565b90600682101561274c5752565b6000546001600160a01b031633036129bc57565b60405163118cdaa760e01b8152336004820152602490fd5b919082018092116129e157565b634e487b7160e01b600052601160045260246000fd5b156129fe57565b60405162461bcd60e51b8152602060048201526014602482015273125b98dbdc9c9958dd0814d51508185b5bdd5b9d60621b6044820152606490fd5b519081151582036125b357565b6001600160a01b03918216815291166020820152604081019190915260600190565b15612a7057565b60405162461bcd60e51b815260206004820152601460248201527310925514881d1c985b9cd9995c8819985a5b195960621b6044820152606490fd5b6001600160a01b039091168152602081019190915260400190565b15612ace57565b60405162461bcd60e51b815260206004820152601a602482015279125b9cdd59999a58da595b9d08189bdbdcdd081c185e5b595b9d60321b6044820152606490fd5b600260015414612b21576002600155565b604051633ee5aeb560e01b8152600490fd5b15612b3a57565b60405162461bcd60e51b8152602060048201526015602482015274082e4e4c2f240d8cadccee8d040dad2e6dac2e8c6d605b1b6044820152606490fd5b51906001600160a01b03821682036125b357565b519061ffff821682036125b357565b519060ff821682036125b357565b81601f820112156125b3578051612bbe816128ac565b92612bcc6040519485612814565b818452602082840101116125b357612bea9160208085019101612659565b90565b91908260409103126125b357815160048110156125b35760209092015190565b81601f820112156125b357805191612c2483612837565b92612c326040519485612814565b808452602092838086019260051b8201019283116125b3578301905b828210612c5c575050505090565b81518152908301908301612c4e565b60001981146129e15760010190565b8051821015612c8e5760209160051b010190565b634e487b7160e01b600052603260045260246000fd5b60405190612cb1826127de565b8160c06000918281528260208201528260408201528260608201528260808201528260a08201520152565b60405190612ce9826127de565b6006548252600754602083015260085460408301526009546060830152600a546080830152600b5460a0830152600c5460c0830152565b906020828203126125b35781516001600160401b0381116125b357612bea9201612c0d565b919392909360049485821015612f115781612e71575b5050612da0575b5060405160019260208201906001600160401b03821183831017612d8b57506040526000815290565b604190634e487b7160e01b6000525260246000fd5b6005546040516370a0823160e01b81526001600160a01b03928316858201529160209183916024918391165afa8015612e6557600090612e2b575b6803cb71f51fc5580000915010612df25738612d62565b60405160009250612e02816127f9565b6019815278496e73756666696369656e7420424954522062616c616e636560381b602082015290565b6020823d8211612e5d575b81612e4360209383612814565b8101031261042957506803cb71f51fc55800009051612ddb565b3d9150612e36565b6040513d6000823e3d90fd5b60018060a01b03865416612e9c6040519384936385ea867560e01b855289850152602484019061273f565b81604460009384935afa9182156108125781908293612ec3575b50612d5b57945092915050565b9250503d8082843e612ed58184612814565b8201604083820312610c6a57612eea83612a3a565b602084015190936001600160401b03821161062f57612f0a929101612ba8565b9138612eb6565b602186634e487b7160e01b6000525260246000fd5b600481101561274c5760018114612f645760028114612f5757600314612f4b57600090565b674563918244f4000090565b506729a2241af62c000090565b50671bc16d674ec800009056fe44e2ea4ac9ae6e4f62191e63ce0e544f2d0cb79abc8347d7e58920f5c3f3c0078be0079c531659141344cd1fd0a4f28419497f9722a3daafe3b4186f6b6457e00441abf574021357ac657a1ea4fbfa96c4c3f39a68bc29c9d793d337c0e86fada26469706673582212205c3baa62b71fdfb34a5430524231581df45bd18508200d42ce7f12c37989c38464736f6c63430008140033",
  "linkReferences": {},
  "deployedLinkReferences": {}
}