{
  "_format": "hh-sol-artifact-1",
  "contractName": "BitrFaucet",
  "sourceName": "contracts/BitrFaucet.sol",
  "abi": [
    {
      "inputs": [
        {
          "internalType": "address",
          "name": "_bitrToken",
          "type": "address"
        },
        {
          "internalType": "address",
          "name": "_oddyssey",
          "type": "address"
        }
      ],
      "stateMutability": "nonpayable",
      "type": "constructor"
    },
    {
      "inputs": [
        {
          "internalType": "address",
          "name": "owner",
          "type": "address"
        }
      ],
      "name": "OwnableInvalidOwner",
      "type": "error"
    },
    {
      "inputs": [
        {
          "internalType": "address",
          "name": "account",
          "type": "address"
        }
      ],
      "name": "OwnableUnauthorizedAccount",
      "type": "error"
    },
    {
      "inputs": [],
      "name": "ReentrancyGuardReentrantCall",
      "type": "error"
    },
    {
      "anonymous": false,
      "inputs": [
        {
          "indexed": true,
          "internalType": "address",
          "name": "owner",
          "type": "address"
        },
        {
          "indexed": false,
          "internalType": "uint256",
          "name": "amount",
          "type": "uint256"
        },
        {
          "indexed": false,
          "internalType": "uint256",
          "name": "timestamp",
          "type": "uint256"
        }
      ],
      "name": "EmergencyWithdraw",
      "type": "event"
    },
    {
      "anonymous": false,
      "inputs": [
        {
          "indexed": true,
          "internalType": "address",
          "name": "user",
          "type": "address"
        },
        {
          "indexed": false,
          "internalType": "uint256",
          "name": "amount",
          "type": "uint256"
        },
        {
          "indexed": false,
          "internalType": "uint256",
          "name": "timestamp",
          "type": "uint256"
        }
      ],
      "name": "FaucetClaimed",
      "type": "event"
    },
    {
      "anonymous": false,
      "inputs": [
        {
          "indexed": false,
          "internalType": "uint256",
          "name": "timestamp",
          "type": "uint256"
        }
      ],
      "name": "FaucetDeactivated",
      "type": "event"
    },
    {
      "anonymous": false,
      "inputs": [
        {
          "indexed": false,
          "internalType": "uint256",
          "name": "timestamp",
          "type": "uint256"
        }
      ],
      "name": "FaucetReactivated",
      "type": "event"
    },
    {
      "anonymous": false,
      "inputs": [
        {
          "indexed": false,
          "internalType": "uint256",
          "name": "amount",
          "type": "uint256"
        },
        {
          "indexed": false,
          "internalType": "uint256",
          "name": "timestamp",
          "type": "uint256"
        }
      ],
      "name": "FaucetRefilled",
      "type": "event"
    },
    {
      "anonymous": false,
      "inputs": [
        {
          "indexed": true,
          "internalType": "address",
          "name": "previousOwner",
          "type": "address"
        },
        {
          "indexed": true,
          "internalType": "address",
          "name": "newOwner",
          "type": "address"
        }
      ],
      "name": "OwnershipTransferred",
      "type": "event"
    },
    {
      "inputs": [],
      "name": "FAUCET_AMOUNT",
      "outputs": [
        {
          "internalType": "uint256",
          "name": "",
          "type": "uint256"
        }
      ],
      "stateMutability": "view",
      "type": "function"
    },
    {
      "inputs": [],
      "name": "MIN_ODDYSSEY_SLIPS",
      "outputs": [
        {
          "internalType": "uint256",
          "name": "",
          "type": "uint256"
        }
      ],
      "stateMutability": "view",
      "type": "function"
    },
    {
      "inputs": [],
      "name": "bitrToken",
      "outputs": [
        {
          "internalType": "contract IERC20",
          "name": "",
          "type": "address"
        }
      ],
      "stateMutability": "view",
      "type": "function"
    },
    {
      "inputs": [
        {
          "internalType": "address",
          "name": "user",
          "type": "address"
        }
      ],
      "name": "checkEligibility",
      "outputs": [
        {
          "internalType": "bool",
          "name": "eligible",
          "type": "bool"
        },
        {
          "internalType": "string",
          "name": "reason",
          "type": "string"
        },
        {
          "internalType": "uint256",
          "name": "oddysseySlips",
          "type": "uint256"
        }
      ],
      "stateMutability": "view",
      "type": "function"
    },
    {
      "inputs": [],
      "name": "claimBitr",
      "outputs": [],
      "stateMutability": "nonpayable",
      "type": "function"
    },
    {
      "inputs": [],
      "name": "emergencyWithdraw",
      "outputs": [],
      "stateMutability": "nonpayable",
      "type": "function"
    },
    {
      "inputs": [
        {
          "internalType": "uint256",
          "name": "amount",
          "type": "uint256"
        }
      ],
      "name": "emergencyWithdrawAmount",
      "outputs": [],
      "stateMutability": "nonpayable",
      "type": "function"
    },
    {
      "inputs": [],
      "name": "faucetActive",
      "outputs": [
        {
          "internalType": "bool",
          "name": "",
          "type": "bool"
        }
      ],
      "stateMutability": "view",
      "type": "function"
    },
    {
      "inputs": [],
      "name": "getFaucetStats",
      "outputs": [
        {
          "internalType": "uint256",
          "name": "balance",
          "type": "uint256"
        },
        {
          "internalType": "uint256",
          "name": "totalDistributed",
          "type": "uint256"
        },
        {
          "internalType": "uint256",
          "name": "userCount",
          "type": "uint256"
        },
        {
          "internalType": "bool",
          "name": "active",
          "type": "bool"
        }
      ],
      "stateMutability": "view",
      "type": "function"
    },
    {
      "inputs": [
        {
          "internalType": "address",
          "name": "user",
          "type": "address"
        }
      ],
      "name": "getUserInfo",
      "outputs": [
        {
          "internalType": "bool",
          "name": "claimed",
          "type": "bool"
        },
        {
          "internalType": "uint256",
          "name": "claimTime",
          "type": "uint256"
        }
      ],
      "stateMutability": "view",
      "type": "function"
    },
    {
      "inputs": [
        {
          "internalType": "address",
          "name": "",
          "type": "address"
        }
      ],
      "name": "hasClaimed",
      "outputs": [
        {
          "internalType": "bool",
          "name": "",
          "type": "bool"
        }
      ],
      "stateMutability": "view",
      "type": "function"
    },
    {
      "inputs": [],
      "name": "hasSufficientBalance",
      "outputs": [
        {
          "internalType": "bool",
          "name": "",
          "type": "bool"
        }
      ],
      "stateMutability": "view",
      "type": "function"
    },
    {
      "inputs": [
        {
          "internalType": "address",
          "name": "",
          "type": "address"
        }
      ],
      "name": "lastClaimTime",
      "outputs": [
        {
          "internalType": "uint256",
          "name": "",
          "type": "uint256"
        }
      ],
      "stateMutability": "view",
      "type": "function"
    },
    {
      "inputs": [],
      "name": "maxPossibleClaims",
      "outputs": [
        {
          "internalType": "uint256",
          "name": "",
          "type": "uint256"
        }
      ],
      "stateMutability": "view",
      "type": "function"
    },
    {
      "inputs": [],
      "name": "oddyssey",
      "outputs": [
        {
          "internalType": "contract Oddyssey",
          "name": "",
          "type": "address"
        }
      ],
      "stateMutability": "view",
      "type": "function"
    },
    {
      "inputs": [],
      "name": "owner",
      "outputs": [
        {
          "internalType": "address",
          "name": "",
          "type": "address"
        }
      ],
      "stateMutability": "view",
      "type": "function"
    },
    {
      "inputs": [
        {
          "internalType": "uint256",
          "name": "amount",
          "type": "uint256"
        }
      ],
      "name": "refillFaucet",
      "outputs": [],
      "stateMutability": "nonpayable",
      "type": "function"
    },
    {
      "inputs": [],
      "name": "renounceOwnership",
      "outputs": [],
      "stateMutability": "nonpayable",
      "type": "function"
    },
    {
      "inputs": [
        {
          "internalType": "bool",
          "name": "active",
          "type": "bool"
        }
      ],
      "name": "setFaucetActive",
      "outputs": [],
      "stateMutability": "nonpayable",
      "type": "function"
    },
    {
      "inputs": [],
      "name": "totalClaimed",
      "outputs": [
        {
          "internalType": "uint256",
          "name": "",
          "type": "uint256"
        }
      ],
      "stateMutability": "view",
      "type": "function"
    },
    {
      "inputs": [],
      "name": "totalUsers",
      "outputs": [
        {
          "internalType": "uint256",
          "name": "",
          "type": "uint256"
        }
      ],
      "stateMutability": "view",
      "type": "function"
    },
    {
      "inputs": [
        {
          "internalType": "address",
          "name": "newOwner",
          "type": "address"
        }
      ],
      "name": "transferOwnership",
      "outputs": [],
      "stateMutability": "nonpayable",
      "type": "function"
    }
  ],
  "bytecode": "0x60c0346101d5576115f690601f38839003908101601f19168201906001600160401b038211838310176101da57808391604095869485528339810103126101d557610055602061004e836101f0565b92016101f0565b9033156101bd5760008054336001600160a01b03198216811783558551946001600160a01b0394909385939192918416907f8be0079c531659141344cd1fd0a4f28419497f9722a3daafe3b4186f6b6457e09080a360018055600160ff1960065416176006551692831561017b5750169081156101375760805260a052516113f1908161020582396080518181816101ca015281816103a4015281816104fc015281816106610152818161079f01528181610c4601528181610da301528181610f3901526110ed015260a05181818161080501528181610e47015261106c0152f35b825162461bcd60e51b815260206004820152601860248201527f496e76616c6964204f64647973736579206164647265737300000000000000006044820152606490fd5b62461bcd60e51b815260206004820152601a60248201527f496e76616c6964204249545220746f6b656e20616464726573730000000000006044820152606490fd5b8251631e4fbdf760e01b815260006004820152602490fd5b600080fd5b634e487b7160e01b600052604160045260246000fd5b51906001600160a01b03821682036101d55756fe608060408181526004908136101561001657600080fd5b600092833560e01c90816301b708c214610f25575080631e2f5c0514610f095780632487426014610e7657806343c4453314610e32578063485405d714610d755780636386c1c714610d29578063715018a614610ce157806371ecbb1a14610c1857806373b2e80e14610bd95780637669764014610bb45780637723bafb14610b2d5780637868e203146107375780638da5cb5b1461070f57806390559584146106eb578063a6e340c6146105fa578063b77cf9c6146105c0578063bff1f9e1146105a1578063c13463c9146104d1578063c6c8f6b614610348578063d54ad2a11461032a578063db2e21bc146101945763f2fde38b1461011657600080fd5b34610190576020366003190112610190576001600160a01b0382358181169391929084900361018c57610147610f68565b831561017657505082546001600160a01b03198116831784551660008051602061137c8339815191528380a380f35b51631e4fbdf760e01b8152908101849052602490fd5b8480fd5b8280fd5b509190346103265781600319360112610326576101af610f68565b82516370a0823160e01b815230828201526001600160a01b037f00000000000000000000000000000000000000000000000000000000000000008116946020939092919084836024818a5afa92831561031c5786936102e9575b5082156102ae57828697869288856102389a54169188519a8b958694859363a9059cbb60e01b85528401611005565b03925af19485156102a45760008051602061139c8339815191529495610265918891610277575b5061131d565b8554169382519182524290820152a280f35b6102979150873d891161029d575b61028f8183610fc5565b810190610fe8565b3861025f565b503d610285565b83513d88823e3d90fd5b835162461bcd60e51b815290810185905260156024820152744e6f20746f6b656e7320746f20776974686472617760581b6044820152606490fd5b9092508481813d8311610315575b6103018183610fc5565b8101031261031157519138610209565b8580fd5b503d6102f7565b84513d88823e3d90fd5b5080fd5b50903461019057826003193601126101905760209250549051908152f35b508290346103265760209081600319360112610190578335610368610f68565b610373811515611292565b61038969d3c21bcecceda10000008211156112de565b81516370a0823160e01b815230868201526001600160a01b037f0000000000000000000000000000000000000000000000000000000000000000811696909185816024818b5afa9081156104c7579084918891610492575b5010610458578286978692888561040f9a54169188519a8b958694859363a9059cbb60e01b85528401611005565b03925af19485156102a45760008051602061139c833981519152949561026591889161043b575061131d565b6104529150873d891161029d5761028f8183610fc5565b8861025f565b835162461bcd60e51b81529081018590526014602482015273496e73756666696369656e742062616c616e636560601b6044820152606490fd5b809250878092503d83116104c0575b6104ab8183610fc5565b810103126104bc57839051896103e1565b8680fd5b503d6104a1565b85513d89823e3d90fd5b503461019057826003193601126101905780516370a0823160e01b81523083820152916020836024817f00000000000000000000000000000000000000000000000000000000000000006001600160a01b03165afa92831561059757849361055c575b506080935054906005549060ff60065416928151948552602085015283015215156060820152f35b9092506020813d821161058f575b8161057760209383610fc5565b8101031261058b5760809350519138610534565b8380fd5b3d915061056a565b82513d86823e3d90fd5b8382346103265781600319360112610326576020906005549051908152f35b50903461019057602036600319011261019057356001600160a01b0381169081900361019057828291602094526003845220549051908152f35b5034610190576020366003190112610190578135610616610f68565b610621811515611292565b61063769d3c21bcecceda10000008211156112de565b81516323b872dd60e01b8152339381019390935230602484015260448301819052602083606481877f00000000000000000000000000000000000000000000000000000000000000006001600160a01b03165af1928315610597577f816ddc8dab13184fc09fe728cd28ba4738cf188266c107b2cb3158d5aa006d49936106c49186916106d3575061131d565b8151908152426020820152a180f35b610297915060203d811161029d5761028f8183610fc5565b83823461032657816003193601126103265760209060ff6006541690519015158152f35b838234610326578160031936011261032657905490516001600160a01b039091168152602090f35b508234610b2a5780600319360112610b2a576001916002835414610b1b576002835560ff6006541615610ae2573382526020916002835260ff8282205416610aad57323303610a725781516370a0823160e01b81523086820152602494906001600160a01b037f000000000000000000000000000000000000000000000000000000000000000081169086838981855afa928315610a68578593610a39575b5069043c33c19375648000008093106109f9578551633e90467760e11b8152338a82015290879082908a9082907f0000000000000000000000000000000000000000000000000000000000000000165afa8591816109ca575b5061086457855162461bcd60e51b8152808a01889052601d818a015260008051602061135c8339815191526044820152606490fd5b8888879360028a941061098b57338852600284528488208760ff198254161790556003845242858920558254868101809111610979578355600554600019811461097957889188869201600555604487518094819363a9059cbb60e01b835233898401528b888401525af190811561096f578891610952575b501561091a575050907fa19a7d2b5bf6a987a66e0eac8a6eb2dbd34ae6a43285849af788b224268ec02291815193845242908401523392a2805580f35b60159192606494519362461bcd60e51b855284015282015274151bdad95b881d1c985b9cd9995c8819985a5b1959605a1b6044820152fd5b6109699150843d861161029d5761028f8183610fc5565b886108dd565b85513d8a823e3d90fd5b634e487b7160e01b8952601184528289fd5b50601b9192606494519362461bcd60e51b85528401528201527a496e73756666696369656e74204f6464797373657920736c69707360281b6044820152fd5b9091508781813d83116109f2575b6109e28183610fc5565b810103126103115751908a61082f565b503d6109d8565b855162461bcd60e51b8152808a01889052601b818a01527a496e73756666696369656e74206661756365742062616c616e636560281b6044820152606490fd5b9092508681813d8311610a61575b610a518183610fc5565b8101031261018c575191896107d6565b503d610a47565b86513d87823e3d90fd5b815162461bcd60e51b8152808601849052601560248201527410dbdb9d1c9858dd1cc81b9bdd08185b1b1bddd959605a1b6044820152606490fd5b815162461bcd60e51b8152808601849052600f60248201526e105b1c9958591e4818db185a5b5959608a1b6044820152606490fd5b5162461bcd60e51b81526020818501526014602482015273466175636574206973206e6f742061637469766560601b6044820152606490fd5b51633ee5aeb560e01b81528390fd5b80fd5b5034610190576020918260031936011261058b57356001600160a01b038116810361058b57610b5b90611020565b90939192805195869415158552606084860152855193846060870152815b858110610b9d57505060808096508486010152830152601f80199101168101030190f35b808801820151898201608001528896508101610b79565b8382346103265781600319360112610326576020905169043c33c19375648000008152f35b50903461019057602036600319011261019057356001600160a01b0381169081900361019057818360ff92602095526002855220541690519015158152f35b50903461019057826003193601126101905781516370a0823160e01b815230918101919091526020816024817f00000000000000000000000000000000000000000000000000000000000000006001600160a01b03165afa928315610cd6578093610c95575b60208469043c33c193756480000085519110158152f35b9092506020833d8211610cce575b81610cb060209383610fc5565b81010312610b2a575069043c33c19375648000006020925192610c7e565b3d9150610ca3565b8251903d90823e3d90fd5b8334610b2a5780600319360112610b2a57610cfa610f68565b80546001600160a01b03198116825581906001600160a01b031660008051602061137c8339815191528280a380f35b5091903461032657602036600319011261032657356001600160a01b0381169081900361032657815260026020528160ff81832054169160036020522054825191151582526020820152f35b50903461019057826003193601126101905781516370a0823160e01b815230918101919091526020816024817f00000000000000000000000000000000000000000000000000000000000000006001600160a01b03165afa928315610cd6578093610df1575b60208469043c33c1937564800000855191048152f35b9092506020833d8211610e2a575b81610e0c60209383610fc5565b81010312610b2a575069043c33c19375648000006020925192610ddb565b3d9150610dff565b838234610326578160031936011261032657517f00000000000000000000000000000000000000000000000000000000000000006001600160a01b03168152602090f35b509034610190576020366003190112610190573580151580820361058b57610e9c610f68565b60ff801960065416911617600655600014610edd5760207fb410793f8aa086651daa1819a0f70d6b03a433510a7d1a7c995af5bbcba458c49151428152a180f35b60207fdbbda224ce43b9a76fdd2a5b3bd5ac693e8a1738f7f57beea8b84d6a4af4839c9151428152a180f35b8382346103265781600319360112610326576020905160028152f35b8490346103265781600319360112610326577f00000000000000000000000000000000000000000000000000000000000000006001600160a01b03168152602090f35b6000546001600160a01b03163303610f7c57565b60405163118cdaa760e01b8152336004820152602490fd5b604081019081106001600160401b03821117610faf57604052565b634e487b7160e01b600052604160045260246000fd5b601f909101601f19168101906001600160401b03821190821017610faf57604052565b90816020910312611000575180151581036110005790565b600080fd5b6001600160a01b039091168152602081019190915260400190565b9060018060a01b03809216906000918083526020906002825260409460ff86862054166112655760ff600654161561123357855191633e90467760e11b835260048301528282602481847f0000000000000000000000000000000000000000000000000000000000000000165afa859281611204575b506110c457505060008051602061135c833981519152839451916110b983610f94565b601d83528201529190565b81949194600281106111d55750826024918751928380926370a0823160e01b82523060048301527f0000000000000000000000000000000000000000000000000000000000000000165afa80156111cb578290611194575b69043c33c193756480000091501061115d575070456c696769626c6520746f20636c61696d60781b600194519161115283610f94565b601183528201529190565b7a496e73756666696369656e74206661756365742062616c616e636560281b9094519161118983610f94565b601b83528201529190565b508281813d83116111c4575b6111aa8183610fc5565b810103126103265769043c33c1937564800000905161111c565b503d6111a0565b86513d84823e3d90fd5b9450507a496e73756666696369656e74204f6464797373657920736c69707360281b9094519161118983610f94565b9092508381813d831161122c575b61121c8183610fc5565b8101031261031157519138611096565b503d611212565b505073466175636574206973206e6f742061637469766560601b8394519161125a83610f94565b601483528201529190565b50506e105b1c9958591e4818db185a5b5959608a1b8394519161128783610f94565b600f83528201529190565b1561129957565b60405162461bcd60e51b815260206004820152601d60248201527f416d6f756e74206d7573742062652067726561746572207468616e20300000006044820152606490fd5b156112e557565b60405162461bcd60e51b815260206004820152601060248201526f416d6f756e7420746f6f206c6172676560801b6044820152606490fd5b1561132457565b60405162461bcd60e51b815260206004820152600f60248201526e151c985b9cd9995c8819985a5b1959608a1b6044820152606490fdfe4572726f7220636865636b696e67204f6464797373657920736c6970730000008be0079c531659141344cd1fd0a4f28419497f9722a3daafe3b4186f6b6457e0bb757047c2b5f3974fe26b7c10f732e7bce710b0952a71082702781e62ae0595a2646970667358221220b10b8357acb38c7261c6638565319abc470f55387f4182417d28d77c97af912f64736f6c63430008140033",
  "linkReferences": {},
  "deployedLinkReferences": {}
}