{
  "_format": "hh-sol-artifact-1",
  "contractName": "BitredictToken",
  "sourceName": "contracts/BitredictToken.sol",
  "abi": [
    {
      "inputs": [],
      "stateMutability": "nonpayable",
      "type": "constructor"
    },
    {
      "inputs": [
        {
          "internalType": "address",
          "name": "spender",
          "type": "address"
        },
        {
          "internalType": "uint256",
          "name": "allowance",
          "type": "uint256"
        },
        {
          "internalType": "uint256",
          "name": "needed",
          "type": "uint256"
        }
      ],
      "name": "ERC20InsufficientAllowance",
      "type": "error"
    },
    {
      "inputs": [
        {
          "internalType": "address",
          "name": "sender",
          "type": "address"
        },
        {
          "internalType": "uint256",
          "name": "balance",
          "type": "uint256"
        },
        {
          "internalType": "uint256",
          "name": "needed",
          "type": "uint256"
        }
      ],
      "name": "ERC20InsufficientBalance",
      "type": "error"
    },
    {
      "inputs": [
        {
          "internalType": "address",
          "name": "approver",
          "type": "address"
        }
      ],
      "name": "ERC20InvalidApprover",
      "type": "error"
    },
    {
      "inputs": [
        {
          "internalType": "address",
          "name": "receiver",
          "type": "address"
        }
      ],
      "name": "ERC20InvalidReceiver",
      "type": "error"
    },
    {
      "inputs": [
        {
          "internalType": "address",
          "name": "sender",
          "type": "address"
        }
      ],
      "name": "ERC20InvalidSender",
      "type": "error"
    },
    {
      "inputs": [
        {
          "internalType": "address",
          "name": "spender",
          "type": "address"
        }
      ],
      "name": "ERC20InvalidSpender",
      "type": "error"
    },
    {
      "inputs": [
        {
          "internalType": "address",
          "name": "owner",
          "type": "address"
        }
      ],
      "name": "OwnableInvalidOwner",
      "type": "error"
    },
    {
      "inputs": [
        {
          "internalType": "address",
          "name": "account",
          "type": "address"
        }
      ],
      "name": "OwnableUnauthorizedAccount",
      "type": "error"
    },
    {
      "anonymous": false,
      "inputs": [
        {
          "indexed": true,
          "internalType": "address",
          "name": "owner",
          "type": "address"
        },
        {
          "indexed": true,
          "internalType": "address",
          "name": "spender",
          "type": "address"
        },
        {
          "indexed": false,
          "internalType": "uint256",
          "name": "value",
          "type": "uint256"
        }
      ],
      "name": "Approval",
      "type": "event"
    },
    {
      "anonymous": false,
      "inputs": [
        {
          "indexed": true,
          "internalType": "address",
          "name": "previousOwner",
          "type": "address"
        },
        {
          "indexed": true,
          "internalType": "address",
          "name": "newOwner",
          "type": "address"
        }
      ],
      "name": "OwnershipTransferred",
      "type": "event"
    },
    {
      "anonymous": false,
      "inputs": [
        {
          "indexed": true,
          "internalType": "address",
          "name": "from",
          "type": "address"
        },
        {
          "indexed": true,
          "internalType": "address",
          "name": "to",
          "type": "address"
        },
        {
          "indexed": false,
          "internalType": "uint256",
          "name": "value",
          "type": "uint256"
        }
      ],
      "name": "Transfer",
      "type": "event"
    },
    {
      "inputs": [],
      "name": "MAX_SUPPLY",
      "outputs": [
        {
          "internalType": "uint256",
          "name": "",
          "type": "uint256"
        }
      ],
      "stateMutability": "view",
      "type": "function"
    },
    {
      "inputs": [
        {
          "internalType": "address",
          "name": "owner",
          "type": "address"
        },
        {
          "internalType": "address",
          "name": "spender",
          "type": "address"
        }
      ],
      "name": "allowance",
      "outputs": [
        {
          "internalType": "uint256",
          "name": "",
          "type": "uint256"
        }
      ],
      "stateMutability": "view",
      "type": "function"
    },
    {
      "inputs": [
        {
          "internalType": "address",
          "name": "spender",
          "type": "address"
        },
        {
          "internalType": "uint256",
          "name": "value",
          "type": "uint256"
        }
      ],
      "name": "approve",
      "outputs": [
        {
          "internalType": "bool",
          "name": "",
          "type": "bool"
        }
      ],
      "stateMutability": "nonpayable",
      "type": "function"
    },
    {
      "inputs": [
        {
          "internalType": "address",
          "name": "account",
          "type": "address"
        }
      ],
      "name": "balanceOf",
      "outputs": [
        {
          "internalType": "uint256",
          "name": "",
          "type": "uint256"
        }
      ],
      "stateMutability": "view",
      "type": "function"
    },
    {
      "inputs": [],
      "name": "canMint",
      "outputs": [
        {
          "internalType": "bool",
          "name": "",
          "type": "bool"
        }
      ],
      "stateMutability": "pure",
      "type": "function"
    },
    {
      "inputs": [],
      "name": "decimals",
      "outputs": [
        {
          "internalType": "uint8",
          "name": "",
          "type": "uint8"
        }
      ],
      "stateMutability": "view",
      "type": "function"
    },
    {
      "inputs": [],
      "name": "maxSupply",
      "outputs": [
        {
          "internalType": "uint256",
          "name": "",
          "type": "uint256"
        }
      ],
      "stateMutability": "pure",
      "type": "function"
    },
    {
      "inputs": [
        {
          "internalType": "address",
          "name": "",
          "type": "address"
        },
        {
          "internalType": "uint256",
          "name": "",
          "type": "uint256"
        }
      ],
      "name": "mint",
      "outputs": [],
      "stateMutability": "pure",
      "type": "function"
    },
    {
      "inputs": [],
      "name": "mintingFinished",
      "outputs": [
        {
          "internalType": "bool",
          "name": "",
          "type": "bool"
        }
      ],
      "stateMutability": "view",
      "type": "function"
    },
    {
      "inputs": [],
      "name": "name",
      "outputs": [
        {
          "internalType": "string",
          "name": "",
          "type": "string"
        }
      ],
      "stateMutability": "view",
      "type": "function"
    },
    {
      "inputs": [],
      "name": "owner",
      "outputs": [
        {
          "internalType": "address",
          "name": "",
          "type": "address"
        }
      ],
      "stateMutability": "view",
      "type": "function"
    },
    {
      "inputs": [],
      "name": "renounceOwnership",
      "outputs": [],
      "stateMutability": "nonpayable",
      "type": "function"
    },
    {
      "inputs": [],
      "name": "symbol",
      "outputs": [
        {
          "internalType": "string",
          "name": "",
          "type": "string"
        }
      ],
      "stateMutability": "view",
      "type": "function"
    },
    {
      "inputs": [],
      "name": "totalSupply",
      "outputs": [
        {
          "internalType": "uint256",
          "name": "",
          "type": "uint256"
        }
      ],
      "stateMutability": "view",
      "type": "function"
    },
    {
      "inputs": [
        {
          "internalType": "address",
          "name": "to",
          "type": "address"
        },
        {
          "internalType": "uint256",
          "name": "value",
          "type": "uint256"
        }
      ],
      "name": "transfer",
      "outputs": [
        {
          "internalType": "bool",
          "name": "",
          "type": "bool"
        }
      ],
      "stateMutability": "nonpayable",
      "type": "function"
    },
    {
      "inputs": [
        {
          "internalType": "address",
          "name": "from",
          "type": "address"
        },
        {
          "internalType": "address",
          "name": "to",
          "type": "address"
        },
        {
          "internalType": "uint256",
          "name": "value",
          "type": "uint256"
        }
      ],
      "name": "transferFrom",
      "outputs": [
        {
          "internalType": "bool",
          "name": "",
          "type": "bool"
        }
      ],
      "stateMutability": "nonpayable",
      "type": "function"
    },
    {
      "inputs": [
        {
          "internalType": "address",
          "name": "newOwner",
          "type": "address"
        }
      ],
      "name": "transferOwnership",
      "outputs": [],
      "stateMutability": "nonpayable",
      "type": "function"
    }
  ],
  "bytecode": "0x60803462000411576040906001600160401b039080830182811182821017620003fb5783526009815260209068109a5d1c99591a58dd60ba1b8282015283519284840184811082821117620003fb578552600493848152632124aa2960e11b848201528251828111620003e6576003918254916001958684811c94168015620003db575b88851014620003c6578190601f9485811162000370575b5088908583116001146200030957600092620002fd575b505060001982861b1c191690861b1783555b8051938411620002e85786548581811c91168015620002dd575b87821014620002c8578281116200027d575b5085918411600114620002125793839491849260009562000206575b50501b92600019911b1c19161782555b3315620001ef57600554336001600160a01b0382167f8be0079c531659141344cd1fd0a4f28419497f9722a3daafe3b4186f6b6457e0600080a36001600160a81b0319163360ff60a01b191617600160a01b176005556002546a52b7d2dcc80cd2e400000092838201918210620001da57506000917fddf252ad1be2c89b69c2b068fc378daa952ba7f163c4a11628f55a4df523b3ef9160025533835282815284832084815401905584519384523393a3516108b69081620004178239f35b601190634e487b7160e01b6000525260246000fd5b5060006024925191631e4fbdf760e01b8352820152fd5b0151935038806200010b565b9190601f198416928760005284876000209460005b89898383106200026557505050106200024a575b50505050811b0182556200011b565b01519060f884600019921b161c19169055388080806200023b565b86860151895590970196948501948893500162000227565b87600052866000208380870160051c820192898810620002be575b0160051c019086905b828110620002b1575050620000ef565b60008155018690620002a1565b9250819262000298565b602288634e487b7160e01b6000525260246000fd5b90607f1690620000dd565b604187634e487b7160e01b6000525260246000fd5b015190503880620000b1565b90889350601f19831691876000528a6000209260005b8c82821062000359575050841162000340575b505050811b018355620000c3565b015160001983881b60f8161c1916905538808062000332565b8385015186558c979095019493840193016200031f565b90915085600052886000208580850160051c8201928b8610620003bc575b918a91869594930160051c01915b828110620003ac5750506200009a565b600081558594508a91016200039c565b925081926200038e565b602289634e487b7160e01b6000525260246000fd5b93607f169362000083565b604186634e487b7160e01b6000525260246000fd5b634e487b7160e01b600052604160045260246000fd5b600080fdfe6080604081815260048036101561001557600080fd5b600092833560e01c90816305d2035b146106af5750806306fdde03146105f2578063095ea7b31461054957806318160ddd1461052a57806323b872dd14610441578063313ce5671461042557806332cb6b0c146101a557806340c10f19146103c757806370a0823114610390578063715018a6146103425780638da5cb5b1461031957806395d89b4114610217578063a9059cbb146101e6578063beb9716d146101cb578063d5abeb01146101a5578063dd62ed3e146101585763f2fde38b146100de57600080fd5b34610154576020366003190112610154576100f761071c565b9061010061074d565b6001600160a01b0391821692831561013e575050600580546001600160a01b031981168417909155166000805160206108618339815191528380a380f35b51631e4fbdf760e01b8152908101849052602490fd5b8280fd5b5050346101a157806003193601126101a1578060209261017661071c565b61017e610737565b6001600160a01b0391821683526001865283832091168252845220549051908152f35b5080fd5b5050346101a157816003193601126101a157602090516a52b7d2dcc80cd2e40000008152f35b5050346101a157816003193601126101a15751908152602090f35b5050346101a157806003193601126101a15760209061021061020661071c565b6024359033610779565b5160018152f35b509190346101a157816003193601126101a157805190828454600181811c9080831692831561030f575b60209384841081146102fc578388529081156102e057506001146102a8575b505050829003601f01601f19168201926001600160401b0384118385101761029557508291826102919252826106d3565b0390f35b634e487b7160e01b815260418552602490fd5b919250868652828620918387935b8385106102cc5750505050830101388080610260565b8054888601830152930192849082016102b6565b60ff1916878501525050151560051b8401019050388080610260565b634e487b7160e01b895260228a52602489fd5b91607f1691610241565b5050346101a157816003193601126101a15760055490516001600160a01b039091168152602090f35b833461038d578060031936011261038d5761035b61074d565b600580546001600160a01b0319811690915581906001600160a01b03166000805160206108618339815191528280a380f35b80fd5b5050346101a15760203660031901126101a15760209181906001600160a01b036103b861071c565b16815280845220549051908152f35b50823461038d578260031936011261038d575060206064926103e761071c565b505162461bcd60e51b815291820152601f60248201527f4d696e74696e67206973207065726d616e656e746c792064697361626c6564006044820152fd5b5050346101a157816003193601126101a1576020905160128152f35b50823461038d57606036600319011261038d5761045c61071c565b610464610737565b916044359360018060a01b0383168083526001602052868320338452602052868320549160001983106104a0575b602088610210898989610779565b8683106105085781156104f15733156104da5750825260016020908152868320338452815291869020908590039055829061021087610492565b8751634a1406b160e11b8152908101849052602490fd5b875163e602df0560e01b8152908101849052602490fd5b9050610526868851938493637dc7a0d960e11b855233908501610842565b0390fd5b5050346101a157816003193601126101a1576020906002549051908152f35b503461015457816003193601126101545761056261071c565b6024359033156105db576001600160a01b03169182156105c457508083602095338152600187528181208582528752205582519081527f8c5be1e5ebec7d5bd14f71427d1e84f3dd0314c0f7b2291e5b200ac8c7c3b925843392a35160018152f35b8351634a1406b160e11b8152908101859052602490fd5b835163e602df0560e01b8152808401869052602490fd5b509190346101a157816003193601126101a15780519082600354600181811c908083169283156106a5575b60209384841081146102fc578388529081156102e0575060011461066c57505050829003601f01601f19168201926001600160401b0384118385101761029557508291826102919252826106d3565b91925060038652828620918387935b8385106106915750505050830101388080610260565b80548886018301529301928490820161067b565b91607f169161061d565b8490346101a157816003193601126101a15760209060ff60055460a01c1615158152f35b6020808252825181830181905290939260005b82811061070857505060409293506000838284010152601f8019910116010190565b8181018601518482016040015285016106e6565b600435906001600160a01b038216820361073257565b600080fd5b602435906001600160a01b038216820361073257565b6005546001600160a01b0316330361076157565b60405163118cdaa760e01b8152336004820152602490fd5b916001600160a01b03808416928315610829571692831561081057600090838252816020526040822054908382106107f3575091604082827fddf252ad1be2c89b69c2b068fc378daa952ba7f163c4a11628f55a4df523b3ef958760209652828652038282205586815220818154019055604051908152a3565b6105268460405193849363391434e360e21b855260048501610842565b60405163ec442f0560e01b815260006004820152602490fd5b604051634b637e8f60e11b815260006004820152602490fd5b604091949392606082019560018060a01b031682526020820152015256fe8be0079c531659141344cd1fd0a4f28419497f9722a3daafe3b4186f6b6457e0a26469706673582212206a0fa191aeea90b1cf0b2f5480654148fc6b0ca4169fb65d98a49ba011d8c0d364736f6c63430008140033",
  "linkReferences": {},
  "deployedLinkReferences": {}
}