{
  "_format": "hh-sol-artifact-1",
  "contractName": "BitredictPoolCore",
  "sourceName": "contracts/BitredictPoolCore.sol",
  "abi": [
    {
      "inputs": [
        {
          "internalType": "address",
          "name": "_bitrToken",
          "type": "address"
        },
        {
          "internalType": "address",
          "name": "_feeCollector",
          "type": "address"
        },
        {
          "internalType": "address",
          "name": "_guidedOracle",
          "type": "address"
        },
        {
          "internalType": "address",
          "name": "_optimisticOracle",
          "type": "address"
        }
      ],
      "stateMutability": "nonpayable",
      "type": "constructor"
    },
    {
      "inputs": [
        {
          "internalType": "address",
          "name": "owner",
          "type": "address"
        }
      ],
      "name": "OwnableInvalidOwner",
      "type": "error"
    },
    {
      "inputs": [
        {
          "internalType": "address",
          "name": "account",
          "type": "address"
        }
      ],
      "name": "OwnableUnauthorizedAccount",
      "type": "error"
    },
    {
      "inputs": [],
      "name": "ReentrancyGuardReentrantCall",
      "type": "error"
    },
    {
      "anonymous": false,
      "inputs": [
        {
          "indexed": true,
          "internalType": "uint256",
          "name": "poolId",
          "type": "uint256"
        },
        {
          "indexed": false,
          "internalType": "uint256",
          "name": "totalVolume",
          "type": "uint256"
        },
        {
          "indexed": false,
          "internalType": "uint256",
          "name": "participantCount",
          "type": "uint256"
        }
      ],
      "name": "AnalyticsUpdated",
      "type": "event"
    },
    {
      "anonymous": false,
      "inputs": [
        {
          "indexed": true,
          "internalType": "uint256",
          "name": "poolId",
          "type": "uint256"
        },
        {
          "indexed": true,
          "internalType": "address",
          "name": "bettor",
          "type": "address"
        },
        {
          "indexed": false,
          "internalType": "uint256",
          "name": "amount",
          "type": "uint256"
        },
        {
          "indexed": false,
          "internalType": "bool",
          "name": "isForOutcome",
          "type": "bool"
        }
      ],
      "name": "BetPlaced",
      "type": "event"
    },
    {
      "anonymous": false,
      "inputs": [
        {
          "indexed": true,
          "internalType": "uint256",
          "name": "poolId",
          "type": "uint256"
        },
        {
          "indexed": true,
          "internalType": "address",
          "name": "provider",
          "type": "address"
        },
        {
          "indexed": false,
          "internalType": "uint256",
          "name": "amount",
          "type": "uint256"
        }
      ],
      "name": "LiquidityAdded",
      "type": "event"
    },
    {
      "anonymous": false,
      "inputs": [
        {
          "indexed": true,
          "internalType": "address",
          "name": "previousOwner",
          "type": "address"
        },
        {
          "indexed": true,
          "internalType": "address",
          "name": "newOwner",
          "type": "address"
        }
      ],
      "name": "OwnershipTransferred",
      "type": "event"
    },
    {
      "anonymous": false,
      "inputs": [
        {
          "indexed": true,
          "internalType": "uint256",
          "name": "poolId",
          "type": "uint256"
        },
        {
          "indexed": true,
          "internalType": "address",
          "name": "creator",
          "type": "address"
        },
        {
          "indexed": false,
          "internalType": "uint256",
          "name": "eventStartTime",
          "type": "uint256"
        },
        {
          "indexed": false,
          "internalType": "uint256",
          "name": "eventEndTime",
          "type": "uint256"
        },
        {
          "indexed": false,
          "internalType": "enum OracleType",
          "name": "oracleType",
          "type": "uint8"
        },
        {
          "indexed": false,
          "internalType": "enum MarketType",
          "name": "marketType",
          "type": "uint8"
        },
        {
          "indexed": false,
          "internalType": "string",
          "name": "marketId",
          "type": "string"
        },
        {
          "indexed": false,
          "internalType": "bytes32",
          "name": "league",
          "type": "bytes32"
        },
        {
          "indexed": false,
          "internalType": "bytes32",
          "name": "category",
          "type": "bytes32"
        }
      ],
      "name": "PoolCreated",
      "type": "event"
    },
    {
      "anonymous": false,
      "inputs": [
        {
          "indexed": true,
          "internalType": "uint256",
          "name": "poolId",
          "type": "uint256"
        },
        {
          "indexed": false,
          "internalType": "string",
          "name": "reason",
          "type": "string"
        }
      ],
      "name": "PoolRefunded",
      "type": "event"
    },
    {
      "anonymous": false,
      "inputs": [
        {
          "indexed": true,
          "internalType": "uint256",
          "name": "poolId",
          "type": "uint256"
        },
        {
          "indexed": false,
          "internalType": "bytes32",
          "name": "result",
          "type": "bytes32"
        },
        {
          "indexed": false,
          "internalType": "bool",
          "name": "creatorSideWon",
          "type": "bool"
        },
        {
          "indexed": false,
          "internalType": "uint256",
          "name": "timestamp",
          "type": "uint256"
        }
      ],
      "name": "PoolSettled",
      "type": "event"
    },
    {
      "anonymous": false,
      "inputs": [
        {
          "indexed": true,
          "internalType": "address",
          "name": "user",
          "type": "address"
        },
        {
          "indexed": false,
          "internalType": "enum ReputationSystem.ReputationAction",
          "name": "action",
          "type": "uint8"
        },
        {
          "indexed": false,
          "internalType": "uint256",
          "name": "value",
          "type": "uint256"
        },
        {
          "indexed": true,
          "internalType": "bytes32",
          "name": "poolId",
          "type": "bytes32"
        },
        {
          "indexed": false,
          "internalType": "uint256",
          "name": "timestamp",
          "type": "uint256"
        }
      ],
      "name": "ReputationActionOccurred",
      "type": "event"
    },
    {
      "anonymous": false,
      "inputs": [
        {
          "indexed": true,
          "internalType": "uint256",
          "name": "poolId",
          "type": "uint256"
        },
        {
          "indexed": true,
          "internalType": "address",
          "name": "user",
          "type": "address"
        },
        {
          "indexed": false,
          "internalType": "uint256",
          "name": "amount",
          "type": "uint256"
        }
      ],
      "name": "RewardClaimed",
      "type": "event"
    },
    {
      "anonymous": false,
      "inputs": [
        {
          "indexed": true,
          "internalType": "uint256",
          "name": "poolId",
          "type": "uint256"
        },
        {
          "indexed": true,
          "internalType": "address",
          "name": "user",
          "type": "address"
        }
      ],
      "name": "UserWhitelisted",
      "type": "event"
    },
    {
      "inputs": [],
      "name": "HIGH_ODDS_THRESHOLD",
      "outputs": [
        {
          "internalType": "uint256",
          "name": "",
          "type": "uint256"
        }
      ],
      "stateMutability": "view",
      "type": "function"
    },
    {
      "inputs": [],
      "name": "MAX_LP_PROVIDERS",
      "outputs": [
        {
          "internalType": "uint256",
          "name": "",
          "type": "uint256"
        }
      ],
      "stateMutability": "view",
      "type": "function"
    },
    {
      "inputs": [],
      "name": "MAX_PARTICIPANTS",
      "outputs": [
        {
          "internalType": "uint256",
          "name": "",
          "type": "uint256"
        }
      ],
      "stateMutability": "view",
      "type": "function"
    },
    {
      "inputs": [],
      "name": "REFUND_BATCH_SIZE",
      "outputs": [
        {
          "internalType": "uint256",
          "name": "",
          "type": "uint256"
        }
      ],
      "stateMutability": "view",
      "type": "function"
    },
    {
      "inputs": [
        {
          "internalType": "uint256",
          "name": "poolId",
          "type": "uint256"
        },
        {
          "internalType": "uint256",
          "name": "amount",
          "type": "uint256"
        }
      ],
      "name": "addLiquidity",
      "outputs": [],
      "stateMutability": "payable",
      "type": "function"
    },
    {
      "inputs": [
        {
          "internalType": "uint256",
          "name": "poolId",
          "type": "uint256"
        },
        {
          "internalType": "address",
          "name": "user",
          "type": "address"
        }
      ],
      "name": "addToWhitelist",
      "outputs": [],
      "stateMutability": "nonpayable",
      "type": "function"
    },
    {
      "inputs": [
        {
          "internalType": "address",
          "name": "user",
          "type": "address"
        }
      ],
      "name": "adjustedFeeRate",
      "outputs": [
        {
          "internalType": "uint256",
          "name": "",
          "type": "uint256"
        }
      ],
      "stateMutability": "view",
      "type": "function"
    },
    {
      "inputs": [],
      "name": "arbitrationTimeout",
      "outputs": [
        {
          "internalType": "uint256",
          "name": "",
          "type": "uint256"
        }
      ],
      "stateMutability": "view",
      "type": "function"
    },
    {
      "inputs": [
        {
          "internalType": "uint256",
          "name": "poolId",
          "type": "uint256"
        },
        {
          "internalType": "uint256",
          "name": "startIndex",
          "type": "uint256"
        },
        {
          "internalType": "uint256",
          "name": "batchSize",
          "type": "uint256"
        }
      ],
      "name": "batchRefund",
      "outputs": [],
      "stateMutability": "nonpayable",
      "type": "function"
    },
    {
      "inputs": [],
      "name": "bettingGracePeriod",
      "outputs": [
        {
          "internalType": "uint256",
          "name": "",
          "type": "uint256"
        }
      ],
      "stateMutability": "view",
      "type": "function"
    },
    {
      "inputs": [
        {
          "internalType": "uint256",
          "name": "",
          "type": "uint256"
        },
        {
          "internalType": "address",
          "name": "",
          "type": "address"
        }
      ],
      "name": "bettorStakes",
      "outputs": [
        {
          "internalType": "uint256",
          "name": "",
          "type": "uint256"
        }
      ],
      "stateMutability": "view",
      "type": "function"
    },
    {
      "inputs": [],
      "name": "bitrToken",
      "outputs": [
        {
          "internalType": "contract IERC20",
          "name": "",
          "type": "address"
        }
      ],
      "stateMutability": "view",
      "type": "function"
    },
    {
      "inputs": [],
      "name": "boostSystem",
      "outputs": [
        {
          "internalType": "contract IBitredictBoostSystem",
          "name": "",
          "type": "address"
        }
      ],
      "stateMutability": "view",
      "type": "function"
    },
    {
      "inputs": [
        {
          "internalType": "bytes32",
          "name": "",
          "type": "bytes32"
        },
        {
          "internalType": "uint256",
          "name": "",
          "type": "uint256"
        }
      ],
      "name": "categoryPools",
      "outputs": [
        {
          "internalType": "uint256",
          "name": "",
          "type": "uint256"
        }
      ],
      "stateMutability": "view",
      "type": "function"
    },
    {
      "inputs": [
        {
          "internalType": "uint256",
          "name": "poolId",
          "type": "uint256"
        }
      ],
      "name": "checkAndRefundEmptyPool",
      "outputs": [],
      "stateMutability": "nonpayable",
      "type": "function"
    },
    {
      "inputs": [
        {
          "internalType": "uint256",
          "name": "poolId",
          "type": "uint256"
        }
      ],
      "name": "claim",
      "outputs": [],
      "stateMutability": "nonpayable",
      "type": "function"
    },
    {
      "inputs": [
        {
          "internalType": "uint256",
          "name": "",
          "type": "uint256"
        },
        {
          "internalType": "address",
          "name": "",
          "type": "address"
        }
      ],
      "name": "claimed",
      "outputs": [
        {
          "internalType": "bool",
          "name": "",
          "type": "bool"
        }
      ],
      "stateMutability": "view",
      "type": "function"
    },
    {
      "inputs": [
        {
          "internalType": "bytes32",
          "name": "_predictedOutcome",
          "type": "bytes32"
        },
        {
          "internalType": "uint256",
          "name": "_odds",
          "type": "uint256"
        },
        {
          "internalType": "uint256",
          "name": "_creatorStake",
          "type": "uint256"
        },
        {
          "internalType": "uint256",
          "name": "_eventStartTime",
          "type": "uint256"
        },
        {
          "internalType": "uint256",
          "name": "_eventEndTime",
          "type": "uint256"
        },
        {
          "internalType": "bytes32",
          "name": "_league",
          "type": "bytes32"
        },
        {
          "internalType": "bytes32",
          "name": "_category",
          "type": "bytes32"
        },
        {
          "internalType": "bytes32",
          "name": "_homeTeam",
          "type": "bytes32"
        },
        {
          "internalType": "bytes32",
          "name": "_awayTeam",
          "type": "bytes32"
        },
        {
          "internalType": "bytes32",
          "name": "_title",
          "type": "bytes32"
        },
        {
          "internalType": "bool",
          "name": "_isPrivate",
          "type": "bool"
        },
        {
          "internalType": "uint256",
          "name": "_maxBetPerUser",
          "type": "uint256"
        },
        {
          "internalType": "bool",
          "name": "_useBitr",
          "type": "bool"
        },
        {
          "internalType": "enum OracleType",
          "name": "_oracleType",
          "type": "uint8"
        },
        {
          "internalType": "enum MarketType",
          "name": "_marketType",
          "type": "uint8"
        },
        {
          "internalType": "string",
          "name": "_marketId",
          "type": "string"
        }
      ],
      "name": "createPool",
      "outputs": [
        {
          "internalType": "uint256",
          "name": "",
          "type": "uint256"
        }
      ],
      "stateMutability": "payable",
      "type": "function"
    },
    {
      "inputs": [],
      "name": "creationFeeBITR",
      "outputs": [
        {
          "internalType": "uint256",
          "name": "",
          "type": "uint256"
        }
      ],
      "stateMutability": "view",
      "type": "function"
    },
    {
      "inputs": [],
      "name": "creationFeeSTT",
      "outputs": [
        {
          "internalType": "uint256",
          "name": "",
          "type": "uint256"
        }
      ],
      "stateMutability": "view",
      "type": "function"
    },
    {
      "inputs": [
        {
          "internalType": "address",
          "name": "",
          "type": "address"
        },
        {
          "internalType": "uint256",
          "name": "",
          "type": "uint256"
        }
      ],
      "name": "creatorActivePools",
      "outputs": [
        {
          "internalType": "uint256",
          "name": "",
          "type": "uint256"
        }
      ],
      "stateMutability": "view",
      "type": "function"
    },
    {
      "inputs": [
        {
          "internalType": "address",
          "name": "",
          "type": "address"
        }
      ],
      "name": "creatorStats",
      "outputs": [
        {
          "internalType": "uint256",
          "name": "totalPoolsCreated",
          "type": "uint256"
        },
        {
          "internalType": "uint256",
          "name": "successfulPools",
          "type": "uint256"
        },
        {
          "internalType": "uint256",
          "name": "totalVolumeGenerated",
          "type": "uint256"
        },
        {
          "internalType": "uint256",
          "name": "averagePoolSize",
          "type": "uint256"
        },
        {
          "internalType": "uint256",
          "name": "reputationScore",
          "type": "uint256"
        },
        {
          "internalType": "uint256",
          "name": "winRate",
          "type": "uint256"
        },
        {
          "internalType": "uint256",
          "name": "totalEarnings",
          "type": "uint256"
        },
        {
          "internalType": "uint256",
          "name": "activePoolsCount",
          "type": "uint256"
        }
      ],
      "stateMutability": "view",
      "type": "function"
    },
    {
      "inputs": [
        {
          "internalType": "address",
          "name": "stakingContract",
          "type": "address"
        }
      ],
      "name": "distributeFees",
      "outputs": [],
      "stateMutability": "nonpayable",
      "type": "function"
    },
    {
      "inputs": [],
      "name": "feeCollector",
      "outputs": [
        {
          "internalType": "address",
          "name": "",
          "type": "address"
        }
      ],
      "stateMutability": "view",
      "type": "function"
    },
    {
      "inputs": [
        {
          "internalType": "uint256",
          "name": "offset",
          "type": "uint256"
        },
        {
          "internalType": "uint256",
          "name": "limit",
          "type": "uint256"
        }
      ],
      "name": "getActivePoolsPaginated",
      "outputs": [
        {
          "internalType": "uint256[]",
          "name": "poolIds",
          "type": "uint256[]"
        },
        {
          "internalType": "uint256",
          "name": "totalCount",
          "type": "uint256"
        }
      ],
      "stateMutability": "view",
      "type": "function"
    },
    {
      "inputs": [
        {
          "internalType": "uint256",
          "name": "poolId",
          "type": "uint256"
        }
      ],
      "name": "getBatchRefundInfo",
      "outputs": [
        {
          "internalType": "uint256",
          "name": "totalParticipants",
          "type": "uint256"
        },
        {
          "internalType": "bool",
          "name": "needsBatchRefund",
          "type": "bool"
        },
        {
          "internalType": "uint256",
          "name": "suggestedBatchSize",
          "type": "uint256"
        }
      ],
      "stateMutability": "view",
      "type": "function"
    },
    {
      "inputs": [
        {
          "internalType": "uint256",
          "name": "poolId",
          "type": "uint256"
        },
        {
          "internalType": "address",
          "name": "user",
          "type": "address"
        }
      ],
      "name": "getClaimInfo",
      "outputs": [
        {
          "internalType": "bool",
          "name": "canClaim",
          "type": "bool"
        },
        {
          "internalType": "uint256",
          "name": "claimableAmount",
          "type": "uint256"
        },
        {
          "internalType": "bool",
          "name": "isWinner",
          "type": "bool"
        },
        {
          "internalType": "uint256",
          "name": "userStake",
          "type": "uint256"
        },
        {
          "internalType": "bool",
          "name": "alreadyClaimed",
          "type": "bool"
        },
        {
          "internalType": "string",
          "name": "reason",
          "type": "string"
        }
      ],
      "stateMutability": "view",
      "type": "function"
    },
    {
      "inputs": [
        {
          "internalType": "address",
          "name": "creator",
          "type": "address"
        }
      ],
      "name": "getCreatorReputation",
      "outputs": [
        {
          "internalType": "uint256",
          "name": "reputationScore",
          "type": "uint256"
        },
        {
          "internalType": "uint256",
          "name": "totalPoolsCreated",
          "type": "uint256"
        },
        {
          "internalType": "uint256",
          "name": "totalVolumeCreated",
          "type": "uint256"
        },
        {
          "internalType": "uint256",
          "name": "averagePoolSize",
          "type": "uint256"
        }
      ],
      "stateMutability": "view",
      "type": "function"
    },
    {
      "inputs": [],
      "name": "getGlobalStats",
      "outputs": [
        {
          "internalType": "uint256",
          "name": "totalPools",
          "type": "uint256"
        },
        {
          "internalType": "uint256",
          "name": "totalVolume",
          "type": "uint256"
        },
        {
          "internalType": "uint256",
          "name": "averagePoolSize",
          "type": "uint256"
        },
        {
          "internalType": "uint256",
          "name": "lastUpdated",
          "type": "uint256"
        }
      ],
      "stateMutability": "view",
      "type": "function"
    },
    {
      "inputs": [
        {
          "internalType": "uint256",
          "name": "poolId",
          "type": "uint256"
        },
        {
          "internalType": "uint256",
          "name": "averageVolume",
          "type": "uint256"
        }
      ],
      "name": "getMarketTrend",
      "outputs": [
        {
          "internalType": "int8",
          "name": "trendDirection",
          "type": "int8"
        },
        {
          "internalType": "uint256",
          "name": "trendStrength",
          "type": "uint256"
        }
      ],
      "stateMutability": "view",
      "type": "function"
    },
    {
      "inputs": [
        {
          "internalType": "uint256",
          "name": "poolId",
          "type": "uint256"
        }
      ],
      "name": "getParticipantCounts",
      "outputs": [
        {
          "internalType": "uint256",
          "name": "bettorCount",
          "type": "uint256"
        },
        {
          "internalType": "uint256",
          "name": "lpCount",
          "type": "uint256"
        }
      ],
      "stateMutability": "view",
      "type": "function"
    },
    {
      "inputs": [
        {
          "internalType": "uint256",
          "name": "poolId",
          "type": "uint256"
        }
      ],
      "name": "getPool",
      "outputs": [
        {
          "components": [
            {
              "internalType": "address",
              "name": "creator",
              "type": "address"
            },
            {
              "internalType": "uint16",
              "name": "odds",
              "type": "uint16"
            },
            {
              "internalType": "uint8",
              "name": "flags",
              "type": "uint8"
            },
            {
              "internalType": "enum OracleType",
              "name": "oracleType",
              "type": "uint8"
            },
            {
              "internalType": "enum MarketType",
              "name": "marketType",
              "type": "uint8"
            },
            {
              "internalType": "uint8",
              "name": "reserved",
              "type": "uint8"
            },
            {
              "internalType": "uint256",
              "name": "creatorStake",
              "type": "uint256"
            },
            {
              "internalType": "uint256",
              "name": "totalCreatorSideStake",
              "type": "uint256"
            },
            {
              "internalType": "uint256",
              "name": "maxBettorStake",
              "type": "uint256"
            },
            {
              "internalType": "uint256",
              "name": "totalBettorStake",
              "type": "uint256"
            },
            {
              "internalType": "bytes32",
              "name": "predictedOutcome",
              "type": "bytes32"
            },
            {
              "internalType": "bytes32",
              "name": "result",
              "type": "bytes32"
            },
            {
              "internalType": "uint256",
              "name": "eventStartTime",
              "type": "uint256"
            },
            {
              "internalType": "uint256",
              "name": "eventEndTime",
              "type": "uint256"
            },
            {
              "internalType": "uint256",
              "name": "bettingEndTime",
              "type": "uint256"
            },
            {
              "internalType": "uint256",
              "name": "resultTimestamp",
              "type": "uint256"
            },
            {
              "internalType": "uint256",
              "name": "arbitrationDeadline",
              "type": "uint256"
            },
            {
              "internalType": "uint256",
              "name": "maxBetPerUser",
              "type": "uint256"
            },
            {
              "internalType": "bytes32",
              "name": "league",
              "type": "bytes32"
            },
            {
              "internalType": "bytes32",
              "name": "category",
              "type": "bytes32"
            },
            {
              "internalType": "bytes32",
              "name": "homeTeam",
              "type": "bytes32"
            },
            {
              "internalType": "bytes32",
              "name": "awayTeam",
              "type": "bytes32"
            },
            {
              "internalType": "bytes32",
              "name": "title",
              "type": "bytes32"
            },
            {
              "internalType": "string",
              "name": "marketId",
              "type": "string"
            }
          ],
          "internalType": "struct BitredictPoolCore.Pool",
          "name": "",
          "type": "tuple"
        }
      ],
      "stateMutability": "view",
      "type": "function"
    },
    {
      "inputs": [
        {
          "internalType": "uint256",
          "name": "poolId",
          "type": "uint256"
        }
      ],
      "name": "getPoolAnalytics",
      "outputs": [
        {
          "internalType": "uint256",
          "name": "popularityScore",
          "type": "uint256"
        },
        {
          "internalType": "uint8",
          "name": "riskLevel",
          "type": "uint8"
        },
        {
          "internalType": "string",
          "name": "riskFactors",
          "type": "string"
        },
        {
          "internalType": "uint256",
          "name": "efficiencyScore",
          "type": "uint256"
        },
        {
          "internalType": "uint256",
          "name": "utilizationRate",
          "type": "uint256"
        }
      ],
      "stateMutability": "view",
      "type": "function"
    },
    {
      "inputs": [
        {
          "internalType": "uint256",
          "name": "poolId",
          "type": "uint256"
        },
        {
          "internalType": "uint256",
          "name": "offset",
          "type": "uint256"
        },
        {
          "internalType": "uint256",
          "name": "limit",
          "type": "uint256"
        }
      ],
      "name": "getPoolBettorsPaginated",
      "outputs": [
        {
          "internalType": "address[]",
          "name": "bettors",
          "type": "address[]"
        },
        {
          "internalType": "uint256[]",
          "name": "stakes",
          "type": "uint256[]"
        },
        {
          "internalType": "uint256",
          "name": "totalCount",
          "type": "uint256"
        }
      ],
      "stateMutability": "view",
      "type": "function"
    },
    {
      "inputs": [
        {
          "internalType": "uint256",
          "name": "poolId",
          "type": "uint256"
        },
        {
          "internalType": "uint256",
          "name": "offset",
          "type": "uint256"
        },
        {
          "internalType": "uint256",
          "name": "limit",
          "type": "uint256"
        }
      ],
      "name": "getPoolLPsPaginated",
      "outputs": [
        {
          "internalType": "address[]",
          "name": "lps",
          "type": "address[]"
        },
        {
          "internalType": "uint256[]",
          "name": "stakes",
          "type": "uint256[]"
        },
        {
          "internalType": "uint256",
          "name": "totalCount",
          "type": "uint256"
        }
      ],
      "stateMutability": "view",
      "type": "function"
    },
    {
      "inputs": [
        {
          "internalType": "uint256",
          "name": "poolId",
          "type": "uint256"
        }
      ],
      "name": "getPoolStats",
      "outputs": [
        {
          "internalType": "uint256",
          "name": "totalBettorStake",
          "type": "uint256"
        },
        {
          "internalType": "uint256",
          "name": "totalCreatorSideStake",
          "type": "uint256"
        },
        {
          "internalType": "uint256",
          "name": "bettorCount",
          "type": "uint256"
        },
        {
          "internalType": "uint256",
          "name": "lpCount",
          "type": "uint256"
        },
        {
          "internalType": "bool",
          "name": "isSettled",
          "type": "bool"
        },
        {
          "internalType": "bool",
          "name": "eligibleForRefund",
          "type": "bool"
        },
        {
          "internalType": "uint256",
          "name": "timeUntilEventStart",
          "type": "uint256"
        },
        {
          "internalType": "uint256",
          "name": "timeUntilBettingEnd",
          "type": "uint256"
        }
      ],
      "stateMutability": "view",
      "type": "function"
    },
    {
      "inputs": [
        {
          "internalType": "address",
          "name": "creator",
          "type": "address"
        },
        {
          "internalType": "uint256",
          "name": "limit",
          "type": "uint256"
        }
      ],
      "name": "getPoolsByCreator",
      "outputs": [
        {
          "internalType": "uint256[]",
          "name": "",
          "type": "uint256[]"
        }
      ],
      "stateMutability": "view",
      "type": "function"
    },
    {
      "inputs": [
        {
          "internalType": "uint256",
          "name": "poolId",
          "type": "uint256"
        },
        {
          "internalType": "uint256",
          "name": "betAmount",
          "type": "uint256"
        },
        {
          "internalType": "address",
          "name": "user",
          "type": "address"
        }
      ],
      "name": "getPotentialWinnings",
      "outputs": [
        {
          "internalType": "uint256",
          "name": "grossPayout",
          "type": "uint256"
        },
        {
          "internalType": "uint256",
          "name": "netPayout",
          "type": "uint256"
        },
        {
          "internalType": "uint256",
          "name": "feeAmount",
          "type": "uint256"
        }
      ],
      "stateMutability": "view",
      "type": "function"
    },
    {
      "inputs": [
        {
          "internalType": "uint256",
          "name": "poolId",
          "type": "uint256"
        },
        {
          "internalType": "address",
          "name": "user",
          "type": "address"
        }
      ],
      "name": "getUserPoolStake",
      "outputs": [
        {
          "internalType": "uint256",
          "name": "bettorStake",
          "type": "uint256"
        },
        {
          "internalType": "uint256",
          "name": "lpStake",
          "type": "uint256"
        },
        {
          "internalType": "bool",
          "name": "hasClaimed",
          "type": "bool"
        }
      ],
      "stateMutability": "view",
      "type": "function"
    },
    {
      "inputs": [],
      "name": "globalStats",
      "outputs": [
        {
          "internalType": "uint256",
          "name": "totalPools",
          "type": "uint256"
        },
        {
          "internalType": "uint256",
          "name": "totalVolume",
          "type": "uint256"
        },
        {
          "internalType": "uint256",
          "name": "totalUsers",
          "type": "uint256"
        },
        {
          "internalType": "uint256",
          "name": "totalBets",
          "type": "uint256"
        },
        {
          "internalType": "uint256",
          "name": "averagePoolSize",
          "type": "uint256"
        },
        {
          "internalType": "uint256",
          "name": "lastUpdated",
          "type": "uint256"
        }
      ],
      "stateMutability": "view",
      "type": "function"
    },
    {
      "inputs": [],
      "name": "guidedOracle",
      "outputs": [
        {
          "internalType": "address",
          "name": "",
          "type": "address"
        }
      ],
      "stateMutability": "view",
      "type": "function"
    },
    {
      "inputs": [
        {
          "internalType": "uint256",
          "name": "poolId",
          "type": "uint256"
        }
      ],
      "name": "isEligibleForRefund",
      "outputs": [
        {
          "internalType": "bool",
          "name": "",
          "type": "bool"
        }
      ],
      "stateMutability": "view",
      "type": "function"
    },
    {
      "inputs": [
        {
          "internalType": "uint256",
          "name": "poolId",
          "type": "uint256"
        },
        {
          "internalType": "address",
          "name": "user",
          "type": "address"
        }
      ],
      "name": "isParticipant",
      "outputs": [
        {
          "internalType": "bool",
          "name": "hasStake",
          "type": "bool"
        }
      ],
      "stateMutability": "view",
      "type": "function"
    },
    {
      "inputs": [
        {
          "internalType": "address",
          "name": "",
          "type": "address"
        }
      ],
      "name": "longestStreak",
      "outputs": [
        {
          "internalType": "uint256",
          "name": "",
          "type": "uint256"
        }
      ],
      "stateMutability": "view",
      "type": "function"
    },
    {
      "inputs": [
        {
          "internalType": "uint256",
          "name": "",
          "type": "uint256"
        },
        {
          "internalType": "address",
          "name": "",
          "type": "address"
        }
      ],
      "name": "lpStakes",
      "outputs": [
        {
          "internalType": "uint256",
          "name": "",
          "type": "uint256"
        }
      ],
      "stateMutability": "view",
      "type": "function"
    },
    {
      "inputs": [],
      "name": "minBetAmount",
      "outputs": [
        {
          "internalType": "uint256",
          "name": "",
          "type": "uint256"
        }
      ],
      "stateMutability": "view",
      "type": "function"
    },
    {
      "inputs": [],
      "name": "minPoolStakeBITR",
      "outputs": [
        {
          "internalType": "uint256",
          "name": "",
          "type": "uint256"
        }
      ],
      "stateMutability": "view",
      "type": "function"
    },
    {
      "inputs": [],
      "name": "minPoolStakeSTT",
      "outputs": [
        {
          "internalType": "uint256",
          "name": "",
          "type": "uint256"
        }
      ],
      "stateMutability": "view",
      "type": "function"
    },
    {
      "inputs": [],
      "name": "optimisticOracle",
      "outputs": [
        {
          "internalType": "address",
          "name": "",
          "type": "address"
        }
      ],
      "stateMutability": "view",
      "type": "function"
    },
    {
      "inputs": [],
      "name": "owner",
      "outputs": [
        {
          "internalType": "address",
          "name": "",
          "type": "address"
        }
      ],
      "stateMutability": "view",
      "type": "function"
    },
    {
      "inputs": [
        {
          "internalType": "uint256",
          "name": "poolId",
          "type": "uint256"
        },
        {
          "internalType": "uint256",
          "name": "amount",
          "type": "uint256"
        }
      ],
      "name": "placeBet",
      "outputs": [],
      "stateMutability": "payable",
      "type": "function"
    },
    {
      "inputs": [],
      "name": "platformFee",
      "outputs": [
        {
          "internalType": "uint256",
          "name": "",
          "type": "uint256"
        }
      ],
      "stateMutability": "view",
      "type": "function"
    },
    {
      "inputs": [
        {
          "internalType": "uint256",
          "name": "",
          "type": "uint256"
        }
      ],
      "name": "poolAnalytics",
      "outputs": [
        {
          "internalType": "uint256",
          "name": "totalVolume",
          "type": "uint256"
        },
        {
          "internalType": "uint256",
          "name": "participantCount",
          "type": "uint256"
        },
        {
          "internalType": "uint256",
          "name": "averageBetSize",
          "type": "uint256"
        },
        {
          "internalType": "uint256",
          "name": "creatorReputation",
          "type": "uint256"
        },
        {
          "internalType": "uint256",
          "name": "liquidityRatio",
          "type": "uint256"
        },
        {
          "internalType": "uint256",
          "name": "timeToFill",
          "type": "uint256"
        },
        {
          "internalType": "bool",
          "name": "isHotPool",
          "type": "bool"
        },
        {
          "internalType": "uint256",
          "name": "fillPercentage",
          "type": "uint256"
        },
        {
          "internalType": "uint256",
          "name": "lastActivityTime",
          "type": "uint256"
        }
      ],
      "stateMutability": "view",
      "type": "function"
    },
    {
      "inputs": [
        {
          "internalType": "uint256",
          "name": "",
          "type": "uint256"
        },
        {
          "internalType": "uint256",
          "name": "",
          "type": "uint256"
        }
      ],
      "name": "poolBettors",
      "outputs": [
        {
          "internalType": "address",
          "name": "",
          "type": "address"
        }
      ],
      "stateMutability": "view",
      "type": "function"
    },
    {
      "inputs": [],
      "name": "poolCount",
      "outputs": [
        {
          "internalType": "uint256",
          "name": "",
          "type": "uint256"
        }
      ],
      "stateMutability": "view",
      "type": "function"
    },
    {
      "inputs": [
        {
          "internalType": "uint256",
          "name": "",
          "type": "uint256"
        }
      ],
      "name": "poolDisplayData",
      "outputs": [
        {
          "internalType": "string",
          "name": "",
          "type": "string"
        }
      ],
      "stateMutability": "view",
      "type": "function"
    },
    {
      "inputs": [
        {
          "internalType": "uint256",
          "name": "poolId",
          "type": "uint256"
        }
      ],
      "name": "poolExists",
      "outputs": [
        {
          "internalType": "bool",
          "name": "",
          "type": "bool"
        }
      ],
      "stateMutability": "view",
      "type": "function"
    },
    {
      "inputs": [
        {
          "internalType": "uint256",
          "name": "",
          "type": "uint256"
        }
      ],
      "name": "poolIdToCreatorIndex",
      "outputs": [
        {
          "internalType": "uint256",
          "name": "",
          "type": "uint256"
        }
      ],
      "stateMutability": "view",
      "type": "function"
    },
    {
      "inputs": [
        {
          "internalType": "uint256",
          "name": "",
          "type": "uint256"
        },
        {
          "internalType": "uint256",
          "name": "",
          "type": "uint256"
        }
      ],
      "name": "poolLPs",
      "outputs": [
        {
          "internalType": "address",
          "name": "",
          "type": "address"
        }
      ],
      "stateMutability": "view",
      "type": "function"
    },
    {
      "inputs": [
        {
          "internalType": "uint256",
          "name": "",
          "type": "uint256"
        },
        {
          "internalType": "address",
          "name": "",
          "type": "address"
        }
      ],
      "name": "poolWhitelist",
      "outputs": [
        {
          "internalType": "bool",
          "name": "",
          "type": "bool"
        }
      ],
      "stateMutability": "view",
      "type": "function"
    },
    {
      "inputs": [
        {
          "internalType": "uint256",
          "name": "",
          "type": "uint256"
        }
      ],
      "name": "pools",
      "outputs": [
        {
          "internalType": "address",
          "name": "creator",
          "type": "address"
        },
        {
          "internalType": "uint16",
          "name": "odds",
          "type": "uint16"
        },
        {
          "internalType": "uint8",
          "name": "flags",
          "type": "uint8"
        },
        {
          "internalType": "enum OracleType",
          "name": "oracleType",
          "type": "uint8"
        },
        {
          "internalType": "enum MarketType",
          "name": "marketType",
          "type": "uint8"
        },
        {
          "internalType": "uint8",
          "name": "reserved",
          "type": "uint8"
        },
        {
          "internalType": "uint256",
          "name": "creatorStake",
          "type": "uint256"
        },
        {
          "internalType": "uint256",
          "name": "totalCreatorSideStake",
          "type": "uint256"
        },
        {
          "internalType": "uint256",
          "name": "maxBettorStake",
          "type": "uint256"
        },
        {
          "internalType": "uint256",
          "name": "totalBettorStake",
          "type": "uint256"
        },
        {
          "internalType": "bytes32",
          "name": "predictedOutcome",
          "type": "bytes32"
        },
        {
          "internalType": "bytes32",
          "name": "result",
          "type": "bytes32"
        },
        {
          "internalType": "uint256",
          "name": "eventStartTime",
          "type": "uint256"
        },
        {
          "internalType": "uint256",
          "name": "eventEndTime",
          "type": "uint256"
        },
        {
          "internalType": "uint256",
          "name": "bettingEndTime",
          "type": "uint256"
        },
        {
          "internalType": "uint256",
          "name": "resultTimestamp",
          "type": "uint256"
        },
        {
          "internalType": "uint256",
          "name": "arbitrationDeadline",
          "type": "uint256"
        },
        {
          "internalType": "uint256",
          "name": "maxBetPerUser",
          "type": "uint256"
        },
        {
          "internalType": "bytes32",
          "name": "league",
          "type": "bytes32"
        },
        {
          "internalType": "bytes32",
          "name": "category",
          "type": "bytes32"
        },
        {
          "internalType": "bytes32",
          "name": "homeTeam",
          "type": "bytes32"
        },
        {
          "internalType": "bytes32",
          "name": "awayTeam",
          "type": "bytes32"
        },
        {
          "internalType": "bytes32",
          "name": "title",
          "type": "bytes32"
        },
        {
          "internalType": "string",
          "name": "marketId",
          "type": "string"
        }
      ],
      "stateMutability": "view",
      "type": "function"
    },
    {
      "inputs": [
        {
          "internalType": "address",
          "name": "",
          "type": "address"
        }
      ],
      "name": "predictionStreaks",
      "outputs": [
        {
          "internalType": "uint256",
          "name": "",
          "type": "uint256"
        }
      ],
      "stateMutability": "view",
      "type": "function"
    },
    {
      "inputs": [
        {
          "internalType": "uint256",
          "name": "poolId",
          "type": "uint256"
        }
      ],
      "name": "refundPool",
      "outputs": [],
      "stateMutability": "nonpayable",
      "type": "function"
    },
    {
      "inputs": [
        {
          "internalType": "uint256",
          "name": "poolId",
          "type": "uint256"
        },
        {
          "internalType": "address",
          "name": "user",
          "type": "address"
        }
      ],
      "name": "removeFromWhitelist",
      "outputs": [],
      "stateMutability": "nonpayable",
      "type": "function"
    },
    {
      "inputs": [],
      "name": "renounceOwnership",
      "outputs": [],
      "stateMutability": "nonpayable",
      "type": "function"
    },
    {
      "inputs": [],
      "name": "reputationSystem",
      "outputs": [
        {
          "internalType": "contract IReputationSystem",
          "name": "",
          "type": "address"
        }
      ],
      "stateMutability": "view",
      "type": "function"
    },
    {
      "inputs": [
        {
          "internalType": "address",
          "name": "_boostSystem",
          "type": "address"
        }
      ],
      "name": "setBoostSystem",
      "outputs": [],
      "stateMutability": "nonpayable",
      "type": "function"
    },
    {
      "inputs": [
        {
          "internalType": "address",
          "name": "_reputationSystem",
          "type": "address"
        }
      ],
      "name": "setReputationSystem",
      "outputs": [],
      "stateMutability": "nonpayable",
      "type": "function"
    },
    {
      "inputs": [
        {
          "internalType": "uint256",
          "name": "poolId",
          "type": "uint256"
        },
        {
          "internalType": "bytes32",
          "name": "outcome",
          "type": "bytes32"
        }
      ],
      "name": "settlePool",
      "outputs": [],
      "stateMutability": "nonpayable",
      "type": "function"
    },
    {
      "inputs": [
        {
          "internalType": "uint256",
          "name": "poolId",
          "type": "uint256"
        }
      ],
      "name": "settlePoolAutomatically",
      "outputs": [],
      "stateMutability": "nonpayable",
      "type": "function"
    },
    {
      "inputs": [
        {
          "internalType": "address",
          "name": "",
          "type": "address"
        }
      ],
      "name": "streakMultiplier",
      "outputs": [
        {
          "internalType": "uint256",
          "name": "",
          "type": "uint256"
        }
      ],
      "stateMutability": "view",
      "type": "function"
    },
    {
      "inputs": [],
      "name": "totalCollectedBITR",
      "outputs": [
        {
          "internalType": "uint256",
          "name": "",
          "type": "uint256"
        }
      ],
      "stateMutability": "view",
      "type": "function"
    },
    {
      "inputs": [],
      "name": "totalCollectedSTT",
      "outputs": [
        {
          "internalType": "uint256",
          "name": "",
          "type": "uint256"
        }
      ],
      "stateMutability": "view",
      "type": "function"
    },
    {
      "inputs": [
        {
          "internalType": "address",
          "name": "newOwner",
          "type": "address"
        }
      ],
      "name": "transferOwnership",
      "outputs": [],
      "stateMutability": "nonpayable",
      "type": "function"
    },
    {
      "inputs": [
        {
          "internalType": "address",
          "name": "user",
          "type": "address"
        },
        {
          "internalType": "bool",
          "name": "won",
          "type": "bool"
        }
      ],
      "name": "updateStreak",
      "outputs": [],
      "stateMutability": "nonpayable",
      "type": "function"
    }
  ],
  "bytecode": "0x60e0346200014c57601f62005b8238819003918201601f19168301916001600160401b0383118484101762000151578084926080946040528339810103126200014c576200004d8162000167565b906200005c6020820162000167565b90620000796060620000716040840162000167565b920162000167565b9133156200013357600080546001600160a01b03198082163390811784556040519791936001600160a01b03938416907f8be0079c531659141344cd1fd0a4f28419497f9722a3daafe3b4186f6b6457e09080a3600180551690600254161760025560805260a05260c05242601755615a0590816200017d82396080518181816114670152611eaf015260a0518181816114ac0152818161320b0152613445015260c0518181816132d30152818161332901526135210152f35b604051631e4fbdf760e01b815260006004820152602490fd5b600080fd5b634e487b7160e01b600052604160045260246000fd5b51906001600160a01b03821682036200014c5756fe61016080604052600436101561001457600080fd5b600090813560e01c90816301b708c2146138f157508063068bcd8d146136bb5780630e8a01bc146136785780630edb0acd1461362b578063120aa877146135e257806313695d061461359c578063152cdda9146133a85780631a3221ed146133585780632230292214613313578063237e23be1461319957806326232a2e1461041d57806326d84629146130b85780632d785461146130245780632e24c58714612f9d57806331143cee14612f585780633256435014612f3557806332e1a6cd14612ec3578063379607f514612c8e578063382fdba914612c39578063394d997614612c1b5780633e8670ff14612be95780634accbc4214612b505780634afe62b51461264a5780634c2809f1146103d15780634d7aae78146126265780635556b676146125ed57806358a187ef146125635780635e1871d2146125405780635e4de665146124f5578063657c183f146124d95780636587eda1146124b05780636791799d146123a75780636b4169c314612379578063715018a614612331578063758d9b89146122a257806378c995801461220f57806384499bb6146121eb57806388446412146121cf5780638b4ed235146121a55780638da5cb5b1461217e5780638f63f748146121605780639413f25c14611e895780639481c2ae14611e075780639654b0a114611da05780639cd441da146119a75780639fd482be1461195b578063a12a41cf14611913578063a695ee38146118e7578063aac137d6146118c9578063ab78cc15146118ad578063ac4afa38146116d1578063aedc59811461168a578063b7ece45a146115fb578063b97355f2146115c2578063c26e797e1461157b578063c2be2369146114db578063c341261014611496578063c415b95c14611451578063c6ae0c3b14611418578063cd7f99df14610ed5578063d3d1993d14610e4d578063d3fa11901461063d578063d791b42e146105df578063d96d09aa1461041d578063de96303b146105a6578063dfb067501461056d578063e4dc4efc14610525578063eb6bc08b146104e0578063ed51754714610498578063f2fde38b14610422578063f3baf0701461041d578063f525cb68146103ff578063f6915af5146103d6578063fa968eea146103d15763fea3e6131461035b57600080fd5b346103ce5760403660031901126103ce576004356103776139a8565b906003548110156103c6578252600860205260408220546001600160a01b0390811680156103ca5733036103c657600f602052604083209116600052602052604060002060ff19815416905580f35b8280fd5b8380fd5b80fd5b613c3d565b50346103ce57806003193601126103ce576005546040516001600160a01b039091168152602090f35b50346103ce57806003193601126103ce576020600354604051908152f35b613bdc565b50346103ce5760203660031901126103ce5761043c6139be565b610444613c97565b6001600160a01b0390811690811561047f576000548260018060a01b0319821617600055166000805160206159b0833981519152600080a380f35b604051631e4fbdf760e01b815260048101849052602490fd5b50346103ce5760403660031901126103ce57602435906004358152601b602052604081209081548310156103ce5760206104d28484613c0f565b90546040519160031b1c8152f35b50346103ce5760203660031901126103ce576104fa6139be565b610502613c97565b600580546001600160a01b0319166001600160a01b039290921691909117905580f35b50346103ce57806003193601126103ce5760c06012546013546014546015546016549160175493604051958652602086015260408501526060840152608083015260a0820152f35b50346103ce5760203660031901126103ce576105a261059261058d6139be565b615222565b9060409492945194859485613c60565b0390f35b50346103ce5760203660031901126103ce576020906040906001600160a01b036105ce6139be565b168152601983522054604051908152f35b50346103ce5760203660031901126103ce57600435600354811015610639578152600860205260408120546001600160a01b0316156103ce576040906009602052818082205491600c602052205482519182526020820152f35b5080fd5b506102003660031901126103ce576101443515156101443503610e48576101843515156101843503610e485760026101a43510156103ce5760066101c43510156103ce576001600160401b036101e435116103ce573660236101e4350112156103ce576106b06101e43560040135613c7c565b6106bd6040519182613bb9565b60046101e4359081013580835236910160240111610639576101e4356004013560246101e4350160208301378160206101e4356004013583010152610700613d50565b60646024351180610e3a575b15610639576101a43515610e2b575b6004546001600160a01b031680610d84575b506101843515610d6e57683635c9adc5dea0000060443510610639575b69d3c21bcecceda1000000604435116106395742606435111561063957606435608435111561063957603c4201804211610d5a576064351115610639576101843515610d4857816107a86802b5e3af16b18800005b60443590613cd0565b6101843515610d3c5734610639576002546040516323b872dd60e01b81529260209284926001600160a01b031691839182906107e990303360048501613cdd565b03925af1908115610d31578391610cf7575b5015610639575b8161014435610cee575b61018435610ce4575b606435603b19810111610cd057620151806084350160843511610cd05760ff6040519361084185613b36565b33855261ffff6024351660208601521660408401526108666101a43560608501613d0c565b6108766101c43560808501613d18565b8060a084015260443560c084015260443560e08401528061010084015280610120840152600435610140840152806101608401526064356101808401526084356101a0840152603b19606435016101c0840152806101e084015262015180608435016102008401526101643561022084015260a43561024084015260c43561026084015260e435610280840152610104356102a0840152610124356102c0840152816102e084015260035481526008602052604081209260018060a01b0381511684549061ffff60a01b602084015160a01b169160018060b01b0319161717845561096860ff60408301511685613d24565b60608101516002811015610cbc5784546080830151906006821015610ca85760a084015160c092831b60ff60c01b1662ffffff60b81b1990921660b89490941b60ff60b81b16939093171760c89290921b60ff60c81b16919091178555810151600185015560e08101516002850155610100810151600385015561012081015160048501556101408101516005850155610160810151600685015561018081015160078501556101a081015160088501556101c081015160098501556101e0810151600a850155610200810151600b850155610220810151600c850155610240810151600d850155610260810151600e850155610280810151600f8501556102a081015160108501556102c081015160118501556102e0015180519093906001600160401b038111610c9457610aa16012830154613a66565b94601f8611610c4f575b602095508590601f8311600114610be45760129291859183610bd9575b50508160011b916000199060031b1c1916179101555b60035491827f96f8a332da237902cb0bd09f9a168d33100f2084c52e4a07cf3b28b9977327fa610b4860405193606435855260843588860152610b27604086016101a435613916565b610b37606086016101c435613939565b60e0608086015260e0850190613969565b9260a43560a082015260c43560c08201528033940390a381604051600081526044358582015242604082015260008051602061593083398151915260603392a3610b9182613d41565b6003556064354210159081610bc1575b50610bb3575b60018055604051908152f35b610bbc81613ffe565b610ba7565b60049150808360409252600885522001541538610ba1565b015190503880610ac8565b9060128401855286852091855b601f1985168110610c385750918391600193601295601f19811610610c1f575b505050811b01910155610ade565b015160001960f88460031b161c19169055388080610c11565b919288600181928685015181550194019201610bf1565b60128301845260208420601f830160051c810160208410610c8d575b601f880160051c82018110610c81575050610aab565b60008155600101610c6b565b5080610c6b565b634e487b7160e01b83526041600452602483fd5b634e487b7160e01b85526021600452602485fd5b634e487b7160e01b83526021600452602483fd5b634e487b7160e01b81526011600452602490fd5b9160081791610815565b6004925061080c565b90506020813d602011610d29575b81610d1260209383613bb9565b810103126103c657610d2390613cc3565b386107fb565b3d9150610d05565b6040513d85823e3d90fd5b34149050610802575080fd5b816107a8670de0b6b3a764000061079f565b634e487b7160e01b83526011600452602483fd5b674563918244f40000604435101561074a575080fd5b608060249160405192838092634a7a638f60e11b82523360048301525afa908115610d315783908492610dd5575b506101a435600103610dcb575015610639575b3861072d565b9050610dc5575080fd5b9150506080813d8211610e23575b81610df060809383613bb9565b810103126103c657610e0460208201613cc3565b610e1c6060610e1560408501613cc3565b9301613cc3565b5038610db2565b3d9150610de3565b60056101c4350361071b575080fd5b50612710602435111561070c565b600080fd5b50346103ce5760203660031901126103ce57604061012091600435815260116020522080549060018101549060028101546003820154600483015460058401549160ff600686015416936008600787015496015496604051988952602089015260408801526060870152608086015260a0850152151560c084015260e0830152610100820152f35b50346103ce5760203660031901126103ce57600435906003548210156103ce5781815260086020526040812080546001600160a01b03161561063957610f1a90613d73565b9181526009602052604081205490600c6020526040812054610f4660e085015161012086015190613cd0565b610f76610180860192610f5a845142613cff565b93514281111561141057610f6f904290613cff565b955b613cd0565b906064820291808304606414901517156113f557801561140957670de0b6b3a76400009004600a810290808204600a14901517156113f5575b620151808311156113c45761271091610fcc610fd1928492613cd0565b613eb2565b049261271084116113ba575b60c0850151946101208101519161ffff60208301511696600160405161100281613b83565b87815280996101f4811160001461135857505060ff600291160160ff81116113425797611065602a60405183611042829551809260208086019101613946565b81016948696768206f6464733b60b01b602082015203600a810184520182613bb9565b935b683635c9adc5dea0000082106112e8575b6003820291808304600314901517156112d45711611272575b610e1011611219575b600560ff871611611210575b600160ff871610611207575b60e08101516064810290808204606414901517156111d65761ffff6020830151169060631982019182116111f357610120916110ed91613ec5565b91015181156111ea5761271081029080820461271014901517156111d6579061111591613ec5565b915b829381611169575b5050612710831161115f575b6111509060ff604051968796875216602086015260a0604086015260a0850190613969565b91606084015260808301520390f35b612710925061112b565b91935090620151808210156111cc57816201518003916201518083116111b857606483029283046064149062015180141715610cd05750620151806111b091045b82613cd0565b91388061111f565b634e487b7160e01b82526011600452602482fd5b6111b091506111aa565b634e487b7160e01b85526011600452602485fd5b50508291611117565b634e487b7160e01b86526011600452602486fd5b600195506110b2565b600595506110a6565b909461122490615828565b9461126c603160405183611242829551809260208086019101613946565b81017053686f72742074696d65206672616d653b60781b6020820152036011810184520182613bb9565b9061109a565b9195611280610e1091615828565b966112cc60356040518361129e829551809260208086019101613946565b8101744869676820626574746f72206c657665726167653b60581b6020820152036015810184520182613bb9565b929050611091565b634e487b7160e01b87526011600452602487fd5b93976112f390615828565b9761133c603260405183611311829551809260208086019101613946565b8101714c6f772063726561746f72207374616b653b60701b6020820152036012810184520182613bb9565b93611078565b634e487b7160e01b600052601160045260246000fd5b61012c909a96929a1161136c575b50611067565b98509350600297611387876040519260208085019101613946565b6113b3602c828981016b4d656469756d206f6464733b60a01b602082015203600c810184520182613bb9565b9338611366565b6127109350610fdd565b8262015180036201518081116111d6576064612710910481018091116111d65761271092610fd192610fcc91613cd0565b634e487b7160e01b84526011600452602484fd5b5082610faf565b508495613cd0565b50346103ce5760203660031901126103ce576020906040906001600160a01b036114406139be565b168152601883522054604051908152f35b50346103ce57806003193601126103ce576040517f00000000000000000000000000000000000000000000000000000000000000006001600160a01b03168152602090f35b50346103ce57806003193601126103ce576040517f00000000000000000000000000000000000000000000000000000000000000006001600160a01b03168152602090f35b50346103ce5760403660031901126103ce576114f56139be565b6001600160a01b03168152601c602052604081206024359081158015611571575b611568575b61152482614f08565b925b82811061154357604051602080825281906105a2908201876139d4565b8061155060019284613c0f565b90549060031b1c61156182876146b3565b5201611526565b8054915061151b565b5080548211611516565b50346103ce5760403660031901126103ce5760406115976139a8565b916004358152600d602052209060018060a01b03166000526020526020604060002054604051908152f35b50346103ce576115f16115dd6115d736613bf9565b90614f3a565b6040519283926040845260408401906139d4565b9060208301520390f35b50346103ce5761160a36613bf9565b906003548110156103c657825260086020526040822080546001600160a01b0316156103c6576040929161164061167492613d73565b9061018061165860e084015161012085015190613cd0565b920151428111156116825761166e904290613cff565b9161583a565b908351920b82526020820152f35b50839161583a565b50346103ce5760403660031901126103ce5760406116a66139a8565b916004358152600a602052209060018060a01b03166000526020526020604060002054604051908152f35b50346103ce5760203660031901126103ce5760043581526008602052604090208060e05280805460018201546101205260028201546101405260038201546004830154600584015460068501546007860154600887015490600988015492600a89015494600b8a015496600c8b015498600d8c01549a600e8d01549c600f01549d601081015460805260118101546101005260405180918160a0526012019061177991613aa0565b0360a0519061178791613bb9565b6040518060c052600160a01b60019003821690528060a01c61ffff1660c051602001528060b01c60ff1660c0516040015260c0516060018160b81c60ff16906117cf91613916565b60c0516080018160c01c60ff16906117e691613939565b60c81c60ff1660c05160a001526101205160c05160c001526101405160c05160e0015260c051610100015260c051610120015260c051610140015260c051610160015260c051610180015260c0516101a0015260c0516101c0015260c0516101e0015260c051610200015260c051610220015260c051610240015260c051610260015260c051610280015260805160c0516102a001526101005160c0516102c001526103008060c0516102e0015260c05190810160a051906118a791613969565b0360c051f35b50346103ce57806003193601126103ce576020604051603c8152f35b50346103ce57806003193601126103ce576020600654604051908152f35b50346103ce5760203660031901126103ce57602061190b6119066139be565b61462e565b604051908152f35b50346103ce5760403660031901126103ce5761192d6139be565b6001600160a01b03168152601c60205260408120805460243592908310156103ce5760206104d28484613c0f565b50346103ce5760403660031901126103ce5760406119776139a8565b916004358152600f602052209060018060a01b0316600052602052602060ff604060002054166040519015158152f35b506119b136613bf9565b906119ba613d50565b6003548110156103c657808352602060088152604084209060018060a01b038083541615611ce9576119eb846150d0565b611ce957670de0b6b3a76400008510611ce9576969e10de76676d08000008511611ce9576009830154421015611ce957600283018054861910611d8557848752600d83526040872033600052835260406000205415611d89575b611a4e856150e9565b611d66575b848752600d83526040872033600052835260406000205415611d4d575b848752600d8352604087203360005283526040600020611a91878254613cd0565b9055611a9e868254613cd0565b80915560048401548015908115611d3f575b5015611d3357925b61ffff815460a01c166063198101908111611d1f5760649485810290808204871490151715611d0b57600391611aed91613ec5565b910155611af984615102565b15611cff57600254168160405180926323b872dd60e01b8252818981611b248b303360048501613cdd565b03925af1908115611cf4578691611cbb575b5015611cb7575b8260005260118152604060002091611b56858454613cd0565b808455600184018054914260088701558280611ca2575b50508560005260088452611b846040600020613d73565b9061010082018051611c75575b5060e08201918783511515600014611c46575061012001518481029481860414901517156113425760008051602061595083398151915295600a6000805160206158f083398151915294611bea8a976040965190613ec5565b6004840155101580611c2d575b611c1090600683019060ff801983541691151516179055565b549054825191825285820152a26040519384523393a36001805580f35b50611c10610e10611c3e4242613cff565b109050611bf7565b94604093506000805160206159508339815191529791506000805160206158f083398151915294600a91611bea565b6101208301518581029080820487149015171561134257611c97915190613ec5565b600787015538611b91565b611cab91613ec5565b60028601553882611b6d565b8480fd5b90508181813d8311611ced575b611cd28183613bb9565b81010312611ce957611ce390613cc3565b38611b36565b8580fd5b503d611cc8565b6040513d88823e3d90fd5b50348414611b3d578480fd5b634e487b7160e01b89526011600452602489fd5b634e487b7160e01b88526011600452602488fd5b50600183015492611ab8565b905060018501541038611ab0565b848752600c8352611d613360408920613ee5565b611a70565b848752600f83526040872033600052835260ff60406000205416611a53575b8680fd5b848752600c83526064604088205410611a45578680fd5b50346103ce5760203660031901126103ce576004356003548110156106395780825260086020526040822080546001600160a01b0316156103c657611de4826150d0565b6103c65760048101546103c65760070154421061063957611e0490613ffe565b80f35b50346103ce5760203660031901126103ce57600435600354811015610639578152600860205260408120546001600160a01b0316156103ce57606090600c602052611e6060408220546009602052604083205490613cd0565b9050603281118015611e82576032905b60405192835260208301526040820152f35b8190611e70565b50346103ce5760208060031936011261063957611ea46139be565b906001600160a01b037f0000000000000000000000000000000000000000000000000000000000000000818116929133849003611ce95760065494600754948615938491821590816120ea575b5087159687159283611fb5575b505091611fad575b50611f0f578680f35b1691601e8402938404601e1417156111d657601e8402938404601e1417156113f557908184923b156103c65760649183604492846040519788968795633d6bcfaf60e11b87520460048601520460248401525af18015611fa257611f77575b80808080808680f35b6001600160401b038111611f8e5760405238611f6e565b634e487b7160e01b82526041600452602482fd5b6040513d84823e3d90fd5b905038611f06565b909350601e8902898104601e148917156120d65760648c91048160075581866120058d611fe7858d6002541692613cff565b60405196878094819363a9059cbb60e01b9b8c845260048401613fe3565b03925af19283156120c9578793612090575b506120379389600254169160405180968195829483528c60048401613fe3565b03925af193841561208557879415611efe5790809450813d831161207e575b6120608183613bb9565b8101031261207a576120728693613cc3565b503880611efe565b8980fd5b503d612056565b6040513d8d823e3d90fd5b9283813d83116120c2575b6120a58183613bb9565b810103126103ce57612037936120bb8894613cc3565b5093612017565b503d61209b565b50604051903d90823e3d90fd5b634e487b7160e01b8c52601160045260248cfd5b909250601e8902898104601e1487171561214c578a80808080956121188f9660649004809784600655613cff565b905af1612123613fb3565b501561063957818080928888165af161213a613fb3565b501561214857849138611ef1565b8880fd5b634e487b7160e01b8b52601160045260248bfd5b50346103ce57806003193601126103ce576020600754604051908152f35b50346103ce57806003193601126103ce57546040516001600160a01b039091168152602090f35b50346103ce5760203660031901126103ce5760406020916004358152601d83522054604051908152f35b50346103ce57806003193601126103ce57602060405160328152f35b50346103ce57806003193601126103ce5760206040516802b5e3af16b18800008152f35b50346103ce5760603660031901126103ce5760443590602435906001600160a01b039060043582851685036106395760035481101561063957815260086020526040812091825416156103ce5750612297606093610fcc606461228f61ffff602061228561227f61271099613d73565b9661462e565b9501511687613eb2565b049485613cff565b04611e708183613cff565b50346103ce5760403660031901126103ce576004356122bf6139a8565b916003548210156103ce578181526020926008845260018060a01b0380604084205416156103c657600a855260408320911690818352845260408220541592831593612313575b5050506040519015158152f35b604093508252600d8452828220908252835220541515388080612306565b50346103ce57806003193601126103ce5761234a613c97565b80546001600160a01b03198116825581906001600160a01b03166000805160206159b08339815191528280a380f35b50346103ce57806003193601126103ce57601254601354906105a26016546017549060405194859485613c60565b50346103ce5760203660031901126103ce57600435906003548210156103ce5781815260086020526040812080549092906001600160a01b031615610639576123f261010093613d73565b61012081019283519360e083015193825260096020526040822054600c6020526040832054906001604086015116159384935184956124a7575b5061018086015180421060001461249c5761244b6101c0914290613cff565b965b01518042106000146124955761246591504290613cff565b955b604051978852602088015260408701526060860152156080850152151560a084015260c083015260e0820152f35b5095612467565b506101c0819661244d565b1594503861242c565b50346103ce57806003193601126103ce576004546040516001600160a01b039091168152602090f35b50346103ce57806003193601126103ce57602060405160648152f35b50346103ce5761250436613bf9565b91908152600c602052604081209081548310156103ce5760206125278484613c0f565b905460405160039290921b1c6001600160a01b03168152f35b50346103ce5760203660031901126103ce57602060035460043510604051908152f35b50346103ce5760403660031901126103ce576004356125806139a8565b916003548210156103ce57818152600860205260408120546001600160a01b0316156103ce576105a26125b384846141ad565b926040969496929192519687961515875260208701521515604086015260608501521515608084015260c060a084015260c0830190613969565b50346103ce5760203660031901126103ce576020906040906001600160a01b036126156139be565b168152601a83522054604051908152f35b50346103ce57806003193601126103ce576020604051683635c9adc5dea000008152f35b5061265436613bf9565b9061265d613d50565b6003548110156103c657808352600860209081526040842080546001600160a01b039190821615611ce95761269181613d73565b9161269b856150d0565b611d8557670de0b6b3a76400008610611d855769152d02c7e14af68000008611611d85576101c0830151421015611d85578515611d855761012092838101908151888115918215612b39575b505015612b2e5760e0810151935b61ffff8783015116606495868102908082048814901517156120d65760631982019182116120d6578b9493929161272b91613ec5565b92836127388c8351613cd0565b11611cb7578489948c88938d809952600a88526040842033855288526040842054801580612b07575b61276a8b6150e9565b612ad8575b61022089018051612ab2575b5092604092612799826127b2948e8e601099612a99575b5050613cd0565b8c8852600a8c528488203389528c528488205551613cd0565b9360086004880199868b558560038a01558b835252205460b01c16159182612a66575b5050612a1e575b505050506127e990615102565b15612a1257600254168360405180926323b872dd60e01b8252818a816128148c303360048501613cdd565b03925af1908115612a075787916129d2575b5015611ce9575b838652601183526040862090612844868354613cd0565b908183556001830193845492600184018094116129be5783865542600886015583806129a9575b50508689526008865261288060408a20613d73565b906101008201805161297e575b5060e0820191888351151560001461295a57500151828102928184041490151715611d0b57938693600a6000805160206158f0833981519152946128d860409560019a995190613ec5565b6004840155101580612941575b6128fe90600683019060ff801983541691151516179055565b549054825191825285820152a26040519384528301527fb1bd10cf5ea9540f12b9b182707734fd82deacc56830e2bd316133deb372bff460403393a36001805580f35b506128fe610e106129524242613cff565b1090506128e5565b95915050600196959150600a6000805160206158f0833981519152946040946128d8565b8183015190848202918083048614901517156120d6575161299e91613ec5565b60078601553861288d565b6129b291613ec5565b6002850155388361286b565b634e487b7160e01b8a52601160045260248afd5b90508381813d8311612a00575b6129e98183613bb9565b81010312611d85576129fa90613cc3565b38612826565b503d6129df565b6040513d89823e3d90fd5b5034851461282d578580fd5b60008051602061593083398151915292612a4583601060ff6060965460b01c161790613d24565b51169254604051906005825289820152426040820152a384388080846127dc565b9250929394955050868102908082048814901517156120d657603c612a908b969594938893613ec5565b101538806127d5565b6009918c5252612aab33888c20613ee5565b8e8e612792565b939199509550612ac491995088613cd0565b905110610639578c8c978c978a953861277b565b999250945096508252600f8b52604082203383528b5260ff60408320541615610639578c8b9689948e9961276f565b99925094509650825260098b526101f460408320541015610639578c8b9689948e99612761565b60c0810151936126f5565b612b439250613cd0565b60c08201511088386126e7565b50346103ce5760403660031901126103ce57600435612b6d6139a8565b906003548110156103c6578083526020906008825260018060a01b038060408620541615611cb757604060609560ff92600a865282822096169586825285528181205495848252600d8652828220818352865282822054948252600e865282822090825285522054169160405193845283015215156040820152f35b50346103ce57612bf836613bf9565b919081526009602052604081209081548310156103ce5760206125278484613c0f565b50346103ce57806003193601126103ce576020604051620151808152f35b50346103ce57612c483661398e565b926003929192548210156103ce57818152600860205260408120546001600160a01b0316156103ce576105a2612c7f858585615350565b60409391935193849384613a08565b50346103ce57602080600319360112610639576004356003548110156103c6578083526008825260408320546001600160a01b0392908316156103ca57612cd3613d50565b612cdc826150d0565b156103ca57818452600e815260408420338552815260ff6040852054166103ca5781845260088152612d1060408520613d73565b61014081015161016082015114612e9e57838151163314600014612e735760c0810151908115611ce957612d759161ffff84830151169161012060e08201519101519160405193612d6085613b68565b8452858401526040830152606082015261552b565b925b8315611cb757828552600e8252604080862033875283528520805460ff19166001179055612da483615102565b15612e47576002541681604051809263a9059cbb60e01b8252818881612dce8a3360048401613fe3565b03925af1908115612e3c578591612e07575b50156103ca57600080516020615970833981519152905b6040519384523393a36001805580f35b90508181813d8311612e35575b612e1e8183613bb9565b81010312611cb757612e2f90613cc3565b38612de0565b503d612e14565b6040513d87823e3d90fd5b508380808086335af1612e58613fb3565b50156103ca5760008051602061597083398151915290612df7565b50818452600d81526040842033855281526040842054156103ca57612e9833836143ef565b92612d77565b50818452600a81526040842033855281526040842054156103ca57612e983383614523565b50346103ce5760203660031901126103ce5760043560035481101561063957815260086020526040812080549091906001600160a01b0316156103ce576020612f0b83613d73565b6001604061012083015192015116159081612f2c575b506040519015158152f35b90501582612f21565b50346103ce57806003193601126103ce576020604051674563918244f400008152f35b50346103ce5760203660031901126103ce57612f726139be565b612f7a613c97565b600480546001600160a01b0319166001600160a01b039290921691909117905580f35b50346103ce5760203660031901126103ce57610100906040906001600160a01b03612fc66139be565b168152601060205220805490600181015490600281015460038201546004830154906005840154926007600686015495015495604051978852602088015260408701526060860152608085015260a084015260c083015260e0820152f35b50346103ce5760403660031901126103ce576004356130416139a8565b906003548110156103c657808352600860205260408320546001600160a01b039081168015611cb75733036103ca57600f6020526040842092169182845260205260408320600160ff198254161790557fef35c6815799b054cdc749d1f5bb07547c285ef9d7559c6e839da576f42b49098380a380f35b50346103ce5760403660031901126103ce576130d26139be565b60243580151581036103c6573033148015613186575b156103c657156131625760018060a01b031680825260209060188252604083206131128154613d41565b905582526018815260408220546019825260408320541061314b575b60188152601a61314160408420546150a0565b9152604082205580f35b60188152604082205460198252604083205561312e565b60018060a01b031681526018602052806040812055601a6020526001604082205580f35b5082546001600160a01b031633146130e8565b50346103ce5760403660031901126103ce576004356024356003548210156103c657818352600860205260408320805491906001600160a01b0380841615611ce9576131e4856150d0565b611ce95760088201544210611ce95760ff8460b81c1660028110156132ff57806132ac57507f0000000000000000000000000000000000000000000000000000000000000000163303611cb75761325a600160ff600080516020615910833981519152955b85600686015560b01c161782613d24565b60058101548214159081613293575b600a429101556132788461511b565b6040805192835290151560208301524290820152606090a280f35b6132a7600260ff835460b01c161782613d24565b613269565b6001146132d1575b5061325a600160ff60008051602061591083398151915295613249565b7f0000000000000000000000000000000000000000000000000000000000000000163303611cb757386132b4565b634e487b7160e01b87526021600452602487fd5b50346103ce57806003193601126103ce576040517f00000000000000000000000000000000000000000000000000000000000000006001600160a01b03168152602090f35b50346103ce5760203660031901126103ce5761338d61339460406105a2936004358152600b6020522060405192838092613aa0565b0382613bb9565b604051918291602083526020830190613969565b50346103ce5760203660031901126103ce57600435600354811015610639578082526008602052604082208054906001600160a01b0380831615611cb7576133ef846150d0565b611cb75760088201544210611cb757848560ff8560b81c16600281101561358857806134dc5750505084604051809263c6522d0160e01b82526020600483015281806134416024820160128901613aa0565b03917f0000000000000000000000000000000000000000000000000000000000000000165afa908115612e3c57859086926134b7575b5015611cb75761348690613f90565b9060015b15611cb75761325a600160ff6000805160206159108339815191529585600686015560b01c161782613d24565b90506134d591503d8087833e6134cd8183613bb9565b810190613f20565b9038613477565b91939290916001146134ef575b5061348a565b60405163c6522d0160e01b8152602060048201529293508691508290818061351d6024820160128901613aa0565b03917f0000000000000000000000000000000000000000000000000000000000000000165afa908115612e3c578590869261356b575b5015611cb75761356290613f90565b906001386134e9565b905061358191503d8087833e6134cd8183613bb9565b9038613553565b634e487b7160e01b88526021600452602488fd5b50346103ce576135ab3661398e565b926003929192548210156103ce57818152600860205260408120546001600160a01b0316156103ce576105a2612c7f858585615456565b50346103ce5760403660031901126103ce5760ff60406020926136036139a8565b6004358252600e85528282206001600160a01b03909116825284522054604051911615158152f35b50346103ce5761363a3661398e565b90613643613d50565b6003548310156103ca57828452600860205260408420546001600160a01b0316156103ca5761367192614a89565b6001805580f35b50346103ce5760203660031901126103ce5760043560035481101561063957808252600860205260408220546001600160a01b03161561063957611e04906146c7565b50346103ce5760203660031901126103ce5760606102e06040516136de81613b36565b83815283602082015283604082015283838201528360808201528360a08201528360c08201528360e08201528361010082015283610120820152836101408201528361016082015283610180820152836101a0820152836101c0820152836101e08201528361020082015283610220820152836102408201528361026082015283610280820152836102a0820152836102c0820152015260035460043510156103ce57600435815260086020526040812080549091906001600160a01b0316156103ce576102e06137ae83613d73565b6105a26040519283926020845260018060a01b03815116602085015261ffff602082015116604085015260ff60408201511660608501526137f760608201516080860190613916565b613809608082015160a0860190613939565b60ff60a08201511660c085015260c081015160e085015260e08101516101008501526101008101516101208501526101208101516101408501526101408101516101608501526101608101516101808501526101808101516101a08501526101a08101516101c08501526101c08101516101e08501526101e08101516102008501526102008101516102208501526102208101516102408501526102408101516102608501526102608101516102808501526102808101516102a08501526102a08101516102c08501526102c081015182850152015161030080840152610320830190613969565b9050346106395781600319360112610639576002546001600160a01b03168152602090f35b9060028210156139235752565b634e487b7160e01b600052602160045260246000fd5b9060068210156139235752565b60005b8381106139595750506000910152565b8181015183820152602001613949565b9060209161398281518092818552858086019101613946565b601f01601f1916010190565b6060906003190112610e4857600435906024359060443590565b602435906001600160a01b0382168203610e4857565b600435906001600160a01b0382168203610e4857565b90815180825260208080930193019160005b8281106139f4575050505090565b8351855293810193928101926001016139e6565b9392916060850191606086528051809352608086019260208092019060005b818110613a495750505085830390860152604091613a44916139d4565b930152565b82516001600160a01b031686529483019491830191600101613a27565b90600182811c92168015613a96575b6020831014613a8057565b634e487b7160e01b600052602260045260246000fd5b91607f1691613a75565b9060009291805491613ab183613a66565b918282526001938481169081600014613b135750600114613ad3575b50505050565b90919394506000526020928360002092846000945b838610613aff575050505001019038808080613acd565b805485870183015294019385908201613ae8565b9294505050602093945060ff191683830152151560051b01019038808080613acd565b61030081019081106001600160401b03821117613b5257604052565b634e487b7160e01b600052604160045260246000fd5b608081019081106001600160401b03821117613b5257604052565b602081019081106001600160401b03821117613b5257604052565b604081019081106001600160401b03821117613b5257604052565b601f909101601f19168101906001600160401b03821190821017613b5257604052565b34610e48576000366003190112610e485760206040516101f48152f35b6040906003190112610e48576004359060243590565b8054821015613c275760005260206000200190600090565b634e487b7160e01b600052603260045260246000fd5b34610e48576000366003190112610e48576020604051670de0b6b3a76400008152f35b9094939260609260808301968352602083015260408201520152565b6001600160401b038111613b5257601f01601f191660200190565b6000546001600160a01b03163303613cab57565b60405163118cdaa760e01b8152336004820152602490fd5b51908115158203610e4857565b9190820180921161134257565b6001600160a01b03918216815291166020820152604081019190915260600190565b9190820391821161134257565b60028210156139235752565b60068210156139235752565b805460ff60b01b191660b09290921b60ff60b01b16919091179055565b60001981146113425760010190565b600260015414613d61576002600155565b604051633ee5aeb560e01b8152600490fd5b9060126102e0604051613d8581613b36565b613eae819560ff815460018060a01b038116855261ffff8160a01c166020860152818160b01c166040860152613dc3828260b81c1660608701613d0c565b613dd5828260c01c1660808701613d18565b60c81c1660a0840152600181015460c0840152600281015460e08401526003810154610100840152600481015461012084015260058101546101408401526006810154610160840152600781015461018084015260088101546101a084015260098101546101c0840152600a8101546101e0840152600b810154610200840152600c810154610220840152600d810154610240840152600e810154610260840152600f81015461028084015260108101546102a084015260118101546102c0840152613ea76040518096819301613aa0565b0384613bb9565b0152565b8181029291811591840414171561134257565b8115613ecf570490565b634e487b7160e01b600052601260045260246000fd5b8054600160401b811015613b5257613f0291600182018155613c0f565b819291549060031b9160018060a01b03809116831b921b1916179055565b9190604083820312610e4857613f3583613cc3565b602084015190936001600160401b038211610e48570181601f82011215610e48578051613f6181613c7c565b92613f6f6040519485613bb9565b81845260208284010111610e4857613f8d9160208085019101613946565b90565b602081519101519060208110613fa4575090565b6000199060200360031b1b1690565b3d15613fde573d90613fc482613c7c565b91613fd26040519384613bb9565b82523d6000602084013e565b606090565b6001600160a01b039091168152602081019190915260400190565b600090808252602060088152604080842093614019846150d0565b6103ce5760048501546103ce57600785015442106103ce57614045600160ff875460b01c161786613d24565b80600686015561405484615102565b156141365760025485546001870154845163a9059cbb60e01b815292869284926001600160a01b0392831692849288928492614094921660048401613fe3565b03925af190811561412c5782916140f7575b50156103ce579083600080516020615910833981519152606060008051602061597083398151915295945b845190808252868201524285820152a26001808060a01b038654169501549051908152a3565b90508381813d8311614125575b61410e8183613bb9565b810103126106395761411f90613cc3565b386140a6565b503d614104565b83513d84823e3d90fd5b8080808060018060a01b0389541660018a0154905af1614154613fb3565b50156103ce579083600080516020615910833981519152606060008051602061597083398151915295946140d1565b6040519061419082613b9e565b600e82526d526561647920746f20636c61696d60901b6020830152565b9190916000928184526020916008835260406141ca818720613d73565b828752600e85528187206001600160a01b03858116808a529187528389205491929160ff166141f8866150d0565b156143c15761438857610140820151610160830151146143095781511682146142845750828752600d855281872090875284528086205493841561425357505090614242916143ef565b926001939284929190613f8d614183565b90518695869550859450849350916a4e6f204c50207374616b6560a81b9061427a83613b9e565b600b835282015290565b93505092905060c082019182519384156142d35790829161ffff614242959483015116935161012060e0840151930151938251956142c187613b68565b8652850152830152606082015261552b565b51869586955085945084939092506f4e6f2063726561746f72207374616b6560801b906142ff83613b9e565b6010835282015290565b509194928752600a8352848720908752825283862054938415614355575061ffff614343939261433c920151169161462e565b9083615768565b50600194909385939250613f8d614183565b51869586955085945084939092506c139bc818995d081c1b1858d959609a1b9061437e83613b9e565b600d835282015290565b50505094929150508193829383926e105b1c9958591e4818db185a5b5959608a1b60019351916143b783613b9e565b600f835282015290565b9550505050905084929383946f141bdbdb081b9bdd081cd95d1d1b195960821b85949351916142ff83613b9e565b9190600092808452600860205261440860408520613d73565b91818552600d6020526040852060018060a01b03821686526020526040852054918215613acd5761ffff6020850151169560c08501519661012060e0870151960151906040519661445888613b68565b81885260208801998a52604088015260608701918252606481111561451a576063198101908111610d5a57975b80519860648a028a81046064148b1517156111d657996144ac6144b292613f8d9b9c613ec5565b90613cd0565b6144bf8251845190613cd0565b81111561451457506144d48151835190613cd0565b905b518082111561450b576144e891613cff565b905b5181811115614503576144fd9250613cff565b936155aa565b5050936155aa565b505081906144ea565b906144d6565b50600197614485565b600091818352600860205261453a60408420613d73565b828452600a602090815260408086206001600160a01b0385168088529252852054909290919082156146265761433c61ffff602061457b940151169161462e565b80919692506145ee575b5061458f84615102565b1590506145dd57686c6b935b8bbd4000008110155b6145af575b50505090565b60606000805160206159308339815191529160405190600382526020820152426040820152a33880806145a9565b678ac7230489e800008110156145a4565b6145f785615102565b156146125761460890600754613cd0565b6007555b38614585565b61461e90600654613cd0565b60065561460c565b505050505090565b6002546040516370a0823160e01b81526001600160a01b0392831660048201529160209183916024918391165afa80156146a757600090614674575b613f8d91506157c2565b6020823d821161469f575b8161468c60209383613bb9565b810103126103ce5750613f8d905161466a565b3d915061467f565b6040513d6000823e3d90fd5b8051821015613c275760209160051b010190565b600081815260209060088252604090818120906146e3856150d0565b6103ce57600b8201544211156103ce57848152600c8452603261471184832054600987528584205490613cd0565b11614a2e5761472c6001928360ff825460b01c161790613d24565b848152600c8452828120908351808387829554938481520190845287842092845b878a838310614a10575050505061476692500383613bb9565b815161477187615102565b9284835b838110614924575050505085815260098552838120918451808488829654938481520190855288852092855b888b83831061490657505050506147ba92500384613bb9565b825192825b848110614810575050505050506000805160206159908339815191529172105c989a5d1c985d1a5bdb881d1a5b595bdd5d606a1b6060926147ff8661511b565b6013815193808552840152820152a2565b859084896001600160a01b038061482785886146b3565b51168d8452600a83528b842081855283528b842054918261484e575b5050505050016147bf565b90919293949550876000146148e75761488394506002541690888c5180968195829463a9059cbb60e01b845260048401613fe3565b03925af19081156148dd5785916148a8575b50156103ca5785905b8489388080614843565b90508881813d83116148d6575b6148bf8183613bb9565b81010312611cb7576148d090613cc3565b38614895565b503d6148b5565b88513d87823e3d90fd5b50839250829182915af16148f9613fb3565b50156103ca57859061489e565b86546001600160a01b031685529581019589955090930192016147a1565b84896001600160a01b038061493985886146b3565b51168d8452600d83528b842081855283528b8420549182614962575b5050505050018590614775565b90919293949550896000146149f15761499794506002541690888c5180968195829463a9059cbb60e01b845260048401613fe3565b03925af19081156148dd5785916149bc575b50156103ca5785905b8489388080614955565b90508881813d83116149ea575b6149d38183613bb9565b81010312611cb7576149e490613cc3565b386149a9565b503d6149c9565b50839250829182915af1614a03613fb3565b50156103ca5785906149b2565b86546001600160a01b0316855295810195889550909301920161474d565b50917f557365206261746368526566756e6420666f72206c6172676520706f6f6c7300606092614a7885600160ff600080516020615990833981519152985460b01c161790613d24565b601f815193808552840152820152a2565b92919092614a96816150d0565b15610e4857600091818352602090600882526040600b8186200154421115611cb75760328211611cb757614ac984615102565b918597858752600c855282872090815491828210614d2e575090614aec91613cff565b968587526009855282872091825490818a10156121485781614b0e828c613cd0565b1115614d1e5781995b805b8b811080614d15575b15614cad578a89888c614b35858b613c0f565b929060018060a01b03938491549060031b1c1694828152600a8552818120868252855281812054948515159384614c8d575b50505050614b7b575b505050600101614b19565b8c8e52600e8c52898e20838f528c52898e20805460ff19166001179055929e928d908c908c15614c585760025416918b519283809263a9059cbb60e01b825281614bc9888a60048401613fe3565b03925af1908115614c4c578e91614c13575b5015614c0f5791614c06918c6000805160206159708339815191528d6001965b8d51908152a3613d41565b9c903880614b70565b8c80fd5b90508b81813d8311614c45575b614c2a8183613bb9565b81010312614c4157614c3b90613cc3565b38614bdb565b8d80fd5b503d614c20565b8e8b51903d90823e3d90fd5b505080808084865af1614c69613fb3565b5015614c0f5791614c06918c6000805160206159708339815191528d600196614bfb565b60ff94508252600e81528282209087835252205416158a8f8f8f90614b67565b509350939698509496509750614cc39250613cd0565b1015614cce57505050565b600080516020615990833981519152917510985d18da081c99599d5b990818dbdb5c1b195d195960521b606092614d048661511b565b6016815193808552840152820152a2565b50828d10614b22565b614d28818b613cd0565b99614b17565b9290989180614d3d838c613cd0565b1115614ee057985b89811080614ed7575b15614eca57614d5d8185613c0f565b9054898b52600d8952868b2060039290921b1c6001600160a01b03908116808c52918952868b20549081151580614ead575b614d9f575b505050600101614d45565b8a8c52600e8a52878c20838d528a52878c20805460ff19166001179055929c928815614e7857600254885163a9059cbb60e01b8152918b91839116818f81614deb888a60048401613fe3565b03925af1908115614e6e578c91614e35575b5015614e315791614e28918a6000805160206159708339815191528b6001965b8b51908152a3613d41565b9a903880614d94565b8a80fd5b90508981813d8311614e67575b614e4c8183613bb9565b81010312614e6357614e5d90613cc3565b38614dfd565b8b80fd5b503d614e42565b88513d8e823e3d90fd5b508a80808084865af1614e89613fb3565b5015614e315791614e28918a6000805160206159708339815191528b600196614e1d565b508a8c52600e8a52878c20838d528a5260ff888d20541615614d8f565b5050975050505050505050565b50818b10614d4e565b50614eeb818a613cd0565b98614d45565b6001600160401b038111613b525760051b60200190565b90614f1282614ef1565b614f1f6040519182613bb9565b8281528092614f30601f1991614ef1565b0190602036910137565b6000928392600354935b84811061505557508480841080159061504d575b61502e57808491614f698484613cd0565b1161501d575b5050614f7a81614f08565b906000928391845b87811080615014575b1561500857614f99816150d0565b1580614fee575b614fad575b600101614f82565b9486811015614fca575b614fc2600191613d41565b959050614fa5565b92614fc2614fe58288614fdf6001958a6146b3565b52613d41565b94915050614fb7565b508060005260086020526009604060002001544210614fa0565b50509450509150509190565b50818410614f8b565b6150279250613cff565b8238614f6f565b94505091505060405161504081613b83565b6000815260003681379190565b508115614f58565b61505e816150d0565b1580615086575b615072575b600101614f44565b9461507e600191613d41565b95905061506a565b508060005260086020526009604060002001544210615065565b60148110156150ca57600a8110156150c457600511156150bf57600190565b600290565b50600390565b50600590565b6000526008602052600160406000205460b01c16151590565b6000526008602052600460406000205460b01c16151590565b6000526008602052600860406000205460b01c16151590565b600090808252600860205260018060a01b036040832054168252601c60205260408220818352601d60205260408320549080549182811080615209575b615164575b5050505050565b600019928084019081116111f3578082036151c9575b5050805480156151b5578201916151918383613c0f565b909182549160031b1b19169055558152601d6020526040812055388080808061515d565b634e487b7160e01b85526031600452602485fd5b6151d39083613c0f565b90549060031b1c6151e48284613c0f565b81549060031b908684831b921b19161790558552601d6020526040852055388061517a565b50836152158284613c0f565b90549060031b1c14615158565b60009060018060a01b03168152602090601c82526040918282208351808284829454938481520190865284862092865b8682821061533a5750505061526992500382613bb9565b805193841561532c579190839284925b8684106152e3575050505080916152908483613ec5565b916064850285810460641486151715610d5a5790610f716152bf92670de0b6b3a7640000808704930490613cd0565b906113888201809211610cd0575060021c6127108082116152de575093565b905093565b9091929361531e615324916152f887876146b3565b518852600884526144ac61530d868a20613d73565b61012060e082015191015190613cd0565b94613d41565b929190615279565b505050809291509180918190565b8554845260019586019587955093019201615252565b92909260009281845260209360098552604090818120549586881080159061544e575b6154235786615382858a613cd0565b11615411575b61539184614f08565b9461539b85614f08565b988184526009835284842090845b8781106153bd575050505050505050929190565b806153d36153cd60019385613cd0565b85613c0f565b838060a01b0391549060031b1c16806153ec838d6146b3565b52858852600a875288882090885286528787205461540a828f6146b3565b52016153a9565b925061541d8787613cff565b92615388565b50955091505080519061543582613b83565b848252519361544385613b83565b808552368137929190565b508315615373565b929092600092818452602093600c85526040908181205495868810801590615523575b6154235786615488858a613cd0565b11615511575b61549784614f08565b946154a185614f08565b98818452600c835284842090845b8781106154c3575050505050505050929190565b806154d36153cd60019385613cd0565b838060a01b0391549060031b1c16806154ec838d6146b3565b52858852600d875288882090885286528787205461550a828f6146b3565b52016154af565b925061551d8787613cff565b9261548e565b508315615479565b60208101908151156155a357805161ffff16606481111561559a57606319810190811161134257905b82519160648302908382046064148415171561134257615588936144ac61557d92606094613ec5565b935191015190613cd0565b9081811115615595575090565b905090565b50600190615554565b5050600090565b93919093831561575e57821561575657516064919061ffff168281111561574d57606319810190811161134257915b85600052602091600c835260409687600020978051808a87829c54938481520190600052876000209260005b8982821061572e5750505061561c9250038a613bb9565b600094855b8a518710156156bc576001600160a01b03908161563e898e6146b3565b511685600052600d8452846000208160005284528460002054928716146156d757868202918083048814901517156113425761567d896156a493613ec5565b6000828c11156156cf5750615692828c613cff565b8111156156ca57506144ac818b613cff565b95888710156156bc576156b690613d41565b95615621565b505050505050505050905090565b6144ac565b905090613cd0565b98979a509495505050505081810291818304149015171561134257613f8d946156ff91613ec5565b9160009181811115615726576157159250613cff565b905b818111156156cf575090613cd0565b505090615717565b85546001600160a01b031684526001958601958f955093019201615605565b506001916155d9565b505050905090565b5050505050600090565b92919083156157b65761271091606461578861ffff6157a0941687613eb2565b0494600090808711156157b057610fcc915086613cff565b04906157ac8284613cff565b9190565b50613eb2565b50600092508291829150565b690a968163f0a57b4000008110156158225769043c33c193756480000081101561581b5769010f0cf064dd5920000081101561581457683635c9adc5dea00000111561580e576101f490565b6101c290565b5061019090565b5061015e90565b5060fa90565b60ff60019116019060ff821161134257565b92909283156158e55761271093848202918083048614901517156113425761586191613ec5565b92612ee08411156158b45760019361270f19810190811161134257610e1090935b10615896575b8083116158925750565b9150565b91609681029080820460961490151715611342576064900491615888565b611f408410156158d55760001993810381811161134257610e109093615882565b9250600092610e10600093615882565b506000925082915056feae1dd3f2d7e1c58d3a89e27565ac6732a48cc3a0ee34874f1749e6fcca59730886acb9671870fda5e7ea8aa500f96625102d6f2e5a2ee12d3ca0fb612850fa29d43c77f044c1f8bc6adf6676b4ce17edda35ef8ee63f154568826c0ecb3c6bf3c733c2813826d31c105dbff518b08258e9e7aeb3eb1c7c7f642d77696faf501d24b5efa61dd1cfc659205a97fb8ed868f3cb8c81922bab2b96423e5de1de2cb75d017285e8f2eb1ffcbc2466eaedb487942e395d5f1e312f09e9384b1687bea58be0079c531659141344cd1fd0a4f28419497f9722a3daafe3b4186f6b6457e0a2646970667358221220374a9cfed9dc62774ca0d35491bd9aaed28dba6800e3d5e103b7b89d7767a7c064736f6c63430008140033",
  "linkReferences": {},
  "deployedLinkReferences": {}
}