{
  "_format": "hh-sol-artifact-1",
  "contractName": "GuidedOracle",
  "sourceName": "contracts/GuidedOracle.sol",
  "abi": [
    {
      "inputs": [
        {
          "internalType": "address",
          "name": "_oracleBot",
          "type": "address"
        }
      ],
      "stateMutability": "nonpayable",
      "type": "constructor"
    },
    {
      "anonymous": false,
      "inputs": [
        {
          "indexed": true,
          "internalType": "address",
          "name": "target",
          "type": "address"
        },
        {
          "indexed": false,
          "internalType": "bytes",
          "name": "data",
          "type": "bytes"
        }
      ],
      "name": "CallExecuted",
      "type": "event"
    },
    {
      "anonymous": false,
      "inputs": [
        {
          "indexed": false,
          "internalType": "address",
          "name": "newBot",
          "type": "address"
        }
      ],
      "name": "OracleBotUpdated",
      "type": "event"
    },
    {
      "anonymous": false,
      "inputs": [
        {
          "indexed": true,
          "internalType": "string",
          "name": "marketId",
          "type": "string"
        },
        {
          "indexed": false,
          "internalType": "bytes",
          "name": "resultData",
          "type": "bytes"
        },
        {
          "indexed": false,
          "internalType": "uint256",
          "name": "timestamp",
          "type": "uint256"
        }
      ],
      "name": "OutcomeSubmitted",
      "type": "event"
    },
    {
      "inputs": [
        {
          "internalType": "address",
          "name": "target",
          "type": "address"
        },
        {
          "internalType": "bytes",
          "name": "data",
          "type": "bytes"
        }
      ],
      "name": "executeCall",
      "outputs": [],
      "stateMutability": "nonpayable",
      "type": "function"
    },
    {
      "inputs": [
        {
          "internalType": "string",
          "name": "marketId",
          "type": "string"
        }
      ],
      "name": "getOutcome",
      "outputs": [
        {
          "internalType": "bool",
          "name": "isSet",
          "type": "bool"
        },
        {
          "internalType": "bytes",
          "name": "resultData",
          "type": "bytes"
        }
      ],
      "stateMutability": "view",
      "type": "function"
    },
    {
      "inputs": [],
      "name": "oracleBot",
      "outputs": [
        {
          "internalType": "address",
          "name": "",
          "type": "address"
        }
      ],
      "stateMutability": "view",
      "type": "function"
    },
    {
      "inputs": [
        {
          "internalType": "string",
          "name": "",
          "type": "string"
        }
      ],
      "name": "outcomes",
      "outputs": [
        {
          "internalType": "bool",
          "name": "isSet",
          "type": "bool"
        },
        {
          "internalType": "bytes",
          "name": "resultData",
          "type": "bytes"
        },
        {
          "internalType": "uint256",
          "name": "timestamp",
          "type": "uint256"
        }
      ],
      "stateMutability": "view",
      "type": "function"
    },
    {
      "inputs": [],
      "name": "owner",
      "outputs": [
        {
          "internalType": "address",
          "name": "",
          "type": "address"
        }
      ],
      "stateMutability": "view",
      "type": "function"
    },
    {
      "inputs": [
        {
          "internalType": "string",
          "name": "marketId",
          "type": "string"
        },
        {
          "internalType": "bytes",
          "name": "resultData",
          "type": "bytes"
        }
      ],
      "name": "submitOutcome",
      "outputs": [],
      "stateMutability": "nonpayable",
      "type": "function"
    },
    {
      "inputs": [
        {
          "internalType": "address",
          "name": "newBot",
          "type": "address"
        }
      ],
      "name": "updateOracleBot",
      "outputs": [],
      "stateMutability": "nonpayable",
      "type": "function"
    }
  ],
  "bytecode": "0x60803461007c57601f610ae738819003918201601f19168301916001600160401b038311848410176100815780849260209460405283398101031261007c57516001600160a01b0381169081900361007c5760018060a01b03199081600054161760005533906001541617600155604051610a4f90816100988239f35b600080fd5b634e487b7160e01b600052604160045260246000fdfe6080604052600436101561001257600080fd5b60003560e01c80635dfceed0146100875780637a75be97146100825780638da5cb5b1461007d578063bca8c7b514610078578063c6522d0114610073578063d760be101461006e5763f3c8de5b1461006957600080fd5b610620565b610531565b6104bb565b61038d565b61034e565b610325565b346100db5761009d610098366101ad565b6101fa565b60ff81541660026100b06001840161025a565b9201546100d160405193849315158452606060208501526060840190610300565b9060408301520390f35b600080fd5b634e487b7160e01b600052604160045260246000fd5b601f909101601f19168101906001600160401b0382119082101761011957604052565b6100e0565b60405190606082016001600160401b0381118382101761011957604052565b6001600160401b03811161011957601f01601f191660200190565b9291926101648261013d565b9161017260405193846100f6565b8294818452818301116100db578281602093846000960137010152565b9080601f830112156100db578160206101aa93359101610158565b90565b60206003198201126100db57600435906001600160401b0382116100db576101aa9160040161018f565b60005b8381106101ea5750506000910152565b81810151838201526020016101da565b60206102139181604051938285809451938492016101d7565b8101600281520301902090565b90600182811c92168015610250575b602083101461023a57565b634e487b7160e01b600052602260045260246000fd5b91607f169161022f565b906040519182600082549261026e84610220565b9081845260019485811690816000146102dd575060011461029a575b5050610298925003836100f6565b565b9093915060005260209081600020936000915b8183106102c55750506102989350820101388061028a565b855488840185015294850194879450918301916102ad565b91505061029894506020925060ff191682840152151560051b820101388061028a565b90602091610319815180928185528580860191016101d7565b601f01601f1916010190565b346100db5760003660031901126100db576000546040516001600160a01b039091168152602090f35b346100db5760003660031901126100db576001546040516001600160a01b039091168152602090f35b600435906001600160a01b03821682036100db57565b346100db5760403660031901126100db576103a6610377565b602435906001600160401b038083116100db57366023840112156100db5782600401359081116100db57602483019260248236920101116100db5760018060a01b0392600080856103fc8297835416331461074d565b85169461040a861515610931565b610415851515610976565b60405182816104258189896109b3565b03925af16104316109c1565b90156104705750907f13bee011730f488ace07b7a9f5a820315c8f3efa67a026550d02641b47f5ad9d9161046a604051928392836109f1565b0390a280f35b80511561047f57805190602001fd5b60405162461bcd60e51b8152602060048201526014602482015273115e1d195c9b985b0818d85b1b0819985a5b195960621b6044820152606490fd5b346100db576104cc610098366101ad565b6040805190919060608101906001600160401b038211818310176101195761052d91845260ff8354161515815260026105076001850161025a565b938460208401520154848201525115159183519384938452806020850152830190610300565b0390f35b346100db5760203660031901126100db5761054a610377565b6001546001600160a01b0390811633036105ee57811680156105b357600080546001600160a01b0319169190911790556040516001600160a01b039190911681527fcec5337563293fbbf7f8c0ec022f756115a0ee844c9b13f46dbfe0a8ba999f1890602090a1005b60405162461bcd60e51b8152602060048201526013602482015272496e76616c696420626f74206164647265737360681b6044820152606490fd5b60405162461bcd60e51b815260206004820152600a60248201526927b7363c9037bbb732b960b11b6044820152606490fd5b346100db5760403660031901126100db576001600160401b036004358181116100db5761065190369060040161018f565b906024359081116100db57366023820112156100db5761067b903690602481600401359101610158565b9061069160018060a01b0360005416331461074d565b60ff61069c826101fa565b541661070c576107076106f87f2f8b9061d426a23408315fd2e43c82c01e06fb7260107a233b1663e4c26633d6926106f36106d561011e565b600181528660208201524260408201526106ee836101fa565b6107f8565b6108f5565b92604051918291429083610915565b0390a2005b60405162461bcd60e51b815260206004820152601960248201527813dd5d18dbdb5948185b1c9958591e481cdd589b5a5d1d1959603a1b6044820152606490fd5b1561075457565b60405162461bcd60e51b815260206004820152602260248201527f4f6e6c79206f7261636c6520626f742063616e207375626d6974206f7574636f6044820152616d6560f01b6064820152608490fd5b90601f81116107b257505050565b600091825260208220906020601f850160051c830194106107ee575b601f0160051c01915b8281106107e357505050565b8181556001016107d7565b90925082906107ce565b908051151560ff801984541691161782556001908183016020808301519384519160018060401b0383116101195761083a836108348654610220565b866107a4565b80601f841160011461087f5750918080926040969594600298600094610874575b50501b916000199060031b1c19161790555b0151910155565b01519250388061085b565b91939495601f19841661089787600052602060002090565b936000905b8282106108de57505091600297959391856040989694106108c5575b505050811b01905561086d565b015160001960f88460031b161c191690553880806108b8565b80888697829497870151815501960194019061089c565b61090d906020604051928284809451938492016101d7565b810103902090565b92919061092c602091604086526040860190610300565b930152565b1561093857565b60405162461bcd60e51b8152602060048201526016602482015275496e76616c696420746172676574206164647265737360501b6044820152606490fd5b1561097d57565b60405162461bcd60e51b815260206004820152600e60248201526d456d7074792063616c6c6461746160901b6044820152606490fd5b908092918237016000815290565b3d156109ec573d906109d28261013d565b916109e060405193846100f6565b82523d6000602084013e565b606090565b90918060409360208452816020850152848401376000828201840152601f01601f191601019056fea2646970667358221220b6b7bb5b1912a8bc2dff842589178a4b5849529b968263bdb3907bd50b2e4e1964736f6c63430008140033",
  "linkReferences": {},
  "deployedLinkReferences": {}
}