{
  "_format": "hh-sol-artifact-1",
  "contractName": "Oddyssey",
  "sourceName": "contracts/Oddyssey.sol",
  "abi": [
    {
      "inputs": [
        {
          "internalType": "address",
          "name": "_devWallet",
          "type": "address"
        },
        {
          "internalType": "uint256",
          "name": "_initialEntryFee",
          "type": "uint256"
        }
      ],
      "stateMutability": "nonpayable",
      "type": "constructor"
    },
    {
      "inputs": [],
      "name": "DataNotFound",
      "type": "error"
    },
    {
      "inputs": [],
      "name": "InsufficientFunds",
      "type": "error"
    },
    {
      "inputs": [],
      "name": "InvalidInput",
      "type": "error"
    },
    {
      "inputs": [],
      "name": "InvalidState",
      "type": "error"
    },
    {
      "inputs": [],
      "name": "InvalidTiming",
      "type": "error"
    },
    {
      "inputs": [
        {
          "internalType": "address",
          "name": "owner",
          "type": "address"
        }
      ],
      "name": "OwnableInvalidOwner",
      "type": "error"
    },
    {
      "inputs": [
        {
          "internalType": "address",
          "name": "account",
          "type": "address"
        }
      ],
      "name": "OwnableUnauthorizedAccount",
      "type": "error"
    },
    {
      "inputs": [],
      "name": "ReentrancyGuardReentrantCall",
      "type": "error"
    },
    {
      "inputs": [],
      "name": "TransferFailed",
      "type": "error"
    },
    {
      "inputs": [],
      "name": "Unauthorized",
      "type": "error"
    },
    {
      "anonymous": false,
      "inputs": [
        {
          "indexed": true,
          "internalType": "uint256",
          "name": "cycleId",
          "type": "uint256"
        },
        {
          "indexed": false,
          "internalType": "uint256",
          "name": "totalVolume",
          "type": "uint256"
        },
        {
          "indexed": false,
          "internalType": "uint32",
          "name": "totalSlips",
          "type": "uint32"
        },
        {
          "indexed": false,
          "internalType": "uint256",
          "name": "averageScore",
          "type": "uint256"
        }
      ],
      "name": "AnalyticsUpdated",
      "type": "event"
    },
    {
      "anonymous": false,
      "inputs": [
        {
          "indexed": true,
          "internalType": "uint256",
          "name": "cycleId",
          "type": "uint256"
        },
        {
          "indexed": false,
          "internalType": "uint256",
          "name": "endTime",
          "type": "uint256"
        },
        {
          "indexed": false,
          "internalType": "uint32",
          "name": "totalSlips",
          "type": "uint32"
        }
      ],
      "name": "CycleEnded",
      "type": "event"
    },
    {
      "anonymous": false,
      "inputs": [
        {
          "indexed": true,
          "internalType": "uint256",
          "name": "cycleId",
          "type": "uint256"
        },
        {
          "indexed": false,
          "internalType": "uint256",
          "name": "prizePool",
          "type": "uint256"
        }
      ],
      "name": "CycleResolved",
      "type": "event"
    },
    {
      "anonymous": false,
      "inputs": [
        {
          "indexed": true,
          "internalType": "uint256",
          "name": "cycleId",
          "type": "uint256"
        },
        {
          "indexed": false,
          "internalType": "uint256",
          "name": "endTime",
          "type": "uint256"
        }
      ],
      "name": "CycleStarted",
      "type": "event"
    },
    {
      "anonymous": false,
      "inputs": [
        {
          "indexed": true,
          "internalType": "uint256",
          "name": "newFee",
          "type": "uint256"
        }
      ],
      "name": "EntryFeeSet",
      "type": "event"
    },
    {
      "anonymous": false,
      "inputs": [
        {
          "indexed": true,
          "internalType": "uint256",
          "name": "cycleId",
          "type": "uint256"
        },
        {
          "indexed": true,
          "internalType": "address",
          "name": "player",
          "type": "address"
        },
        {
          "indexed": true,
          "internalType": "uint256",
          "name": "slipId",
          "type": "uint256"
        },
        {
          "indexed": false,
          "internalType": "uint8",
          "name": "rank",
          "type": "uint8"
        },
        {
          "indexed": false,
          "internalType": "uint256",
          "name": "finalScore",
          "type": "uint256"
        }
      ],
      "name": "LeaderboardUpdated",
      "type": "event"
    },
    {
      "anonymous": false,
      "inputs": [
        {
          "indexed": true,
          "internalType": "address",
          "name": "user",
          "type": "address"
        },
        {
          "indexed": false,
          "internalType": "uint256",
          "name": "pointsEarned",
          "type": "uint256"
        },
        {
          "indexed": false,
          "internalType": "uint256",
          "name": "correctPredictions",
          "type": "uint256"
        },
        {
          "indexed": false,
          "internalType": "uint256",
          "name": "totalReputation",
          "type": "uint256"
        }
      ],
      "name": "OddysseyReputationUpdated",
      "type": "event"
    },
    {
      "anonymous": false,
      "inputs": [
        {
          "indexed": true,
          "internalType": "address",
          "name": "newOracle",
          "type": "address"
        }
      ],
      "name": "OracleSet",
      "type": "event"
    },
    {
      "anonymous": false,
      "inputs": [
        {
          "indexed": true,
          "internalType": "address",
          "name": "previousOwner",
          "type": "address"
        },
        {
          "indexed": true,
          "internalType": "address",
          "name": "newOwner",
          "type": "address"
        }
      ],
      "name": "OwnershipTransferred",
      "type": "event"
    },
    {
      "anonymous": false,
      "inputs": [
        {
          "indexed": true,
          "internalType": "uint256",
          "name": "cycleId",
          "type": "uint256"
        },
        {
          "indexed": true,
          "internalType": "address",
          "name": "player",
          "type": "address"
        },
        {
          "indexed": true,
          "internalType": "uint256",
          "name": "slipId",
          "type": "uint256"
        },
        {
          "indexed": false,
          "internalType": "uint256",
          "name": "rank",
          "type": "uint256"
        },
        {
          "indexed": false,
          "internalType": "uint256",
          "name": "amount",
          "type": "uint256"
        }
      ],
      "name": "PrizeClaimed",
      "type": "event"
    },
    {
      "anonymous": false,
      "inputs": [
        {
          "indexed": true,
          "internalType": "uint256",
          "name": "fromCycleId",
          "type": "uint256"
        },
        {
          "indexed": true,
          "internalType": "uint256",
          "name": "toCycleId",
          "type": "uint256"
        },
        {
          "indexed": false,
          "internalType": "uint256",
          "name": "amount",
          "type": "uint256"
        }
      ],
      "name": "PrizeRollover",
      "type": "event"
    },
    {
      "anonymous": false,
      "inputs": [
        {
          "indexed": true,
          "internalType": "address",
          "name": "user",
          "type": "address"
        },
        {
          "indexed": false,
          "internalType": "enum IReputationSystem.ReputationAction",
          "name": "action",
          "type": "uint8"
        },
        {
          "indexed": false,
          "internalType": "uint256",
          "name": "value",
          "type": "uint256"
        },
        {
          "indexed": true,
          "internalType": "bytes32",
          "name": "cycleId",
          "type": "bytes32"
        },
        {
          "indexed": false,
          "internalType": "uint256",
          "name": "timestamp",
          "type": "uint256"
        }
      ],
      "name": "ReputationActionOccurred",
      "type": "event"
    },
    {
      "anonymous": false,
      "inputs": [
        {
          "indexed": true,
          "internalType": "uint256",
          "name": "slipId",
          "type": "uint256"
        },
        {
          "indexed": true,
          "internalType": "address",
          "name": "player",
          "type": "address"
        },
        {
          "indexed": true,
          "internalType": "uint256",
          "name": "cycleId",
          "type": "uint256"
        },
        {
          "indexed": false,
          "internalType": "uint8",
          "name": "correctCount",
          "type": "uint8"
        },
        {
          "indexed": false,
          "internalType": "uint256",
          "name": "finalScore",
          "type": "uint256"
        }
      ],
      "name": "SlipEvaluated",
      "type": "event"
    },
    {
      "anonymous": false,
      "inputs": [
        {
          "indexed": true,
          "internalType": "uint256",
          "name": "cycleId",
          "type": "uint256"
        },
        {
          "indexed": true,
          "internalType": "address",
          "name": "player",
          "type": "address"
        },
        {
          "indexed": true,
          "internalType": "uint256",
          "name": "slipId",
          "type": "uint256"
        }
      ],
      "name": "SlipPlaced",
      "type": "event"
    },
    {
      "anonymous": false,
      "inputs": [
        {
          "indexed": true,
          "internalType": "address",
          "name": "user",
          "type": "address"
        },
        {
          "indexed": false,
          "internalType": "uint256",
          "name": "totalSlips",
          "type": "uint256"
        },
        {
          "indexed": false,
          "internalType": "uint256",
          "name": "totalWins",
          "type": "uint256"
        },
        {
          "indexed": false,
          "internalType": "uint256",
          "name": "bestScore",
          "type": "uint256"
        },
        {
          "indexed": false,
          "internalType": "uint256",
          "name": "winRate",
          "type": "uint256"
        }
      ],
      "name": "UserStatsUpdated",
      "type": "event"
    },
    {
      "inputs": [],
      "name": "DAILY_LEADERBOARD_SIZE",
      "outputs": [
        {
          "internalType": "uint256",
          "name": "",
          "type": "uint256"
        }
      ],
      "stateMutability": "view",
      "type": "function"
    },
    {
      "inputs": [],
      "name": "DEV_FEE_PERCENTAGE",
      "outputs": [
        {
          "internalType": "uint256",
          "name": "",
          "type": "uint256"
        }
      ],
      "stateMutability": "view",
      "type": "function"
    },
    {
      "inputs": [],
      "name": "MATCH_COUNT",
      "outputs": [
        {
          "internalType": "uint256",
          "name": "",
          "type": "uint256"
        }
      ],
      "stateMutability": "view",
      "type": "function"
    },
    {
      "inputs": [],
      "name": "MAX_BATCH_CYCLES",
      "outputs": [
        {
          "internalType": "uint256",
          "name": "",
          "type": "uint256"
        }
      ],
      "stateMutability": "view",
      "type": "function"
    },
    {
      "inputs": [],
      "name": "MAX_BATCH_SLIPS",
      "outputs": [
        {
          "internalType": "uint256",
          "name": "",
          "type": "uint256"
        }
      ],
      "stateMutability": "view",
      "type": "function"
    },
    {
      "inputs": [],
      "name": "MAX_CYCLES_TO_RESOLVE",
      "outputs": [
        {
          "internalType": "uint256",
          "name": "",
          "type": "uint256"
        }
      ],
      "stateMutability": "view",
      "type": "function"
    },
    {
      "inputs": [],
      "name": "MAX_STATS_CYCLES",
      "outputs": [
        {
          "internalType": "uint256",
          "name": "",
          "type": "uint256"
        }
      ],
      "stateMutability": "view",
      "type": "function"
    },
    {
      "inputs": [],
      "name": "MIN_CORRECT_PREDICTIONS",
      "outputs": [
        {
          "internalType": "uint256",
          "name": "",
          "type": "uint256"
        }
      ],
      "stateMutability": "view",
      "type": "function"
    },
    {
      "inputs": [],
      "name": "ODDS_SCALING_FACTOR",
      "outputs": [
        {
          "internalType": "uint256",
          "name": "",
          "type": "uint256"
        }
      ],
      "stateMutability": "view",
      "type": "function"
    },
    {
      "inputs": [],
      "name": "PRIZE_ROLLOVER_FEE_PERCENTAGE",
      "outputs": [
        {
          "internalType": "uint256",
          "name": "",
          "type": "uint256"
        }
      ],
      "stateMutability": "view",
      "type": "function"
    },
    {
      "inputs": [
        {
          "internalType": "address",
          "name": "_user",
          "type": "address"
        },
        {
          "internalType": "uint256",
          "name": "_cycleId",
          "type": "uint256"
        },
        {
          "internalType": "uint256",
          "name": "_slipId",
          "type": "uint256"
        }
      ],
      "name": "canClaimPrize",
      "outputs": [
        {
          "internalType": "bool",
          "name": "canClaim",
          "type": "bool"
        },
        {
          "internalType": "uint8",
          "name": "rank",
          "type": "uint8"
        }
      ],
      "stateMutability": "view",
      "type": "function"
    },
    {
      "inputs": [
        {
          "internalType": "uint256[]",
          "name": "_cycleIds",
          "type": "uint256[]"
        },
        {
          "internalType": "uint256[]",
          "name": "_slipIds",
          "type": "uint256[]"
        }
      ],
      "name": "claimMultiplePrizes",
      "outputs": [],
      "stateMutability": "nonpayable",
      "type": "function"
    },
    {
      "inputs": [
        {
          "internalType": "uint256",
          "name": "_cycleId",
          "type": "uint256"
        },
        {
          "internalType": "uint256",
          "name": "_slipId",
          "type": "uint256"
        }
      ],
      "name": "claimPrize",
      "outputs": [],
      "stateMutability": "nonpayable",
      "type": "function"
    },
    {
      "inputs": [
        {
          "internalType": "uint256",
          "name": "",
          "type": "uint256"
        }
      ],
      "name": "claimableStartTimes",
      "outputs": [
        {
          "internalType": "uint256",
          "name": "",
          "type": "uint256"
        }
      ],
      "stateMutability": "view",
      "type": "function"
    },
    {
      "inputs": [
        {
          "internalType": "uint256",
          "name": "",
          "type": "uint256"
        }
      ],
      "name": "cycleInfo",
      "outputs": [
        {
          "internalType": "uint256",
          "name": "startTime",
          "type": "uint256"
        },
        {
          "internalType": "uint256",
          "name": "endTime",
          "type": "uint256"
        },
        {
          "internalType": "uint256",
          "name": "prizePool",
          "type": "uint256"
        },
        {
          "internalType": "uint32",
          "name": "slipCount",
          "type": "uint32"
        },
        {
          "internalType": "uint32",
          "name": "evaluatedSlips",
          "type": "uint32"
        },
        {
          "internalType": "enum Oddyssey.CycleState",
          "name": "state",
          "type": "uint8"
        },
        {
          "internalType": "bool",
          "name": "hasWinner",
          "type": "bool"
        }
      ],
      "stateMutability": "view",
      "type": "function"
    },
    {
      "inputs": [
        {
          "internalType": "uint256",
          "name": "",
          "type": "uint256"
        }
      ],
      "name": "cycleStats",
      "outputs": [
        {
          "internalType": "uint256",
          "name": "volume",
          "type": "uint256"
        },
        {
          "internalType": "uint32",
          "name": "slips",
          "type": "uint32"
        },
        {
          "internalType": "uint32",
          "name": "evaluatedSlips",
          "type": "uint32"
        }
      ],
      "stateMutability": "view",
      "type": "function"
    },
    {
      "inputs": [
        {
          "internalType": "uint256",
          "name": "",
          "type": "uint256"
        }
      ],
      "name": "dailyAverageScore",
      "outputs": [
        {
          "internalType": "uint256",
          "name": "",
          "type": "uint256"
        }
      ],
      "stateMutability": "view",
      "type": "function"
    },
    {
      "inputs": [
        {
          "internalType": "uint256",
          "name": "",
          "type": "uint256"
        }
      ],
      "name": "dailyCorrectPredictions",
      "outputs": [
        {
          "internalType": "uint256",
          "name": "",
          "type": "uint256"
        }
      ],
      "stateMutability": "view",
      "type": "function"
    },
    {
      "inputs": [
        {
          "internalType": "uint256",
          "name": "",
          "type": "uint256"
        }
      ],
      "name": "dailyCycleEndTimes",
      "outputs": [
        {
          "internalType": "uint256",
          "name": "",
          "type": "uint256"
        }
      ],
      "stateMutability": "view",
      "type": "function"
    },
    {
      "inputs": [],
      "name": "dailyCycleId",
      "outputs": [
        {
          "internalType": "uint256",
          "name": "",
          "type": "uint256"
        }
      ],
      "stateMutability": "view",
      "type": "function"
    },
    {
      "inputs": [
        {
          "internalType": "uint256",
          "name": "",
          "type": "uint256"
        }
      ],
      "name": "dailyEvaluatedSlips",
      "outputs": [
        {
          "internalType": "uint256",
          "name": "",
          "type": "uint256"
        }
      ],
      "stateMutability": "view",
      "type": "function"
    },
    {
      "inputs": [
        {
          "internalType": "uint256",
          "name": "",
          "type": "uint256"
        },
        {
          "internalType": "uint256",
          "name": "",
          "type": "uint256"
        }
      ],
      "name": "dailyLeaderboards",
      "outputs": [
        {
          "internalType": "address",
          "name": "player",
          "type": "address"
        },
        {
          "internalType": "uint256",
          "name": "slipId",
          "type": "uint256"
        },
        {
          "internalType": "uint256",
          "name": "finalScore",
          "type": "uint256"
        },
        {
          "internalType": "uint8",
          "name": "correctCount",
          "type": "uint8"
        }
      ],
      "stateMutability": "view",
      "type": "function"
    },
    {
      "inputs": [
        {
          "internalType": "uint256",
          "name": "",
          "type": "uint256"
        },
        {
          "internalType": "uint256",
          "name": "",
          "type": "uint256"
        }
      ],
      "name": "dailyMatches",
      "outputs": [
        {
          "internalType": "uint64",
          "name": "id",
          "type": "uint64"
        },
        {
          "internalType": "uint64",
          "name": "startTime",
          "type": "uint64"
        },
        {
          "internalType": "uint32",
          "name": "oddsHome",
          "type": "uint32"
        },
        {
          "internalType": "uint32",
          "name": "oddsDraw",
          "type": "uint32"
        },
        {
          "internalType": "uint32",
          "name": "oddsAway",
          "type": "uint32"
        },
        {
          "internalType": "uint32",
          "name": "oddsOver",
          "type": "uint32"
        },
        {
          "internalType": "uint32",
          "name": "oddsUnder",
          "type": "uint32"
        },
        {
          "internalType": "string",
          "name": "homeTeam",
          "type": "string"
        },
        {
          "internalType": "string",
          "name": "awayTeam",
          "type": "string"
        },
        {
          "internalType": "string",
          "name": "leagueName",
          "type": "string"
        },
        {
          "components": [
            {
              "internalType": "enum Oddyssey.MoneylineResult",
              "name": "moneyline",
              "type": "uint8"
            },
            {
              "internalType": "enum Oddyssey.OverUnderResult",
              "name": "overUnder",
              "type": "uint8"
            }
          ],
          "internalType": "struct Oddyssey.Result",
          "name": "result",
          "type": "tuple"
        }
      ],
      "stateMutability": "view",
      "type": "function"
    },
    {
      "inputs": [
        {
          "internalType": "uint256",
          "name": "",
          "type": "uint256"
        }
      ],
      "name": "dailyMaxScore",
      "outputs": [
        {
          "internalType": "uint256",
          "name": "",
          "type": "uint256"
        }
      ],
      "stateMutability": "view",
      "type": "function"
    },
    {
      "inputs": [
        {
          "internalType": "uint256",
          "name": "",
          "type": "uint256"
        }
      ],
      "name": "dailyMinScore",
      "outputs": [
        {
          "internalType": "uint256",
          "name": "",
          "type": "uint256"
        }
      ],
      "stateMutability": "view",
      "type": "function"
    },
    {
      "inputs": [
        {
          "internalType": "uint256",
          "name": "",
          "type": "uint256"
        }
      ],
      "name": "dailyPrizePools",
      "outputs": [
        {
          "internalType": "uint256",
          "name": "",
          "type": "uint256"
        }
      ],
      "stateMutability": "view",
      "type": "function"
    },
    {
      "inputs": [
        {
          "internalType": "uint256",
          "name": "",
          "type": "uint256"
        }
      ],
      "name": "dailySlipCount",
      "outputs": [
        {
          "internalType": "uint256",
          "name": "",
          "type": "uint256"
        }
      ],
      "stateMutability": "view",
      "type": "function"
    },
    {
      "inputs": [
        {
          "internalType": "uint256",
          "name": "",
          "type": "uint256"
        }
      ],
      "name": "dailyUserCount",
      "outputs": [
        {
          "internalType": "uint256",
          "name": "",
          "type": "uint256"
        }
      ],
      "stateMutability": "view",
      "type": "function"
    },
    {
      "inputs": [
        {
          "internalType": "uint256",
          "name": "",
          "type": "uint256"
        }
      ],
      "name": "dailyVolume",
      "outputs": [
        {
          "internalType": "uint256",
          "name": "",
          "type": "uint256"
        }
      ],
      "stateMutability": "view",
      "type": "function"
    },
    {
      "inputs": [
        {
          "internalType": "uint256",
          "name": "",
          "type": "uint256"
        }
      ],
      "name": "dailyWinnersCount",
      "outputs": [
        {
          "internalType": "uint256",
          "name": "",
          "type": "uint256"
        }
      ],
      "stateMutability": "view",
      "type": "function"
    },
    {
      "inputs": [],
      "name": "devWallet",
      "outputs": [
        {
          "internalType": "address",
          "name": "",
          "type": "address"
        }
      ],
      "stateMutability": "view",
      "type": "function"
    },
    {
      "inputs": [],
      "name": "entryFee",
      "outputs": [
        {
          "internalType": "uint256",
          "name": "",
          "type": "uint256"
        }
      ],
      "stateMutability": "view",
      "type": "function"
    },
    {
      "inputs": [
        {
          "internalType": "uint256[]",
          "name": "_slipIds",
          "type": "uint256[]"
        }
      ],
      "name": "evaluateMultipleSlips",
      "outputs": [],
      "stateMutability": "nonpayable",
      "type": "function"
    },
    {
      "inputs": [
        {
          "internalType": "uint256",
          "name": "_slipId",
          "type": "uint256"
        }
      ],
      "name": "evaluateSlip",
      "outputs": [],
      "stateMutability": "nonpayable",
      "type": "function"
    },
    {
      "inputs": [
        {
          "internalType": "address",
          "name": "_user",
          "type": "address"
        }
      ],
      "name": "getAllUserSlips",
      "outputs": [
        {
          "internalType": "uint256[]",
          "name": "",
          "type": "uint256[]"
        }
      ],
      "stateMutability": "view",
      "type": "function"
    },
    {
      "inputs": [
        {
          "internalType": "address",
          "name": "_user",
          "type": "address"
        }
      ],
      "name": "getAllUserSlipsWithData",
      "outputs": [
        {
          "internalType": "uint256[]",
          "name": "slipIds",
          "type": "uint256[]"
        },
        {
          "components": [
            {
              "internalType": "address",
              "name": "player",
              "type": "address"
            },
            {
              "internalType": "uint256",
              "name": "cycleId",
              "type": "uint256"
            },
            {
              "internalType": "uint256",
              "name": "placedAt",
              "type": "uint256"
            },
            {
              "components": [
                {
                  "internalType": "uint64",
                  "name": "matchId",
                  "type": "uint64"
                },
                {
                  "internalType": "uint8",
                  "name": "betType",
                  "type": "uint8"
                },
                {
                  "internalType": "string",
                  "name": "selection",
                  "type": "string"
                },
                {
                  "internalType": "uint32",
                  "name": "selectedOdd",
                  "type": "uint32"
                }
              ],
              "internalType": "struct Oddyssey.UserPrediction[10]",
              "name": "predictions",
              "type": "tuple[10]"
            },
            {
              "internalType": "uint256",
              "name": "finalScore",
              "type": "uint256"
            },
            {
              "internalType": "uint8",
              "name": "correctCount",
              "type": "uint8"
            },
            {
              "internalType": "bool",
              "name": "isEvaluated",
              "type": "bool"
            }
          ],
          "internalType": "struct Oddyssey.Slip[]",
          "name": "slipsData",
          "type": "tuple[]"
        }
      ],
      "stateMutability": "view",
      "type": "function"
    },
    {
      "inputs": [
        {
          "internalType": "uint256[]",
          "name": "_cycleIds",
          "type": "uint256[]"
        }
      ],
      "name": "getBatchCycleMatches",
      "outputs": [
        {
          "components": [
            {
              "internalType": "uint64",
              "name": "id",
              "type": "uint64"
            },
            {
              "internalType": "uint64",
              "name": "startTime",
              "type": "uint64"
            },
            {
              "internalType": "uint32",
              "name": "oddsHome",
              "type": "uint32"
            },
            {
              "internalType": "uint32",
              "name": "oddsDraw",
              "type": "uint32"
            },
            {
              "internalType": "uint32",
              "name": "oddsAway",
              "type": "uint32"
            },
            {
              "internalType": "uint32",
              "name": "oddsOver",
              "type": "uint32"
            },
            {
              "internalType": "uint32",
              "name": "oddsUnder",
              "type": "uint32"
            },
            {
              "internalType": "string",
              "name": "homeTeam",
              "type": "string"
            },
            {
              "internalType": "string",
              "name": "awayTeam",
              "type": "string"
            },
            {
              "internalType": "string",
              "name": "leagueName",
              "type": "string"
            },
            {
              "components": [
                {
                  "internalType": "enum Oddyssey.MoneylineResult",
                  "name": "moneyline",
                  "type": "uint8"
                },
                {
                  "internalType": "enum Oddyssey.OverUnderResult",
                  "name": "overUnder",
                  "type": "uint8"
                }
              ],
              "internalType": "struct Oddyssey.Result",
              "name": "result",
              "type": "tuple"
            }
          ],
          "internalType": "struct Oddyssey.Match[10][]",
          "name": "",
          "type": "tuple[10][]"
        }
      ],
      "stateMutability": "view",
      "type": "function"
    },
    {
      "inputs": [
        {
          "internalType": "uint256[]",
          "name": "_slipIds",
          "type": "uint256[]"
        }
      ],
      "name": "getBatchSlips",
      "outputs": [
        {
          "components": [
            {
              "internalType": "address",
              "name": "player",
              "type": "address"
            },
            {
              "internalType": "uint256",
              "name": "cycleId",
              "type": "uint256"
            },
            {
              "internalType": "uint256",
              "name": "placedAt",
              "type": "uint256"
            },
            {
              "components": [
                {
                  "internalType": "uint64",
                  "name": "matchId",
                  "type": "uint64"
                },
                {
                  "internalType": "uint8",
                  "name": "betType",
                  "type": "uint8"
                },
                {
                  "internalType": "string",
                  "name": "selection",
                  "type": "string"
                },
                {
                  "internalType": "uint32",
                  "name": "selectedOdd",
                  "type": "uint32"
                }
              ],
              "internalType": "struct Oddyssey.UserPrediction[10]",
              "name": "predictions",
              "type": "tuple[10]"
            },
            {
              "internalType": "uint256",
              "name": "finalScore",
              "type": "uint256"
            },
            {
              "internalType": "uint8",
              "name": "correctCount",
              "type": "uint8"
            },
            {
              "internalType": "bool",
              "name": "isEvaluated",
              "type": "bool"
            }
          ],
          "internalType": "struct Oddyssey.Slip[]",
          "name": "",
          "type": "tuple[]"
        }
      ],
      "stateMutability": "view",
      "type": "function"
    },
    {
      "inputs": [],
      "name": "getCurrentCycle",
      "outputs": [
        {
          "internalType": "uint256",
          "name": "",
          "type": "uint256"
        }
      ],
      "stateMutability": "view",
      "type": "function"
    },
    {
      "inputs": [],
      "name": "getCurrentCycleInfo",
      "outputs": [
        {
          "internalType": "uint256",
          "name": "cycleId",
          "type": "uint256"
        },
        {
          "internalType": "uint8",
          "name": "state",
          "type": "uint8"
        },
        {
          "internalType": "uint256",
          "name": "endTime",
          "type": "uint256"
        },
        {
          "internalType": "uint256",
          "name": "prizePool",
          "type": "uint256"
        },
        {
          "internalType": "uint32",
          "name": "cycleSlipCount",
          "type": "uint32"
        }
      ],
      "stateMutability": "view",
      "type": "function"
    },
    {
      "inputs": [
        {
          "internalType": "uint256",
          "name": "_cycleId",
          "type": "uint256"
        }
      ],
      "name": "getCycleDataBundle",
      "outputs": [
        {
          "components": [
            {
              "internalType": "uint256",
              "name": "startTime",
              "type": "uint256"
            },
            {
              "internalType": "uint256",
              "name": "endTime",
              "type": "uint256"
            },
            {
              "internalType": "uint256",
              "name": "prizePool",
              "type": "uint256"
            },
            {
              "internalType": "uint32",
              "name": "slipCount",
              "type": "uint32"
            },
            {
              "internalType": "uint32",
              "name": "evaluatedSlips",
              "type": "uint32"
            },
            {
              "internalType": "enum Oddyssey.CycleState",
              "name": "state",
              "type": "uint8"
            },
            {
              "internalType": "bool",
              "name": "hasWinner",
              "type": "bool"
            }
          ],
          "internalType": "struct Oddyssey.CycleInfo",
          "name": "cycle",
          "type": "tuple"
        },
        {
          "components": [
            {
              "internalType": "uint64",
              "name": "id",
              "type": "uint64"
            },
            {
              "internalType": "uint64",
              "name": "startTime",
              "type": "uint64"
            },
            {
              "internalType": "uint32",
              "name": "oddsHome",
              "type": "uint32"
            },
            {
              "internalType": "uint32",
              "name": "oddsDraw",
              "type": "uint32"
            },
            {
              "internalType": "uint32",
              "name": "oddsAway",
              "type": "uint32"
            },
            {
              "internalType": "uint32",
              "name": "oddsOver",
              "type": "uint32"
            },
            {
              "internalType": "uint32",
              "name": "oddsUnder",
              "type": "uint32"
            },
            {
              "internalType": "string",
              "name": "homeTeam",
              "type": "string"
            },
            {
              "internalType": "string",
              "name": "awayTeam",
              "type": "string"
            },
            {
              "internalType": "string",
              "name": "leagueName",
              "type": "string"
            },
            {
              "components": [
                {
                  "internalType": "enum Oddyssey.MoneylineResult",
                  "name": "moneyline",
                  "type": "uint8"
                },
                {
                  "internalType": "enum Oddyssey.OverUnderResult",
                  "name": "overUnder",
                  "type": "uint8"
                }
              ],
              "internalType": "struct Oddyssey.Result",
              "name": "result",
              "type": "tuple"
            }
          ],
          "internalType": "struct Oddyssey.Match[10]",
          "name": "matches",
          "type": "tuple[10]"
        },
        {
          "components": [
            {
              "internalType": "address",
              "name": "player",
              "type": "address"
            },
            {
              "internalType": "uint256",
              "name": "slipId",
              "type": "uint256"
            },
            {
              "internalType": "uint256",
              "name": "finalScore",
              "type": "uint256"
            },
            {
              "internalType": "uint8",
              "name": "correctCount",
              "type": "uint8"
            }
          ],
          "internalType": "struct Oddyssey.LeaderboardEntry[5]",
          "name": "leaderboard",
          "type": "tuple[5]"
        },
        {
          "components": [
            {
              "internalType": "uint256",
              "name": "slipCount",
              "type": "uint256"
            },
            {
              "internalType": "uint256",
              "name": "userCount",
              "type": "uint256"
            },
            {
              "internalType": "uint256",
              "name": "volume",
              "type": "uint256"
            },
            {
              "internalType": "uint256",
              "name": "correctPredictions",
              "type": "uint256"
            },
            {
              "internalType": "uint256",
              "name": "evaluatedSlips",
              "type": "uint256"
            },
            {
              "internalType": "uint256",
              "name": "averageScore",
              "type": "uint256"
            },
            {
              "internalType": "uint256",
              "name": "maxScore",
              "type": "uint256"
            },
            {
              "internalType": "uint256",
              "name": "minScore",
              "type": "uint256"
            },
            {
              "internalType": "uint256",
              "name": "winnersCount",
              "type": "uint256"
            }
          ],
          "internalType": "struct Oddyssey.DailyStats",
          "name": "dailyStats",
          "type": "tuple"
        }
      ],
      "stateMutability": "view",
      "type": "function"
    },
    {
      "inputs": [
        {
          "internalType": "uint256",
          "name": "_cycleId",
          "type": "uint256"
        }
      ],
      "name": "getCycleMatches",
      "outputs": [
        {
          "components": [
            {
              "internalType": "uint64",
              "name": "id",
              "type": "uint64"
            },
            {
              "internalType": "uint64",
              "name": "startTime",
              "type": "uint64"
            },
            {
              "internalType": "uint32",
              "name": "oddsHome",
              "type": "uint32"
            },
            {
              "internalType": "uint32",
              "name": "oddsDraw",
              "type": "uint32"
            },
            {
              "internalType": "uint32",
              "name": "oddsAway",
              "type": "uint32"
            },
            {
              "internalType": "uint32",
              "name": "oddsOver",
              "type": "uint32"
            },
            {
              "internalType": "uint32",
              "name": "oddsUnder",
              "type": "uint32"
            },
            {
              "internalType": "string",
              "name": "homeTeam",
              "type": "string"
            },
            {
              "internalType": "string",
              "name": "awayTeam",
              "type": "string"
            },
            {
              "internalType": "string",
              "name": "leagueName",
              "type": "string"
            },
            {
              "components": [
                {
                  "internalType": "enum Oddyssey.MoneylineResult",
                  "name": "moneyline",
                  "type": "uint8"
                },
                {
                  "internalType": "enum Oddyssey.OverUnderResult",
                  "name": "overUnder",
                  "type": "uint8"
                }
              ],
              "internalType": "struct Oddyssey.Result",
              "name": "result",
              "type": "tuple"
            }
          ],
          "internalType": "struct Oddyssey.Match[10]",
          "name": "",
          "type": "tuple[10]"
        }
      ],
      "stateMutability": "view",
      "type": "function"
    },
    {
      "inputs": [
        {
          "internalType": "uint256",
          "name": "_cycleId",
          "type": "uint256"
        }
      ],
      "name": "getCycleStatus",
      "outputs": [
        {
          "internalType": "bool",
          "name": "exists",
          "type": "bool"
        },
        {
          "internalType": "uint8",
          "name": "state",
          "type": "uint8"
        },
        {
          "internalType": "uint256",
          "name": "endTime",
          "type": "uint256"
        },
        {
          "internalType": "uint256",
          "name": "prizePool",
          "type": "uint256"
        },
        {
          "internalType": "uint32",
          "name": "cycleSlipCount",
          "type": "uint32"
        },
        {
          "internalType": "bool",
          "name": "hasWinner",
          "type": "bool"
        }
      ],
      "stateMutability": "view",
      "type": "function"
    },
    {
      "inputs": [
        {
          "internalType": "uint256",
          "name": "_cycleId",
          "type": "uint256"
        }
      ],
      "name": "getDailyLeaderboard",
      "outputs": [
        {
          "components": [
            {
              "internalType": "address",
              "name": "player",
              "type": "address"
            },
            {
              "internalType": "uint256",
              "name": "slipId",
              "type": "uint256"
            },
            {
              "internalType": "uint256",
              "name": "finalScore",
              "type": "uint256"
            },
            {
              "internalType": "uint8",
              "name": "correctCount",
              "type": "uint8"
            }
          ],
          "internalType": "struct Oddyssey.LeaderboardEntry[5]",
          "name": "",
          "type": "tuple[5]"
        }
      ],
      "stateMutability": "view",
      "type": "function"
    },
    {
      "inputs": [
        {
          "internalType": "uint256",
          "name": "_cycleId",
          "type": "uint256"
        }
      ],
      "name": "getDailyMatches",
      "outputs": [
        {
          "components": [
            {
              "internalType": "uint64",
              "name": "id",
              "type": "uint64"
            },
            {
              "internalType": "uint64",
              "name": "startTime",
              "type": "uint64"
            },
            {
              "internalType": "uint32",
              "name": "oddsHome",
              "type": "uint32"
            },
            {
              "internalType": "uint32",
              "name": "oddsDraw",
              "type": "uint32"
            },
            {
              "internalType": "uint32",
              "name": "oddsAway",
              "type": "uint32"
            },
            {
              "internalType": "uint32",
              "name": "oddsOver",
              "type": "uint32"
            },
            {
              "internalType": "uint32",
              "name": "oddsUnder",
              "type": "uint32"
            },
            {
              "internalType": "string",
              "name": "homeTeam",
              "type": "string"
            },
            {
              "internalType": "string",
              "name": "awayTeam",
              "type": "string"
            },
            {
              "internalType": "string",
              "name": "leagueName",
              "type": "string"
            },
            {
              "components": [
                {
                  "internalType": "enum Oddyssey.MoneylineResult",
                  "name": "moneyline",
                  "type": "uint8"
                },
                {
                  "internalType": "enum Oddyssey.OverUnderResult",
                  "name": "overUnder",
                  "type": "uint8"
                }
              ],
              "internalType": "struct Oddyssey.Result",
              "name": "result",
              "type": "tuple"
            }
          ],
          "internalType": "struct Oddyssey.Match[10]",
          "name": "",
          "type": "tuple[10]"
        }
      ],
      "stateMutability": "view",
      "type": "function"
    },
    {
      "inputs": [
        {
          "internalType": "uint256",
          "name": "_cycleId",
          "type": "uint256"
        }
      ],
      "name": "getDailyStats",
      "outputs": [
        {
          "components": [
            {
              "internalType": "uint256",
              "name": "slipCount",
              "type": "uint256"
            },
            {
              "internalType": "uint256",
              "name": "userCount",
              "type": "uint256"
            },
            {
              "internalType": "uint256",
              "name": "volume",
              "type": "uint256"
            },
            {
              "internalType": "uint256",
              "name": "correctPredictions",
              "type": "uint256"
            },
            {
              "internalType": "uint256",
              "name": "evaluatedSlips",
              "type": "uint256"
            },
            {
              "internalType": "uint256",
              "name": "averageScore",
              "type": "uint256"
            },
            {
              "internalType": "uint256",
              "name": "maxScore",
              "type": "uint256"
            },
            {
              "internalType": "uint256",
              "name": "minScore",
              "type": "uint256"
            },
            {
              "internalType": "uint256",
              "name": "winnersCount",
              "type": "uint256"
            }
          ],
          "internalType": "struct Oddyssey.DailyStats",
          "name": "",
          "type": "tuple"
        }
      ],
      "stateMutability": "view",
      "type": "function"
    },
    {
      "inputs": [],
      "name": "getPlatformDailyStats",
      "outputs": [
        {
          "internalType": "uint256",
          "name": "totalCycles",
          "type": "uint256"
        },
        {
          "internalType": "uint256",
          "name": "totalSlips",
          "type": "uint256"
        },
        {
          "internalType": "uint256",
          "name": "totalUsers",
          "type": "uint256"
        },
        {
          "internalType": "uint256",
          "name": "totalVolume",
          "type": "uint256"
        },
        {
          "internalType": "uint256",
          "name": "totalCorrectPredictions",
          "type": "uint256"
        },
        {
          "internalType": "uint256",
          "name": "totalEvaluatedSlips",
          "type": "uint256"
        },
        {
          "internalType": "uint256",
          "name": "totalWinners",
          "type": "uint256"
        },
        {
          "internalType": "uint256",
          "name": "averageScore",
          "type": "uint256"
        },
        {
          "internalType": "uint256",
          "name": "maxScore",
          "type": "uint256"
        },
        {
          "internalType": "uint256",
          "name": "minScore",
          "type": "uint256"
        }
      ],
      "stateMutability": "view",
      "type": "function"
    },
    {
      "inputs": [
        {
          "internalType": "uint256",
          "name": "_slipId",
          "type": "uint256"
        }
      ],
      "name": "getSlip",
      "outputs": [
        {
          "components": [
            {
              "internalType": "address",
              "name": "player",
              "type": "address"
            },
            {
              "internalType": "uint256",
              "name": "cycleId",
              "type": "uint256"
            },
            {
              "internalType": "uint256",
              "name": "placedAt",
              "type": "uint256"
            },
            {
              "components": [
                {
                  "internalType": "uint64",
                  "name": "matchId",
                  "type": "uint64"
                },
                {
                  "internalType": "uint8",
                  "name": "betType",
                  "type": "uint8"
                },
                {
                  "internalType": "string",
                  "name": "selection",
                  "type": "string"
                },
                {
                  "internalType": "uint32",
                  "name": "selectedOdd",
                  "type": "uint32"
                }
              ],
              "internalType": "struct Oddyssey.UserPrediction[10]",
              "name": "predictions",
              "type": "tuple[10]"
            },
            {
              "internalType": "uint256",
              "name": "finalScore",
              "type": "uint256"
            },
            {
              "internalType": "uint8",
              "name": "correctCount",
              "type": "uint8"
            },
            {
              "internalType": "bool",
              "name": "isEvaluated",
              "type": "bool"
            }
          ],
          "internalType": "struct Oddyssey.Slip",
          "name": "",
          "type": "tuple"
        }
      ],
      "stateMutability": "view",
      "type": "function"
    },
    {
      "inputs": [
        {
          "internalType": "address",
          "name": "_user",
          "type": "address"
        }
      ],
      "name": "getUserData",
      "outputs": [
        {
          "components": [
            {
              "internalType": "uint256",
              "name": "totalSlips",
              "type": "uint256"
            },
            {
              "internalType": "uint256",
              "name": "totalWins",
              "type": "uint256"
            },
            {
              "internalType": "uint256",
              "name": "bestScore",
              "type": "uint256"
            },
            {
              "internalType": "uint256",
              "name": "averageScore",
              "type": "uint256"
            },
            {
              "internalType": "uint256",
              "name": "winRate",
              "type": "uint256"
            },
            {
              "internalType": "uint256",
              "name": "currentStreak",
              "type": "uint256"
            },
            {
              "internalType": "uint256",
              "name": "bestStreak",
              "type": "uint256"
            },
            {
              "internalType": "uint256",
              "name": "lastActiveCycle",
              "type": "uint256"
            }
          ],
          "internalType": "struct Oddyssey.UserStats",
          "name": "userStatsData",
          "type": "tuple"
        },
        {
          "internalType": "uint256",
          "name": "reputation",
          "type": "uint256"
        },
        {
          "internalType": "uint256",
          "name": "correctPredictions",
          "type": "uint256"
        }
      ],
      "stateMutability": "view",
      "type": "function"
    },
    {
      "inputs": [
        {
          "internalType": "address",
          "name": "_user",
          "type": "address"
        }
      ],
      "name": "getUserSlipCount",
      "outputs": [
        {
          "internalType": "uint256",
          "name": "",
          "type": "uint256"
        }
      ],
      "stateMutability": "view",
      "type": "function"
    },
    {
      "inputs": [
        {
          "internalType": "address",
          "name": "_user",
          "type": "address"
        },
        {
          "internalType": "uint256",
          "name": "_cycleId",
          "type": "uint256"
        }
      ],
      "name": "getUserSlipsForCycle",
      "outputs": [
        {
          "internalType": "uint256[]",
          "name": "",
          "type": "uint256[]"
        }
      ],
      "stateMutability": "view",
      "type": "function"
    },
    {
      "inputs": [
        {
          "internalType": "address",
          "name": "_user",
          "type": "address"
        },
        {
          "internalType": "uint256",
          "name": "_cycleId",
          "type": "uint256"
        }
      ],
      "name": "getUserSlipsWithData",
      "outputs": [
        {
          "internalType": "uint256[]",
          "name": "slipIds",
          "type": "uint256[]"
        },
        {
          "components": [
            {
              "internalType": "address",
              "name": "player",
              "type": "address"
            },
            {
              "internalType": "uint256",
              "name": "cycleId",
              "type": "uint256"
            },
            {
              "internalType": "uint256",
              "name": "placedAt",
              "type": "uint256"
            },
            {
              "components": [
                {
                  "internalType": "uint64",
                  "name": "matchId",
                  "type": "uint64"
                },
                {
                  "internalType": "uint8",
                  "name": "betType",
                  "type": "uint8"
                },
                {
                  "internalType": "string",
                  "name": "selection",
                  "type": "string"
                },
                {
                  "internalType": "uint32",
                  "name": "selectedOdd",
                  "type": "uint32"
                }
              ],
              "internalType": "struct Oddyssey.UserPrediction[10]",
              "name": "predictions",
              "type": "tuple[10]"
            },
            {
              "internalType": "uint256",
              "name": "finalScore",
              "type": "uint256"
            },
            {
              "internalType": "uint8",
              "name": "correctCount",
              "type": "uint8"
            },
            {
              "internalType": "bool",
              "name": "isEvaluated",
              "type": "bool"
            }
          ],
          "internalType": "struct Oddyssey.Slip[]",
          "name": "slipsData",
          "type": "tuple[]"
        }
      ],
      "stateMutability": "view",
      "type": "function"
    },
    {
      "inputs": [
        {
          "internalType": "uint256",
          "name": "_cycleId",
          "type": "uint256"
        }
      ],
      "name": "isCycleInitialized",
      "outputs": [
        {
          "internalType": "bool",
          "name": "",
          "type": "bool"
        }
      ],
      "stateMutability": "view",
      "type": "function"
    },
    {
      "inputs": [
        {
          "internalType": "uint256",
          "name": "",
          "type": "uint256"
        }
      ],
      "name": "isCycleResolved",
      "outputs": [
        {
          "internalType": "bool",
          "name": "",
          "type": "bool"
        }
      ],
      "stateMutability": "view",
      "type": "function"
    },
    {
      "inputs": [],
      "name": "oracle",
      "outputs": [
        {
          "internalType": "address",
          "name": "",
          "type": "address"
        }
      ],
      "stateMutability": "view",
      "type": "function"
    },
    {
      "inputs": [],
      "name": "owner",
      "outputs": [
        {
          "internalType": "address",
          "name": "",
          "type": "address"
        }
      ],
      "stateMutability": "view",
      "type": "function"
    },
    {
      "inputs": [
        {
          "components": [
            {
              "internalType": "uint64",
              "name": "matchId",
              "type": "uint64"
            },
            {
              "internalType": "uint8",
              "name": "betType",
              "type": "uint8"
            },
            {
              "internalType": "string",
              "name": "selection",
              "type": "string"
            },
            {
              "internalType": "uint32",
              "name": "selectedOdd",
              "type": "uint32"
            }
          ],
          "internalType": "struct Oddyssey.UserPrediction[10]",
          "name": "_predictions",
          "type": "tuple[10]"
        }
      ],
      "name": "placeSlip",
      "outputs": [],
      "stateMutability": "payable",
      "type": "function"
    },
    {
      "inputs": [
        {
          "internalType": "uint256",
          "name": "",
          "type": "uint256"
        },
        {
          "internalType": "uint8",
          "name": "",
          "type": "uint8"
        }
      ],
      "name": "prizeClaimed",
      "outputs": [
        {
          "internalType": "bool",
          "name": "",
          "type": "bool"
        }
      ],
      "stateMutability": "view",
      "type": "function"
    },
    {
      "inputs": [],
      "name": "renounceOwnership",
      "outputs": [],
      "stateMutability": "nonpayable",
      "type": "function"
    },
    {
      "inputs": [],
      "name": "reputationSystem",
      "outputs": [
        {
          "internalType": "contract IReputationSystem",
          "name": "",
          "type": "address"
        }
      ],
      "stateMutability": "view",
      "type": "function"
    },
    {
      "inputs": [
        {
          "internalType": "uint256",
          "name": "_cycleId",
          "type": "uint256"
        },
        {
          "components": [
            {
              "internalType": "enum Oddyssey.MoneylineResult",
              "name": "moneyline",
              "type": "uint8"
            },
            {
              "internalType": "enum Oddyssey.OverUnderResult",
              "name": "overUnder",
              "type": "uint8"
            }
          ],
          "internalType": "struct Oddyssey.Result[10]",
          "name": "_results",
          "type": "tuple[10]"
        }
      ],
      "name": "resolveDailyCycle",
      "outputs": [],
      "stateMutability": "nonpayable",
      "type": "function"
    },
    {
      "inputs": [
        {
          "internalType": "uint256[]",
          "name": "_cycleIds",
          "type": "uint256[]"
        },
        {
          "components": [
            {
              "internalType": "enum Oddyssey.MoneylineResult",
              "name": "moneyline",
              "type": "uint8"
            },
            {
              "internalType": "enum Oddyssey.OverUnderResult",
              "name": "overUnder",
              "type": "uint8"
            }
          ],
          "internalType": "struct Oddyssey.Result[10][]",
          "name": "_results",
          "type": "tuple[10][]"
        }
      ],
      "name": "resolveMultipleCycles",
      "outputs": [],
      "stateMutability": "nonpayable",
      "type": "function"
    },
    {
      "inputs": [
        {
          "internalType": "uint256",
          "name": "_newFee",
          "type": "uint256"
        }
      ],
      "name": "setEntryFee",
      "outputs": [],
      "stateMutability": "nonpayable",
      "type": "function"
    },
    {
      "inputs": [
        {
          "internalType": "address",
          "name": "_newOracle",
          "type": "address"
        }
      ],
      "name": "setOracle",
      "outputs": [],
      "stateMutability": "nonpayable",
      "type": "function"
    },
    {
      "inputs": [
        {
          "internalType": "address",
          "name": "_reputationSystem",
          "type": "address"
        }
      ],
      "name": "setReputationSystem",
      "outputs": [],
      "stateMutability": "nonpayable",
      "type": "function"
    },
    {
      "inputs": [],
      "name": "slipCount",
      "outputs": [
        {
          "internalType": "uint256",
          "name": "",
          "type": "uint256"
        }
      ],
      "stateMutability": "view",
      "type": "function"
    },
    {
      "inputs": [
        {
          "internalType": "uint256",
          "name": "",
          "type": "uint256"
        }
      ],
      "name": "slips",
      "outputs": [
        {
          "internalType": "address",
          "name": "player",
          "type": "address"
        },
        {
          "internalType": "uint256",
          "name": "cycleId",
          "type": "uint256"
        },
        {
          "internalType": "uint256",
          "name": "placedAt",
          "type": "uint256"
        },
        {
          "internalType": "uint256",
          "name": "finalScore",
          "type": "uint256"
        },
        {
          "internalType": "uint8",
          "name": "correctCount",
          "type": "uint8"
        },
        {
          "internalType": "bool",
          "name": "isEvaluated",
          "type": "bool"
        }
      ],
      "stateMutability": "view",
      "type": "function"
    },
    {
      "inputs": [
        {
          "components": [
            {
              "internalType": "uint64",
              "name": "id",
              "type": "uint64"
            },
            {
              "internalType": "uint64",
              "name": "startTime",
              "type": "uint64"
            },
            {
              "internalType": "uint32",
              "name": "oddsHome",
              "type": "uint32"
            },
            {
              "internalType": "uint32",
              "name": "oddsDraw",
              "type": "uint32"
            },
            {
              "internalType": "uint32",
              "name": "oddsAway",
              "type": "uint32"
            },
            {
              "internalType": "uint32",
              "name": "oddsOver",
              "type": "uint32"
            },
            {
              "internalType": "uint32",
              "name": "oddsUnder",
              "type": "uint32"
            },
            {
              "internalType": "string",
              "name": "homeTeam",
              "type": "string"
            },
            {
              "internalType": "string",
              "name": "awayTeam",
              "type": "string"
            },
            {
              "internalType": "string",
              "name": "leagueName",
              "type": "string"
            },
            {
              "components": [
                {
                  "internalType": "enum Oddyssey.MoneylineResult",
                  "name": "moneyline",
                  "type": "uint8"
                },
                {
                  "internalType": "enum Oddyssey.OverUnderResult",
                  "name": "overUnder",
                  "type": "uint8"
                }
              ],
              "internalType": "struct Oddyssey.Result",
              "name": "result",
              "type": "tuple"
            }
          ],
          "internalType": "struct Oddyssey.Match[10]",
          "name": "_matches",
          "type": "tuple[10]"
        }
      ],
      "name": "startDailyCycle",
      "outputs": [],
      "stateMutability": "nonpayable",
      "type": "function"
    },
    {
      "inputs": [],
      "name": "stats",
      "outputs": [
        {
          "internalType": "uint256",
          "name": "totalVolume",
          "type": "uint256"
        },
        {
          "internalType": "uint32",
          "name": "totalSlips",
          "type": "uint32"
        },
        {
          "internalType": "uint256",
          "name": "highestOdd",
          "type": "uint256"
        }
      ],
      "stateMutability": "view",
      "type": "function"
    },
    {
      "inputs": [
        {
          "internalType": "address",
          "name": "newOwner",
          "type": "address"
        }
      ],
      "name": "transferOwnership",
      "outputs": [],
      "stateMutability": "nonpayable",
      "type": "function"
    },
    {
      "inputs": [
        {
          "internalType": "address",
          "name": "",
          "type": "address"
        }
      ],
      "name": "userOddysseyCorrectPredictions",
      "outputs": [
        {
          "internalType": "uint256",
          "name": "",
          "type": "uint256"
        }
      ],
      "stateMutability": "view",
      "type": "function"
    },
    {
      "inputs": [
        {
          "internalType": "address",
          "name": "",
          "type": "address"
        }
      ],
      "name": "userOddysseyReputation",
      "outputs": [
        {
          "internalType": "uint256",
          "name": "",
          "type": "uint256"
        }
      ],
      "stateMutability": "view",
      "type": "function"
    },
    {
      "inputs": [
        {
          "internalType": "address",
          "name": "",
          "type": "address"
        }
      ],
      "name": "userStats",
      "outputs": [
        {
          "internalType": "uint256",
          "name": "totalSlips",
          "type": "uint256"
        },
        {
          "internalType": "uint256",
          "name": "totalWins",
          "type": "uint256"
        },
        {
          "internalType": "uint256",
          "name": "bestScore",
          "type": "uint256"
        },
        {
          "internalType": "uint256",
          "name": "averageScore",
          "type": "uint256"
        },
        {
          "internalType": "uint256",
          "name": "winRate",
          "type": "uint256"
        },
        {
          "internalType": "uint256",
          "name": "currentStreak",
          "type": "uint256"
        },
        {
          "internalType": "uint256",
          "name": "bestStreak",
          "type": "uint256"
        },
        {
          "internalType": "uint256",
          "name": "lastActiveCycle",
          "type": "uint256"
        }
      ],
      "stateMutability": "view",
      "type": "function"
    }
  ],
  "bytecode": "0x60e0346200015b576200610990601f38839003908101601f19168201906001600160401b038211838310176200016057808391604095869485528339810103126200015b5780516001600160a01b03808216929091908382036200015b576020015191331562000143576000549360018060a01b03199433868216176000558651923391167f8be0079c531659141344cd1fd0a4f28419497f9722a3daafe3b4186f6b6457e0600080a360018055156200013457506706f05b59d3b200008203620001235760c052600355339060025416176002556101f48060805260a05251615f929081620001778239608051818181611eca0152614e6a015260a051818181611f9a0152615b85015260c05181818161226f01528181614eb80152615beb0152f35b835163b4fa3fb360e01b8152600490fd5b63b4fa3fb360e01b8152600490fd5b8451631e4fbdf760e01b815260006004820152602490fd5b600080fd5b634e487b7160e01b600052604160045260246000fdfe6080604052600436101561001257600080fd5b60003560e01c806302c009ef146137c6578063042db2e614610a1757806305b61d11146137a8578063072ea61c1461378a5780630832275e146136eb57806314bd96441461174c57806317ee395b146136a05780631e7e465f1461357c5780632012ef03146132c5578063210d5f5f14613234578063236e7a7a1461309b57806325a2e0ed1461306f5780632ac5df931461304357806331143cee14613000578063328621a614612ea457806335d8cbac14612e66578063361a979214612df657806344f7960914612d755780634c3b193914612d315780634f4bc86e14612cf75780635052617d146120c0578063590d0f9914612cda5780635ace068014612b715780635b2fcc2514612b455780635cfcd22d146127fe5780635f49b10614612692578063625d9ce5146126765780636587eda11461264d5780636977f546146126255780636f3fb303146125f9578063715018a6146125b257806373d225731461252c578063745be576146125005780637adbf9731461248b5780637b154140146124625780637d208cee146124285780637dc0d1d0146123ff5780637e12170d146123b6578063836602171461234e5780638a65d874146122c75780638da5cb5b1461229e5780638ea5220f146122595780639102e4301461222d578063943ca3b91461220157806399a1c282146121d55780639ad7884c146121815780639bea95ac14612150578063a0a806e7146120c5578063a1649acd146120c0578063a1ce7ecb14611fbd578063a4957efe14611f82578063af9b2bfb14611eed578063b0dbf47d14611eb2578063b162a01a14611751578063b85624031461174c578063ba1487ad14611385578063ba61ebde14610a35578063be26ed7f14610a17578063c56a00de1461099e578063c6b6850814610964578063c81b986c1461086c578063cb2a743614610840578063d2b17b5a14610814578063d80528ae146107df578063e2f800d7146106b7578063e734e60c1461068b578063eb770d0c1461062c578063eebf3be514610600578063f2fde38b1461058c578063f66eefbb14610570578063f674c43514610486578063fbb0de531461046a5763ffc9896b1461033f57600080fd5b3461046557602080600319360112610465576101409061035d6146ca565b600060e060405161036d81614519565b82815282858201528260408201528260608201528260808201528260a08201528260c0820152015260018060a01b0316600052600781526040600020600882526040600020546009835260406000205491604051906103cb82614519565b805494858352600182015490808401918252600283015460408501908152600384015490606086019182526004850154926080870193845260058601549460a0880195865260e0600760068901549860c08b01998a52015498019788526040519a8b5251908a01525160408901525160608801525160808701525160a08601525160c08501525160e0840152610100830152610120820152f35b600080fd5b3461046557600036600319011261046557602060405160078152f35b34610465576040366003190112610465576001600160401b03600435818111610465576104b790369060040161492d565b6024918235908111610465576104d190369060040161492d565b91815183510361055e5760005b825181101561055c576104f18184614aa8565b51906104fd8186614aa8565b51303b1561046557604051926301ec550560e61b845260048401528383015260008260448183305af19182156105505761053c92610541575b50614a3e565b6104de565b61054a906144ea565b85610536565b6040513d6000823e3d90fd5b005b60405163b4fa3fb360e01b8152600490fd5b3461046557600036600319011261046557602060405160648152f35b34610465576020366003190112610465576105a56146ca565b6105ad614a12565b6001600160a01b039081169081156105e7576000548260018060a01b031982161760005516600080516020615efd833981519152600080a3005b604051631e4fbdf760e01b815260006004820152602490fd5b346104655760203660031901126104655760043560005260166020526020604060002054604051908152f35b3461046557602036600319011261046557600435610648614a12565b6706f05b59d3b20000810361055e57600354811461055e57806003557f565a4bfd76b3419546eefb0f3228d436837362a9b57e0c3a03227225dfec023d600080a2005b3461046557602036600319011261046557600435600052600c6020526020604060002054604051908152f35b346104655760208060031936011261046557600435906106d5615cc4565b5081600052601681526040600020549060178152604060002054601882526040600020546019835260406000205494601a84526040600020548015156000146107d35760198552604060002054966103e89788810298818a0414901517156107bd576107526101209884600052601a885260406000205490614d03565b925b600052601c865260406000205493601d875260406000205495601e885260406000205497604051996107858b6144ce565b8a5289015260408801526060870152608086015260a085015260c084015260e08301526101008201526107bb6040518092614758565bf35b634e487b7160e01b600052601160045260246000fd5b61012096600092610754565b34610465576000366003190112610465576060601f5463ffffffff602054166021549060405192835260208301526040820152f35b3461046557602036600319011261046557600435600052601b6020526020604060002054604051908152f35b3461046557602036600319011261046557600435600052601c6020526020604060002054604051908152f35b3461046557602080600319360112610465576004356108896153f4565b506005548110156109525760005260108152604060002090604051916108ae83614497565b80546001600160a01b0316835260018181015483850152600282015460408086019190915251906108de826144b2565b600383810190600086855b600a831061093557898260ff60228b8b606086015260218101546080860152015481811660a085015260081c16151560c0830152610931604051928284938452830190614331565b0390f35b8591849161094287614c96565b81520194019101909287906108e9565b604051635a26d5fd60e11b8152600490fd5b34610465576020366003190112610465576001600160a01b036109856146ca565b1660005260086020526020604060002054604051908152f35b3461046557602080600319360112610465576109b861530d565b50600435600052600a90818152604060002091604051926109d8846144b2565b60009083855b8484106109f857604051828152806109318185018a6145dc565b600191600691610a0785614abc565b81520192019201919084906109de565b34610465576000366003190112610465576020600454604051908152f35b346104655760031960203682011261046557600435906001600160401b03821161046557366023830112156104655760405191610a71836144b2565b8261014490818301923684116104655780600401915b8483106112465760025487906001600160a01b03163303611235574261012c810191906001600160401b0390831060005b600a80821015610be357610acc8286614a4d565b5180519091906001600160401b031615610952576020820180519092906001600160401b0316856107bd57881015610bd15763ffffffff80604083015116158015610bc3575b8015610bb5575b61055e578060a08301511615908115610ba6575b5061055e57600184018085116107bd575b828110610b7857505090516001600160401b03908116915084168110610b6e575b50610b6990614a3e565b610ab8565b9250610b69610b5f565b81516001600160401b0390811690610b90838b614a4d565b5151161461055e57610ba190614a3e565b610b3e565b905060c0820151161589610b2d565b508060808301511615610b19565b508060608301511615610b12565b60405163c8b9bc9160e01b8152600490fd5b848685856107bd576001600160401b031690811115610bd157610c07600454614a3e565b918260045560001983018381116107bd57610c2190615b2a565b6001600160401b0361012b198301116107bd5782600052600a602052604060002060005b600a8110610d7357847f62eeb403dc233a7676f50cdb0fd72dae595aeb7c63039adce5caacc33254f9c060208683600052600b825260018060401b039061012b19011680604060002055600c825260001960406000205560148252604060002060ff198154169055604051610cb981614497565b4281528281018281526040820160008152610d2e6060840160008152600360808601956000875260a08101946001865260c0820196600088528c600052600f8b52604060002092518355516001830155516002820155019463ffffffff8092511663ffffffff19875416178655511684614a85565b5190610d39826145b0565b610d42826145b0565b8254905161ffff60401b19909116604092831b60ff60401b161790151560481b60ff60481b161790915551908152a2005b610d7d8184614a4d565b5190610d8981846147ee565b61121f5782516020840151604085810151606087015160808089015160a0808b01519690951b600160401b600160801b03166001600160401b03978816179390911b63ffffffff60801b1692909217921b63ffffffff60a01b169190911760c091821b63ffffffff60c01b161760e092831b6001600160e01b03191617845585015160018401805463ffffffff191663ffffffff929092169190911790558401518051918211611069578190610e426002850154614802565b601f81116111cc575b50602090601f831160011461115a5760009261114f575b50508160011b916000199060031b1c19161760028201555b6101008301518051906001600160401b038211611069578190610ea06003850154614802565b601f81116110fc575b50602090601f831160011461108a5760009261107f575b50508160011b916000199060031b1c19161760038201555b6101208301518051906001600160401b03821161106957610efc6004840154614802565b601f8111611022575b50602090601f8311600114610fac5791806101409492600594600092610fa1575b50508160011b916000199060031b1c19161760048201555b01920151918251610f4e816145b0565b610f57816145b0565b60208254940151936003851015610f8b5760ff61ff00610f869660081b1692169061ffff191617179055614a3e565b610c45565b634e487b7160e01b600052602160045260246000fd5b015190508b80610f26565b906004840160005260206000209160005b601f198516811061100a575092610140949260019260059583601f19811610610ff1575b505050811b016004820155610f3e565b015160001960f88460031b161c191690558b8080610fe1565b91926020600181928685015181550194019201610fbd565b600484016000526020600020601f840160051c810160208510611062575b601f830160051c82018110611056575050610f05565b60008155600101611040565b5080611040565b634e487b7160e01b600052604160045260246000fd5b015190508980610ec0565b9250600384016000526020600020906000935b601f19841685106110e1576001945083601f198116106110c8575b505050811b016003820155610ed8565b015160001960f88460031b161c191690558980806110b8565b8181015183556020948501946001909301929091019061109d565b909150600384016000526020600020601f840160051c810160208510611148575b90849392915b601f830160051c82018110611139575050610ea9565b60008155859450600101611123565b508061111d565b015190508980610e62565b9250600284016000526020600020906000935b601f19841685106111b1576001945083601f19811610611198575b505050811b016002820155610e7a565b015160001960f88460031b161c19169055898080611188565b8181015183556020948501946001909301929091019061116d565b909150600284016000526020600020601f840160051c810160208510611218575b90849392915b601f830160051c82018110611209575050610e4b565b600081558594506001016111f3565b50806111ed565b634e487b7160e01b600052600060045260246000fd5b6040516282b42960e81b8152600490fd5b82356001600160401b0381116104655782016101808782360301126104655760405191611272836144fd565b61127e6004830161498b565b835261128c6024830161498b565b602084015261129d60448301614a01565b60408401526112ae60648301614a01565b60608401526112bf60848301614a01565b60808401526112d060a48301614a01565b60a08401526112e160c48301614a01565b60c084015260e48201356001600160401b0381116104655761130990600436918501016149ba565b60e08401526101048201356001600160401b0381116104655761133290600436918501016149ba565b610100840152610124820135926001600160401b03841161046557611374602094936113658695600436918401016149ba565b61012084015288369101614573565b610140820152815201920191610a87565b34610465576040366003190112610465576004356001600160401b038111610465576113b590369060040161492d565b602435906001600160401b0382116104655736602383011215610465578160040135916113e183614916565b926113ef6040519485614550565b808452602084019160246102808093028201019036821161046557602401925b8184106116e557600254869086906001600160a01b0316330361123557805182510361055e57603281511161055e5760005b815181101561055c576114548183614aa8565b51906114608185614aa8565b516002546001600160a01b0316330361123557821580156116da575b6109525782600052600f80602052604060002054156109525783600052602052604060002090600360ff8184015460401c166114b7816145b0565b146116c8576001820154421115610bd15760005b600a811061166a57506000848152600a60205260408120815b600a81106116185750504210610bd15760005b600a81106115a5575050600301805460ff60401b1916600360401b1781556000838152601460205260409020805460ff191660011790555463ffffffff1661157f578161157a92600052600c602052426040600020555b80600052600d602052600080516020615edd8339815191526020604060002054604051908152a2614a3e565b611441565b620151804201918242116107bd5761157a9281600052600c60205260406000205561154e565b6115af8183614a4d565b519085600052600a6020526115c88160406000206147ee565b5082516115d4816145b0565b6115dd816145b0565b60206005830154940151906003821015610f8b576116139460ff61ff0060059460081b1692169061ffff19161717910155614a3e565b6114f7565b61189c61162582846147ee565b505460401c6001600160401b03908116919091019081116107bd576001600160401b0316838111611660575b5061165b90614a3e565b6114e4565b925061165b611651565b6116748183614a4d565b515161167f816145b0565b611688816145b0565b1580156116a2575b61055e5761169d90614a3e565b6114cb565b506116b960206116b28385614a4d565b5101614a78565b6003811015610f8b5715611690565b60405163baf3f0f760e01b8152600490fd5b50600454831161147c565b36601f85011215610465576040516116fc816144b2565b808486013681116104655791859287949294905b8082106117285750508152940193602001905061140f565b9193509193602060409161173c3686614573565b8152019201869391949294611710565b614288565b60031960203682011261046557600435906001600160401b03821161046557366023830112156104655760405191611788836144b2565b826101448201913683116104655780600401915b838310611e1c57856117ac614c73565b6004549081156116c85781600052600f6020526040600020600160ff600383015460401c166117da816145b0565b036116c8576001810154421015610bd1576003543403611e0a5782600052600a602052604060002060005b600a8110611c9b575050600554600081815260106020526040812080546001600160a01b03191633178155600181018690554260028201556021810182905560228101805461ffff191690559193905b600a8110611aa15750505061186b600554614a3e565b600555826000526011602052604060002033600052602052611891826040600020614c29565b3360005260126020526118a8826040600020614c29565b82600052600d60205260406000206118c1348254614a5e565b90556118cf34601f54614a5e565b601f55600360205463ffffffff90816118e9818316614c5e565b1663ffffffff198092161760205585600052600e6020526040600020611910348254614a5e565b905585600052600e602052600160406000200180548284611932818416614c5e565b16911617905560028401611947348254614a5e565b90558284015491611959818416614c5e565b1691161791015581600052601660205260406000206119788154614a3e565b90558160005260186020526040600020611993348254614a5e565b9055816000526011602052604060002033600052602052600160406000205414611a82575b33600052600760205260406000206119d08154614a3e565b908181558360078201556001810154906004600282015491015491604051938452602084015260408301526060820152600080516020615f3d83398151915260803392a26040519033837ff6e7d09282448c842ef23b148b6dfa2dc4b69839898341f8fb5065eb496cb0fa600080a46006546001600160a01b0316611a56575b60018055005b6013815260006020820152426040820152600080516020615e9d83398151915260603392a38080611a50565b8160005260176020526040600020611a9a8154614a3e565b90556119b8565b6001600160401b03611ab38284614a4d565b51511660ff6020611ac48486614a4d565b510151166040611ad48486614a4d565b5101519060609163ffffffff83611aeb8789614a4d565b510151169160405194611afd8661447c565b85526020850152604084015281830152611b1a8360038701614bfd565b61121f578251815460208501516001600160481b03199091166001600160401b0392831617604091821b60ff60401b16178355840151805191821161106957611b666001840154614802565b601f8111611c54575b50602090601f8311600114611bd6579282611bc69796959360029363ffffffff96600092611bcb575b50508160011b916000199060031b1c19161760018201555b019201511663ffffffff19825416179055614a3e565b611855565b015190508e80611b98565b906001840160005260206000209160005b601f1985168110611c3c57508360029363ffffffff9693600193611bc69b9a9997601f19811610611c23575b505050811b016001820155611bb0565b015160001960f88460031b161c191690558e8080611c13565b91926020600181928685015181550194019201611be7565b600184016000526020600020601f840160051c810160208510611c94575b601f830160051c82018110611c88575050611b6f565b60008155600101611c72565b5080611c72565b611ca58185614a4d565b5180516001600160401b0316611cbb83856147ee565b50546001600160401b03160361055e57611cde611cd883856147ee565b50614abc565b602082015160ff1680611da1575060408201805160208151910120611d01614ba6565b6020815191012014600014611d4357506040015163ffffffff165b63ffffffff80911691821561055e5760600151160361055e57611d3e90614a3e565b611805565b805160208151910120611d54614bc3565b6020815191012014600014611d7357506060015163ffffffff16611d1c565b5160208151910120611d83614be0565b602081519101201460001461055e576080015163ffffffff16611d1c565b60010361055e5760408201805160208151910120611dbd614b65565b6020815191012014600014611ddc575060a0015163ffffffff16611d1c565b5160208151910120611dec614b85565b602081519101201460001461055e5760c0015163ffffffff16611d1c565b60405163356680b760e01b8152600490fd5b82356001600160401b0381116104655782019060808683360301126104655760405190611e488261447c565b611e546004840161498b565b8252602483013560ff811681036104655760208301526044830135916001600160401b03831161046557611ea26064602095611e978796600436918401016149ba565b604085015201614a01565b606082015281520192019161179c565b346104655760003660031901126104655760206040517f00000000000000000000000000000000000000000000000000000000000000008152f35b34610465576020366003190112610465576004356001600160401b03811161046557611f1d90369060040161492d565b60005b815181101561055c57611f338183614aa8565b5190303b1561046557604051916302c009ef60e01b8352600483015260008260248183305af191821561055057611f6e92611f735750614a3e565b611f20565b611f7c906144ea565b83610536565b346104655760003660031901126104655760206040517f00000000000000000000000000000000000000000000000000000000000000008152f35b3461046557611fcb366147ae565b90600052600a602052604060002090600a81101561046557611fec916147ee565b5080549063ffffffff906109316120b483600184015416926120a56120136002830161483c565b6120966120226003850161483c565b9161203b60056120346004880161483c565b96016148e2565b976040519a8b9a60018060401b038083168d528260401c1660208d0152808260801c1660408d0152808260a01c1660608d01528160c01c1660808c015260e01c60a08b015260c08a01526101808060e08b01528901906142f1565b908782036101008901526142f1565b908582036101208701526142f1565b916101408401906145ba565b61473c565b3461046557602080600319360112610465576001600160a01b036120e76146ca565b1660005260128152604060002090604051808383829554938481520190600052836000209260005b8582821061213a5750505061212692500383614550565b6109316040519282849384528301906146e0565b855484526001958601958895509301920161210f565b34610465576020366003190112610465576004356000526014602052602060ff604060002054166040519015158152f35b346104655760203660031901126104655760c060ff63ffffffff6121a6600435615595565b9594969093604093929351971515885216602087015260408601526060850152166080830152151560a0820152f35b3461046557602036600319011261046557600435600052601e6020526020604060002054604051908152f35b346104655760203660031901126104655760043560005260186020526020604060002054604051908152f35b3461046557602036600319011261046557600435600052601d6020526020604060002054604051908152f35b34610465576000366003190112610465576040517f00000000000000000000000000000000000000000000000000000000000000006001600160a01b03168152602090f35b34610465576000366003190112610465576000546040516001600160a01b039091168152602090f35b34610465576020366003190112610465576001600160a01b036122e86146ca565b1660005260076020526101006040600020805490600181015490600281015460038201546004830154906005840154926007600686015495015495604051978852602088015260408701526060860152608085015260a084015260c083015260e0820152f35b346104655761235c366147ae565b906000526013602052604060002060058210156104655760809161237f916147c4565b5060018060a01b038154169060018101549060ff600360028301549201541691604051938452602084015260408301526060820152f35b3461046557602036600319011261046557600435600052600e602052606060406000206001815491015460405191825263ffffffff90818116602084015260201c166040820152f35b34610465576000366003190112610465576002546040516001600160a01b039091168152602090f35b34610465576020366003190112610465576001600160a01b036124496146ca565b1660005260126020526020604060002054604051908152f35b3461046557612470366147ae565b612478614c73565b60055481101561095257611a5091614d53565b34610465576020366003190112610465576124a46146ca565b6124ac614a12565b6001600160a01b0390811690811561055e57600254908116821461055e576001600160a01b03191681176002557f3f32684a32a11dabdbb8c0177de80aa3ae36a004d75210335b49e544e48cd0aa600080a2005b3461046557602036600319011261046557600435600052600d6020526020604060002054604051908152f35b34610465576040366003190112610465576125456146ca565b6024356000526020906011825260406000209060018060a01b03166000528152604060002090604051808383829554938481520190600052836000209260005b8582821061259c5750505061212692500383614550565b8554845260019586019588955093019201612585565b34610465576000366003190112610465576125cb614a12565b600080546001600160a01b0319811682556001600160a01b0316600080516020615efd8339815191528280a3005b346104655760203660031901126104655760043560005260176020526020604060002054604051908152f35b34610465576020366003190112610465576020612643600435615c89565b6040519015158152f35b34610465576000366003190112610465576006546040516001600160a01b039091168152602090f35b3461046557600036600319011261046557602060405160058152f35b34610465576126a0366142a4565b90600a80831161055e576126b383614916565b926126c16040519485614550565b808452601f196126d082614916565b0160005b8181106127e75750506004549260005b82811061274a576040805160208082528851818301819052600093600582901b8401810192808c01929185015b82871061271e5785850386f35b90919293828061273a600193603f198a820301865288516145dc565b9601920196019592919092612711565b84612756828585615686565b351180156127d4575b6109525761276e818484615686565b356000526020848152604060002060405191612789836144b2565b6000835b8882106127b75750505050906127b2916127a78289614aa8565b526105368188614aa8565b6126e4565b6006836001926127c687614abc565b81520194019101909261278d565b506127e0818484615686565b351561275f565b6020906127f261530d565b828289010152016126d4565b3461046557602036600319011261046557600060c060405161281f81614497565b8281528260208201528260408201528260608201528260808201528260a0820152015261284a61530d565b506128536153a5565b5061285c615cc4565b50600454600435118015612b3b575b61095257600435600052600f602052604060002060ff60036040519261289084614497565b805484526001810154602085015260028101546040850152015463ffffffff8116606084015263ffffffff8160201c1660808401526128d3828260401c166145b0565b818160401c1660a084015260481c16151560c0820152600435600052600a60205260406000209060405191612907836144b2565b6000835b600a8210612b1d57505050600435600052601360205260406000206040519061293382614461565b6000825b60058210612ad2575050506004356000526016602052604060002054926017602052604060002054936018602052604060002054601960205260406000205495601a60205260406000205493841515600014612abb576019602052604060002054916103e89383858102048514841517156107bd5760c099610931976129d6612aa496612ab098600435600052601a6020526040600020549102614d03565b905b600435600052601c60205260406000205492601d60205260406000205494601e602052604060002054966040519b612a0f8d6144ce565b8c5260208c015260408b015260608a0152608089015260a08801528a87015260e086015261010085015260405197878998518952602081015160208a0152604081015160408a015263ffffffff60608201511660608a015263ffffffff60808201511660808a015260a0810151612a85816145b0565b60a08a01520151151560c08801526104a08060e08901528701906145dc565b93610100860190614231565b610380840190614758565b612aa491612ab09360c099610931976000906129d8565b60046020600192604051612ae58161447c565b848060a01b03875416815284870154838201526002870154604082015260ff6003880154166060820152815201930191019091612937565b60066020600192612b2d86614abc565b81520193019101909161290b565b506004351561286b565b346104655760203660031901126104655760043560005260196020526020604060002054604051908152f35b3461046557602080600319360112610465576001600160a01b039081612b956146ca565b166000526012815260406000206040519081838254918281520191600052836000209060005b818110612cc65750505081612bd1910382614550565b612bdb8151615473565b926000925b8251841015612cb757612bf38484614aa8565b5160005260108152604060002093604051612c0d81614497565b838654168152600195868101548483015260028101546040830152604051612c34816144b2565b60038281019890600090835b600a8310612c9c5750505050612c94949596975090602291606084015260218101546080840152015460ff9081811660a084015260081c16151560c0820152612c898288614aa8565b526105368187614aa8565b929190612be0565b81898592612ca98f614c96565b8152019c019201919a612c40565b60405180610931878683614714565b825484529285019260019283019201612bbb565b346104655760003660031901126104655760206040516103e88152f35b34610465576020366003190112610465576001600160a01b03612d186146ca565b1660005260096020526020604060002054604051908152f35b346104655760003660031901126104655760a060ff63ffffffff612d536154c3565b9395909260405196875216602086015260408501526060840152166080820152f35b3461046557602036600319011261046557600435600052600f60205260e0604060002060ff81549160018101546003600283015492015491838360401c16916040519586526020860152604085015263ffffffff80831660608601528260201c166080850152612de4816145b0565b60a084015260481c16151560c0820152f35b3461046557602036600319011261046557600435600052601060205260c0604060002060ff60018060a01b038254169160018101549060028101546022602183015492015492604051958652602086015260408501526060840152818116608084015260081c16151560a0820152f35b3461046557606036600319011261046557604060ff612e93612e866146ca565b6044359060243590615d09565b835191151582529091166020820152f35b3461046557604036600319011261046557612ebd6146ca565b602435600052602060118152604060002060018060a01b03809316600052815260406000206040519081838254918281520191600052836000209060005b818110612fec5750505081612f11910382614550565b612f1b8151615473565b926000925b8251841015612cb757612f338484614aa8565b5160005260108152604060002093604051612f4d81614497565b838654168152600195868101548483015260028101546040830152604051612f74816144b2565b60038281019890600090835b600a8310612fd15750505050612fc9949596975090602291606084015260218101546080840152015460ff9081811660a084015260081c16151560c0820152612c898288614aa8565b929190612f20565b81898592612fde8f614c96565b8152019c019201919a612f80565b825484529285019260019283019201612efb565b34610465576020366003190112610465576130196146ca565b613021614a12565b600680546001600160a01b0319166001600160a01b0392909216919091179055005b3461046557602036600319011261046557600435600052600b6020526020604060002054604051908152f35b3461046557602036600319011261046557600435600052601a6020526020604060002054604051908152f35b34610465576000366003190112610465576000806000806000809160009360045495602063ffffffff81541698601f549160648a1160001461322e5760645b6001905b8082111561315457505084613128575b996101409a6040519a8b528a015260408901526060880152608087015260a086015260c085015260e0840152610100830152610120820152f35b95506103e8998a84029a848c0414841517156107bd5761314b856101409c614d03565b96909a506130ee565b90969594926131a461318f61317a6131b9938b6000526017875260406000205490614a5e565b958a6000526019865260406000205490614a5e565b9689600052601a855260406000205490614a5e565b9688600052601e845260406000205490614a5e565b9680600052601c83526040600020548a8111613226575b508a1580156131ff575b6131ee575b6131e890614a3e565b906130de565b601d83526040600020549a506131df565b50601d83526040600020548b811515918261321c575b50506131da565b1090508b8f613215565b99508d6131d0565b896130da565b34610465576020806003193601126104655760043561325161530d565b50600454811180156132bd575b61095257600052600a908181526040600020916040519261327e846144b2565b60009083855b84841061329e57604051828152806109318185018a6145dc565b6001916006916132ad85614abc565b8152019201920191908490613284565b50801561325e565b34610465576102a0366003190112610465576004353660431215610465576040516132ef816144b2565b6102a481368211610465576024905b8282106135625750506002546001600160a01b0316330390506112355781158015613557575b6109525781600052602090600f8252604060002054156109525782600052600f82526040600020906003908183019260ff908382865460401c16613367816145b0565b146116c85760010154421115610bd15760005b600a8110613502575085600052600a808652604060002060009060005b8381106134bb5750504210610bd15760005b81811061345157855460ff60401b1916600360401b17865560008881526014885260409020805460ff1916600117905585548890889063ffffffff1661342057600080516020615edd8339815191529082600052600c8152426040600020555b82600052600d8152604060002054604051908152a2005b620151804201908142116107bd57600080516020615edd8339815191529183600052600c8252604060002055613409565b61345b8185614a4d565b51908860005282885260056134748260406000206147ee565b50018251613481816145b0565b61348a816145b0565b8982549401519388851015610f8b578661ff006134b69660081b1692169061ffff191617179055614a3e565b6133a9565b6134c581836147ee565b50546001600160401b039060401c811661189c018181116107bd57168381116134f8575b506134f390614a3e565b613397565b92506134f36134e9565b61350c8184614a4d565b5151613517816145b0565b613520816145b0565b15801561353a575b61055e5761353590614a3e565b61337a565b50613549866116b28386614a4d565b84811015610f8b5715613528565b506004548211613324565b60206040916135713685614573565b8152019101906132fe565b346104655761358a366142a4565b906032821161055e5761359c82615473565b91600091600554925b8281106135c2576040516020808252819061093190820188614405565b836135ce828585615686565b351015610952576135e0818484615686565b356000526020601081526040600020604051916135fc83614497565b81546001600160a01b03168352600182810154828501526002830154604080860191909152519161362c836144b2565b60009060039085820190855b600a851061368557505050505050829160229160606136809695015260218101546080840152015460ff9081811660a084015260081c16151560c0820152612c898288614aa8565b6135a5565b8382879261369286614c96565b815201930194019391613638565b346104655760403660031901126104655760243560ff8116809103610465576004356000526015602052604060002090600052602052602060ff604060002054166040519015158152f35b3461046557602080600319360112610465576137056153a5565b50600435600052601381526040600020906040519061372382614461565b6000825b6005821061374057610280846107bb6040518092614231565b6004836001926040516137528161447c565b848060a01b03895416815284890154838201526002890154604082015260ff60038a0154166060820152815201950191019093613727565b34610465576000366003190112610465576020600354604051908152f35b34610465576000366003190112610465576020600554604051908152f35b34610465576020366003190112610465576137df614c73565b6005546004351015610952576004356000526010602052604060002060018101549081600052600f602052604060002054156109525781600052600f602052600360ff816040600020015460401c16613837816145b0565b036116c85760228101549060ff8260081c166116c8576000916103e89084600052600a602052604060002060005b600a811061401057505061ffff191660ff8416908117610100176022840155839015614004576138ac915b602184018190558354600435906001600160a01b0316876156f5565b60018060a01b0381541680600052600760205260406000206000856000526011602052604060002083600052602052604060002080549081613bb0575b505050608081600080516020615f3d8339815191529254906001810154906004600282015491015491604051938452602084015260408301526060820152a282600052600e60205282604060002092600f60205260016040600020940192613980600363ffffffff9661396a61396489895460201c16614c5e565b88614a85565b0161397a87825460201c16614c5e565b90614a85565b82600052601a60205260406000206139988154614a3e565b905582600052601960205260406000206139b660ff84168254614a5e565b9055602181015480613b47575b50600760ff8316101580613b28575b6006546001600160a01b0316613a11575b5050505054908082169160201c16146139fc5760018055005b600052600c6020524260406000205580611a50565b613af0575b600860ff83161015613ab8575b600960ff83161015613a80575b600a60ff831614613a42575b806139e3565b54604080516017815260ff909316602084015242908301526001600160a01b031690600080516020615e9d83398151915290606090a3828480613a3c565b8260018060a01b03825416600080516020615e9d83398151915260606040516016815260ff87166020820152426040820152a3613a30565b8260018060a01b03825416600080516020615e9d83398151915260606040516015815260ff87166020820152426040820152a3613a23565b8260018060a01b03825416600080516020615e9d83398151915260606040516014815260ff87166020820152426040820152a3613a16565b83600052601e6020526040600020613b408154614a3e565b90556139d2565b83600052601c60205280604060002080548015908115613ba6575b50613b9e575b5050601d602052604060002080548015908115613b94575b50613b8c575b506139c3565b558680613b86565b9050821089613b80565b558088613b68565b905082118a613b62565b816000198101116107bd57613bc9916000190190614c11565b90549060031b1c600052601060205260406000209083600760ff6022850154161015600014613ff3575060018301613c018154614a3e565b905560ff602283015416846000526009602052613c246040600020918254614a5e565b9055600360ff6022840154166008811015613fea575b6009811015613fe1575b600a14613fd9575b6000805b600560ff821610613f99575b50613f87575b60218301546002850180548211613f72575b5050906007840154926001840184116107bd5785936001018903613f665760058501613ca08154614a3e565b80915560068601548111613f48575b505b8360005260086020526040600020613cca848254614a5e565b90556006546001600160a01b031680613e0a575b50845480613d3c575b506060600080516020615f3d833981519152959360809593604060ff6022600080516020615ebd8339815191529601541691868152600860205220549060405192835260208301526040820152a291876138e9565b9091929350600385015481600019810111613df65781613d72613d67613d7793600019840190614cf0565b602186015490614a5e565b614d03565b60038601556001850154612710908082810204821481151715613de25794600080516020615f3d8339815191529694604060ff60228b97613dcd600080516020615ebd8339815191529860609860809d02614d03565b60048b01559650505050939550939550613ce7565b634e487b7160e01b85526011600452602485fd5b634e487b7160e01b84526011600452602484fd5b602182015490945060098110613f13575060175b60228201546040516e027b2323cb9b9b2bc9031bcb1b6329608d1b6020820152602f81018c90526201016960ed1b604f82015260f89190911b6001600160f81b0319166052820152670818dbdc9c9958dd60c21b6053820152603b8152946001600160401b0360608701908111908711176110695760608601604052803b15610465576304f5ba7d60e51b606087015260648601889052601a821015610f8b576000916084870152606060a48701526060860190605f1987613ee360c48201826142f1565b0301908360608901915af193841561055057869415613cde57613f0a9192506060016144ea565b60009089613cde565b60088110613f2357506016613e1e565b60078110613f3357506015613e1e565b600511613f41576014613e1e565b6013613e1e565b60068601559192506003830183116107bd5760038593019189613caf565b60016005860155613cb1565b556002810181116107bd576002018880613c74565b600a810181116107bd57600a01613c62565b89600052601360205286613fb18260406000206147c4565b50546001600160a01b031614613fcf57613fca90614cdf565b613c50565b5050600189613c5c565b506008613c4c565b60069150613c44565b60049150613c3a565b919060006005850155600191613cb1565b6138ac91506000613890565b6140266140208260038801614bfd565b50614c96565b614033611cd883856147ee565b60009060ff6020840151161560001461418457604083019081516020815191012061405c614ba6565b60208151910120149182614160575b8215614117575b82156140ca575b50506140c2575b614094575b5061408f90614a3e565b613865565b956140ba61408f929563ffffffff60606140b06103e895614cdf565b9a01511690614cf0565b049390614085565b506001614080565b90915051602081519101206140dd614be0565b602081519101201490816140f4575b508a80614079565b60039150610140015151614107816145b0565b614110816145b0565b148a6140ec565b809250516020815191012061412a614bc3565b60208151910120148061413e575b91614072565b50600261014082015151614151816145b0565b61415a816145b0565b14614138565b9150600161014082015151614174816145b0565b61417d816145b0565b149161406b565b604083015160208151910120614198614b65565b6020815191012014908161420c575b81156141bc575b501561408057506001614080565b90506040830151602081519101206141d2614b85565b602081519101201490816141e8575b508a6141ae565b61014001516141fa9150602001614a78565b6003811015610f8b576002148a6141e1565b905061421f602061014083015101614a78565b6003811015610f8b57600114906141a7565b6000915b6005831061424257505050565b815180516001600160a01b03168252602080820151818401526040808301519084015260609182015160ff16918301919091526001939093019290910190608001614235565b3461046557600036600319011261046557602060405160328152f35b906020600319830112610465576001600160401b03916004359083821161046557806023830112156104655781600401359384116104655760248460051b83010111610465576024019190565b919082519283825260005b84811061431d575050826000602080949584010152601f8019910116010190565b6020818301810151848301820152016142fc565b80516001600160a01b03168252602080820151818401526040808301518185015260608084015160e0828701819052610220870196959491936000918701905b600a83106143a45750505050505060c081608082930151608085015260ff60a08201511660a08501520151151591015290565b909192939497848060019260df198b82030186528b5190848060401b03825116815260ff8383015116838201528963ffffffff816143ee898601516080808c8801528601906142f1565b940151169101529a01930193019194939290614371565b908082519081815260208091019281808460051b8301019501936000915b8483106144335750505050505090565b9091929394958480614451600193601f198682030187528a51614331565b9801930193019194939290614423565b60a081019081106001600160401b0382111761106957604052565b608081019081106001600160401b0382111761106957604052565b60e081019081106001600160401b0382111761106957604052565b61014081019081106001600160401b0382111761106957604052565b61012081019081106001600160401b0382111761106957604052565b6001600160401b03811161106957604052565b61016081019081106001600160401b0382111761106957604052565b61010081019081106001600160401b0382111761106957604052565b604081019081106001600160401b0382111761106957604052565b601f909101601f19168101906001600160401b0382119082101761106957604052565b91908260409103126104655760405161458b81614535565b8092803590600482101561046557602091835201359060038210156104655760200152565b60041115610f8b57565b60209080516145c8816145b0565b83520151906003821015610f8b5760200152565b61014080830192906000825b600a82106145f857505050505090565b909192939480856001920383528651828060401b03908181511683526146bb602093849384840151168482015263ffffffff60408181860151169083015260608181860151169083015260808181860151169083015260a08181860151169083015260c09081850151169082015288806146b061469c61468860e0808901519061018080918901528701906142f1565b6101008089015190878303908801526142f1565b6101208088015190868303908701526142f1565b9401519101906145ba565b970192019201909392916145e8565b600435906001600160a01b038216820361046557565b90815180825260208080930193019160005b828110614700575050505090565b8351855293810193928101926001016146f2565b909161472b614739936040845260408401906146e0565b916020818403910152614405565b90565b34610465576000366003190112610465576020604051600a8152f35b805182526020810151602083015260408101516040830152606081015160608301526080810151608083015260a081015160a083015260c081015160c083015260e081015160e083015261010080910151910152565b6040906003190112610465576004359060243590565b9060058110156147d85760021b0190600090565b634e487b7160e01b600052603260045260246000fd5b90600a8110156147d8576006020190600090565b90600182811c92168015614832575b602083101461481c57565b634e487b7160e01b600052602260045260246000fd5b91607f1691614811565b906040519182600082549261485084614802565b9081845260019485811690816000146148bf575060011461487c575b505061487a92500383614550565b565b9093915060005260209081600020936000915b8183106148a757505061487a9350820101388061486c565b8554888401850152948501948794509183019161488f565b91505061487a94506020925060ff191682840152151560051b820101388061486c565b906040516148ef81614535565b60ff819354818116614900816145b0565b835260081c16906003821015610f8b5760200152565b6001600160401b0381116110695760051b60200190565b81601f820112156104655780359161494483614916565b926149526040519485614550565b808452602092838086019260051b820101928311610465578301905b82821061497c575050505090565b8135815290830190830161496e565b35906001600160401b038216820361046557565b6001600160401b03811161106957601f01601f191660200190565b81601f82011215610465578035906149d18261499f565b926149df6040519485614550565b8284526020838301011161046557816000926020809301838601378301015290565b359063ffffffff8216820361046557565b6000546001600160a01b03163303614a2657565b60405163118cdaa760e01b8152336004820152602490fd5b60001981146107bd5760010190565b90600a8110156147d85760051b0190565b919082018092116107bd57565b919082039182116107bd57565b516003811015610f8b5790565b805463ffffffff60201b191660209290921b63ffffffff60201b16919091179055565b80518210156147d85760209160051b010190565b90604051614ac9816144fd565b610140614b6060058395805460018060401b0380821687528160401c16602087015263ffffffff90818160801c166040880152818160a01c166060880152818160c01c16608088015260e01c60a087015260018201541660c0860152614b316002820161483c565b60e0860152614b426003820161483c565b610100860152614b546004820161483c565b610120860152016148e2565b910152565b60405190614b7282614535565b600482526327bb32b960e11b6020830152565b60405190614b9282614535565b60058252642ab73232b960d91b6020830152565b60405190614bb382614535565b60018252603160f81b6020830152565b60405190614bd082614535565b60018252600b60fb1b6020830152565b60405190614bed82614535565b60018252601960f91b6020830152565b90600a8110156147d8576003020190600090565b80548210156147d85760005260206000200190600090565b8054600160401b81101561106957614c4691600182018155614c11565b819291549060031b91821b91600019901b1916179055565b63ffffffff8091169081146107bd5760010190565b600260015414614c84576002600155565b604051633ee5aeb560e01b8152600490fd5b90604051614ca38161447c565b606063ffffffff6002839560ff815460018060401b038116875260401c166020860152614cd26001820161483c565b6040860152015416910152565b60ff1660ff81146107bd5760010190565b818102929181159184041417156107bd57565b8115614d0d570490565b634e487b7160e01b600052601260045260246000fd5b3d15614d4e573d90614d348261499f565b91614d426040519384614550565b82523d6000602084013e565b606090565b9081151580615301575b156152c957600090828252602091600f835260ff90604092600383818685200154861c16614d8a816145b0565b036152b857858252600c85528382205442106152a75780825260108552838220805490936001600160a01b039390918416330361526557600194888682015403615216576022015460081c8216156151d2578781526013875285812082908290835b600586821610615188575b505015615144578281169260058410156151115789835260158952878320848452895287832054166150c157888252600d8852868220549081156150835790614e3f91615a9e565b948882526015885286822083835288528682209060ff19825416179055841561505d57612710614e8f7f000000000000000000000000000000000000000000000000000000000000000087614cf0565b04614e9a8187614a6b565b95861561500f57614eab8783614a5e565b03614fd0578180808093887f0000000000000000000000000000000000000000000000000000000000000000165af1614ee2614d23565b5015614f925780808087335af1614ef7614d23565b5015614f56578451908152838682015286600080516020615f1d833981519152863393a460065416614f2a575b50505050565b815192601884528301524290820152600080516020615e9d83398151915260603392a338808080614f24565b845162461bcd60e51b8152600481018790526015602482015274141c9a5e99481d1c985b9cd9995c8819985a5b1959605a1b6044820152606490fd5b855162461bcd60e51b815260048101889052601760248201527611195d88199959481d1c985b9cd9995c8819985a5b1959604a1b6044820152606490fd5b865162461bcd60e51b815260048101899052601860248201527708ccaca40c6c2d8c6ead8c2e8d2dedc40dad2e6dac2e8c6d60431b6044820152606490fd5b875162461bcd60e51b8152600481018a9052602160248201527f55736572207368617265206d7573742062652067726561746572207468616e206044820152600360fc1b6064820152608490fd5b919694600080516020615f1d8339815191529450809350959095519586528501523393a4565b875162461bcd60e51b8152600481018a905260176024820152764e6f207072697a6520706f6f6c20617661696c61626c6560481b6044820152606490fd5b865162461bcd60e51b815260048101899052602360248201527f5072697a6520616c726561647920636c61696d656420666f7220746869732072604482015262616e6b60e81b6064820152608490fd5b875162461bcd60e51b8152600481018a9052600c60248201526b496e76616c69642072616e6b60a01b6044820152606490fd5b865162461bcd60e51b815260048101899052601f60248201527f506c61796572206e6f7420666f756e64206f6e206c6561646572626f617264006044820152606490fd5b61519281836147c4565b505488163314806151bc575b6151b0576151ab90614cdf565b614dec565b92505050853880614df7565b5086896151c983856147c4565b5001541461519e565b855162461bcd60e51b815260048101889052601f60248201527f536c697020686173206e6f74206265656e206576616c756174656420796574006044820152606490fd5b865162461bcd60e51b815260048101899052602260248201527f536c697020646f6573206e6f742062656c6f6e6720746f2074686973206379636044820152616c6560f01b6064820152608490fd5b855162461bcd60e51b815260048101889052601b60248201527a536c697020646f6573206e6f742062656c6f6e6720746f20796f7560281b6044820152606490fd5b835163c8b9bc9160e01b8152600490fd5b835163baf3f0f760e01b8152600490fd5b60405162461bcd60e51b815260206004820152601060248201526f125b9d985b1a590818de58db1948125160821b6044820152606490fd5b50600454821115614d5d565b604080519161531b836144b2565b829160005b6101408082101561539d5782516020929161533a826144fd565b600082528390600082840152600086840152606060008185015260006080850152600060a0850152600060c08501528060e085015280610100850152610120840152600086519261538a84614535565b8184528301528201528187015201615320565b505050909150565b60409081516153b381614461565b809260005b60a081106153c557505050565b60209082516153d38161447c565b600081526000838201526000848201526000606082015281850152016153b8565b60409081519161540383614497565b82600091828252602083818401528382840152815191615422836144b2565b845b6101408110615449575050509060c09160608201528260808201528260a08201520152565b829082516154568161447c565b878152878382015287606080868401528201528186015201615424565b9061547d82614916565b61548a6040519182614550565b828152809261549b601f1991614916565b019060005b8281106154ac57505050565b6020906154b76153f4565b828285010152016154a0565b600454806154dd5750600090600090600090600090600090565b80600052600f602052604060002090604051906154f982614497565b8254825260018301549360208301948552600360028501549460408501958652015492615574606082019563ffffffff928387168852838760201c16608082015260c060ff808960401c169860a0840199615553816145b0565b8a5260481c1615159101525184600052600d60205260406000205490614a5e565b935195615580876145b0565b615589876145b0565b51945116919493929190565b8015801561567b575b6156665780600052600f602052604060002091604051906155be82614497565b8354825260018401549360208301948552600360028201549160408501928352015491606084019461563c63ffffffff918286168852828660201c16608088015260ff8660401c169460a0880195615615816145b0565b865260ff60c089019760481c16151587525190600052600d60205260406000205490614a5e565b9451151592519661564c886145b0565b615655886145b0565b519551169251151591959493929190565b50600090600090600090600090600090600090565b50600454811161559e565b91908110156147d85760051b0190565b9061121f578181036156a6575050565b60038060ff9260018060a01b0385541660018060a01b03198254161781556001850154600182015560028501546002820155019201541660ff19825416179055565b80156107bd576000190190565b90949392919260ff8091169060078210615a95576005968754861015615a8b5760009486865260106020526040968787209060019187838201541490811591615a73575b50615a6657868852601360205288882093600019895b8d8110615a32575b5060018101615931575b506000199b805b61588f575b5060018c01615785575b505050505050505050509050565b60049b8c5b81811161584457506157c8908b51966157a28861447c565b6001600160a01b039384168852602088019485528c880196875260608801998a526147c4565b959095615832575185546001600160a01b0319169116178455519083015551600282015591516003928301805460ff191692909116919091179055908252600f60205291902001805460ff60481b1916600160481b17905590508038808080808080808080615777565b634e487b7160e01b8a52898d5260248afd5b600019810181811161587c5790615872615861615877938a6147c4565b5061586c838b6147c4565b90615696565b6156e8565b61578a565b634e487b7160e01b8c5260118f5260248cfd5b9b6000198d01908d821161591d576158a782886147c4565b5080546001600160a01b03161561591157600281015490898289119283156158ec575b5050506000146158e557506158df909c6156e8565b80615768565b9c5061576d565b891492509082615901575b50503889816158ca565b60030154168a11905088386158f7565b50506158df909c6156e8565b634e487b7160e01b8b52601160045260248bfd5b61593b81876147c4565b5060028101549088828811928315615a0d575b5050506000146159fe57835b6159b2575b508860608b5161596e8161447c565b828152602081018390528c810183905201526010850180546001600160a01b0319169055601185018990556012850189905560138501805460ff1916905538615761565b6004808210156159f857848201908183116159e5575084916159da6158616159df938a6147c4565b614a3e565b9061595a565b634e487b7160e01b8c526011905260248bfd5b5061595f565b50505050505050505050509050565b881492509082615a22575b505038888161594e565b6003015416891190508738615a18565b615a3c81886147c4565b50546001600160a01b03848116911614615a5e57615a5990614a3e565b61574f565b905038615757565b5050505050505050509050565b546001600160a01b0386811691161415905038615739565b5050505050509050565b50505050509050565b60009060ff1680615abf575050615abb61271091610fa090614cf0565b0490565b60018103615ad9575050615abb61271091610bb890614cf0565b60028103615af3575050615abb612710916107d090614cf0565b60038103615b0d575050615abb612710916101f490614cf0565b600403615b255750615abb612710916101f490614cf0565b905090565b8015615c865760008181526013602052604080822080546001600160a01b039493929190851615908115615c73575b50615b645750505050565b600d602052808220549182615b7a575b50614f24565b615bb2612710615baa7f000000000000000000000000000000000000000000000000000000000000000086614cf0565b048094614a6b565b92848252600d60205281838120556001850195868611615c5f578280928192898352600d602052868320615be7898254614a5e565b90557f0000000000000000000000000000000000000000000000000000000000000000165af1615c15614d23565b5015615c4f577fd02ee9eafb934e2ffd95384478ef177c9932fd0d6cb1813747b8eefdf55d8b199160209151908152a33880808080615b74565b516312171d8360e31b8152600490fd5b634e487b7160e01b83526011600452602483fd5b60079150600360ff910154161038615b59565b50565b60045481118015615cbc575b615cb6576000908152600a60205260409020546001600160401b0316151590565b50600090565b508015615c95565b60405190615cd1826144ce565b816101006000918281528260208201528260408201528260608201528260808201528260a08201528260c08201528260e08201520152565b9291909283158015615e91575b615e85576000938085526020600f815260ff9160409160038481858b200154851c16615d41816145b0565b03615e7b57818852600c8152828820544210615e7b576005918254871015615e705786895260108252838920805490976001600160a01b0397881697918216889003615e5557600198838a82015403615e62576022015460081c871615615e5557828b5260138452858b208b9a99989092895b615dca575b50999a508a99505050505050505050565b888d1687811015615e4f578d848c8585615de4858b6147c4565b505416149283615e35575b505050615e0b5750615e038a9b9c9d614cdf565b9c9b9a615db4565b9650505050508795969752601581528285209185525282205416615e2e57509190565b9250508190565b615e4291929350886147c4565b50015414848f8d90615def565b50615db9565b5050505050505050508190565b505050505050505050508190565b505050505050508190565b5050505050508190565b50509050600090600090565b506004548411615d1656fed43c77f044c1f8bc6adf6676b4ce17edda35ef8ee63f154568826c0ecb3c6bf39c7b6f99cba4ae2b8837d2a4ff724e1273427755c6f2e43bac3108bccb98b66add45cfbd9f2d20e6b7b6f5fa3148363d48017feae0c98de41ec4435a5aa754468be0079c531659141344cd1fd0a4f28419497f9722a3daafe3b4186f6b6457e0785817d289e9ce1881ef42379ab98f4f7513f0d3bb1f9a9e060afb4cd2b67eabdbc55064e49993e4c979488990287b80a393512ce56bbe0cb3834df880cf97c7a264697066735822122060a5255df67bb23d01280cc1925861ce5748e4e59f1ff585e058d0013e467f8e64736f6c63430008140033",
  "linkReferences": {},
  "deployedLinkReferences": {}
}