{
  "_format": "hh-sol-artifact-1",
  "contractName": "OptimisticOracle",
  "sourceName": "contracts/OptimisticOracle.sol",
  "abi": [
    {
      "inputs": [
        {
          "internalType": "address",
          "name": "_bondToken",
          "type": "address"
        },
        {
          "internalType": "address",
          "name": "_bitredictPool",
          "type": "address"
        }
      ],
      "stateMutability": "nonpayable",
      "type": "constructor"
    },
    {
      "inputs": [
        {
          "internalType": "address",
          "name": "owner",
          "type": "address"
        }
      ],
      "name": "OwnableInvalidOwner",
      "type": "error"
    },
    {
      "inputs": [
        {
          "internalType": "address",
          "name": "account",
          "type": "address"
        }
      ],
      "name": "OwnableUnauthorizedAccount",
      "type": "error"
    },
    {
      "anonymous": false,
      "inputs": [
        {
          "indexed": true,
          "internalType": "bytes32",
          "name": "marketId",
          "type": "bytes32"
        },
        {
          "indexed": true,
          "internalType": "address",
          "name": "claimer",
          "type": "address"
        },
        {
          "indexed": false,
          "internalType": "uint256",
          "name": "amount",
          "type": "uint256"
        }
      ],
      "name": "BondClaimed",
      "type": "event"
    },
    {
      "anonymous": false,
      "inputs": [
        {
          "indexed": true,
          "internalType": "bytes32",
          "name": "marketId",
          "type": "bytes32"
        },
        {
          "indexed": true,
          "internalType": "uint256",
          "name": "poolId",
          "type": "uint256"
        },
        {
          "indexed": false,
          "internalType": "string",
          "name": "question",
          "type": "string"
        },
        {
          "indexed": false,
          "internalType": "string",
          "name": "category",
          "type": "string"
        },
        {
          "indexed": false,
          "internalType": "uint256",
          "name": "eventEndTime",
          "type": "uint256"
        }
      ],
      "name": "MarketCreated",
      "type": "event"
    },
    {
      "anonymous": false,
      "inputs": [
        {
          "indexed": true,
          "internalType": "bytes32",
          "name": "marketId",
          "type": "bytes32"
        },
        {
          "indexed": false,
          "internalType": "bytes32",
          "name": "finalOutcome",
          "type": "bytes32"
        },
        {
          "indexed": false,
          "internalType": "address",
          "name": "winner",
          "type": "address"
        },
        {
          "indexed": false,
          "internalType": "uint256",
          "name": "reward",
          "type": "uint256"
        }
      ],
      "name": "MarketResolved",
      "type": "event"
    },
    {
      "anonymous": false,
      "inputs": [
        {
          "indexed": true,
          "internalType": "bytes32",
          "name": "marketId",
          "type": "bytes32"
        },
        {
          "indexed": true,
          "internalType": "address",
          "name": "disputer",
          "type": "address"
        },
        {
          "indexed": false,
          "internalType": "uint256",
          "name": "bond",
          "type": "uint256"
        }
      ],
      "name": "OutcomeDisputed",
      "type": "event"
    },
    {
      "anonymous": false,
      "inputs": [
        {
          "indexed": true,
          "internalType": "bytes32",
          "name": "marketId",
          "type": "bytes32"
        },
        {
          "indexed": true,
          "internalType": "address",
          "name": "proposer",
          "type": "address"
        },
        {
          "indexed": false,
          "internalType": "bytes32",
          "name": "outcome",
          "type": "bytes32"
        },
        {
          "indexed": false,
          "internalType": "uint256",
          "name": "bond",
          "type": "uint256"
        }
      ],
      "name": "OutcomeProposed",
      "type": "event"
    },
    {
      "anonymous": false,
      "inputs": [
        {
          "indexed": true,
          "internalType": "address",
          "name": "previousOwner",
          "type": "address"
        },
        {
          "indexed": true,
          "internalType": "address",
          "name": "newOwner",
          "type": "address"
        }
      ],
      "name": "OwnershipTransferred",
      "type": "event"
    },
    {
      "anonymous": false,
      "inputs": [
        {
          "indexed": true,
          "internalType": "address",
          "name": "user",
          "type": "address"
        },
        {
          "indexed": false,
          "internalType": "string",
          "name": "action",
          "type": "string"
        },
        {
          "indexed": false,
          "internalType": "int256",
          "name": "reputationDelta",
          "type": "int256"
        },
        {
          "indexed": true,
          "internalType": "bytes32",
          "name": "marketId",
          "type": "bytes32"
        },
        {
          "indexed": false,
          "internalType": "uint256",
          "name": "timestamp",
          "type": "uint256"
        }
      ],
      "name": "ReputationAction",
      "type": "event"
    },
    {
      "anonymous": false,
      "inputs": [
        {
          "indexed": true,
          "internalType": "address",
          "name": "user",
          "type": "address"
        },
        {
          "indexed": false,
          "internalType": "uint256",
          "name": "oldReputation",
          "type": "uint256"
        },
        {
          "indexed": false,
          "internalType": "uint256",
          "name": "newReputation",
          "type": "uint256"
        }
      ],
      "name": "ReputationUpdated",
      "type": "event"
    },
    {
      "anonymous": false,
      "inputs": [
        {
          "indexed": true,
          "internalType": "bytes32",
          "name": "marketId",
          "type": "bytes32"
        },
        {
          "indexed": true,
          "internalType": "address",
          "name": "voter",
          "type": "address"
        },
        {
          "indexed": false,
          "internalType": "bytes32",
          "name": "outcome",
          "type": "bytes32"
        },
        {
          "indexed": false,
          "internalType": "uint256",
          "name": "votingPower",
          "type": "uint256"
        }
      ],
      "name": "VoteCast",
      "type": "event"
    },
    {
      "inputs": [],
      "name": "CHALLENGE_WINDOW",
      "outputs": [
        {
          "internalType": "uint256",
          "name": "",
          "type": "uint256"
        }
      ],
      "stateMutability": "view",
      "type": "function"
    },
    {
      "inputs": [],
      "name": "DISPUTE_BOND",
      "outputs": [
        {
          "internalType": "uint256",
          "name": "",
          "type": "uint256"
        }
      ],
      "stateMutability": "view",
      "type": "function"
    },
    {
      "inputs": [],
      "name": "MIN_DISPUTE_REPUTATION",
      "outputs": [
        {
          "internalType": "uint256",
          "name": "",
          "type": "uint256"
        }
      ],
      "stateMutability": "view",
      "type": "function"
    },
    {
      "inputs": [],
      "name": "MIN_REPUTATION",
      "outputs": [
        {
          "internalType": "uint256",
          "name": "",
          "type": "uint256"
        }
      ],
      "stateMutability": "view",
      "type": "function"
    },
    {
      "inputs": [],
      "name": "PROPOSAL_BOND",
      "outputs": [
        {
          "internalType": "uint256",
          "name": "",
          "type": "uint256"
        }
      ],
      "stateMutability": "view",
      "type": "function"
    },
    {
      "inputs": [],
      "name": "RESOLUTION_WINDOW",
      "outputs": [
        {
          "internalType": "uint256",
          "name": "",
          "type": "uint256"
        }
      ],
      "stateMutability": "view",
      "type": "function"
    },
    {
      "inputs": [
        {
          "internalType": "uint256",
          "name": "",
          "type": "uint256"
        }
      ],
      "name": "allMarkets",
      "outputs": [
        {
          "internalType": "bytes32",
          "name": "",
          "type": "bytes32"
        }
      ],
      "stateMutability": "view",
      "type": "function"
    },
    {
      "inputs": [
        {
          "internalType": "address[]",
          "name": "users",
          "type": "address[]"
        },
        {
          "internalType": "uint256[]",
          "name": "reputations",
          "type": "uint256[]"
        }
      ],
      "name": "batchSetReputations",
      "outputs": [],
      "stateMutability": "nonpayable",
      "type": "function"
    },
    {
      "inputs": [],
      "name": "bitredictPool",
      "outputs": [
        {
          "internalType": "contract IBitredictPool",
          "name": "",
          "type": "address"
        }
      ],
      "stateMutability": "view",
      "type": "function"
    },
    {
      "inputs": [],
      "name": "bondToken",
      "outputs": [
        {
          "internalType": "contract IERC20",
          "name": "",
          "type": "address"
        }
      ],
      "stateMutability": "view",
      "type": "function"
    },
    {
      "inputs": [
        {
          "internalType": "bytes32",
          "name": "",
          "type": "bytes32"
        },
        {
          "internalType": "uint256",
          "name": "",
          "type": "uint256"
        }
      ],
      "name": "categoryMarkets",
      "outputs": [
        {
          "internalType": "bytes32",
          "name": "",
          "type": "bytes32"
        }
      ],
      "stateMutability": "view",
      "type": "function"
    },
    {
      "inputs": [
        {
          "internalType": "string",
          "name": "marketId",
          "type": "string"
        }
      ],
      "name": "claimBonds",
      "outputs": [],
      "stateMutability": "nonpayable",
      "type": "function"
    },
    {
      "inputs": [
        {
          "internalType": "string",
          "name": "marketId",
          "type": "string"
        },
        {
          "internalType": "uint256",
          "name": "poolId",
          "type": "uint256"
        },
        {
          "internalType": "string",
          "name": "question",
          "type": "string"
        },
        {
          "internalType": "string",
          "name": "category",
          "type": "string"
        },
        {
          "internalType": "uint256",
          "name": "eventEndTime",
          "type": "uint256"
        }
      ],
      "name": "createMarket",
      "outputs": [],
      "stateMutability": "nonpayable",
      "type": "function"
    },
    {
      "inputs": [
        {
          "internalType": "string",
          "name": "marketId",
          "type": "string"
        }
      ],
      "name": "disputeOutcome",
      "outputs": [],
      "stateMutability": "nonpayable",
      "type": "function"
    },
    {
      "inputs": [
        {
          "internalType": "bytes32",
          "name": "",
          "type": "bytes32"
        }
      ],
      "name": "disputes",
      "outputs": [
        {
          "internalType": "bytes32",
          "name": "marketId",
          "type": "bytes32"
        },
        {
          "internalType": "uint256",
          "name": "totalVotingPower",
          "type": "uint256"
        },
        {
          "internalType": "uint256",
          "name": "disputeEndTime",
          "type": "uint256"
        },
        {
          "internalType": "bool",
          "name": "resolved",
          "type": "bool"
        }
      ],
      "stateMutability": "view",
      "type": "function"
    },
    {
      "inputs": [
        {
          "internalType": "string",
          "name": "marketId",
          "type": "string"
        },
        {
          "internalType": "bytes32",
          "name": "outcome",
          "type": "bytes32"
        }
      ],
      "name": "emergencyResolveMarket",
      "outputs": [],
      "stateMutability": "nonpayable",
      "type": "function"
    },
    {
      "inputs": [
        {
          "internalType": "string",
          "name": "marketId",
          "type": "string"
        }
      ],
      "name": "emergencyWithdrawBonds",
      "outputs": [],
      "stateMutability": "nonpayable",
      "type": "function"
    },
    {
      "inputs": [],
      "name": "getAllMarkets",
      "outputs": [
        {
          "internalType": "bytes32[]",
          "name": "",
          "type": "bytes32[]"
        }
      ],
      "stateMutability": "view",
      "type": "function"
    },
    {
      "inputs": [
        {
          "internalType": "string",
          "name": "marketId",
          "type": "string"
        }
      ],
      "name": "getDispute",
      "outputs": [
        {
          "internalType": "uint256",
          "name": "totalVotingPower",
          "type": "uint256"
        },
        {
          "internalType": "uint256",
          "name": "disputeEndTime",
          "type": "uint256"
        },
        {
          "internalType": "bool",
          "name": "resolved",
          "type": "bool"
        },
        {
          "internalType": "address[]",
          "name": "voters",
          "type": "address[]"
        }
      ],
      "stateMutability": "view",
      "type": "function"
    },
    {
      "inputs": [
        {
          "internalType": "string",
          "name": "marketId",
          "type": "string"
        }
      ],
      "name": "getMarket",
      "outputs": [
        {
          "components": [
            {
              "internalType": "bytes32",
              "name": "marketId",
              "type": "bytes32"
            },
            {
              "internalType": "uint256",
              "name": "poolId",
              "type": "uint256"
            },
            {
              "internalType": "string",
              "name": "question",
              "type": "string"
            },
            {
              "internalType": "string",
              "name": "category",
              "type": "string"
            },
            {
              "internalType": "bytes32",
              "name": "proposedOutcome",
              "type": "bytes32"
            },
            {
              "internalType": "address",
              "name": "proposer",
              "type": "address"
            },
            {
              "internalType": "uint256",
              "name": "proposalTime",
              "type": "uint256"
            },
            {
              "internalType": "uint256",
              "name": "proposalBond",
              "type": "uint256"
            },
            {
              "internalType": "address",
              "name": "disputer",
              "type": "address"
            },
            {
              "internalType": "uint256",
              "name": "disputeTime",
              "type": "uint256"
            },
            {
              "internalType": "uint256",
              "name": "disputeBond",
              "type": "uint256"
            },
            {
              "internalType": "bytes32",
              "name": "finalOutcome",
              "type": "bytes32"
            },
            {
              "internalType": "enum OptimisticOracle.MarketState",
              "name": "state",
              "type": "uint8"
            },
            {
              "internalType": "uint256",
              "name": "eventEndTime",
              "type": "uint256"
            },
            {
              "internalType": "bool",
              "name": "bondsClaimed",
              "type": "bool"
            }
          ],
          "internalType": "struct OptimisticOracle.Market",
          "name": "",
          "type": "tuple"
        }
      ],
      "stateMutability": "view",
      "type": "function"
    },
    {
      "inputs": [
        {
          "internalType": "string",
          "name": "category",
          "type": "string"
        }
      ],
      "name": "getMarketsByCategory",
      "outputs": [
        {
          "internalType": "bytes32[]",
          "name": "",
          "type": "bytes32[]"
        }
      ],
      "stateMutability": "view",
      "type": "function"
    },
    {
      "inputs": [
        {
          "internalType": "string",
          "name": "marketId",
          "type": "string"
        }
      ],
      "name": "getOutcome",
      "outputs": [
        {
          "internalType": "bool",
          "name": "isSettled",
          "type": "bool"
        },
        {
          "internalType": "bytes",
          "name": "outcome",
          "type": "bytes"
        }
      ],
      "stateMutability": "view",
      "type": "function"
    },
    {
      "inputs": [
        {
          "internalType": "string",
          "name": "marketId",
          "type": "string"
        },
        {
          "internalType": "bytes32",
          "name": "outcome",
          "type": "bytes32"
        }
      ],
      "name": "getOutcomeTotals",
      "outputs": [
        {
          "internalType": "uint256",
          "name": "",
          "type": "uint256"
        }
      ],
      "stateMutability": "view",
      "type": "function"
    },
    {
      "inputs": [
        {
          "internalType": "string",
          "name": "marketId",
          "type": "string"
        },
        {
          "internalType": "address",
          "name": "voter",
          "type": "address"
        }
      ],
      "name": "getVote",
      "outputs": [
        {
          "internalType": "bytes32",
          "name": "outcome",
          "type": "bytes32"
        },
        {
          "internalType": "uint256",
          "name": "votingPower",
          "type": "uint256"
        },
        {
          "internalType": "uint256",
          "name": "timestamp",
          "type": "uint256"
        }
      ],
      "stateMutability": "view",
      "type": "function"
    },
    {
      "inputs": [
        {
          "internalType": "bytes32",
          "name": "",
          "type": "bytes32"
        }
      ],
      "name": "isOpenMarket",
      "outputs": [
        {
          "internalType": "bool",
          "name": "",
          "type": "bool"
        }
      ],
      "stateMutability": "view",
      "type": "function"
    },
    {
      "inputs": [
        {
          "internalType": "bytes32",
          "name": "",
          "type": "bytes32"
        }
      ],
      "name": "markets",
      "outputs": [
        {
          "internalType": "bytes32",
          "name": "marketId",
          "type": "bytes32"
        },
        {
          "internalType": "uint256",
          "name": "poolId",
          "type": "uint256"
        },
        {
          "internalType": "string",
          "name": "question",
          "type": "string"
        },
        {
          "internalType": "string",
          "name": "category",
          "type": "string"
        },
        {
          "internalType": "bytes32",
          "name": "proposedOutcome",
          "type": "bytes32"
        },
        {
          "internalType": "address",
          "name": "proposer",
          "type": "address"
        },
        {
          "internalType": "uint256",
          "name": "proposalTime",
          "type": "uint256"
        },
        {
          "internalType": "uint256",
          "name": "proposalBond",
          "type": "uint256"
        },
        {
          "internalType": "address",
          "name": "disputer",
          "type": "address"
        },
        {
          "internalType": "uint256",
          "name": "disputeTime",
          "type": "uint256"
        },
        {
          "internalType": "uint256",
          "name": "disputeBond",
          "type": "uint256"
        },
        {
          "internalType": "bytes32",
          "name": "finalOutcome",
          "type": "bytes32"
        },
        {
          "internalType": "enum OptimisticOracle.MarketState",
          "name": "state",
          "type": "uint8"
        },
        {
          "internalType": "uint256",
          "name": "eventEndTime",
          "type": "uint256"
        },
        {
          "internalType": "bool",
          "name": "bondsClaimed",
          "type": "bool"
        }
      ],
      "stateMutability": "view",
      "type": "function"
    },
    {
      "inputs": [],
      "name": "openMarketFactory",
      "outputs": [
        {
          "internalType": "address",
          "name": "",
          "type": "address"
        }
      ],
      "stateMutability": "view",
      "type": "function"
    },
    {
      "inputs": [
        {
          "internalType": "bytes32",
          "name": "",
          "type": "bytes32"
        }
      ],
      "name": "openMarketId",
      "outputs": [
        {
          "internalType": "uint256",
          "name": "",
          "type": "uint256"
        }
      ],
      "stateMutability": "view",
      "type": "function"
    },
    {
      "inputs": [],
      "name": "owner",
      "outputs": [
        {
          "internalType": "address",
          "name": "",
          "type": "address"
        }
      ],
      "stateMutability": "view",
      "type": "function"
    },
    {
      "inputs": [
        {
          "internalType": "string",
          "name": "marketId",
          "type": "string"
        },
        {
          "internalType": "bytes32",
          "name": "outcome",
          "type": "bytes32"
        }
      ],
      "name": "proposeOutcome",
      "outputs": [],
      "stateMutability": "nonpayable",
      "type": "function"
    },
    {
      "inputs": [
        {
          "internalType": "bytes32",
          "name": "marketId",
          "type": "bytes32"
        },
        {
          "internalType": "uint256",
          "name": "_openMarketId",
          "type": "uint256"
        }
      ],
      "name": "registerOpenMarket",
      "outputs": [],
      "stateMutability": "nonpayable",
      "type": "function"
    },
    {
      "inputs": [],
      "name": "renounceOwnership",
      "outputs": [],
      "stateMutability": "nonpayable",
      "type": "function"
    },
    {
      "inputs": [],
      "name": "reputationSystem",
      "outputs": [
        {
          "internalType": "contract IReputationSystem",
          "name": "",
          "type": "address"
        }
      ],
      "stateMutability": "view",
      "type": "function"
    },
    {
      "inputs": [
        {
          "internalType": "string",
          "name": "marketId",
          "type": "string"
        }
      ],
      "name": "resolveMarket",
      "outputs": [],
      "stateMutability": "nonpayable",
      "type": "function"
    },
    {
      "inputs": [
        {
          "internalType": "address",
          "name": "_openMarketFactory",
          "type": "address"
        }
      ],
      "name": "setOpenMarketFactory",
      "outputs": [],
      "stateMutability": "nonpayable",
      "type": "function"
    },
    {
      "inputs": [
        {
          "internalType": "address",
          "name": "_reputationSystem",
          "type": "address"
        }
      ],
      "name": "setReputationSystem",
      "outputs": [],
      "stateMutability": "nonpayable",
      "type": "function"
    },
    {
      "inputs": [
        {
          "internalType": "address",
          "name": "user",
          "type": "address"
        },
        {
          "internalType": "uint256",
          "name": "reputation",
          "type": "uint256"
        }
      ],
      "name": "setUserReputation",
      "outputs": [],
      "stateMutability": "nonpayable",
      "type": "function"
    },
    {
      "inputs": [
        {
          "internalType": "address",
          "name": "newOwner",
          "type": "address"
        }
      ],
      "name": "transferOwnership",
      "outputs": [],
      "stateMutability": "nonpayable",
      "type": "function"
    },
    {
      "inputs": [
        {
          "internalType": "address",
          "name": "",
          "type": "address"
        }
      ],
      "name": "userReputation",
      "outputs": [
        {
          "internalType": "uint256",
          "name": "",
          "type": "uint256"
        }
      ],
      "stateMutability": "view",
      "type": "function"
    },
    {
      "inputs": [
        {
          "internalType": "string",
          "name": "marketId",
          "type": "string"
        },
        {
          "internalType": "bytes32",
          "name": "outcome",
          "type": "bytes32"
        }
      ],
      "name": "voteOnDispute",
      "outputs": [],
      "stateMutability": "nonpayable",
      "type": "function"
    }
  ],
  "bytecode": "0x60c0346200013757601f6200391b38819003918201601f19168301916001600160401b038311848410176200013c57808492604094855283398101031262000137576200005a6020620000528362000152565b920162000152565b9033156200011e5760008054336001600160a01b0319821681178355604051946001600160a01b0394909385939192918416907f8be0079c531659141344cd1fd0a4f28419497f9722a3daafe3b4186f6b6457e09080a3166080521660a0526137b390816200016882396080518181816106b8015281816107ec01528181610a8f01528181610b5b0152818161151801528181611bf10152818161340d0152613553015260a05181818161174b01528181611eb60152818161266b0152612d2e0152f35b604051631e4fbdf760e01b815260006004820152602490fd5b600080fd5b634e487b7160e01b600052604160045260246000fd5b51906001600160a01b0382168203620001375756fe608080604052600436101561001357600080fd5b600090813560e01c908163022824b714612d1a575080630446c3e6146124ed578063097f39af146124c457806311be19971461247257806314f592d414611e43578063289838ec14611abd5780632fcec8001461196e57806331143cee146119295780633c7dad19146118e95780633d776cb8146118985780634c68ae631461187457806352d84d1e146118345780636587eda11461180b57806366f3dfff146116ad578063697c6045146116915780636a5a71151461164c5780636ac043ae1461161d5780636e66fb47146115be57806370dde6d114611454578063715018a61461140c578063734c8544146113ee5780637564912b146112da57806376e6caff146112535780637e3681bd1461122f5780638657a312146111a85780638da5cb5b146111815780639b4326fb146110e0578063a09f8be3146110c4578063a54294af14610fab578063ac2a067d14610d1b578063b0772d0b14610cab578063bd10cad8146109a2578063bf53279c146106e7578063c28f4392146106a2578063c6522d0114610646578063cefa29d71461061c578063cf129558146102a8578063d62aad291461028a578063e503bb05146102515763f2fde38b146101d957600080fd5b3461024e57602036600319011261024e576101f2612e35565b6101fa61301a565b6001600160a01b03908116908115610235576000548260018060a01b03198216176000551660008051602061373e833981519152600080a380f35b604051631e4fbdf760e01b815260048101849052602490fd5b80fd5b503461024e57602036600319011261024e576020906040906001600160a01b03610279612e35565b168152600783522054604051908152f35b503461024e578060031936011261024e576020604051620151808152f35b503461024e576102b736612e79565b6001549091906001600160a01b0390811680156105fd5760206024916040519283809263baccbfdb60e01b82523360048301525afa9081156105f25785916105bb575b50604b610308911015613046565b604051916020926103358482816103288183019687815193849201612f8a565b8101038084520182612d8c565b519020918285526005815261034f6040862054151561308c565b82855260058152604085206006825260ff600c604088209201541660058110156105a75760020361056c5760058101544211610531576103908515156130d0565b6001810192336000528383526002604060002001546104fc573387526007835260408720549384156104c5576040519060608201906001600160401b038211838310176104af5760029160405288835285830187815260408401914283523360005287526040600020935184555160018401555191015560038201805490600160401b82101561049b578161042e9160016004969594018155612e61565b819291549060031b9133831b921b191617905585875260028101835260408720610459858254613169565b905501610467838254613169565b90556040519384528301527fad441f9de4a3beb10e0d1ffe3b9b28f07e66aa51e7fcee0cc3d8596daaac270960403393a380f35b634e487b7160e01b89526041600452602489fd5b634e487b7160e01b600052604160045260246000fd5b60405162461bcd60e51b815260048101859052600f60248201526e2737903b37ba34b733903837bbb2b960891b6044820152606490fd5b60405162461bcd60e51b815260048101849052600d60248201526c105b1c9958591e481d9bdd1959609a1b6044820152606490fd5b60405162461bcd60e51b8152600481018390526013602482015272159bdd1a5b99c81c195c9a5bd908195b991959606a1b6044820152606490fd5b60405162461bcd60e51b815260048101839052601360248201527213585c9ad95d081b9bdd08191a5cdc1d5d1959606a1b6044820152606490fd5b634e487b7160e01b87526021600452602487fd5b90506020813d82116105ea575b816105d560209383612d8c565b810103126105e55751604b6102fa565b600080fd5b3d91506105c8565b6040513d87823e3d90fd5b503384526007602052610617604b60408620541015613046565b610308565b503461024e57602036600319011261024e5760406020916004358152600483522054604051908152f35b503461024e57602036600319011261024e57600435906001600160401b03821161024e5761067f61067a3660048501612daf565b6131cb565b9061069e60405192839215158352604060208401526040830190612fad565b0390f35b503461024e578060031936011261024e576040517f00000000000000000000000000000000000000000000000000000000000000006001600160a01b03168152602090f35b503461024e576106f636612e79565b6001549091906001600160a01b0390811680156109835760206024916040519283809263baccbfdb60e01b82523360048301525afa9081156105f2578591610951575b506064610747911015613046565b604051916020926107678482816103288183019687815193849201612f8a565b51902091828552600581526107816040862054151561308c565b8285526005815260408520600c81019060ff825416600581101561093d576108fb57600d81015442106108c0576107b98615156130d0565b604051906323b872dd60e01b825233600483015230602483015283826064818b6802b5e3af16b1880000998a60448401527f0000000000000000000000000000000000000000000000000000000000000000165af19081156108b55761082a60079287948b91610888575b50613126565b876004820155600581013360018060a01b03198254161790554260068201550155600160ff198254161790556040519384528301527f9309959b56da38a7d20756c4ba4d271701cd1562f4995a7324bd95575db83e6660403393a380f35b6108a89150873d89116108ae575b6108a08183612d8c565b81019061310e565b38610824565b503d610896565b6040513d8a823e3d90fd5b60405162461bcd60e51b8152600481018490526013602482015272115d995b9d081b9bdd08195b991959081e595d606a1b6044820152606490fd5b60405162461bcd60e51b815260048101849052601a6024820152794d61726b6574206e6f742070656e64696e67206f7574636f6d6560301b6044820152606490fd5b634e487b7160e01b88526021600452602488fd5b90506020813d821161097b575b8161096b60209383612d8c565b810103126105e557516064610739565b3d915061095e565b50338452600760205261099d606460408620541015613046565b610747565b503461024e57602080600319360112610ca7576004356001600160401b038111610ca3576109d4903690600401612daf565b6040516109f08382816103288183019687815193849201612f8a565b51902080835260058252610a096040842054151561308c565b80835260058252604083209160ff600c840154166005811015610c8f57600303610c5557600e8301805460ff8116610c185760ff1916600117905560088301546001600160a01b03908116610b095790610a89916005850182600783835416970196875490604051968792839263a9059cbb60e01b8452600484016132a1565b03818a867f0000000000000000000000000000000000000000000000000000000000000000165af1938415610afe576000805160206136fe83398151915294610ad8918991610ae75750613126565b54169354604051908152a35b80f35b6108a89150853d87116108ae576108a08183612d8c565b6040513d89823e3d90fd5b600b84015460048501548103610c0a57506005610b2f6007860154600a87015490613169565b9401610b55838684845416604051938492839263a9059cbb60e01b8452600484016132a1565b03818a877f0000000000000000000000000000000000000000000000000000000000000000165af1908115610afe578791610bed575b5015610baf575460405194855216926000805160206136fe8339815191529190a380f35b60405162461bcd60e51b815260048101849052601660248201527514995dd85c99081d1c985b9cd9995c8819985a5b195960521b6044820152606490fd5b610c049150843d86116108ae576108a08183612d8c565b38610b8b565b92915050610ae492506132ef565b60405162461bcd60e51b8152600481018490526015602482015274109bdb991cc8185b1c9958591e4818db185a5b5959605a1b6044820152606490fd5b6064906040519062461bcd60e51b82526004820152601360248201527213585c9ad95d081b9bdd081c995cdbdb1d9959606a1b6044820152fd5b634e487b7160e01b85526021600452602485fd5b8280fd5b5080fd5b503461024e578060031936011261024e576040516008805480835290835260208083019360008051602061375e83398151915292915b828210610d045761069e85610cf881890382612d8c565b60405191829182612fdf565b835486529485019460019384019390910190610ce1565b503461024e57602036600319011261024e576004356001600160401b038111610ca75790610d4f6040923690600401612daf565b816101c08451610d5e81612d70565b8281528260208201526060868201526060808201528260808201528260a08201528260c08201528260e08201528261010082015282610120820152826101408201528261016082015282610180820152826101a082015201528251610dd3602082816103288183019687815193849201612f8a565b519020815260056020522060405190610deb82612d70565b8054825260018101546020830152610e0560028201612ee4565b6040830152610e1660038201612ee4565b6060830152600481015460808301526005808201546001600160a01b0390811660a0850152600683015460c0850152600783015460e08501526008830154166101008401526009820154610120840152600a820154610140840152600b820154610160840152600c82015460ff1690811015610f955760ff91600e91610180850152600d8101546101a085015201541615156101c082015260405180916020825280516020830152602081015160408301526101c0610eff610ee960408401516101e06060870152610200860190612fad565b6060840151858203601f19016080870152612fad565b91608081015160a085015260018060a01b0360a08201511660c085015260c081015160e085015260e081015161010085015260018060a01b0361010082015116610120850152610120810151610140850152610140810151610160850152610160810151610180850152610f7d6101808201516101a0860190612fd2565b6101a081015182850152015115156101e08301520390f35b634e487b7160e01b600052602160045260246000fd5b503461024e57602080600319360112610ca7576004356001600160401b038111610ca357610fde83913690600401612daf565b604051610ffa8482816103288183019687815193849201612f8a565b5190208152600682526040812091600483015491600584015492600360ff600687015416950192604051808286549182815201908196865283862090865b8181106110a7575050508161104e910382612d8c565b604051968796608088019488528388015215156040870152608060608701525180925260a0850193925b82811061108757505050500390f35b83516001600160a01b031685528695509381019392810192600101611078565b82546001600160a01b031684529285019260019283019201611038565b503461024e578060031936011261024e576020604051604b8152f35b503461024e57604036600319011261024e576004356001600160401b038111610ca757611111903690600401612daf565b6024356001600160a01b038116908190036105e5576001604060609481519460209561114c8782816103288183019687815193849201612f8a565b519020815260068552200190600052815260406000209081549160026001820154910154916040519384528301526040820152f35b503461024e578060031936011261024e57546040516001600160a01b039091168152602090f35b503461024e576111b736612e4b565b6002549091906001600160a01b031633036111ef578252600360205260408220600160ff198254161790556004602052604082205580f35b60405162461bcd60e51b81526020600482015260186024820152774f6e6c79206f70656e206d61726b657420666163746f727960401b6044820152606490fd5b503461024e578060031936011261024e5760206040516802b5e3af16b18800008152f35b503461024e57602080600319360112610ca7576004356001600160401b038111610ca357611285903690600401612daf565b81815191012082526009815260408220916040518092808554928381520194835280832092905b8282106112c35761069e85610cf881890382612d8c565b8354865294850194600193840193909101906112ac565b503461024e57602036600319011261024e576004358152600560205260409020805460018201549161130e60028201612ee4565b61131a60038301612ee4565b91600481015492600160a01b600190038060058401541690600684015490600785015490600886015416600986015491600a87015493600b88015495600c89015460ff1697600d8a015499600e015460ff169a6040519e8f9e8f908152602001528d6101e0908160408201520161139091612fad565b8d810360608f01526113a191612fad565b9a60808d015260a08c015260c08b015260e08a015261010089015261012088015261014087015261016086015261018085016113dc91612fd2565b6101a084015215156101c08301520390f35b503461024e578060031936011261024e5760206040516202a3008152f35b503461024e578060031936011261024e5761142561301a565b600080546001600160a01b0319811682556001600160a01b031660008051602061373e8339815191528280a380f35b503461024e57602080600319360112610ca7576004356001600160401b038111610ca357611486903690600401612daf565b61148e61301a565b6040516114aa8382816103288183019687815193849201612f8a565b519020825260058152604082206114ca6007820154600a83015490613169565b90816114d4578380f35b600e01805460ff19166001179055825460405163a9059cbb60e01b815291839183916001600160a01b0391839188918391611514918616600484016132a1565b03927f0000000000000000000000000000000000000000000000000000000000000000165af19081156115b3578391611596575b50156115545780808380f35b6064906040519062461bcd60e51b82526004820152601b60248201527a115b595c99d95b98de481dda5d1a191c985dd85b0819985a5b1959602a1b6044820152fd5b6115ad9150823d84116108ae576108a08183612d8c565b38611548565b6040513d85823e3d90fd5b503461024e57604036600319011261024e576115d8612e35565b60008051602061371e8339815191526040602435926115f561301a565b60018060a01b031692838552600760205281852090808254925582519182526020820152a280f35b503461024e57602036600319011261024e5760ff60406020926004358152600384522054166040519015158152f35b503461024e57602036600319011261024e57611666612e35565b61166e61301a565b600280546001600160a01b0319166001600160a01b039290921691909117905580f35b503461024e578060031936011261024e57602060405160648152f35b503461024e576116bc36612e79565b906116c561301a565b604051906020916116e58382816103288183019687815193849201612f8a565b519020918284526005825260408420600c810180549060ff8216600581101561093d57600361171591141561318c565b83600b840155600360ff19809316179055848652600684526040862080546117f7575b5050600101546001600160a01b039085907f0000000000000000000000000000000000000000000000000000000000000000831690813b15610ca35782916044839260405194859384926311bf11df60e11b845260048401528960248401525af180156117ec576117d0575b5092606092916000805160206136de83398151915294541690604051928352820152846040820152a280f35b6117dc90939293612d5d565b6117e8579084386117a4565b8480fd5b6040513d84823e3d90fd5b600660019101918254161790553880611738565b503461024e578060031936011261024e576001546040516001600160a01b039091168152602090f35b503461024e57602036600319011261024e57600435600854811015610ca757600860005260008051602061375e8339815191520154604051908152602090f35b503461024e578060031936011261024e57602060405168056bc75e2d631000008152f35b503461024e5760406118a936612e79565b8293919351936020946118cb8682816103288183019687815193849201612f8a565b51902082526006845260028383200190825283522054604051908152f35b503461024e576118f836612e4b565b9190815260096020526040812090815483101561024e57602061191b8484612e61565b90546040519160031b1c8152f35b503461024e57602036600319011261024e57611943612e35565b61194b61301a565b600180546001600160a01b0319166001600160a01b039290921691909117905580f35b503461024e57604036600319011261024e576001600160401b0390600435828111610ca7576119a1903690600401612e05565b92602435908111610ca3576119ba903690600401612e05565b90936119c461301a565b818103611a8057835b8181106119d8578480f35b6001600160a01b03806119ec8385886132cb565b6119f5906132db565b1686526007906020828152604088205492611a1185888c6132cb565b359083611a1f87898c6132cb565b611a28906132db565b168a5282526040892055611a3d8486896132cb565b611a46906132db565b90611a5285888c6132cb565b35906040519485528401521690604060008051602061371e83398151915291a2611a7b906132bc565b6119cd565b60405162461bcd60e51b8152602060048201526015602482015274082e4e4c2f240d8cadccee8d040dad2e6dac2e8c6d605b1b6044820152606490fd5b503461024e57602080600319360112610ca7576004356001600160401b038111610ca357611aef903690600401612daf565b6001546001600160a01b039291908316828115611e245760405163baccbfdb60e01b815233600482015291829060249082905afa9081156105f2578591611df6575b50604b611b3f911015613046565b604051611b5b8382816103288183019687815193849201612f8a565b5190209081845260058152611b756040852054151561308c565b8184526005815260408420600c81019060ff82541660058110156105a757600103611db2576006810154620151808101809111611cac574211611d7257846005820154163314611d21576040516323b872dd60e01b815233600482015230602482015283816064818a68056bc75e2d631000009a8b60448401527f0000000000000000000000000000000000000000000000000000000000000000165af1908115610afe578791611d04575b5015611cc057600a8160088793013360018060a01b0319825416179055426009820155015560ff199060028282541617905582855260068252604085208381556202a3004201804211611cac5760058201556006018054909116905560405192835233927f2cf997baab6ffa43a4ea6d22103db1212210a1692382c6d95fc16394e30b99cd9190a380f35b634e487b7160e01b87526011600452602487fd5b60405162461bcd60e51b815260048101849052601c60248201527b111a5cdc1d5d1948189bdb99081d1c985b9cd9995c8819985a5b195960221b6044820152606490fd5b611d1b9150843d86116108ae576108a08183612d8c565b38611c21565b60405162461bcd60e51b8152600481018490526024808201527f50726f706f7365722063616e6e6f742064697370757465206f776e2070726f706044820152631bdcd85b60e21b6064820152608490fd5b60405162461bcd60e51b815260048101849052601860248201527710da185b1b195b99d9481dda5b991bddc8195e1c1a5c995960421b6044820152606490fd5b60405162461bcd60e51b815260048101849052601c60248201527b4d61726b6574206e6f7420696e2070726f706f73656420737461746560201b6044820152606490fd5b90508281813d8311611e1d575b611e0d8183612d8c565b810103126105e55751604b611b31565b503d611e03565b505033845260078252611e3e604b60408620541015613046565b611b3f565b503461024e5760a036600319011261024e576004356001600160401b038111610ca757611e74903690600401612daf565b6044356001600160401b038111610ca357611e93903690600401612daf565b906064356001600160401b03811161246e57611eb3903690600401612daf565b907f00000000000000000000000000000000000000000000000000000000000000006001600160a01b0316330361242b57604051611f01602082816103288183019687815193849201612f8a565b51902090818452600560205260408420546123ee574260843511156123aa57604051611f2c81612d70565b82815260243560208201528360408201528160608201528460808201528460a08201528460c08201528460e082015284610100820152846101208201528461014082015284610160820152846101808201526084356101a0820152846101c08201528285526005602052604085208151815560208201516001820155604082015180519060018060401b0382116122cb578190611fcc6002850154612eaa565b601f8111612359575b50602090601f83116001146122ea5789926122df575b50508160011b916000199060031b1c19161760028201555b60608201518051906001600160401b0382116122cb5781906120286003850154612eaa565b601f811161227a575b50602090601f831160011461220b578992612200575b50508160011b916000199060031b1c19161760038201555b6080820151600482015560a0820151600580830180546001600160a01b039384166001600160a01b03199182161790915560c0850151600685015560e08501516007850155610100850151600885018054919094169116179091556101208301516009830155610140830151600a830155610160830151600b8301556101808301519190600c82019083101561093d57600e60ff926101c092841995858783541691161790556101a0860151600d820155019301511515918354169116179055600854600160401b90818110156104af5760018101806008558110156121ea578390600860005260206000200155815160208301208552600960205260408520918254918210156104af5761219e827f78fb87fee77ef31b7db9ff0b08af431bb3a3b7e0112e29bdbc797d0e4d35cf8d9460016121d695018155612e61565b81549060031b9086821b91600019901b19161790556121c860405195606087526060870190612fad565b908582036020870152612fad565b92608435604082015280602435940390a380f35b634e487b7160e01b600052603260045260246000fd5b015190503880612047565b9250600384018952602089209089935b601f198416851061225f576001945083601f19811610612246575b505050811b01600382015561205f565b015160001960f88460031b161c19169055388080612236565b8181015183556020948501946001909301929091019061221b565b90915060038401895260208920601f840160051c8101602085106122c4575b90849392915b601f830160051c820181106122b5575050612031565b6000815585945060010161229f565b5080612299565b634e487b7160e01b88526041600452602488fd5b015190503880611feb565b9250600284018952602089209089935b601f198416851061233e576001945083601f19811610612325575b505050811b016002820155612003565b015160001960f88460031b161c19169055388080612315565b818101518355602094850194600190930192909101906122fa565b90915060028401895260208920601f840160051c8101602085106123a3575b90849392915b601f830160051c82018110612394575050611fd5565b6000815585945060010161237e565b5080612378565b606460405162461bcd60e51b815260206004820152602060248201527f4576656e7420656e642074696d65206d75737420626520696e206675747572656044820152fd5b60405162461bcd60e51b81526020600482015260156024820152744d61726b657420616c72656164792065786973747360581b6044820152606490fd5b60405162461bcd60e51b815260206004820152601b60248201527a13db9b1e48109a5d1c99591a58dd141bdbdb0818d85b8818d85b1b602a1b6044820152606490fd5b8380fd5b503461024e57602036600319011261024e576040608091600435815260066020522080549060048101549060ff6006600583015492015416916040519384526020840152604083015215156060820152f35b503461024e578060031936011261024e576002546040516001600160a01b039091168152602090f35b503461024e57602036600319011261024e576004356001600160401b038111610ca75761251e903690600401612daf565b60405161253b602082816103288183019687815193849201612f8a565b51902080825260056020526125556040832054151561308c565b80825260056020526040822090600c82015460ff81166005811015610c8f5760018103612743575050600682015462015180810180911161272f574211156126eb576004820154600b8301908155600c8301805460ff191660031790556005830180546001600160a01b039081168087526007602052604087205492939192600a81018082116126d757828060008051602061371e83398151915260406000805160206136de833981519152999795858c968f8060609d9b8692526007602052205582519182526020820152a26000805160206136be8339815191526040518061263f4282613606565b0390a35491541660078601549060405192835260208301526040820152a25b6001810154600b909101547f00000000000000000000000000000000000000000000000000000000000000006001600160a01b031691839190833b15610ca3576044908360405195869485936311bf11df60e11b8552600485015260248401525af180156117ec576126ce575080f35b610ae490612d5d565b634e487b7160e01b89526011600452602489fd5b60405162461bcd60e51b815260206004820152601c60248201527b10da185b1b195b99d9481dda5b991bddc81b9bdd08195e1c1a5c995960221b6044820152606490fd5b634e487b7160e01b84526011600452602484fd5b909290600203612cd5578184526006602052604084206005810154421115612c965761277660ff6006830154161561318c565b828552600660205260408520600381015486959186805b838110612c375750505050600160069186600b860155600360ff1980921617600c860155828401541617910155818452600560205260408420926006602052604085209181600486015414600014612b625760058501546001600160a01b03168087526007602052604087205490600a82018211612b4e57859160409189526007602052600a8101828a205560008051602061371e83398151915260018060a01b0360058a015416928392600a825191808352016020820152a26000805160206136be833981519152604051806128644282613606565b0390a35b855b60038401548110156129bf576128838160038601612e61565b905460039190911b1c6001600160a01b0316808852600185016020526040882054840361292457808852600760205260408820546005810181116126d757818060008051602061371e83398151915260408a9461291f97968e5260076020528d82600583019120556005825191808352016020820152a26000805160206136be833981519152604051806129174282613681565b0390a36132bc565b61286a565b6007602052604088205486896003831061299b575050806002198101116126d7578161291f939260008051602061371e83398151915260408a94818e60021983019182915b8781526007602052205582519182526020820152a26000805160206136be833981519152604051806129174282613648565b9260008051602061371e8339815191526040829394818761291f9998918291612969565b509360089192508260048201541415600014612a7c570180546001600160a01b039081168087526007602052604087205492600a840192918385116126d7579260008051602061371e833981519152604088946060979484838e6000805160206136de8339815191529c9a815260076020522055541693849382519182526020820152a26000805160206136be83398151915260405180612a604282613681565b0390a35b604051908152856020820152856040820152a261265e565b0180546001600160a01b03908116808752600760205260408720549290858860088610612b1c57505060071984018481116126d75760008051602061371e83398151915260406000805160206136de8339815191529795899560609895838e87925b815260076020522055541693849382519182526020820152a26000805160206136be83398151915260405180612b144282613648565b0390a3612a64565b909260406000805160206136de833981519152979560008051602061371e833981519152926060989583868792612ade565b634e487b7160e01b88526011600452602488fd5b60058501546001600160a01b0316808752600760205260408720549085600f8310612c2e575081600e19810111612b4e57859190600e198201905b895260076020528060408a205560008051602061371e833981519152604060018060a01b0360058b01541693849382519182526020820152a26000805160206136be83398151915260a060405160608152601c60608201527b4f5554434f4d455f50524f504f5345445f494e434f52524543544c5960201b6080820152600e196020820152426040820152a3612868565b91908890612b9d565b612c448160038501612e61565b60018060a01b0391549060031b1c168a526001830160205260408a2054808b526002840160205260408b2054838111612c88575b5050612c83906132bc565b61278d565b9099509150612c8338612c78565b60405162461bcd60e51b8152602060048201526017602482015276159bdd1a5b99c81c195c9a5bd9081b9bdd08195b991959604a1b6044820152606490fd5b60405162461bcd60e51b815260206004820152601f60248201527f4d61726b6574206e6f7420726561647920666f72207265736f6c7574696f6e006044820152606490fd5b905034610ca75781600319360112610ca7577f00000000000000000000000000000000000000000000000000000000000000006001600160a01b03168152602090f35b6001600160401b0381116104af57604052565b6101e081019081106001600160401b038211176104af57604052565b601f909101601f19168101906001600160401b038211908210176104af57604052565b81601f820112156105e5578035906001600160401b0382116104af5760405192612de3601f8401601f191660200185612d8c565b828452602083830101116105e557816000926020809301838601378301015290565b9181601f840112156105e5578235916001600160401b0383116105e5576020808501948460051b0101116105e557565b600435906001600160a01b03821682036105e557565b60409060031901126105e5576004359060243590565b80548210156121ea5760005260206000200190600090565b60406003198201126105e557600435906001600160401b0382116105e557612ea391600401612daf565b9060243590565b90600182811c92168015612eda575b6020831014612ec457565b634e487b7160e01b600052602260045260246000fd5b91607f1691612eb9565b9060405191826000825492612ef884612eaa565b908184526001948581169081600014612f675750600114612f24575b5050612f2292500383612d8c565b565b9093915060005260209081600020936000915b818310612f4f575050612f2293508201013880612f14565b85548884018501529485019487945091830191612f37565b915050612f2294506020925060ff191682840152151560051b8201013880612f14565b60005b838110612f9d5750506000910152565b8181015183820152602001612f8d565b90602091612fc681518092818552858086019101612f8a565b601f01601f1916010190565b906005821015610f955752565b6020908160408183019282815285518094520193019160005b828110613006575050505090565b835185529381019392810192600101612ff8565b6000546001600160a01b0316330361302e57565b60405163118cdaa760e01b8152336004820152602490fd5b1561304d57565b60405162461bcd60e51b815260206004820152601760248201527624b739bab33334b1b4b2b73a103932b83aba30ba34b7b760491b6044820152606490fd5b1561309357565b60405162461bcd60e51b815260206004820152601560248201527413585c9ad95d08191bd95cc81b9bdd08195e1a5cdd605a1b6044820152606490fd5b156130d757565b60405162461bcd60e51b815260206004820152600f60248201526e496e76616c6964206f7574636f6d6560881b6044820152606490fd5b908160209103126105e5575180151581036105e55790565b1561312d57565b60405162461bcd60e51b8152602060048201526014602482015273109bdb99081d1c985b9cd9995c8819985a5b195960621b6044820152606490fd5b9190820180921161317657565b634e487b7160e01b600052601160045260246000fd5b1561319357565b60405162461bcd60e51b815260206004820152601060248201526f105b1c9958591e481c995cdbdb1d995960821b6044820152606490fd5b906040918251906020916131ee8382816103288183019687815193849201612f8a565b51902060009081526005825283812060ff600c82015416600581101561328d576003146132495750809380519283019083821060018060401b038311176132355752815290565b634e487b7160e01b83526041600452602483fd5b600b01548451808401919091529182529092838101916001600160401b0383118584101761327957505260019190565b634e487b7160e01b81526041600452602490fd5b634e487b7160e01b83526021600452602483fd5b6001600160a01b039091168152602081019190915260400190565b60001981146131765760010190565b91908110156121ea5760051b0190565b356001600160a01b03811681036105e55790565b906000908282526020926005845260409384842093600682528581209061331f6007870154600a88015490613169565b85825260028301845287822054908115978861350d57506001978885019760039585919087018b5b61335b575b50505050505050505050505050565b805483101561350857828b8e6133728f9685612e61565b90546001600160a01b03918d1b1c8116808c52928d52908a20805486146133a6575b5050506133a0906132bc565b92613347565b9590919293949501548088029088820414881517156134f457866134e0578f908f96959493928d8b8d930493846133e0575b505050613394565b9091929394959697985051809263a9059cbb60e01b82528160049581613409898b8a84016132a1565b03927f0000000000000000000000000000000000000000000000000000000000000000165af19081156134d2578b916134b5575b50156134735750916133a0918f8f9695948d8f92916000805160206136fe8339815191529251908152a390388f818d8c926133d8565b8f5162461bcd60e51b81529081018c9052601c60248201527b159bdd195c881c995dd85c99081d1c985b9cd9995c8819985a5b195960221b6044820152606490fd5b6134cc91508d803d106108ae576108a08183612d8c565b3861343d565b50508f5190503d8a823e3d90fd5b634e487b7160e01b8a52601260045260248afd5b634e487b7160e01b8a52601160045260248afd5b61334c565b60080180548a5163a9059cbb60e01b8152919b9a9950969750949590946001600160a01b039450915085908290819061354d9088908816600484016132a1565b038185877f0000000000000000000000000000000000000000000000000000000000000000165af19182156135fb57916135de575b50156135a5576000805160206136fe8339815191529394959654169451908152a3565b845162461bcd60e51b8152600481018490526012602482015271109bdb99081c99599d5b990819985a5b195960721b6044820152606490fd5b6135f59150843d86116108ae576108a08183612d8c565b38613582565b8751903d90823e3d90fd5b919060608352601a6060840152794f5554434f4d455f50524f504f5345445f434f52524543544c5960301b6080840152604060a0840193600a60208201520152565b919060608352601060608401526f10d2105313115391d157d1905253115160821b6080840152604060a084019360071960208201520152565b919060608352601460608401527310d2105313115391d157d4d550d0d154d4d1955360621b6080840152604060a0840193600a6020820152015256fe771bf1bb87cc205af921972b0ee8396e8a8e65d500a6950d7a84ad9ddf9d5e5891ca3f85aaee021f5716eb2dc0420a08d010f2c3559cffd95c5047b027e0ff9603e8263f3afed7930daa8af1e52a6fb85e3c91af66348b09d23e2201467c21455b88a2e3fc1a53234357ab78c104df11c33ccfa79886793654565ad70b8afb6e8be0079c531659141344cd1fd0a4f28419497f9722a3daafe3b4186f6b6457e0f3f7a9fe364faab93b216da50a3214154f22a0a2b415b23a84c8169e8b636ee3a2646970667358221220dc61b545aea6a048612cf89dbf8f9343036793b742085f70d024d4f5c3f0a96564736f6c63430008140033",
  "linkReferences": {},
  "deployedLinkReferences": {}
}