{
  "_format": "hh-sol-artifact-1",
  "contractName": "ReputationSystem",
  "sourceName": "contracts/ReputationSystem.sol",
  "abi": [
    {
      "inputs": [],
      "stateMutability": "nonpayable",
      "type": "constructor"
    },
    {
      "inputs": [
        {
          "internalType": "address",
          "name": "owner",
          "type": "address"
        }
      ],
      "name": "OwnableInvalidOwner",
      "type": "error"
    },
    {
      "inputs": [
        {
          "internalType": "address",
          "name": "account",
          "type": "address"
        }
      ],
      "name": "OwnableUnauthorizedAccount",
      "type": "error"
    },
    {
      "anonymous": false,
      "inputs": [
        {
          "indexed": true,
          "internalType": "address",
          "name": "contractAddr",
          "type": "address"
        },
        {
          "indexed": false,
          "internalType": "bool",
          "name": "authorized",
          "type": "bool"
        }
      ],
      "name": "AuthorizedContractSet",
      "type": "event"
    },
    {
      "anonymous": false,
      "inputs": [
        {
          "indexed": true,
          "internalType": "address",
          "name": "updater",
          "type": "address"
        },
        {
          "indexed": false,
          "internalType": "bool",
          "name": "authorized",
          "type": "bool"
        }
      ],
      "name": "AuthorizedUpdaterSet",
      "type": "event"
    },
    {
      "anonymous": false,
      "inputs": [
        {
          "indexed": true,
          "internalType": "address",
          "name": "previousOwner",
          "type": "address"
        },
        {
          "indexed": true,
          "internalType": "address",
          "name": "newOwner",
          "type": "address"
        }
      ],
      "name": "OwnershipTransferred",
      "type": "event"
    },
    {
      "anonymous": false,
      "inputs": [
        {
          "indexed": true,
          "internalType": "address",
          "name": "user",
          "type": "address"
        },
        {
          "indexed": false,
          "internalType": "enum ReputationSystem.ReputationAction",
          "name": "action",
          "type": "uint8"
        },
        {
          "indexed": false,
          "internalType": "uint256",
          "name": "points",
          "type": "uint256"
        },
        {
          "indexed": false,
          "internalType": "string",
          "name": "details",
          "type": "string"
        }
      ],
      "name": "ReputationActionRecorded",
      "type": "event"
    },
    {
      "anonymous": false,
      "inputs": [
        {
          "indexed": true,
          "internalType": "address",
          "name": "user",
          "type": "address"
        },
        {
          "indexed": false,
          "internalType": "uint256",
          "name": "oldReputation",
          "type": "uint256"
        },
        {
          "indexed": false,
          "internalType": "uint256",
          "name": "newReputation",
          "type": "uint256"
        },
        {
          "indexed": false,
          "internalType": "string",
          "name": "reason",
          "type": "string"
        }
      ],
      "name": "ReputationUpdated",
      "type": "event"
    },
    {
      "anonymous": false,
      "inputs": [
        {
          "indexed": true,
          "internalType": "address",
          "name": "user",
          "type": "address"
        },
        {
          "indexed": false,
          "internalType": "bool",
          "name": "verified",
          "type": "bool"
        }
      ],
      "name": "UserVerified",
      "type": "event"
    },
    {
      "inputs": [],
      "name": "DEFAULT_REPUTATION",
      "outputs": [
        {
          "internalType": "uint256",
          "name": "",
          "type": "uint256"
        }
      ],
      "stateMutability": "view",
      "type": "function"
    },
    {
      "inputs": [],
      "name": "MAX_REPUTATION",
      "outputs": [
        {
          "internalType": "uint256",
          "name": "",
          "type": "uint256"
        }
      ],
      "stateMutability": "view",
      "type": "function"
    },
    {
      "inputs": [],
      "name": "MIN_GUIDED_POOL_REPUTATION",
      "outputs": [
        {
          "internalType": "uint256",
          "name": "",
          "type": "uint256"
        }
      ],
      "stateMutability": "view",
      "type": "function"
    },
    {
      "inputs": [],
      "name": "MIN_OPEN_POOL_REPUTATION",
      "outputs": [
        {
          "internalType": "uint256",
          "name": "",
          "type": "uint256"
        }
      ],
      "stateMutability": "view",
      "type": "function"
    },
    {
      "inputs": [],
      "name": "MIN_OUTCOME_PROPOSAL_REPUTATION",
      "outputs": [
        {
          "internalType": "uint256",
          "name": "",
          "type": "uint256"
        }
      ],
      "stateMutability": "view",
      "type": "function"
    },
    {
      "inputs": [],
      "name": "MIN_PREMIUM_FEATURES_REPUTATION",
      "outputs": [
        {
          "internalType": "uint256",
          "name": "",
          "type": "uint256"
        }
      ],
      "stateMutability": "view",
      "type": "function"
    },
    {
      "inputs": [
        {
          "internalType": "address",
          "name": "",
          "type": "address"
        },
        {
          "internalType": "string",
          "name": "",
          "type": "string"
        }
      ],
      "name": "actionCounts",
      "outputs": [
        {
          "internalType": "uint256",
          "name": "",
          "type": "uint256"
        }
      ],
      "stateMutability": "view",
      "type": "function"
    },
    {
      "inputs": [
        {
          "internalType": "address",
          "name": "",
          "type": "address"
        }
      ],
      "name": "authorizedContracts",
      "outputs": [
        {
          "internalType": "bool",
          "name": "",
          "type": "bool"
        }
      ],
      "stateMutability": "view",
      "type": "function"
    },
    {
      "inputs": [
        {
          "internalType": "address",
          "name": "",
          "type": "address"
        }
      ],
      "name": "authorizedUpdaters",
      "outputs": [
        {
          "internalType": "bool",
          "name": "",
          "type": "bool"
        }
      ],
      "stateMutability": "view",
      "type": "function"
    },
    {
      "inputs": [
        {
          "internalType": "address[]",
          "name": "users",
          "type": "address[]"
        },
        {
          "internalType": "uint256[]",
          "name": "reputations",
          "type": "uint256[]"
        }
      ],
      "name": "batchUpdateReputation",
      "outputs": [],
      "stateMutability": "nonpayable",
      "type": "function"
    },
    {
      "inputs": [
        {
          "internalType": "address",
          "name": "user",
          "type": "address"
        }
      ],
      "name": "canCreateGuidedPool",
      "outputs": [
        {
          "internalType": "bool",
          "name": "",
          "type": "bool"
        }
      ],
      "stateMutability": "view",
      "type": "function"
    },
    {
      "inputs": [
        {
          "internalType": "address",
          "name": "user",
          "type": "address"
        }
      ],
      "name": "canCreateOpenPool",
      "outputs": [
        {
          "internalType": "bool",
          "name": "",
          "type": "bool"
        }
      ],
      "stateMutability": "view",
      "type": "function"
    },
    {
      "inputs": [
        {
          "internalType": "address",
          "name": "user",
          "type": "address"
        }
      ],
      "name": "canProposeOutcome",
      "outputs": [
        {
          "internalType": "bool",
          "name": "",
          "type": "bool"
        }
      ],
      "stateMutability": "view",
      "type": "function"
    },
    {
      "inputs": [
        {
          "internalType": "address",
          "name": "user",
          "type": "address"
        }
      ],
      "name": "getReputationBundle",
      "outputs": [
        {
          "internalType": "uint256",
          "name": "reputation",
          "type": "uint256"
        },
        {
          "internalType": "bool",
          "name": "canCreateGuided",
          "type": "bool"
        },
        {
          "internalType": "bool",
          "name": "canCreateOpen",
          "type": "bool"
        },
        {
          "internalType": "bool",
          "name": "canPropose",
          "type": "bool"
        }
      ],
      "stateMutability": "view",
      "type": "function"
    },
    {
      "inputs": [],
      "name": "getReputationThresholds",
      "outputs": [
        {
          "internalType": "uint256",
          "name": "minGuided",
          "type": "uint256"
        },
        {
          "internalType": "uint256",
          "name": "minOpen",
          "type": "uint256"
        },
        {
          "internalType": "uint256",
          "name": "minProposal",
          "type": "uint256"
        },
        {
          "internalType": "uint256",
          "name": "minPremium",
          "type": "uint256"
        },
        {
          "internalType": "uint256",
          "name": "defaultRep",
          "type": "uint256"
        },
        {
          "internalType": "uint256",
          "name": "maxRep",
          "type": "uint256"
        }
      ],
      "stateMutability": "pure",
      "type": "function"
    },
    {
      "inputs": [
        {
          "internalType": "address",
          "name": "user",
          "type": "address"
        }
      ],
      "name": "getUserReputation",
      "outputs": [
        {
          "internalType": "uint256",
          "name": "",
          "type": "uint256"
        }
      ],
      "stateMutability": "view",
      "type": "function"
    },
    {
      "inputs": [
        {
          "internalType": "address",
          "name": "user",
          "type": "address"
        }
      ],
      "name": "getUserReputationData",
      "outputs": [
        {
          "internalType": "uint256",
          "name": "reputation",
          "type": "uint256"
        },
        {
          "internalType": "uint256",
          "name": "influenceScoreValue",
          "type": "uint256"
        },
        {
          "internalType": "uint256",
          "name": "socialEngagementValue",
          "type": "uint256"
        },
        {
          "internalType": "uint256",
          "name": "predictionStreakValue",
          "type": "uint256"
        },
        {
          "internalType": "uint256",
          "name": "longestStreakValue",
          "type": "uint256"
        },
        {
          "internalType": "bool",
          "name": "verified",
          "type": "bool"
        },
        {
          "internalType": "uint256",
          "name": "totalActionsCount",
          "type": "uint256"
        },
        {
          "internalType": "uint256",
          "name": "successfulActionsCount",
          "type": "uint256"
        },
        {
          "internalType": "uint256",
          "name": "successRate",
          "type": "uint256"
        }
      ],
      "stateMutability": "view",
      "type": "function"
    },
    {
      "inputs": [
        {
          "internalType": "address",
          "name": "",
          "type": "address"
        }
      ],
      "name": "influenceScore",
      "outputs": [
        {
          "internalType": "uint256",
          "name": "",
          "type": "uint256"
        }
      ],
      "stateMutability": "view",
      "type": "function"
    },
    {
      "inputs": [
        {
          "internalType": "address",
          "name": "caller",
          "type": "address"
        }
      ],
      "name": "isAuthorized",
      "outputs": [
        {
          "internalType": "bool",
          "name": "",
          "type": "bool"
        }
      ],
      "stateMutability": "view",
      "type": "function"
    },
    {
      "inputs": [
        {
          "internalType": "address",
          "name": "",
          "type": "address"
        }
      ],
      "name": "isVerifiedCreator",
      "outputs": [
        {
          "internalType": "bool",
          "name": "",
          "type": "bool"
        }
      ],
      "stateMutability": "view",
      "type": "function"
    },
    {
      "inputs": [
        {
          "internalType": "address",
          "name": "",
          "type": "address"
        }
      ],
      "name": "lastActionTime",
      "outputs": [
        {
          "internalType": "uint256",
          "name": "",
          "type": "uint256"
        }
      ],
      "stateMutability": "view",
      "type": "function"
    },
    {
      "inputs": [
        {
          "internalType": "address",
          "name": "",
          "type": "address"
        }
      ],
      "name": "longestStreak",
      "outputs": [
        {
          "internalType": "uint256",
          "name": "",
          "type": "uint256"
        }
      ],
      "stateMutability": "view",
      "type": "function"
    },
    {
      "inputs": [],
      "name": "owner",
      "outputs": [
        {
          "internalType": "address",
          "name": "",
          "type": "address"
        }
      ],
      "stateMutability": "view",
      "type": "function"
    },
    {
      "inputs": [
        {
          "internalType": "address",
          "name": "",
          "type": "address"
        }
      ],
      "name": "predictionStreak",
      "outputs": [
        {
          "internalType": "uint256",
          "name": "",
          "type": "uint256"
        }
      ],
      "stateMutability": "view",
      "type": "function"
    },
    {
      "inputs": [
        {
          "internalType": "address",
          "name": "user",
          "type": "address"
        },
        {
          "internalType": "enum ReputationSystem.ReputationAction",
          "name": "action",
          "type": "uint8"
        },
        {
          "internalType": "string",
          "name": "details",
          "type": "string"
        }
      ],
      "name": "recordReputationAction",
      "outputs": [],
      "stateMutability": "nonpayable",
      "type": "function"
    },
    {
      "inputs": [],
      "name": "renounceOwnership",
      "outputs": [],
      "stateMutability": "nonpayable",
      "type": "function"
    },
    {
      "inputs": [
        {
          "internalType": "enum ReputationSystem.ReputationAction",
          "name": "",
          "type": "uint8"
        }
      ],
      "name": "reputationPoints",
      "outputs": [
        {
          "internalType": "int256",
          "name": "",
          "type": "int256"
        }
      ],
      "stateMutability": "view",
      "type": "function"
    },
    {
      "inputs": [
        {
          "internalType": "address",
          "name": "contractAddr",
          "type": "address"
        },
        {
          "internalType": "bool",
          "name": "authorized",
          "type": "bool"
        }
      ],
      "name": "setAuthorizedContract",
      "outputs": [],
      "stateMutability": "nonpayable",
      "type": "function"
    },
    {
      "inputs": [
        {
          "internalType": "address",
          "name": "updater",
          "type": "address"
        },
        {
          "internalType": "bool",
          "name": "authorized",
          "type": "bool"
        }
      ],
      "name": "setAuthorizedUpdater",
      "outputs": [],
      "stateMutability": "nonpayable",
      "type": "function"
    },
    {
      "inputs": [
        {
          "internalType": "address",
          "name": "user",
          "type": "address"
        },
        {
          "internalType": "bool",
          "name": "verified",
          "type": "bool"
        }
      ],
      "name": "setUserVerified",
      "outputs": [],
      "stateMutability": "nonpayable",
      "type": "function"
    },
    {
      "inputs": [
        {
          "internalType": "address",
          "name": "",
          "type": "address"
        }
      ],
      "name": "socialEngagement",
      "outputs": [
        {
          "internalType": "uint256",
          "name": "",
          "type": "uint256"
        }
      ],
      "stateMutability": "view",
      "type": "function"
    },
    {
      "inputs": [
        {
          "internalType": "address",
          "name": "",
          "type": "address"
        }
      ],
      "name": "successfulActions",
      "outputs": [
        {
          "internalType": "uint256",
          "name": "",
          "type": "uint256"
        }
      ],
      "stateMutability": "view",
      "type": "function"
    },
    {
      "inputs": [
        {
          "internalType": "address",
          "name": "",
          "type": "address"
        }
      ],
      "name": "totalActions",
      "outputs": [
        {
          "internalType": "uint256",
          "name": "",
          "type": "uint256"
        }
      ],
      "stateMutability": "view",
      "type": "function"
    },
    {
      "inputs": [
        {
          "internalType": "address",
          "name": "newOwner",
          "type": "address"
        }
      ],
      "name": "transferOwnership",
      "outputs": [],
      "stateMutability": "nonpayable",
      "type": "function"
    },
    {
      "inputs": [
        {
          "internalType": "address",
          "name": "user",
          "type": "address"
        },
        {
          "internalType": "uint256",
          "name": "newReputation",
          "type": "uint256"
        }
      ],
      "name": "updateReputation",
      "outputs": [],
      "stateMutability": "nonpayable",
      "type": "function"
    },
    {
      "inputs": [
        {
          "internalType": "address",
          "name": "",
          "type": "address"
        }
      ],
      "name": "userReputation",
      "outputs": [
        {
          "internalType": "uint256",
          "name": "",
          "type": "uint256"
        }
      ],
      "stateMutability": "view",
      "type": "function"
    }
  ],
  "bytecode": "0x608060409080825234610186573315610170575060008054336001600160a01b0319821681178355600f9284929091906001600160a01b03167f8be0079c531659141344cd1fd0a4f28419497f9722a3daafe3b4186f6b6457e08380a3808052600d6020526004828220556001815260028282205560028152600382822055600381526008828220556004815282828220556005815260088282205560068152600e198282205560078152600c8282205560088152601319808383205560098252600a83832055600a8252600b1983832055600b8252600283832055600c825260001983832055600d8252600183832055600e8252600383832055838252603119838320556010825260631983832055601182526014838320556012825282822055601381526001828220556014815260038282205560158152600482822055601681526006828220556017815260088282205560188152600a8282205560198152205551611303908161018c8239f35b631e4fbdf760e01b815260006004820152602490fd5b600080fdfe608060408181526004918236101561001657600080fd5b600092833560e01c9182631ac9b58714610ecc5750816327f0bfd614610e9457816331bc3fca14610e5e578163350df23c14610e2657816338841bda14610e095781633e2cb90214610dc657816350dcf82714610dcb5781635b33f260146107a657816369ce34ab14610dc65781636a56e60f14610d4e578163715018a614610d06578163810a30ce14610bf75781638da5cb5b14610bcf5781638ff29cfe14610b9157816394f4c71e14610b1e57816398581e6e14610ac657816399fc65d414610a6e5781639c82b87e14610a365781639eb74fa0146107d55781639f98f9c8146107a6578163a61dd46e1461066e578163a75f78bb14610636578163ad8ce72414610631578163adc257e914610631578163baccbfdb14610604578163c7d67a90146105d2578163d213c0f2146105b5578163d5b9221b14610577578163de96303b1461053f578163e503bb0514610507578163f2fa7392146104a5578163f2fde38b14610430578163f5c91a08146102e7578163faef13ac146102af578163fbad6cf51461020c575063fe9fbb80146101b157600080fd5b3461020857602036600319011261020857602091906001600160a01b036101d6610f0b565b168252600b835260ff81832054169182156101f5575b50519015158152f35b600c84528190205460ff169150386101ec565b5080fd5b83833461020857602092836003193601126102ab57610229610f0b565b825163baccbfdb60e01b81526001600160a01b03909116918101919091528381602481305afa9283156102a057809361026a575b5050602890519110158152f35b909192508382813d8311610299575b6102838183610f42565b810103126102965750519060288461025d565b80fd5b503d610279565b8251903d90823e3d90fd5b8280fd5b5050346102085760203660031901126102085760209181906001600160a01b036102d7610f0b565b1681526002845220549051908152f35b9050346102ab57816003193601126102ab57610301610f0b565b60243591338552600b60205260ff8486205416801561041e575b610324906110db565b6103326101f4841115611118565b82151580610414575b61039c575060008051602061126e83398151915291606060a092600180851b031694858752600160205280872092808454945581519384526020840152820152600d60608201526c4d616e75616c2075706461746560981b6080820152a280f35b60a490602085519162461bcd60e51b8352820152604660248201527f43616e6e6f74207365742072657075746174696f6e2062656c6f772034302e2060448201527f557365203020746f20726573657420746f2064656661756c74206f72207365746064820152650203e3d2034360d41b6084820152fd5b506028831061033b565b50600c6020528385205460ff1661031b565b9050346102ab5760203660031901126102ab5761044b610f0b565b9061045461109e565b6001600160a01b0391821692831561048f57505082546001600160a01b03198116831784551660008051602061128e8339815191528380a380f35b51631e4fbdf760e01b8152908101849052602490fd5b505034610208577f9e332d211d74bf0f2703fcd38834004e77ced4c08da277cb45fb05e35ac5b28060206104d836610ff4565b906104e161109e565b60018060a01b031693848652600c83526104fd828288206110ca565b519015158152a280f35b5050346102085760203660031901126102085760209181906001600160a01b0361052f610f0b565b1681526001845220549051908152f35b5050346102085760203660031901126102085760209181906001600160a01b03610567610f0b565b1681526005845220549051908152f35b5050346102085760203660031901126102085760209160ff9082906001600160a01b036105a2610f0b565b168152600c855220541690519015158152f35b505034610208578160031936011261020857602090516101f48152f35b9050346102ab5760203660031901126102ab573591601a83101561029657506105fc60209261106f565b549051908152f35b5050346102085760203660031901126102085760209061062a610625610f0b565b6111bd565b9051908152f35b611053565b5050346102085760203660031901126102085760209181906001600160a01b0361065e610f0b565b1681526007845220549051908152f35b919050346102ab57806003193601126102ab576001600160401b039082358281116107a2576106a09036908501611023565b93909260243590811161079e576106ba9036908301611023565b90338752602092600b845260ff8589205416801561078d575b6106dc906110db565b8287036107525750865b8681106106f1578780f35b61070a6101f4610702838686611197565b351115611118565b610715818484611197565b3590610722818989611197565b356001600160a01b038116929083900361074e57610749928a5260018652868a2055611188565b6106e6565b8980fd5b845162461bcd60e51b81529081018490526015602482015274082e4e4c2f240d8cadccee8d040dad2e6dac2e8c6d605b1b6044820152606490fd5b50600c84528488205460ff166106d3565b8580fd5b8480fd5b505034610208576020366003190112610208576020906107cc6107c7610f0b565b6111f2565b90519015158152f35b919050346102ab5760603660031901126102ab576107f1610f0b565b9060243592601a8410156107a2576044356001600160401b03811161079e5761081d9036908301610f7b565b92338652602090600b825260ff84882054168015610a25575b61083f906110db565b6108488661106f565b546001600160a01b03909116808852600183528488205490969080610a1f57506028955b888313801561098b57838801958689116109785750869386936060969360a0998d8d9560008051602061126e8339815191529d9b986101f480911161096f575b5091608093916000805160206112ae8339815191529695935b88825260018a528a8383205560078a528282206108e28154611188565b9055888252600a8a524283832055610957575b5051938492835287830152898983015261091c81518092818d860152898686019101610fd1565b601f01601f19168101030190a28251948552840152820152600f60608201526e1058dd1a5bdb881c9958dbdc991959608a1b6080820152a280f35b60088952206109668154611188565b9055888f6108f5565b985060806108ac565b634e487b7160e01b8b526011905260248afd5b94888a61099786611161565b8a106109e85750506109a884611161565b88039088821161097857506000805160206112ae8339815191528794608060008051602061126e8339815191529a98956060989560a09b8f8f97996108c5565b6000805160206112ae83398151915291925094608060008051602061126e8339815191529a9895606098958b8960a09d9a996108c5565b9561086c565b50600c82528387205460ff16610836565b5050346102085760203660031901126102085760209181906001600160a01b03610a5e610f0b565b1681526008845220549051908152f35b505034610208577f0b820fe6cf998498ff3199cab21fb6482c7a422cbdf4ea7e8f1d3904058899856020610aa136610ff4565b90610aaa61109e565b60018060a01b031693848652600b83526104fd828288206110ca565b505034610208577f34736af44d2b91cd43fa896d4cfe0861ec1e6b4538583d385fc671639e9153b26020610af936610ff4565b90610b0261109e565b60018060a01b031693848652600683526104fd828288206110ca565b5050346102085760203660031901126102085780608092610b3d610f0b565b6001600160a01b031681526001602052205480610b7957506028905b606482101581602882935194808652101560208501528301526060820152f35b6028811015610b8b5750602890610b59565b90610b59565b5050346102085760203660031901126102085760209160ff9082906001600160a01b03610bbc610f0b565b168152600b855220541690519015158152f35b505034610208578160031936011261020857905490516001600160a01b039091168152602090f35b8284346102965760209081600319360112610296576001600160a01b03610c1c610f0b565b168152600182528281205480610d0057506028925b6002835280822054906003845280832054868552818420546005865282852054916006875260ff8487205416936007885280872054956008895281882054978715908115600014610cf35760648a02918a83046064148b151715610cdf57610ccc57506101209b50879004985b82519a8b528a015288015260608701526080860152151560a085015260c084015260e0830152610100820152f35b634e487b7160e01b815260128d52602490fd5b50634e487b7160e01b815260118d52602490fd5b90506101209b5098610c9e565b92610c31565b8334610296578060031936011261029657610d1f61109e565b80546001600160a01b03198116825581906001600160a01b031660008051602061128e8339815191528280a380f35b9050346102ab57816003193601126102ab57610d68610f0b565b906024356001600160401b0381116107a2579183602095610d908794610db596369101610f7b565b6001600160a01b03909316815260098452208451825190948593829085908701610fd1565b820190815203019020549051908152f35b610f26565b5050346102085760203660031901126102085760209160ff9082906001600160a01b03610df6610f0b565b1681526006855220541690519015158152f35b5050346102085781600319360112610208576020905161012c8152f35b5050346102085760203660031901126102085760209181906001600160a01b03610e4e610f0b565b1681526003845220549051908152f35b9050346102ab5760203660031901126102ab5760209282916001600160a01b03610e86610f0b565b168252845220549051908152f35b5050346102085760203660031901126102085760209181906001600160a01b03610ebc610f0b565b168152600a845220549051908152f35b8390853461029657806003193601126102965750606460c0926028835281602084015282015261012c6060820152602860808201526101f460a0820152f35b600435906001600160a01b0382168203610f2157565b600080fd5b34610f21576000366003190112610f2157602060405160288152f35b601f909101601f19168101906001600160401b03821190821017610f6557604052565b634e487b7160e01b600052604160045260246000fd5b81601f82011215610f21578035906001600160401b038211610f655760405192610faf601f8401601f191660200185610f42565b82845260208383010111610f2157816000926020809301838601378301015290565b60005b838110610fe45750506000910152565b8181015183820152602001610fd4565b6040906003190112610f21576004356001600160a01b0381168103610f2157906024358015158103610f215790565b9181601f84011215610f21578235916001600160401b038311610f21576020808501948460051b010111610f2157565b34610f21576000366003190112610f2157602060405160648152f35b601a81101561108857600052600d602052604060002090565b634e487b7160e01b600052602160045260246000fd5b6000546001600160a01b031633036110b257565b60405163118cdaa760e01b8152336004820152602490fd5b9060ff801983541691151516179055565b156110e257565b60405162461bcd60e51b815260206004820152600e60248201526d139bdd08185d5d1a1bdc9a5e995960921b6044820152606490fd5b1561111f57565b60405162461bcd60e51b815260206004820152601a60248201527952657075746174696f6e2065786365656473206d6178696d756d60301b6044820152606490fd5b600160ff1b81146111725760000390565b634e487b7160e01b600052601160045260246000fd5b60001981146111725760010190565b91908110156111a75760051b0190565b634e487b7160e01b600052603260045260246000fd5b6001600160a01b0316600090815260016020526040902054806111e05750602890565b60288110156111ef5750602890565b90565b60405163baccbfdb60e01b81526001600160a01b039091166004820152602081602481305afa80156112615760009061122f575b60649150101590565b6020823d8211611259575b8161124760209383610f42565b81010312610296575060649051611226565b3d915061123a565b6040513d6000823e3d90fdfe4146a620f234be49686701963664655b5fb451997f8462f773d272d68f17043f8be0079c531659141344cd1fd0a4f28419497f9722a3daafe3b4186f6b6457e0e183bf4de186bdc9462a8619f83cdadf9fdb7eaf27962551a46b263e5bc8fc02a2646970667358221220f2aa03ce6481b02549c5c4138a831453d9e5a60e70b5c4ff27189e46a5b4670964736f6c63430008140033",
  "linkReferences": {},
  "deployedLinkReferences": {}
}